:100000000C9427180C9448180C9448180C94481811
:100010000C9448180C9448180C9448180C944818E0
:100020000C9448180C9448180C9448180C944818D0
:100030000C9448180C94F3270C9448180C94481806
:100040000C9448180C94971C0C94C0250C944818D8
:100050000C9448180C94C1270C9448180C94481818
:100060000C9448180C941E390C9472390C9448392D
:100070000C9448180C9448180C9448180C94481880
:100080000C9448180C9448180C9448180C94481870
:100090000C949C390C94F0390C94C6390C94481883
:1000A0000C9448180C9448180C9427280C94481861
:1000B0000C9448180C9448180C9448180C94481840
:1000C0000C9448180C9448180C9448180C946A3AEC
:1000D0000C941A3A0C94423A0C9448180C94481810
:1000E0000C944818924FB84FC94FDC4F924FB84FFD
:1000F0001C4FF04F005010502350F04F005036501E
:1001000036501C4F1C4F1C4F1C4F1C4F1C4F1C4F7C
:100110001C4F1C4F1C4F1C4F1C4F1C4F1C4F44505E
:1001200052506150725062538153A253C55362536F
:1001300081532453EA53085427544954EA5308542A
:100140006C546C5424537454ED52AB54E2547454B4
:10015000ED522453245324531F5549551F554955D7
:1001600062538153735584559B5540537B587B583C
:10017000325832587B587B583E577B587B58325800
:1001800032587B587B580E580E583E57F657F65744
:10019000F657F657F657F6573E573E573E57F6571F
:1001A000F657F657F657D857D857BB57BB5783570C
:1001B0008357635B5A5B525B475B415B385B2F5BEA
:1001C000295B215B1B5B135B0D5B055B295B0D5B97
:1001D000FC5AF55AEE5AE75AE05AD95AD25AF55A09
:1001E000D95AC95AC25AB45AAD5A9F5A7F5A8E5ACE
:1001F000585A0B5A535A455AB962AB629F62C4604F
:10020000F760EF6222619162856277626B625D6284
:10021000516243625D603762296211621D62006251
:10022000ED61DC61C861B761A6619161876176614A
:100230006A615C6150614261AD649F64936454641F
:10024000D463C663B463A9638E634C639C633963F0
:10025000236317630963FD62A9655D605D606B657B
:1002600061650A65FC64DB64C464B9643D66D86595
:10027000C765BB654E6608661F6634610561F96D2A
:10028000006EEC6DF36DE26DE86DD56DDB6D076EA4
:10029000D16DB96D8B6E736E676E4F6E336E0F6E70
:1002A0006E616E00696E66006364696E6F7073756F
:1002B00078585B65666745464700616E006E666903
:1002C0006E69747900CDCCCC3D0AD7233C17B7D1E9
:1002D0003877CC2B329595E6241FB14F0A000020C9
:1002E000410000C84200401C4620BCBE4CCA1B0E48
:1002F0005AAEC59D74001F1C1F1E1F1E1F1F1E1FF0
:100300001E1F6C072000F40920000F0B0400F307E8
:1003100050004203FFA001FBCF007D67003F440077
:100320002A33001F22001B19001B10001B53494DCC
:10033000434F4D5F53494D393030520053494D437F
:100340004F4D5F53494D3830300053494D434F4D69
:100350005F53494D3830304300524459002B4346D7
:10036000554E3A2031002B4350494E3A20524541D8
:1003700044590043616C6C20526561647900534DAF
:10038000532052656164790052454D4F54452049D0
:100390005000434F4E4E454354002B524543454970
:1003A00056452C002C20434C4F534544002B5044C1
:1003B00050204445414354004E4F2043415252493E
:1003C0004552004F4B00434F4E4E45435400782C4E
:1003D00020434F4E4E454354204F4B0053455256F9
:1003E0004552204F4B0053455256455220434C4FE7
:1003F0005345003E00782C2053454E44204F4B007F
:10040000434C4F5345204F4B00782C20434C4F53C7
:1004100045204F4B002B4353513A0053485554202D
:100420004F4B002B2B2B004944454E544946494322
:100430004154494F4E0041540041542B4950523DC4
:100440003936303000415426570041544530004180
:10045000542B434C43433D310041542B44444554B9
:100460003D312C302C310041542B43474D4D004140
:10047000542B434349440041542B4946433D322CBD
:1004800032004154442A313031230041542B43552A
:1004900053443D312C220041542B434D47463D31BE
:1004A0000041542B43534D503D31372C3136372CBE
:1004B000302C300041542B434D47533D222B0041FB
:1004C000542B4349504D4F44453D300041542B433C
:1004D00049504D4F44453D310041542B4349504D07
:1004E00055583D300041542B4349504D55583D31EE
:1004F0000041542B43474154543D310041542B4358
:100500004950435347503D312C220041542B435313
:1005100054540041542B43494943520041542B4306
:10052000494653520041542B434950544B413D31AD
:100530002C33302C33302C310041542B4349505351
:10054000544152543D22554450222C0041542B43D7
:10055000495053544152543D22544350222C00419F
:10056000542B4349505345525645523D312C00417E
:10057000542B4349505345525645523D3000415447
:100580002B43495053454E443D0041542B43495061
:10059000434C4F53453D782C310041542B43495037
:1005A000434C4F53453D310041542B434950534830
:1005B00055540041542B43474154543D300041545D
:1005C0002B4353510041544F0030313233343536D0
:1005D0003738396162636465666768696A6B6C6D38
:1005E0006E6F707172737475767778797A41424361
:1005F0004445464748494A4B4C4D4E4F5051525343
:100600005455565758595AE0E1E2E3E4E5B8BAE6E2
:10061000E7E8B3BFE9EAEBECEDEEEFF0F1F2F3F46B
:10062000F5F6F7F8F9FAFBFCFDFEFFC0C1C2C3C442
:10063000C5A8AAC6C7C8B2AFC9CACBCCCDCECFD089
:10064000D1D2D3D4D5D6D7D8D9DADBDCDDDEDF20E2
:100650002B2D3D3C3E2425262E2C3F2127403A2899
:1006600029227C2A232F0030313233343536373873
:10067000390030313233343536373839652B2D2E49
:1006800000000000000000000000000CFE08070C45
:10069000FE08070CFE70170CFE70170CFE70170C8E
:1006A000FE70170CFE08070000000030F8E02E7006
:1006B00017504630F84C1D30F87017D1E1EEE920A4
:1006C00000CDEEF0ECE000EDE5F22000EDEEF0EC18
:1006D00000C706CC06F0E0E7EC00E7E0ECEA00D566
:1006E00006DA06ED2EE72E00ED2EF02E00E306E8EA
:1006F00006E2FBEAEB00E2EAEB2000F106F6060771
:10070000660700000007D90800000007AE060000D9
:1007100000202D2D2D20414443206572726F72738D
:10072000202D2D2D200000000000000020526561CA
:1007300064206661696C3A202020207B7B7B7B7B78
:1007400000FF06000000002043616C6962722066B1
:1007500061696C3A20207B7B7B7B7B000507000076
:1007600000002043616C69627220627265616B3ABD
:10077000207B7B7B7B7B000B0700000000110704C4
:100780000300000000000000000000000000000066
:10079000001D180B0B240000AA0600000000C00872
:1007A00000000020D0E5E6E8EC3A207B7B7B7B7BF9
:1007B0007B7B7B7B7B7B7B0091070000000020C262
:1007C000F0E5ECFF3A7B7B30ECF120CAE0EDE0EBAA
:1007D0003A7B00970700000000202D20CAE0EDE0E2
:1007E000EBFB202D202020202020202020000000B6
:1007F00000002C23202D20CAE0EBE8E1F0EEE2EA35
:10080000E0202D20202020200000000000D0232008
:100810002D20CEF8E8E1EAE8202D2020202020201D
:1008200020202000000000007D07A3070502000033
:100830000000000000000000000000000000205F39
:100840005F5F5F5F5F5F5F5F5F5F5F5F5F5F5F5FB8
:100850005F2000000020496E7465726E616C206537
:1008600072726F722032313A200000002020202066
:100870002020414443206F66662020202020202035
:1008800000000020202020202020202020202020C8
:100890002020202020202000000000000000000078
:1008A00020202078202020002D2D2D2D2D2D2D00D5
:1008B000A008A808CEF2EAEB2E00D2D1CC3130301D
:1008C00000D2D1CC353000D2D1CF31303000D2D1AE
:1008D000CF353000507431303000C3F0323100C3B6
:1008E000F0323300B408BA08C108C708CE08D408EB
:1008F000DA08DF085458410054CFD00054C6CA006B
:100900005458CA00B408F408F808FC080009EDE5DA
:10091000F200F7E5F2EDFBE900EDE5F7E5F2EDFBBE
:10092000E9000E0912091909313230300032343031
:100930003000343830300039363030003134343023
:10094000300031393230300032383830300033380E
:100950003430300035373630300028092D0932095F
:1009600037093C09420948094E0954091E04000090
:1009700000000002000000CC6B220900010500010C
:1009800000000002000000CC6B0000001E0600000A
:1009900000000008000000556B5A09000BE4080035
:1009A00000000BEC080000000BE6080000000BEE56
:1009B000080000000BE8080000000BF00800000031
:1009C0000BEA080000000BF2080000004350313A27
:1009D0007B7B7B7B7B20204350353A7B7B7B7B7B07
:1009E000009C09000000004350323A7B7B7B7B7BFC
:1009F00020204350363A7B7B7B7B7B00A80900009C
:100A000000004350333A7B7B7B7B7B202043503775
:100A10003A7B7B7B7B7B00B40900000000435034B1
:100A20003A7B7B7B7B7B20204350383A7B7B7B7BF4
:100A30007B00C00900000000CC0904030000000096
:100A4000000000001B3F000000000000202D2D2DA5
:100A50002D204D6F646275732030202D2D2D2D209B
:100A60000000000000000020D1F7E5F2F7E8EAE816
:100A70002028F1E1F0EEF13A2D3E290000000000BF
:100A8000380A20CFE0F0E8F2E5F23A207D7D7D7D66
:100A90007D7D7D7D20200000006C09000020D1F2CA
:100AA000EEEF2DE1E8F2FB3A207D202020202020EF
:100AB000200000007C09000020424155443A207D7E
:100AC0007D7D7D7D62707320202020200000008CC1
:100AD0000900004C0A0501000000000000000000B1
:100AE00000000000000000204D6F6462757320302C
:100AF0002020202020202020202020000000000096
:100B0000D30A202020205820202020202020202010
:100B100020202020202000000000000000202020B5
:100B2000205820202020202020202020202020208D
:100B3000200000000000000020202020582020205D
:100B40002020202020202020202020200000000025
:100B5000000000E70A0400000000000000000000A0
:100B600000000000000000CDE5F200C4E000670BCB
:100B70006B0B1E0300000000000100000000006E6F
:100B80000B00004E06000000040D0B010000001FCA
:100B9000000000FF22000000047B07010000000CA1
:100BA000000000092300000004D5050000000063D8
:100BB000000000132300000004B805000000001727
:100BC000000000F522000000044806000000003B81
:100BD000000000EB2200000004AD06000000003B16
:100BE000000000E1220000006175746F2020006D9C
:100BF000616E75616C00636F6E66696700E80BEF8C
:100C00000BF60B6E6F74207265636F670053494D6E
:100C10003930305220200053494D383030202020C8
:100C200000030C0D0C170C1DEA06210C0000AC068D
:100C300000000000AC060000001D8007000000005E
:100C4000020000002A3FFD0B0000DF08000000004A
:100C5000E00800000000E10800000000E2080000D9
:100C60000000F80A00000000F90A00000000FA0A7B
:100C700000000000FB0A00000000D002000000009D
:100C8000C708000000220900000000000600000064
:100C90000000000000221D0000000000060000000F
:100CA00000000000002259000000000006000000C3
:100CB0000000000000226D0000000000060000009F
:100CC000000000000001810000000000FF000000A3
:100CD000000000000001820000000000FF00000092
:100CE000000000000001830000000000FF00000081
:100CF000000000000001840000000000FF00000070
:100D0000000000000001850000000000FF0000005E
:100D1000000000000001860000000000FF0000004D
:100D2000000000000001870000000000FF0000003C
:100D3000000000000001880000000000FF0000002B
:100D4000000000000001890000000000FF0000001A
:100D50000000000000018A0000000000FF00000009
:100D60000000000000018B0000000000FF000000F8
:100D70000000000000018C0000000000FF000000E7
:100D80000000000000018D0000000000FF000000D6
:100D90000000000000018E0000000000FF000000C5
:100DA0000000000000018F0000000000FF000000B4
:100DB000000000000001900000000000FF000000A3
:100DC000000000000008A10000000000FFFF00007C
:100DD000000000000008A30000000000FFFF00006A
:100DE000000000000008A50000000000FFFF000058
:100DF000000000000008A70000000000FFFF000046
:100E0000000000000001B30000000000FF0000002F
:100E1000000000000001B40000000000FF0000001E
:100E2000000000000001B50000000000FF0000000D
:100E3000000000000001B60000000000FF000000FC
:100E4000000000000001B70000000000FF000000EB
:100E5000000000000001B80000000000FF000000DA
:100E6000000000000001B90000000000FF000000C9
:100E7000000000000001BA0000000000FF000000B8
:100E8000000000000001BB0000000000FF000000A7
:100E9000000000000001BC0000000000FF00000096
:100EA000000000000001BD0000000000FF00000085
:100EB000000000000001BE0000000000FF00000074
:100EC000000000000001BF0000000000FF00000063
:100ED000000000000001C00000000000FF00000052
:100EE000000000000001C10000000000FF00000041
:100EF000000000000001C20000000000FF00000030
:100F0000000000000008B10000000000FFFF00002A
:100F1000000000000008C30064000000FFFF0000A4
:100F200000000000020113010000000001000000A9
:100F3000000000000008070000000000FFFF0000A4
:100F4000000000000020CCEEE4E5EC207B7B7B7B06
:100F50007B7B7B7B7B207B7B7B00270C0000000066
:100F600020436F6E74726F6C206D6F64653A7D7D87
:100F70007D7D7D7D000000390C0000204D794950B9
:100F80007B7B7B2E7B7B7B2E7B7B7B2E7B7B7B0013
:100F9000490C0000000020436C49507B7B7B2E7B7A
:100FA0007B7B2E7B7B7B2E7B7B7B00610C000000A0
:100FB000002041637469766520636F6E65637469B0
:100FC0006F6E7B7B7B00790C000000002046494659
:100FD0004F3A6D6178207B7B2F37306279746520C2
:100FE000007F0C00000000202D2D2D2D2D2D2D41DA
:100FF000504E2D2D2D2D2D2D2D2D2D0000000000BE
:101000000000207D7D7D7D7D7D7D7D7D7D7D7D7D67
:101010007D7D7D7D7D7D000000850C0000207D7D37
:101020007D7D7D7D7D7D7D7D7D7D7D7D7D7D7D7DF0
:101030007D000000950C0000202D2D2D41504E2DDF
:1010400055534552204E414D452D2D2D0000000099
:10105000000000207D7D7D7D7D7D7D7D7D7D7D7D94
:101060007D7D7D7D7D7D7D000000A50C0000202D17
:101070002D2D41504E2D50415353574F52442D2D3D
:101080002D2D00000000000000207D7D7D7D7D7DF8
:101090007D7D7D7D7D7D7D7D7D7D7D7D7D000000F7
:1010A000B50C0000202D2D53656E64205544502052
:1010B000746F2049502D2D2D0000000000000020ED
:1010C0004950313A7D7D7D2E7D7D7D2E7D7D7D2E2D
:1010D0007D7D7D000000C50C0000204950323A7D26
:1010E0007D7D2E7D7D7D2E7D7D7D2E7D7D7D000017
:1010F00000050D0000204950333A7D7D7D2E7D7D19
:101100007D2E7D7D7D2E7D7D7D000000450D0000C6
:10111000204950343A7D7D7D2E7D7D7D2E7D7D7DE7
:101120002E7D7D7D000000850D0000202D2D2D2DB4
:101130002055445020506F7274202D2D2D2D2D00E0
:101140000000000000002049503120506F72743AB6
:101150007D7D7D7D7D2020202020000000C50D00AC
:10116000002049503220506F72743A7D7D7D7D7D24
:101170002020202020000000D50D00002049503301
:1011800020506F72743A7D7D7D7D7D20202020204F
:10119000000000E50D00002049503420506F7274AB
:1011A0003A7D7D7D7D7D2020202020000000F50DF2
:1011B0000000202D2054435020495020466972657C
:1011C00077616C6C2D2D000000000000002049505C
:1011D000313A7D7D7D2E7D7D7D2E7D7D7D2E7D7DBB
:1011E0007D000000050E0000204950323A7D7D7DD3
:1011F0002E7D7D7D2E7D7D7D2E7D7D7D00000045BB
:101200000E0000204950333A7D7D7D2E7D7D7D2E60
:101210007D7D7D2E7D7D7D000000850E00002049B6
:1012200050343A7D7D7D2E7D7D7D2E7D7D7D2E7D94
:101230007D7D000000C50E000020544350536572B0
:10124000766572506F72743A7D7D7D7D7D00000001
:10125000050F00002054696D656F7574205443506C
:101260003A7D7D7D7D7D7D63000000150F000020AF
:101270002D2D2D2D2D2D2D20534D53202D2D2D2D4C
:101280002D2D2D0000000000000020D0E0F1F1FB2A
:10129000EBEAE020534D533A2020207D7D7D000075
:1012A00000250F0000202D2D4964656E7469666964
:1012B000636174696F6E2D2D2D0000000000000029
:1012C000205665676120532F4E3A20202020207D34
:1012D0007D7D7D7D000000350F0000450F22000060
:1012E000000000000000000000000000000000C13D
:1012F00006BB061FC508EF12001FC508EF1201202C
:1013000020202020202020202020202020202020DD
:1013100020202000000020CFE5F0E5E420EFF0EEF3
:10132000E4EEEBE6E5EDE8E5EC20000000F0E0E1BE
:10133000EEF2FB20EFF0EEE2E5F0FCF2E520E2F168
:10134000E5000000202020202020EDE0F1F2F0EE6A
:10135000E9EAE82020202020000000000000000032
:10136000002020202020202020202020202020209D
:101370002020202020000000D1EEF5F0E0EDB8EDB7
:10138000EDFBF520EDE0F1F2F0EEE5EA00000020E3
:10139000202020EDE520EEE1EDE0F0F3E6E5EDEED6
:1013A000202020000000202020202020202020209D
:1013B00020202020202020202020000000000000ED
:1013C000000000D1EEF5F0E0EDE8F2FC20EDE0F1F8
:1013D000F2F0EEE9EAE83F00000000000000202003
:1013E00020C4E0202D20EAEDEEEFEAE020C2D5CEC9
:1013F000C420000000000000002020CDE5F2202DD8
:1014000020EAEDEEEFEAE020C2DBD5CEC40000001A
:10141000000000002020202020202020202020204C
:10142000202020202020202000000000000000C3F9
:101430001304030000000000000000453F0000000E
:10144000000000C2EEF1F2E0EDEEE22E20EDE0F160
:10145000F2F0EEE9EAE83F00000000000000202082
:1014600020C4E0202D20EAEDEEEFEAE020C2D5CE48
:10147000C420000000000000002020CDE5F2202D57
:1014800020EAEDEEEFEAE020C2DBD5CEC40000009A
:1014900000000000202020202020202020202020CC
:1014A00020202020202020200000000000000043F9
:1014B00014040300000000000000003A3F00000098
:1014C0000000002D2D00C314050000C61400050106
:1014D00000C61400050200C61400D3F1F2ED2FD0AF
:1014E000E5E7E5F0E2EDE0FF20EAEEEFE8FF0000DF
:1014F000000000000020D1EEF5F0E0EDE8F2FC2065
:1015000020202020202020202000000000002F1478
:1015100020C2EEF1F2E0EDEEE23A7B7B2E7B7B2EF9
:1015200032307B7B00C8140000000020D1EEF1F2C5
:101530002E454550524F4D3A207B7B7B7B7B2000D4
:10154000F91200000000DA1404010000000000009D
:101550000000DA6F000000000000202D2D2D2D2D41
:10156000204D656D6F7279202D2D2D2D2D200000C1
:10157000000000000020466C6173683A20207B7BED
:101580007B7B7B20202020202000F3120000000025
:1015900020454550524F4D3A207B7B7B7B7B202062
:1015A0002020202000F91200000000205265736501
:1015B0007420454550524F4D206661696C202000D3
:1015C000000000000000204261636B55702045451B
:1015D00050524F4D202020202020000000000046C7
:1015E000155A1505010000000000000000C04A0067
:1015F0000000000000205F5F5F5F5F5F5F5F5F5F15
:101600005F5F5F5F5F5F5F5F2000000020496E7477
:1016100065726E616C206572726F722031313A2092
:101620000000002020202020466C61736820666145
:10163000696C202020202000000020202020202075
:1016400020202020202020202020202020200000DA
:1016500000000000000000205F5F5F5F5F5F5F5F72
:101660005F5F5F5F5F5F5F5F5F5F2000000020493B
:101670006E7465726E616C206572726F72203132A9
:101680003A2000000020202020454550524F4D2098
:101690006661696C2020202020000000202020208E
:1016A000202020202020202020202020202020203A
:1016B000000000000000000000205F5F5F5F5F5FD0
:1016C0005F5F5F5F5F5F5F5F5F5F5F5F2000000086
:1016D00020496E7465726E616C206572726F722043
:1016E00031333A2000000020546F74616C206D6526
:1016F0006D6F7279206661696C20200000002020E7
:1017000020202020202020202020202020202020D9
:1017100020200000000000000000000000F5155728
:1017200016B916006007000000077D0700000000E2
:10173000A806000000202D2D2D205363616E20434C
:1017400079636C65202D2D2D200000000000000025
:10175000205363616E4379636C653A2020207B7B64
:101760007B306D7300231700000000205363616E0F
:101770004379636C5065725365633A7B7B7B7B0076
:10178000291700000000204D61785363616E437992
:10179000636C653A7B7B7B306D73002F1700000014
:1017A000003517040100000000000000002E3F007B
:1017B00000000000000B190C00000004A706000048
:1017C00000313020F1E5EA00333020F1E5EA003164
:1017D00020ECE8ED20003320ECE8ED200031302053
:1017E000ECE8ED00C117C817CF17D617DD171E316B
:1017F0000100000000040000000000E41700082FB2
:101800000100000000FF030000000000000010ECD9
:1018100006000000202D20D1EBF3E6E5E1EDEEE53A
:1018200020ECE5EDFE202D2000000000000000204F
:10183000C4E8F1EAF0E5F2EDFBE520E2F5EEE4FBC9
:101840002020200000000000331E20C4E8F1EAF050
:10185000E5F2EDFBE520E2FBF5EEE4FB20200000E5
:10186000000000F72020C0EDE0EBEEE3EEE2FBE548
:1018700020E2F5EEE4FB2020200000000000A7217C
:1018800020C0EDE0EBEEE3EEE2FBE520E2FBF5EE5F
:10189000E4FB20200000000000672220C0D6CF20FB
:1018A0002020202020202020202020202020200058
:1018B000000000002A0820D2E5F0ECEEE4E0F2F7A8
:1018C000E8EAE8202020202020200000000000FB83
:1018D00028204D6F64627573202020202020202056
:1018E00020202020200000000000530B20CCEEE43C
:1018F000E5EC202020202020202020202020202057
:101900000000000000DB12207B207D7D2E7D7D2EDF
:101910007D7D207D7D3A7D7D3A7D7D00820B880B2B
:10192000000020C0E2F2EECFE5F0E5F5CBE5F2ED08
:10193000C2F03A7D7D7D000000720B000020CDE0FA
:10194000F0E0E1EEF2EAE03A7B7B7B7B7BF77B7BAE
:10195000EC00B5170000000020D1EEF1F2EEFFED33
:10196000E8E520EFE0ECFFF2E82020200000000096
:1019700000E115205363616E204379636C653A2062
:10198000207B7B7B306D730023170000A11720CFD5
:10199000EEF0EEE320E8EEEDEEE42E3A20207D7D41
:1019A0007D7D000000FE17000020CFEEE4F1E2E5AF
:1019B000F2EAE0C6CAC83A7D7D7D7D7D7D000000EB
:1019C000EE17000020D1F7B8F22EDDCCCD3A7B7BAC
:1019D0007B7B7B7B7B7B7B7B000E180000000014F5
:1019E00018110100000000000000000000000000CD
:1019F000000000205F5F5F5F5F5F5F5F5F5F5F5F53
:101A00005F5F5F5F5F5F2000000020496E7465725A
:101A10006E616C206572726F722034313A20000062
:101A20000054696D657220616C6C6F636174696FDD
:101A30006E206572720000002020202020202020CF
:101A40002020202020202020202020200000000016
:101A500000000000001FF206DF06001FF806D10696
:101A6000001FF206DF06011FF806D106011FF2066D
:101A7000DF06021FF806D106021FF206DF06031F6B
:101A8000F806D106031FF206DF06041FF806D1068A
:101A9000041FF206DF06051FF806D106051FF20631
:101AA000DF06061FF806D106061FF206DF06071F2F
:101AB000F806D106071FF206DF06081FF806D10652
:101AC000081FF206DF06091FF806D106091FF206F5
:101AD000DF060A1FF806D1060A1FF206DF060B1FF3
:101AE000F806D1060B1FF206DF060C1FF806D1061A
:101AF0000C1FF206DF060D1FF806D1060D1FF206B9
:101B0000DF060E1FF806D1060E1FF206DF060F1FB6
:101B1000F806D1060F1FF206DF06101FF806D106E1
:101B2000101FF206DF06111FF806D106112014015E
:101B300000000000000000000000ED06002014017D
:101B400000000000000000000000ED06012014016C
:101B500000000000000000000000ED06022014015B
:101B600000000000000000000000ED06032014014A
:101B700000000000000000000000ED060420140139
:101B800000000000000000000000ED060520140128
:101B900000000000000000000000ED060620140117
:101BA00000000000000000000000ED060720140106
:101BB00000000000000000000000ED0608201401F5
:101BC00000000000000000000000ED0609201401E4
:101BD00000000000000000000000ED060A201401D3
:101BE00000000000000000000000ED060B201401C2
:101BF00000000000000000000000ED060C201401B1
:101C000000000000000000000000ED060D2014019F
:101C100000000000000000000000ED060E2014018E
:101C200000000000000000000000ED060F2014017D
:101C300000000000000000000000ED06102014016C
:101C400000000000000000000000ED0611204E31F1
:101C50003A20207B7B7B7B207D7D7D7D207B7B7B79
:101C60007B00551A2D1B0000204E323A20207B7B32
:101C70007B7B207D7D7D7D207B7B7B7B00611A3D96
:101C80001B0000204E333A20207B7B7B7B207D7D18
:101C90007D7D207B7B7B7B006D1A4D1B0000204EE1
:101CA000343A20207B7B7B7B207D7D7D7D207B7B70
:101CB0007B7B00791A5D1B0000204E353A20207B8B
:101CC0007B7B7B207D7D7D7D207B7B7B7B00851AE4
:101CD0006D1B0000204E363A20207B7B7B7B207DD5
:101CE0007D7D7D207B7B7B7B00911A7D1B0000200E
:101CF0004E373A20207B7B7B7B207D7D7D7D207B4A
:101D00007B7B7B009D1A8D1B0000204E383A2020E3
:101D10007B7B7B7B207D7D7D7D207B7B7B7B00A90E
:101D20001A9D1B0000204E393A20207B7B7B7B20B4
:101D30007D7D7D7D207B7B7B7B00B51AAD1B00000C
:101D4000204E31303A207B7B7B7B207D7D7D7D204A
:101D50007B7B7B7B00C11ABD1B0000204E31313ADA
:101D6000207B7B7B7B207D7D7D7D207B7B7B7B0047
:101D7000CD1ACD1B0000204E31323A207B7B7B7B7D
:101D8000207D7D7D7D207B7B7B7B00D91ADD1B0048
:101D900000204E31333A207B7B7B7B207D7D7D7D17
:101DA000207B7B7B7B00E51AED1B0000204E31344D
:101DB0003A207B7B7B7B207D7D7D7D207B7B7B7BBD
:101DC00000F11AFD1B0000204E31353A207B7B7B51
:101DD0007B207D7D7D7D207B7B7B7B00FD1A0D1C28
:101DE0000000204E31363A207B7B7B7B207D7D7D41
:101DF0007D207B7B7B7B00091B1D1C0000204E315E
:101E0000373A207B7B7B7B207D7D7D7D207B7B7BB0
:101E10007B00151B2D1C0000204E31383A207B7BA7
:101E20007B7B207D7D7D7D207B7B7B7B00211B3D23
:101E30001C00004D1C12000000000000000000000B
:101E4000000000000000001F8D07000000000000DF
:101E500000000000FB06001F8D07000000000000CE
:101E600000000000FB06011F8D07000000000000BD
:101E700000000000FB06021F8D07000000000000AC
:101E800000000000FB06031F8D070000000000009B
:101E900000000000FB06041F8D070000000000008A
:101EA00000000000FB06051F8D0700000000000079
:101EB00000000000FB06061F8D0700000000000068
:101EC00000000000FB06071F8D0700000000000057
:101ED00000000000FB06081F8D0700000000000046
:101EE00000000000FB06091F8D0700000000000035
:101EF00000000000FB060A1F8D0700000000000024
:101F000000000000FB060B1F8D0700000000000012
:101F100000000000FB060C1F8D0700000000000001
:101F200000000000FB060D1F8D07000000000000F0
:101F300000000000FB060E1F8D07000000000000DF
:101F400000000000FB060F20C2FBF5EEE4204E313E
:101F50003A20202020207D7D7D7D20000000471E2E
:101F6000000020C2FBF5EEE4204E323A2020202073
:101F7000207D7D7D7D20000000571E000020C2FBDB
:101F8000F5EEE4204E333A20202020207D7D7D7D1B
:101F900020000000671E000020C2FBF5EEE4204E8A
:101FA000343A20202020207D7D7D7D200000007798
:101FB0001E000020C2FBF5EEE4204E353A20202022
:101FC00020207D7D7D7D20000000871E000020C236
:101FD000FBF5EEE4204E363A20202020207D7D7D4A
:101FE0007D20000000971E000020C2FBF5EEE420DB
:101FF0004E373A20202020207D7D7D7D200000006E
:10200000A71E000020C2FBF5EEE4204E383A202047
:102010002020207D7D7D7D20000000B71E00002057
:10202000C2FBF5EEE4204E393A20202020207D7DB1
:102030007D7D20000000C71E000020C2FBF5EEE4FD
:10204000204E31303A202020207D7D7D7D200000F3
:1020500000D71E000020C2FBF5EEE4204E31313ADD
:10206000202020207D7D7D7D20000000E71E0000D7
:1020700020C2FBF5EEE4204E31323A202020207DB4
:102080007D7D7D20000000F71E000020C2FBF5EEE4
:10209000E4204E31333A202020207D7D7D7D2000BC
:1020A0000000071F000020C2FBF5EEE4204E313493
:1020B0003A202020207D7D7D7D20000000171F001C
:1020C0000020C2FBF5EEE4204E31353A20202020DE
:1020D0007D7D7D7D20000000271F000020C2FBF5D4
:1020E000EEE4204E31363A202020207D7D7D7D207B
:1020F000000000371F0000471F1000000000000014
:1021000000000000000000000000000BFC0A0000BE
:10211000000BFE0A0000000B000B0000000B020B7E
:102120000000000B040B0000000B060B0000000B6E
:10213000080B0000000B0A0B000000204E313A2073
:102140007B7B7B7B7B204E323A207B7B7B7B7B00C7
:102150000B2100000000204E333A207B7B7B7B7BF1
:10216000204E343A207B7B7B7B7B001721000000D4
:1021700000204E353A207B7B7B7B7B204E363A20FD
:102180007B7B7B7B7B00232100000000204E373AC5
:10219000207B7B7B7B7B204E383A207B7B7B7B7B51
:1021A000002F21000000003B21040300000000007C
:1021B00000000000000000000000000E8107000089
:1021C0000000FF03000000000000000E8307000075
:1021D0000000FF03000000000000000E8507000063
:1021E0000000FF03000000000000000E8707000051
:1021F0000000FF030000000000000020C2FBF5EE1D
:10220000E4204E313A20202020207D7D7D7D7D0000
:102210000000BB21000020C2FBF5EEE4204E323A64
:1022200020202020207D7D7D7D7D000000CB2100B1
:102230000020C2FBF5EEE4204E333A20202020207F
:102240007D7D7D7D7D000000DB21000020C2FBF54F
:10225000EEE4204E343A20202020207D7D7D7D7DBF
:10226000000000EB210000FB210400000000000042
:10227000000000000000000000000007C908000086
:102280000007CB0800000007CD0800000007CF08BA
:1022900000000007D10800000007D3080000000775
:1022A000D508000000202D2D2D20CAE0EDE0EBFB2D
:1022B00020C0D6CF202D2D2D2000000000000000D2
:1022C000204E313A207B7B7B7B7B204E323A207B39
:1022D0007B7B7B7B007B2200000000204E333A207A
:1022E0007B7B7B7B7B204E343A207B7B7B7B7B0024
:1022F000872200000000204E353A207B7B7B7B7BD1
:10230000204E363A207B7B7B7B7B009322000000B3
:102310000020CEEFEEF0ED2E20EAE0EDE0EB3A20EB
:102320007B7B7B7B7B009F2200000000A5220501B8
:10233000000000000000000000000000000000009D
:10234000001D0C000000041C0C000000041B0C000D
:10235000000000200C000000041F0C000000041E00
:102360000C000000202D2D2D20CAE0EBE8E1F0EE5E
:10237000E2EAE0202D2D2D200000000000000020CA
:102380005A65726F3A20207B7B7B207B7B7B207B96
:102390007B7B20004023000000002046756C6C3AD7
:1023A00020207B7B7B207B7B7B207B7B7B200052E8
:1023B000230000000020202020202020202020209A
:1023C00020202020202020202000000000000000ED
:1023D000642304030000000000000000000000006F
:1023E00000000000526573657400496E697469618C
:1023F0006C697361740043616C6962726174696FC6
:102400006E0052656164004F666600E423EA23F6BD
:102410002302240724093C06B00801093E06B0083F
:1024200001094006B00801094206B0080109440646
:10243000B00801094606B008011E1701000000009F
:10244000070000000000E408001E18010000000062
:10245000070000000000E408001E19010000000051
:10246000070000000000E408001E1A010000000040
:10247000070000000000E408001E1B01000000002F
:10248000070000000000E408001E1C01000000001E
:10249000070000000000E40800031D0180FFFFFFAB
:1024A0007F000000000000000103200180FFFFFF0B
:1024B0007F000000000000000103230180FFFFFFF8
:1024C0007F000000000000000103260180FFFFFFE5
:1024D0007F000000000000000103290180FFFFFFD2
:1024E0007F0000000000000001032C0180FFFFFFBF
:1024F0007F0000000000000001081E0184030000AE
:102500004C040000000000000308210184030000C7
:102510004C040000000000000308240184030000B4
:102520004C040000000000000308270184030000A1
:102530004C0400000000000003082A01840300008E
:102540004C0400000000000003082D01840300007B
:102550004C040000000000000320CAE0EDE0EB2086
:102560004E313A207B7B7B7B7B7B7B7C430015243D
:102570000000000020D2E5F0ECEEE4E0F2F7E8EA3B
:102580003A207D7D7D7D7D7D000000392400002086
:10259000D1E4E2E8E33A2020202020207D7D7D7DEB
:1025A0007D7C430000009924000020CAEEFDF4F475
:1025B000E8F6E8E5EDF23A20207D7D7D7D7D0000A6
:1025C00000F924000059250401000000000000006B
:1025D00000000000000000000020CAE0EDE0EB2059
:1025E0004E323A207B7B7B7B7B7B7B7C43001B24B6
:1025F0000000000020D2E5F0ECEEE4E0F2F7E8EABB
:102600003A207D7D7D7D7D7D0000004924000020F5
:10261000D1E4E2E8E33A2020202020207D7D7D7D6A
:102620007D7C43000000A924000020CAEEFDF4F4E4
:10263000E8F6E8E5EDF23A20207D7D7D7D7D000025
:102640000009250000D92504010000000000000059
:1026500000000000000000000020CAE0EDE0EB20D8
:102660004E333A207B7B7B7B7B7B7B7C430021242E
:102670000000000020D2E5F0ECEEE4E0F2F7E8EA3A
:102680003A207D7D7D7D7D7D000000592400002065
:10269000D1E4E2E8E33A2020202020207D7D7D7DEA
:1026A0007D7C43000000B924000020CAEEFDF4F454
:1026B000E8F6E8E5EDF23A20207D7D7D7D7D0000A5
:1026C0000019250000592604010000000000000048
:1026D00000000000000000000020CAE0EDE0EB2058
:1026E0004E343A207B7B7B7B7B7B7B7C43002724A7
:1026F0000000000020D2E5F0ECEEE4E0F2F7E8EABA
:102700003A207D7D7D7D7D7D0000006924000020D4
:10271000D1E4E2E8E33A2020202020207D7D7D7D69
:102720007D7C43000000C924000020CAEEFDF4F4C3
:10273000E8F6E8E5EDF23A20207D7D7D7D7D000024
:102740000029250000D92604010000000000000037
:1027500000000000000000000020CAE0EDE0EB20D7
:102760004E353A207B7B7B7B7B7B7B7C43002D241F
:102770000000000020D2E5F0ECEEE4E0F2F7E8EA39
:102780003A207D7D7D7D7D7D000000792400002044
:10279000D1E4E2E8E33A2020202020207D7D7D7DE9
:1027A0007D7C43000000D924000020CAEEFDF4F433
:1027B000E8F6E8E5EDF23A20207D7D7D7D7D0000A4
:1027C0000039250000592704010000000000000026
:1027D00000000000000000000020CAE0EDE0EB2057
:1027E0004E363A207B7B7B7B7B7B7B7C4300332498
:1027F0000000000020D2E5F0ECEEE4E0F2F7E8EAB9
:102800003A207D7D7D7D7D7D0000008924000020B3
:10281000D1E4E2E8E33A2020202020207D7D7D7D68
:102820007D7C43000000E924000020CAEEFDF4F4A2
:10283000E8F6E8E5EDF23A20207D7D7D7D7D000023
:102840000049250000D92704010000000000000015
:1028500000000000000000000020CAE0EDE0EB20D6
:102860004E313A207B7B7B7B7B7B7B7C430015243A
:102870000000C52520CAE0EDE0EB204E323A207B77
:102880007B7B7B7B7B7B7C43001B240000452620DD
:10289000CAE0EDE0EB204E333A207B7B7B7B7B7BF9
:1028A0007B7C430021240000C52620CAE0EDE0EB3C
:1028B000204E343A207B7B7B7B7B7B7B7C430027D9
:1028C000240000452720CAE0EDE0EB204E353A20F9
:1028D0007B7B7B7B7B7B7B7C43002D240000C5279F
:1028E00020CAE0EDE0EB204E363A207B7B7B7B7B01
:1028F0007B7B7C43003324000045285928060000D8
:1029000000000000000000000000000000000000C7
:102910000000450F220077290000000000000000A1
:10292000000000000000202D47534D2DF1E8E3ED9D
:10293000E0EBE8E7E0F2EEF02D2000000000007789
:102940002920D1EBF3E6E5E1EDEEE5202020202083
:1029500020202020200000000000DF1920CCEEE421
:10296000E5EC2020202020202020202020202020D6
:10297000000000000012292629030077290000002A
:1029800000000000000000000000000000383F3997
:102990003FED55455197593C5907028706A7060058
:1029A00000E1F6910830F80E2818FCA2370CFEEA78
:1029B0004600004965E803A683D007FFFFF417002F
:1029C00000DFF6460430F8130C24FAFE1318FCC698
:1029D0001B0CFE6B230000032BF4019A32E803303A
:1029E0003ADC05C941D007FFFFBD380000F6F5C24B
:1029F000380CFEE2460000B662E803967DD007AED2
:102A000097B80BEAB0A00F54C98813E2E07017FF23
:102A1000FF971E00001FF65F1C0CFE5631E803D026
:102A20003ED007D24BB80B7058A00FAA6488136C25
:102A3000707017FFFF0E47000020F6FE380CFE48AE
:102A400062E803C47CD0076E96B80B50AFA00F5657
:102A5000C7881394DE7017F6F4581BFFFF8B1F0016
:102A6000001EF61C1A0CFE642DE803C639D007C4FC
:102A700045B80B6851A00F9E5C88137A677017FFEA
:102A8000FFCE4F0000D5F67D1D0CFE8B2500008F7C
:102A90002DF4019235E803953DDC0563420807FFFC
:102AA000FF3E35000090019901DC057C07B80B8ED4
:102AB0001588131B1F7017302A581BC436401FB6C9
:102AC000442823F25310275A64F82AD075E02E4088
:102AD00088C832789BB03650AF983A82C3803ED2D5
:102AE000D76842FFFF384A060007000008010802C5
:102AF0000803080408050800010203040506070886
:102B0000090A0B0C0D0E0F07010801060140000712
:102B10000108010601800004010501030180002174
:102B200000220020000100210022002000020021DC
:102B300000220020000400210022002000080021C3
:102B4000002200200010002100220020002000218F
:102B500000220020004000210022002000800033DD
:102B600000340032000400040105010301400004A8
:102B70000105010301200004010501030110000407
:102B8000010501030108000401050103010201041C
:102B9000010501030104012B50445000434C4F53E5
:102BA00000504F53540047455420000D0A002B435A
:102BB00053513A20256868752C256868750025688A
:102BC00068752C20434C4F534544004F4B002568FB
:102BD00068752025686875202568687520256868EF
:102BE0007500CE00C800C900CA00CD00CC00391D58
:102BF0003F1D431D441D00460047003E27B200B361
:102C0000004827A400A80054270004061F0604005B
:102C10000006090906000000000008080E0F1F0F3B
:102C20000600000E111C110E000E11101C10110ECA
:102C3000000A000C0404040E000A0E040404040E2E
:102C4000000000000000000000FFFFFFFFFFFFFF8B
:102C5000FFFFFFFFFFFFFFFFFF0002FFFFFFFFFF80
:102C6000FFFFFFFFFFFFFFFFFF2021222324252678
:102C70002728292A2B2C2D2E2F303132333435366C
:102C80003738393A3B3C3D3E3F404142434445465C
:102C90004748494A4B4C4D4E4F505152535455564C
:102CA0005758595A5B5C5D5E5F606162636465663C
:102CB0006768696A6B6C6D6E6F707172737475762C
:102CC0007778797A7B017DE97FFFFFFFFFFFFFFFC8
:102CD000FFFFFFFFFFFFFFFFFFFFFFFFFFFFFFFF04
:102CE000FFFFFFFFFFFFFFFFFFFFFFFFFFFFFFFFF4
:102CF000D9A2FF04FFFFFFFF06FFFF4969FFFFFFA7
:102D0000DAB5FF03FFFFFFFF0541A042A1E045A3A5
:102D1000A4A5A64BA74D484FA8504354A9AA58E1D3
:102D2000ABACE2ADAE62AFB0B161B2B3B4E365B625
:102D3000B7B8B9BABBBCBD6FBE7063BF79E478E504
:102D4000C0C1E6C2C3C4C5C6C780C094D4000102D6
:102D50000304050600C0C101C30302C2C60607C7BB
:102D600005C5C404CC0C0DCD0FCFCE0E0ACACB0BBB
:102D7000C90908C8D81819D91BDBDA1A1EDEDF1FEB
:102D8000DD1D1CDC14D4D515D71716D6D21213D3DB
:102D900011D1D010F03031F133F3F23236F6F7378B
:102DA000F53534F43CFCFD3DFF3F3EFEFA3A3BFB7B
:102DB00039F9F83828E8E929EB2B2AEAEE2E2FEF2B
:102DC0002DEDEC2CE42425E527E7E62622E2E3239B
:102DD000E12120E0A06061A163A3A26266A6A767CB
:102DE000A56564A46CACAD6DAF6F6EAEAA6A6BAB3B
:102DF00069A9A86878B8B979BB7B7ABABE7E7FBF6B
:102E00007DBDBC7CB47475B577B7B67672B2B3735A
:102E1000B17170B05090915193535292965657970A
:102E2000559594549C5C5D9D5F9F9E5E5A9A9B5BFA
:102E300099595898884849894B8B8A4A4E8E8F4FAA
:102E40008D4D4C8C4484854587474686824243831A
:102E50004181804000C1814001C0804101C080416A
:102E600000C1814001C0804100C1814000C181405A
:102E700001C0804101C0804100C1814000C181404A
:102E800001C0804100C1814001C0804101C080413A
:102E900000C1814001C0804100C1814000C181402A
:102EA00001C0804100C1814001C0804101C080411A
:102EB00000C1814000C1814001C0804101C080410A
:102EC00000C1814001C0804100C1814000C18140FA
:102ED00001C0804101C0804100C1814000C18140EA
:102EE00001C0804100C1814001C0804101C08041DA
:102EF00000C1814000C1814001C0804101C08041CA
:102F000000C1814001C0804100C1814000C18140B9
:102F100001C0804100C1814001C0804101C08041A9
:102F200000C1814001C0804100C1814000C1814099
:102F300001C0804101C0804100C1814000C1814089
:102F400001C0804100C1814001C0804101C0804179
:102F500000C1814000407A10F35A00A0724E180957
:102F60000010A5D4E80000E87648170000E40B54F0
:102F7000020000CA9A3B000000E1F50500008096BF
:102F80009800000040420F000000A08601000000F1
:102F9000102700000000E8030000000064000000AB
:102FA00000000A00000000000100000000002C7674
:102FB000D888DC674F0823DFC1DFAE59E1B1B7968F
:102FC000E5E3E453C63AE651997696E8E6C28426EC
:102FD000EB898C9B62ED407C6FFCEFBC9C9F40F2C8
:102FE000BAA56FA5F490055A2AF75C936B6CF96744
:102FF0006DC11BFCE0E40D47FEF520E6B500D0ED09
:10300000902E0300943577050080841E0800002070
:103010004E0A000000C80C333333330F986E12830E
:103020001141EF8D2114893BE65516CFFEE6DB18E2
:10303000D1844B381BF77C1D901DA4BBE4242032A7
:1030400084725E228100C9F124ECA1E53D271124A0
:103050001FBECFEFD1E2DEBFCDBF00E00CBF12E05C
:10306000A0E0B2E0E0EAFBEF00E00BBF02C0079097
:103070000D92A63DB107D9F71CE0A6EDB2E001C064
:103080001D92A232B107E1F70E940B6F0C94E37816
:103090000C940000FC0180810895FC018491089546
:1030A000FC0125913491C9010895FC0125913591C8
:1030B00045915491B901CA010895A0E0B0E0805053
:1030C0009040AF4FBF4FABBFFC0187910895FC010B
:1030D00084910895FC0125913491C90108956F925E
:1030E0007F928F929F92AF92BF92CF92DF92EF9298
:1030F000FF920F931F93CF93DF933C01EB014901A4
:103100005A01C12ED02E2115310541055105F9F086
:10311000EE24FF248701CE018E0D9F1DF30119952A
:10312000D8262D2D30E0C9018C5A914DFC01D49048
:10313000DC242C5A324DF901C4900894E11CF11C96
:10314000011D111DE814F9040A051B0520F39C2D2F
:1031500080E02D2D30E0282B392BC901DF91CF9154
:103160001F910F91FF90EF90DF90CF90BF90AF90A5
:103170009F908F907F906F9008950F931F930FEF04
:103180001FEF0E946F181F910F9108950F931F93C7
:103190008DE498E160E070E020E030E041E050E054
:1031A0000E94BD188C018DE598E160E070E020E0A0
:1031B00030E043E050E00E946F181F910F91089596
:1031C000CF92DF92EF92FF920F931F9391E5C92E5A
:1031D0009DE4D92E88E3E82E81E0F82E970140E0A7
:1031E00050E0C60160E070E00E94BD188C012BEF3A
:1031F0003FE02E193F0940E050E0C60165E070E075
:10320000E60EF71EB7010E946F181F910F91FF90F5
:10321000EF90DF90CF900895789408958FB78078DD
:103220008093E502F89408958091E502882309F0DF
:1032300078940895A8952FE088E190E00FB6F8946F
:10324000A895809360000FBE209360000895809140
:10325000D6028F5F8093D602815008958091C90273
:103260008F5F8093C902815008958091CA028F5F59
:103270008093CA02815008958091CB028F5F809322
:10328000CB0281500895882339F09091D602890F9E
:103290008093D602892F089590E0892F089588237E
:1032A00039F09091C902890F8093C902892F08953E
:1032B00090E0892F0895882339F09091CA02890FF0
:1032C0008093CA02892F089590E0892F089588235A
:1032D00039F09091CB02890F8093CB02892F08950A
:1032E00090E0892F08959091D702890F8093D7029B
:1032F000892F08959091CC02890F8093CC02892F59
:1033000008959091CD02890F8093CD02892F089561
:103310009091CE02890F8093CE02892F0895982F25
:103320003FB730783093E502F894482F50E0FA0127
:10333000EA51FD4F608380818823C1F09695969570
:103340009695E92FF0E0EA55FB4F208147705070C9
:1033500081E090E002C0880F991F4A95E2F78095BE
:1033600082238083332309F0789408959695969567
:103370009695E92FF0E0EA55FB4F20814770507099
:1033800081E090E002C0880F991F4A95E2F7282B50
:103390002083E8CF982F3FB730783093E502F89438
:1033A000482F50E0FA01E251FD4F6083808188236D
:1033B000C1F0969596959695E92FF0E0E855FB4F6C
:1033C00020814770507081E090E002C0880F991F03
:1033D0004A95E2F7809582238083332309F078941D
:1033E0000895969596959695E92FF0E0E855FB4F50
:1033F00020814770507081E090E002C0880F991FD3
:103400004A95E2F7282B2083E8CF282F3FB7307862
:103410003093E502F894482F50E0FA01EE0FFF1FB9
:10342000EA5BFC4F7183608380819181892BC1F0BD
:10343000269526952695E22FF0E0EC54FB4F20814F
:103440004770507081E090E002C0880F991F4A9544
:10345000E2F7809582238083332309F078940895DE
:10346000269526952695E22FF0E0EC54FB4F20811F
:103470004770507081E090E002C0880F991F4A9514
:10348000E2F7282B2083E8CFCF93DF93282F3FB795
:1034900030783093E502F894C82FD0E0FE01EE0FAB
:1034A000FF1FEE0FFF1FEA5FFB4F408351836283D4
:1034B000738380819181A281B3810097A105B105B9
:1034C000D1F0269526952695E22FF0E0EF53FB4F9D
:1034D0002081C770D07081E090E002C0880F991FF2
:1034E000CA95E2F7809582238083332309F078948C
:1034F000DF91CF910895269526952695E22FF0E04D
:10350000EF53FB4F2081C770D07081E090E002C084
:10351000880F991FCA95E2F7282B2083E6CF4FB773
:1035200040784093E502F894E82FE695E695E69515
:10353000F0E0EA55FB4F9081877021E030E002C057
:10354000220F331F8A95E2F7922B9083442309F0D0
:10355000789408954FB740784093E502F894E82FA7
:10356000E695E695E695F0E0E855FB4F908187708B
:1035700021E030E002C0220F331F8A95E2F7922B40
:103580009083442309F0789408954FB7407840938E
:10359000E502F894E82FE695E695E695F0E0EC5420
:1035A000FB4F9081877021E030E002C0220F331F73
:1035B0008A95E2F7922B9083442309F0789408953A
:1035C0004FB740784093E502F894E82FE695E695EA
:1035D000E695F0E0EF53FB4F9081877021E030E0FB
:1035E00002C0220F331F8A95E2F7922B9083442367
:1035F00009F078940895E82FE695E695E695F0E0D1
:10360000EA55FB4F2081E82FF0E030E0CF018770D2
:10361000907002C0359527958A95E2F720FD02C08B
:1036200080E00895EA51FD4F9081992319F481E0DB
:103630008927089591E081E089270895E82FE6958C
:10364000E695E695F0E0E855FB4F2081E82FF0E0A5
:1036500030E0CF018770907002C0359527958A952C
:10366000E2F720FD02C080E00895E251FD4F908115
:10367000992319F481E08927089591E081E0892751
:1036800008954FB740784093E502F894E82FE69507
:10369000E695E695F0E0EC54FB4F2081E82FF0E052
:1036A00030E0CF018770907002C0359527958A95DC
:1036B000E2F720FD06C020E0442309F07894822F31
:1036C0000895EE0FFF1FEA5BFC4F8081918120E09F
:1036D000892B19F481E02827EFCF21E081E028270A
:1036E000EBCF4FB740784093E502F894E82FE6958A
:1036F000E695E695F0E0EF53FB4F2081E82FF0E0F0
:1037000030E0CF018770907002C0359527958A957B
:10371000E2F720FD06C020E0442309F07894822FD0
:103720000895EE0FFF1FEE0FFF1FEA5FFB4F808132
:103730009181A281B38120E00097A105B10519F420
:1037400081E02827E9CF21E081E02827E5CF5FB796
:1037500050785093E502F894E82FE695E695E695C3
:10376000F0E0EA55FB4F4081A82FB0E09D012770A3
:10377000307081E090E002C0880F991F2A95E2F72F
:10378000482B4083552309F07894AA51BD4F1C92D1
:1037900008955FB750785093E502F894E82FE695C6
:1037A000E695E695F0E0E855FB4F4081A82FB0E0A4
:1037B0009D012770307081E090E002C0880F991F52
:1037C0002A95E2F7482B4083552309F07894A251BB
:1037D000BD4F1C920895E82F5FB750785093E502D3
:1037E000F894A82FA695A695A695B0E0AC54BB4F2B
:1037F0004C91F0E09F012770307081E090E002C0B2
:10380000880F991F2A95E2F7482B4C93EE0FFF1F64
:10381000EA5BFC4F11821082552309F078940895D9
:10382000E82F5FB750785093E502F894A82FA6953B
:10383000A695A695B0E0AF53BB4F4C91F0E09F0129
:103840002770307081E090E002C0880F991F2A95A0
:10385000E2F7482B4C93EE0FFF1FEE0FFF1FEA5FBE
:10386000FB4F1082118212821382552309F0789443
:103870000895E6EEF2E0E80FF11D80810895EEEE86
:10388000F2E0E80FF11D80810895E82F8FB780786E
:103890008093E502F894F0E0EE0FFF1FEA5BFC4F27
:1038A0000190F081E02D882309F07894CF010895EC
:1038B000E82F8FB780788093E502F894F0E0EE0F60
:1038C000FF1FEE0FFF1FEA5FFB4F20813181428116
:1038D0005381882309F07894B901CA010895809131
:1038E000CC028835A8F48091CD02803688F480918E
:1038F000CE02883268F48091C902803448F4809105
:10390000CA02883428F490E08091CB02803208F01B
:1039100091E0892F08958091CC028F5F8093CC0233
:1039200081508093C7046FEF0E94CA1908951F92B7
:103930000F920FB60F920BB60F9211242F934F9345
:103940005F936F937F938F939F93AF93BF93EF9307
:10395000FF938091C8048F5F8093C80440E050E0DB
:10396000A1E0B0E08091A604BA016770707090E0A9
:10397000062E02C0959587950A94E2F780FD14C043
:10398000FA01EA51FD4F8081815080838081882334
:1039900059F42091A604CD0102C0880F991F6A95A1
:1039A000E2F7282B2093A6044F5F5F4F4830510564
:1039B000C9F6FF91EF91BF91AF919F918F917F9148
:1039C0006F915F914F912F910F900BBE0F900FBE93
:1039D0000F901F901895A8958091640790916507A6
:1039E000019690936507809364079091C704E92F2F
:1039F000F0E0E251FD4FE081E095E09360078091B7
:103A0000A8068E1710F4E093A806892F6FEF0E9486
:103A1000CA1908951092A8060895882339F020EA5B
:103A20003FE0F9013197F1F78150D9F70895A0E00F
:103A3000B0E0BC01CD010E94F2772DEC3CEC4CE4EF
:103A40005FE30E942F780E94C77CCB01672B31F087
:103A500035E0232F2A95F1F70197D9F708956A9A4F
:103A60007298549A5C9808958EB194E089278EB923
:103A700008958BB190E189278BB908950895089531
:103A8000089508950895089508950895089532EACF
:103A90003093900029E1209391008FEF9FEF909356
:103AA0009700809396008DB188618DB93093200185
:103AB000209321018EE79CE09093270180932601BB
:103AC000EAE0F1E080818861808308956091810758
:103AD0007091820780E090E00E94F27728E83FE151
:103AE00040E852E40E942F780E94C77C262F9FB79F
:103AF000F894709399002093980097FF01C07894F0
:103B0000609183077091840780E090E00E94F277D3
:103B100028E83FE140E852E40E942F780E94C77CE9
:103B2000262F9FB7F89470939B0020939A0097FFDD
:103B300001C07894609185077091860780E090E0DD
:103B40000E94F27725E032E148E450E40E942F78A9
:103B50000E94C77C262F9FB7F89470932901209369
:103B6000280197FF01C078946091870770918807BA
:103B700080E090E00E94F27725E032E148E450E4F2
:103B80000E942F780E94C77C262F8FB78078809361
:103B9000E502F89470932B0120932A01882309F001
:103BA000789408951F938CB588608CBDF8948091AB
:103BB0000201877F8093020178948091180B8130F5
:103BC00009F4ECC0813030F5F894809102018F7EC9
:103BD00080930201789485E08A95F1F7F8948091BA
:103BE000020180618093020178948091EB0664E089
:103BF0000E948F198091180B8F5F8093180B17E02C
:103C0000F894809102018860809302017894812F5A
:103C10001F910895823009F4D2C0833011F017E06B
:103C2000EFCF88E08EBD0DB407FEFDCF1EBC0DB4F6
:103C300007FEFDCF0EB407FCDAC088E38EBD0DB4DD
:103C400007FEFDCF1EBC0DB407FEFDCF3EB51EBC6A
:103C50000DB407FEFDCF2EB5932F80E0AC01420FCF
:103C6000511D9A011091C008163009F419C180E164
:103C70008EBD0DB407FEFDCF87E08EBD0DB407FEEF
:103C8000FDCF4091EB06E42FF0E0EA51FD4F90812B
:103C900084E1891B8093AA0688E68EBD0DB407FED9
:103CA000FDCF1EBC0DB407FEFDCFEDE1FCE08EB5EF
:103CB00080831EBC0DB407FEFDCF31978CE0EA3146
:103CC000F807A9F71EBC0DB407FEFDCF88E78EBD2F
:103CD0000DB407FEFDCF1EBC0DB407FEFDCFE0E224
:103CE000FCE08EB580831EBC0DB407FEFDCF31977E
:103CF0005CE0ED31F507A9F71EBC0DB407FEFDCF62
:103D000080911D0C8951833008F085C08091200C72
:103D1000883C08F480C08C3C08F07DC0E12FF0E0C6
:103D2000EE0FFF1FE753F74F31832083812F8F5F03
:103D30008093C008873011F41092C008E091C00849
:103D4000F0E0E35BF24D9491F894943008F4CAC02B
:103D5000779A809102018B7F80930201292F30E0B6
:103D6000C901837090700196039708F4B9C0769AE0
:103D700020FFB4C0759A789485E58A95F1F780E1C3
:103D80008EBD0DB407FEFDCF86E08EBD0DB407FEDF
:103D9000FDCF842F64E10E948F1932CF8091EB0612
:103DA0000E94FB1A882309F43ACF81E09FEF9EBD61
:103DB0000DB407FEFDCF8830D9F18F5FF8CF88E0D2
:103DC0008EBD0DB407FEFDCF1EBC0DB407FEFDCFAA
:103DD0000EB407FC45C01092E30283E08093180BF9
:103DE0008091EB0664E10E948F1917E009CF809162
:103DF000EB060E94FB1A882309F411CF8091660715
:103E000090916707019690936707809366071092D9
:103E1000180B17E0F5CE8091AE069091AF06019693
:103E20009093AF068093AE061092180B17E0E8CE81
:103E300080E28EBD0DB407FEFDCF84E08EBD0DB4D3
:103E400007FEFDCF80E18EBD0DB407FEFDCF86E4F9
:103E50008EBD0DB407FEFDCF8091EB0664E2C8CEA7
:103E60008091EB060E94FB1A882399F08091D90873
:103E70009091DA0801969093DA088093D90880919E
:103E8000E3028F5F8093E3028B3198F184E08093AB
:103E9000180B8091180B833009F4A2CF17E0B0CE35
:103EA0008091D5089091D608892B09F4E0CECA01FB
:103EB00080589E43815A9F4008F4D9CE8091AE0627
:103EC0009091AF0601969093AF068093AE06109244
:103ED000180B85E08093C00817E092CE75984BCF01
:103EE000769846CF77988091020184608093020192
:103EF00035CF80E0CCCFF89484B1807F876084B9DF
:103F00002B9A8FE58CBD7894F8948091010188609C
:103F10008093010180910201886080930201809169
:103F200001018061809301016F9A80910101846099
:103F3000809301016D9A6E9A78948091D7028F5F79
:103F40008093D70281508093EB0686E08093C0086F
:103F50000E94D21D873091F48091D9089091DA089F
:103F6000892B61F48091660790916707892B31F462
:103F70008091AE069091AF06892B51F30895482F9A
:103F8000882389F021E030E0C901880F991F220FB2
:103F9000331F220F331F220F331F280F391F4150A9
:103FA00099F7C901089521E030E0FBCF1F93182F46
:103FB0008823A1F021E030E040E050E0CA01B901DF
:103FC0002AE030E040E050E00E943F7D9B01AC01E0
:103FD0001150A1F7B901CA011F91089521E030E005
:103FE00040E050E0F7CF1F932AE030E040E050E09F
:103FF0000E94917DC901DA01BC01CD0161157105F5
:1040000081059105A1F010E01F5F2AE030E040E05B
:1040100050E00E94917DC901DA01BC01CD0161151A
:1040200071058105910581F7812F1F91089510E099
:10403000FBCF282F6AE00E945E7D382F3295307FBB
:10404000822F0E945E7D832F890F0895282F22954D
:104050002F709AE0299F900111248F70820F08958C
:104060002F923F924F925F926F927F928F929F9288
:10407000AF92BF92CF92DF92EF92FF920F931F9376
:10408000CF93DF93EC017A018B01288039804A803D
:104090005B806C817D818E819F8126163706480664
:1040A000590609F458C00E94F4775B016C016A85D7
:1040B0007B85882777FD8095982F0E94F4773B01B8
:1040C0004C01C801B7010E94F477A60195010E9436
:1040D000F57B7B018C0168857985882777FD809544
:1040E000982F0E94F4779B01AC01C401B3010E9498
:1040F000F57B9B01AC01C801B7010E942F787B01C1
:104100008C01C201B1010E94F4779B01AC01C60190
:10411000B5010E94F57B9B01AC01C801B7010E946B
:104120005A7CA40193010E94F67B0E94C27CCB01C1
:10413000DF91CF911F910F91FF90EF90DF90CF9083
:10414000BF90AF909F908F907F906F905F904F90B7
:104150003F902F90089588859985EACF2F923F92BE
:104160004F925F926F927F928F929F92AF92BF9287
:10417000CF92DF92EF92FF920F931F93CF93DF9333
:10418000EC017A018B01288039804A805B806C8148
:104190007D818E819F81261637064806590609F4CF
:1041A00058C00E94F2775B016C016A857B85882785
:1041B00077FD8095982F0E94F4773B014C01C80150
:1041C000B7010E94F277A60195010E94F57B7B0161
:1041D0008C0168857985882777FD8095982F0E94C6
:1041E000F4779B01AC01C401B3010E94F57B9B01F4
:1041F000AC01C801B7010E942F787B018C01C2017C
:10420000B1010E94F2779B01AC01C601B5010E9489
:10421000F57B9B01AC01C801B7010E945A7CA40147
:1042200093010E94F67B0E94C27CCB01DF91CF916B
:104230001F910F91FF90EF90DF90CF90BF90AF90C4
:104240009F908F907F906F905F904F903F902F90B6
:10425000089588859985EACFAF92BF92CF92DF9279
:10426000EF92FF920F931F93DF93CF93CDB7DEB7FB
:104270002C970FB6F894DEBF0FBECDBFDC01FC015A
:10428000859194917C0100E010E05B01CC24DD2459
:10429000CD010496FC0125913491AD01B701F801DF
:1042A000DC01790100E010E0EA14FB040C051D05B7
:1042B00078F3CA019B01AF0169833A83EB835C8386
:1042C000ED82FE820F831887FC01329685919491CE
:1042D0009A878987FD013296859194919C878B8777
:1042E000CE010196B601A5010E94AE202C960FB614
:1042F000F894DEBF0FBECDBFCF91DF911F910F911C
:10430000FF90EF90DF90CF90BF90AF9008952F92E5
:104310003F924F925F926F927F928F929F92AF9255
:10432000BF92CF92DF92EF92FF920F931F93DF9392
:10433000CF93CDB7DEB72E970FB6F894DEBF0FBE82
:10434000CDBF2B012D871801EE867C2DC42EDD24D8
:10435000CC0CDD1CF201EC0DFD1D208131817901B9
:104360000027F7FC0095102FED82FE820F8318873F
:10437000A82FB0E0AA0FBB1F3501882477FC8094DA
:10438000982C60E002C079018A016F5FA62EBB24E1
:10439000AA9EF001AB9EF00DBA9EF00D1124E40D23
:1043A000F51DEC0DFD1D808191819C01442737FD99
:1043B0004095542F261537054805590514F46717FD
:1043C00010F3E982FA820B831C832D833E834F8393
:1043D00058878D85282F30E0220F331F8E85A82F18
:1043E000B0E00894A108B108A29EF001A39EF00DD0
:1043F000B29EF00D11240894A11CB11CE20DF31D16
:10440000AA0FBB1FEA0FFB1F808191819A878987C2
:10441000A29EC001A39E900DB29E900D1124820D0C
:10442000931DA80FB91F8D919C919C878B87CE01FE
:104430000196B401A3010E9430202E960FB6F89485
:10444000DEBF0FBECDBFCF91DF911F910F91FF90C7
:10445000EF90DF90CF90BF90AF909F908F907F9024
:104460006F905F904F903F902F9008959091CC0265
:10447000892F8F5F9093C9048F5F8093CC02815006
:104480008093CA048091CD028F5F8093CD028150CA
:104490008093CB046CE271E00E94051A80E980935E
:1044A000B800089580919308909194080196909394
:1044B0009408809393081092BC0010927307809127
:1044C000C90461E30E94CA190895BF92CF92DF9296
:1044D000EF92FF920F931F934CEBC42ED12CF60159
:1044E0001082E0E9F1E03197F1F794EAF601908368
:1044F00008E512E0F8013197F1F7F8013197F1F78B
:104500003BEBE32EF12C90EDF701908390819083AB
:1045100024E8B22EF601B082F8013197F1F7F801E4
:104520003197F1F7F7018083F601B082C801019756
:10453000F1F7C8010197F1F7862F0E941920F701C2
:104540008083F601B082C8010197F1F7C801019795
:10455000F1F784E98083109273071F910F91FF9008
:10456000EF90DF90CF90BF900895A62FB82FB15055
:104570005B2F569556955B0F623088F0E6EFF2E0C0
:10458000A2502A2F30E0AE5F29503D4F849167E062
:104590000E945E7D590F3196E217F307B9F7252F78
:1045A000B370B33051F0842F67E00E945E7D822F9C
:1045B000890F0E945E7D892F0895A330A0F32F5F9D
:1045C000F2CF80E06091AD060E9465228091AD0639
:1045D0008093C208089581E0609148060E94652298
:1045E000809148068093C408089582E06091B805E0
:1045F0000E9465228091B8058093CF05089584E0DC
:1046000060910D0B0E94652280910D0B80934D06E9
:10461000089585E060917B070E94652280917B0769
:104620008093C308089586E06091D5050E946522B5
:104630008091D5058093710708955F926F927F9264
:104640008F929F92AF92BF92CF92DF92EF92FF92A2
:104650000F931F93582E662E742EF22E8C2D7CEB0A
:10466000872E912CF4011082E0E9F1E03197F1F707
:1046700094EAF401908368E5C62E62E0D62EF60136
:104680003197F1F7F6013197F1F75BEBA52EB12CDD
:1046900090EDF50190839081908314E8F4011083EC
:1046A000F6013197F1F7F6013197F1F7F501108234
:1046B000F4011083F6013197F1F7F6013197F1F724
:1046C0000E941920F5018083F4011083C60101972F
:1046D000F1F7C6010197F1F78E2D0E941920F5011F
:1046E0008083F4011083C6010197F1F7C601019799
:1046F000F1F7802F0E941920F5018083F4011083C7
:10470000C6010197F1F7C6010197F1F7F501F082B3
:10471000F4011083C6010197F1F7C6010197F1F783
:10472000872D0E941920F5018083F4011083C601B2
:104730000197F1F7C6010197F1F7862D0E94192024
:10474000F5018083F4011083C6010197F1F7C601DA
:104750000197F1F7852D0E941920F5018083F4015E
:104760001083C6010197F1F7C6010197F1F784E9BB
:104770008083109273071F910F91FF90EF90DF904D
:10478000CF90BF90AF909F908F907F906F905F90F1
:10479000089590E080917307882309F491E0892FB0
:1047A00008958091AD068093C20880914806809359
:1047B000C4088091B8058093CF0540910D0B4093BC
:1047C0004D0660917B076093C3088091D505809367
:1047D00071070E94B52280930C0B08958F929F92CF
:1047E000AF92BF92CF92DF92EF92FF920F931F93FF
:1047F000882EA62EB42E922ED02EFE2C1C2D0E947A
:104800001D231093C208F092C408D092CF05B09235
:104810004D06A092C3088092710790920C0B1F91D5
:104820000F91FF90EF90DF90CF90BF90AF909F904F
:104830008F9008955091D50540917107541759F103
:104840009091C208983358F08091C4088B3309F4D2
:104850005AC0541709F440C021E0822F089554171C
:10486000D9F790917B078091C3089817A9F7909189
:104870000D0B80914D06981779F79091B8058091AE
:10488000CF05981749F720E0909148068091C40819
:10489000981711F7E2CF90917B078091C308981782
:1048A00079F690910D0B80914D06981749F69091ED
:1048B000B8058091CF05981719F690914806809118
:1048C000C408981709F0BCCF8091AD069091C2083A
:1048D000891709F0B7CFC0CF90917B078091C308AB
:1048E000981709F0B9CF90910D0B80914D0698174C
:1048F00009F0B2CF20E09091B8058091CF059817CC
:1049000009F0AACFAACF8091CF05873199F054172B
:1049100009F0A2CF90917B078091C308981709F006
:104920009BCF20E090910D0B80914D06981709F0D8
:1049300093CF93CF80914D068C3148F08091C3087E
:104940008C3089F020E0541709F086CF86CF5417B9
:1049500009F082CF20E090917B078091C3089817DF
:1049600009F07ACF7ACF842F90E00196252F30E09E
:104970008217930761F0541751F0433609F06CCF5A
:1049800020E0552309F421E081E0282766CF20E0CC
:1049900064CFF894EAE0F1E08081806280837894CB
:1049A0000895F894EBE0F1E0808180628083789450
:1049B0000895F894EBE0F1E080818F7D8083789416
:1049C0000895F89426982E9A9D9AA598789408951B
:1049D00083B180740895F894A59878940895F89414
:1049E000A59A789408958FB780788093E502F8941B
:1049F000839A8B98882309F0789408958FB78078EC
:104A00008093E502F8948B9A882309F078940895AE
:104A10008FB780788093E502F8948B98882309F00B
:104A2000789408958FB780788093E502F89491B3D5
:104A300028E0922791BB882309F0789481B388708D
:104A40000895982F80FF23C0419A91FF23C0409A78
:104A500092FF23C0A19A93FF23C0A09A94FF23C082
:104A60005F9A95FF23C05E9A96FF23C05D9A87FDEB
:104A700023C080910B018F7780930B01429A85E0D0
:104A8000982F9A95F1F742988A95F1F708954198F1
:104A900091FDDDCF409892FDDDCFA19893FDDDCF54
:104AA000A09894FDDDCF5F9895FDDDCF5E9896FDD3
:104AB000DDCF5D9887FFDDCF80910B01806880930B
:104AC0000B01DCCF0E94212582E390E00E94171D9C
:104AD00008955F9A5E9A5D98EBE0F1E080818F77B0
:104AE000808308951F931091CE04812F0E941E1B76
:104AF000882329F080916F0082FF03C080E01F911E
:104B00000895812F66E00E94CA1981E01F910895DF
:104B10009091E202943120F08091CD04882319F124
:104B20009F5F9093E20224E630E0F8948091840045
:104B300090918500820F931F2EE48032920760F4DB
:104B400090938B0080938A00B29A80916F0084606A
:104B500080936F007894089580529E4490938B00C8
:104B600080938A00F1CF1092E202F89444980E9458
:104B70006925789481E08093CD0420E137E2D5CF98
:104B80001F920F920FB60F920BB60F921124FF9245
:104B90000F931F932F933F934F935F936F937F9345
:104BA0008F939F93AF93BF93EF93FF938091CD0427
:104BB0008823F1F01091CD04153009F4B5C01630FA
:104BC00008F4A1C0173009F415C1173008F0DCC093
:104BD00086E00E9421258091CD04813009F4A1C096
:104BE00024E630E08091CD048F5F8093CD045FC0D8
:104BF0001091DF02143108F045C08091B0061817FB
:104C000008F496C0612F70E02091A30690E0820F17
:104C1000911D681779070CF4E4C0E091DE0220E0F2
:104C20004E2F50E09091C608892F8850833018F09D
:104C30009E3008F491C0222309F48EC08091D302E3
:104C40008F3F09F489C0E22FF0E0E75BF34D249138
:104C5000FA01EE0FFF1FEE0FFF1FCF01880F991F04
:104C6000880F991FE80FF91FE60FF71FEF5BF74F4B
:104C70002083822F0E9421251F5F1093DF0224E6EC
:104C800030E015C01092DF02E091DE02EF5FE093AA
:104C9000DE02E43009F451C04498F0E0E75BF24DE5
:104CA000E4918E2F0E942125449A24E630E08091E1
:104CB000840090918500820F931F2EE4803292072A
:104CC000D8F490938B0080938A00B29AFF91EF9171
:104CD000BF91AF919F918F917F916F915F914F9114
:104CE0003F912F911F910F91FF900F900BBE0F904E
:104CF0000FBE0F901F90189580529E4490938B008A
:104D000080938A00E2CF123021F11330F8F4113091
:104D100001F18FEF8093CD048091CD04813009F0B3
:104D20005FCF20E931E05ECF8CE00E94212553CF98
:104D3000612F70E0E091DE0272CF1092DE0280916E
:104D40006F008B7F80936F00E0E0A6CF133009F0F7
:104D500056C00E9469253FCFCA01880F991F840F52
:104D6000951FFC01EE0FFF1FEE0FFF1FEE0FFF1F41
:104D7000E81BF90BE60FF71FE15BF94FE081F0E06C
:104D8000E75BF34D249164CF183049F0193009F0F6
:104D9000C0CF449882E00E942125449ABACF87E090
:104DA0008093CD04F090E1020091E002EF2DF0E05D
:104DB000EE0FFF1FEE0FFF1FEE0FFF1FE00FF11DA5
:104DC000E75FF34DE4918E2F0E9421250730F0F02C
:104DD0001092E00226E02F15E8F0F394F092E10241
:104DE000FACEE091DE0280919608E81709F017CF1D
:104DF0002FE516CF80E40E942125449AECCE143092
:104E000009F087CF88E30E942125E5CE0F5F00934C
:104E1000E002E1CE1092E1021093CD04DCCE9FB708
:104E200090789093E502F89480910B0180648093D0
:104E30000B01992309F0789408959FB79078909387
:104E4000E502F89480910B018F7B80930B019923ED
:104E500009F07894089580914906813029F08230D4
:104E600061F00E940F2708958091CF040E94411B9A
:104E70008823C9F30E941D270895089582E084BD08
:104E800085EF85BDEEE6F0E0808182608083089545
:104E900082E08093B00087EF8093B100E0E7F0E01C
:104EA00080818260808308951092A0008DE08093BD
:104EB000A100E2E7F0E08081826080830895BC0178
:104EC000E7EFFBE2859194916817790709F454C0E4
:104ED00020E02F5F422F50E0FA01EE0FFF1FE40F9A
:104EE000F51FEE0FFF1FE950F44D8591949168175F
:104EF000790779F7FA01EA50F44D84918823F9F49F
:104F0000F42FEE27E75EF44FDA01A952BA4F9081F1
:104F10008C91981721F1FA01E754FA4F81E08083D0
:104F2000FA01E295F295F07FFE27E07FFE27EC5133
:104F3000F74F80819181019691838083089581301C
:104F400009F008952091D80881E090E002C0880F10
:104F5000991F4A95E2F7282B2093D80808952091AD
:104F6000D80881E090E002C0880F991F4A95E2F7C7
:104F7000282B2093D808089540E050E0E0E0F0E0CE
:104F8000BACF1F920F920FB60F920BB60F92112449
:104F90002F933F934F935F936F937F938F939F9341
:104FA000AF93BF93EF93FF9385B5887F85BDEEE602
:104FB000F0E080818D7F808386E490E00E945F270F
:104FC000FF91EF91BF91AF919F918F917F916F91E1
:104FD0005F914F913F912F910F900BBE0F900FBE9D
:104FE0000F901F9018951F920F920FB60F920BB64D
:104FF0000F9211242F933F934F935F936F937F935F
:105000008F939F93AF93BF93EF93FF93E1EBF0E008
:105010008081887F8083E0E7F0E080818D7F8083DE
:1050200082EB90E00E945F27FF91EF91BF91AF91DB
:105030009F918F917F916F915F914F913F912F91B0
:105040000F900BBE0F900FBE0F901F9018951F92E0
:105050000F920FB60F920BB60F9211242F933F931E
:105060004F935F936F937F938F939F93AF93BF9370
:10507000EF93FF93E1EAF0E08081887F8083E2E7AD
:10508000F0E080818D7F808384EA90E00E945F273A
:10509000FF91EF91BF91AF919F918F917F916F9110
:1050A0005F914F913F912F910F900BBE0F900FBECC
:1050B0000F901F901895682F70E09B01220F331FEF
:1050C000CB01880F991F880F991F880F991F280FF0
:1050D000391F220F331F2C51344DF901A591B49182
:1050E0003C91AB014550594FFA012081CB01880F0B
:1050F000991F880F991FFC01EE0FFF1FEE0FFF1F76
:10510000E80FF91FEE51F44DA591B491F62FEE275B
:10511000E20FF11DE75EF44F8C9180832F5FFA015F
:105120002083232F30E023FF0EC0FB01E295F29590
:10513000F07FFE27E07FFE27EC51F74F86859785AD
:105140000196978786872C713070232B61F081E060
:1051500090E002C0880F991F6A95E2F72091D00471
:10516000282B2093D0040895AF92BF92CF92DF9264
:10517000EF92FF920F931F93E82EFF24F701E7545D
:10518000FA4F83E080835701AA0CBB1CAA0CBB1CFE
:105190008501000F111F000F111F0A0D1B1D045F59
:1051A0001F4F82EEC82E8BE2D82EC601800F911FB2
:1051B0000C501040FC0125913491F9011995F6012C
:1051C000E00FF11FA591B491FE2DEE27E75EF44F9D
:1051D00080818C939701220F331FC701880F991F7D
:1051E000880F991F880F991F280F391F2F5F3F4F76
:1051F000220F331F2C0D3D1DF901A591B4918C9107
:1052000080648C93C5018E0D9F1D0196880F991F98
:10521000880F991F8C0D9D1DFC01A591B4918C9157
:1052200080628C931F910F91FF90EF90DF90CF9051
:10523000BF90AF900895CF93DF93DC01E2EEFBE2E5
:1052400085919491A817B90709F46EC030E03F5FCB
:10525000C32FD0E0CE01880F991F880F991FFC0142
:10526000EE0FFF1FEE0FFF1FE80FF91FEE51F44D79
:1052700085919491A817B90751F7FE01E754FA4FA9
:105280008081823019F1833028F08630D8F0DF91A8
:10529000CF9108958823F1F48C91FC2FEE27E75EDF
:1052A000F44F8083CE01880F991F8C0F9D1F880FAC
:1052B000991F8950944DFC01A591B4911C92DF91E6
:1052C000CF9108958C91DF91CF910895832F0E9403
:1052D0005B28E8CF8130D9F682E0808381E090E0DE
:1052E0000C2E02C0880F991F0A94E2F78095209136
:1052F000D00428232093D004FE01E550F94F1082FA
:10530000832F0E945B28CE01880F991F8C0F9D1F51
:10531000880F991F8550944DFC0125913491F90116
:105320001995DF91CF91089530E0C0E0D0E0A5CF8E
:105330000F931F93CF93DF93382FC82FD0E0FE0138
:10534000E550F94F20818091D00490E0032E02C0F7
:10535000959587950A94E2F780FF29C0FE01EE0F2C
:10536000FF1FEE0FFF1FEE0FFF1FEE0FFF1FEA5193
:10537000F74F80819181019691838083CE01880FC0
:10538000991F880F991F9C01220F331F220F331F73
:10539000280F391F2E50344DF90185919491FC014D
:1053A000199581E0DF91CF911F910F9108952330DE
:1053B000A8F22250732F60E0FB01E20FF11DE75EBF
:1053C000F44F00811181675E744F30E040E050E09F
:1053D0008AE498E10E94BD180817190709F0BECFAA
:1053E000FE01E295F295F07FFE27E07FFE27EC516B
:1053F000F74F80819181019691838083CE01880F40
:10540000991F880F991F9C01220F331F220F331FF2
:10541000280F391F2C50344DF90185919491FC01CE
:10542000199580E0BFCFDF92EF92FF920F931F9309
:10543000EBEFF6E0E80FF11DD0809EEFD90E182FAC
:1054400000E089E1E82E8BE0F82EB701600F711FB4
:105450002D2D30E040E050E08AE498E10E94BD1834
:105460000D0D111DE00EF11EF701918380831F9138
:105470000F91FF90EF90DF90089570E0A9E1BBE0FD
:10548000F82FE0E0EA0FFB1FE60FF71F418150E025
:10549000382F20E0260F371FA20FB31F9C9180E00A
:1054A000482B592BCA01089590E020E030E0880F86
:1054B000991F880F991F880F991FFC01E20FF31F96
:1054C000EE0FFF1FEC51F74F118210822F5F3F4FFD
:1054D0002830310591F708952F923F924F925F92B5
:1054E0006F927F928F929F92AF92BF92CF92DF92F4
:1054F000EF92FF920F931F93DF93CF93CDB7DEB759
:1055000029970FB6F894DEBF0FBECDBFD82E282F37
:1055100030E039872887890107541A4FD8018C91C8
:105520008823B9F18230C9F029960FB6F894DEBF0E
:105530000FBECDBFCF91DF911F910F91FF90EF90E4
:10554000DF90CF90BF90AF909F908F907F906F90A3
:105550005F904F903F902F90089584E0D8018C93F6
:105560008D2D0E9498298823A1F428853985F22E53
:10557000EE24F701E75EF44F9081992371F0F90171
:10558000E952FA4F8081981741F081E0D8018C935D
:10559000CBCF81E0F8018083C7CF28843984220CE7
:1055A000331C220C331C5101AA0CBB1CAA0CBB1CC3
:1055B000A20CB31CE0EFFBE2AE0EBF1EF50125917D
:1055C0003491F90119956884798462947294B0EFEA
:1055D0007B2276246B227624F301EC51F74F8681EF
:1055E0009781019697838683688579857695762F4E
:1055F000662777956795DB01AA0FBB1FA55EB44FA1
:105600009C9180E0A701475E544FFA012381822ECE
:105610009924882A992A3181353008F052C03330D4
:1056200008F472C0FA018081882309F45CC02BEF72
:10563000422E26E0522E88859985480E591EF20189
:105640008081883009F427C283E08C9393E0F701CE
:10565000E75EF44F8081882381F0992349F08181AE
:1056600080688183E885F985E550F94F85E080837E
:105670008D2D9D830E94132A9D819923A1F529E1F7
:105680003BE0E20EF31ED7018C918823C9F5E88533
:10569000F985EE0FFF1FEE0FFF1FEE0FFF1FEE0F3E
:1056A000FF1FE451F74F80819181019691838083A0
:1056B00081E0F8018083F50185919491FC011995B1
:1056C00033CF3F3009F41EC1303109F4FCC036300D
:1056D00009F4BDC0660F771F655E744F81E0FB0162
:1056E000808391E0B4CFF101EE0FFF1FEE0FFF1F9B
:1056F000E851F74F80819181019691838083BFCFDC
:105700008D2D0E94B42810CF313020F3FA01808112
:10571000882349F3EBEF4E2EE6E05E2E88859985CF
:10572000480E591EF2018081883009F08DCF88859E
:105730009985F82FEE27E35EF44F908180E0DA013F
:1057400015962C91A22FB0E0A82BB92B313009F47B
:1057500044C2F301E85FFC4F45915491CD01880D9F
:10576000991D4817590708F48DC1313009F44AC210
:10577000F101EE0FFF1FEE0FFF1FEA5FFC4F859157
:105780009491282F892F622E782E20E0CD018770EA
:105790009070892B09F021E0CD019695879596951B
:1057A000879596958795820F660F771F655E744F74
:1057B000FB0180838B5FF2018083109709F422C183
:1057C00060E020E030E080E090E0E1E04E2E512CFF
:1057D00010C0F701E40FF11DE75EF44F8081852BC7
:1057E00080836F5F862F90E09C018A179B0708F0EB
:1057F00009C1280D391D462F4695469546954D5FA2
:1058000087709070F20102C0EE0FFF1F8A95E2F7D9
:105810005E2FF901F695E795F695E795F695E795EC
:10582000E60DF71D808190E02770307002C09595DD
:1058300087952A95E2F780FDCCCFF701E40FF11DA3
:10584000E75EF44F5095808158235083CACF688516
:1058500079856550794FFB01C080F8E0CF1609F0DB
:10586000F3CEF301E45FFC4F25913491C40101961E
:105870002817390708F402C1DB01CC92E885F985C5
:10588000EE0FFF1FEE0FFF1FEE0FFF1FEE0FFF1FAC
:10589000E65FFC4F85919491880C991C880E991EA7
:1058A00028853985F22FEE27E35EF44F908180E062
:1058B000DA0115962C9130E0822B932BF401918321
:1058C000808390E0C4CEFA018681282F30E03F83A8
:1058D0002E838BEF482E86E0582E88859985480EBA
:1058E000591EF201808190E0275F3F4F8217930796
:1058F00099F1660F771F655E744F83E0DB018C932F
:1059000093E0A5CE28853985F22FEE27E35EF44F8C
:10591000E081DA011596FC91159716962C91ABEF64
:105920004A2EA6E05A2E88859985480E591ED20126
:105930008C9190E0422F50E09A01275F3F4F8217F1
:10594000930709F461C0660F771F655E744F83E0AB
:10595000FB01808393E07BCE9A012B5F3F4F3C831A
:105960002B83FA01C5802C2D30E0C901880F991FC7
:10597000EE81FF81E817F90709F0BBCFF301E45F7F
:10598000FC4F85919491280D391D8217930708F4D7
:1059900075C088E0F2018083E885F985EE0FFF1F6E
:1059A000EE0FFF1FEE0FFF1FEE0FFF1FE65FFC4F16
:1059B00045905490CC2031F160E06B807C80A62F24
:1059C000B0E0CD01880F991F895F282F30E0A80D26
:1059D000B91DAA0FBB1FA40DB51DFA01E20FF31FDD
:1059E000818190E02E0D3F1D275E344FF9013081FB
:1059F00020E0822B932B8D939C936F5FD3018C912E
:105A00006817E8F290E023CE9E2F80E0AF2FB0E041
:105A1000A82BB92B20E030E0CD0187709070892B46
:105A200011F021E030E0CD01969587959695879508
:105A300096958795280F391F2417350709F083CFCE
:105A4000E885F985EE0FFF1FEE0FFF1FEE0FFF1F1A
:105A5000EE0FFF1FEC5FFC4F25913491CD01880DB7
:105A6000991D2817390708F05DC0660F771F655E1E
:105A7000744F82E0DB018C9392E0E9CD82E08C935D
:105A800092E0E5CD660F771F655E744F82E0FB0103
:105A9000808392E0DCCDDA0115968C91333009F4E5
:105AA000ABC0F301E05FFC4F45915491A82FB0E0EB
:105AB000C4018A0F9B1F4817590720F3333009F49C
:105AC000A9C0F301E25FFC4F859194919401220FEC
:105AD000331F280F391FCD01880F991F660F771FBD
