:100000000C9457190C9478190C9478190C9478194D
:100010000C9478190C9478190C9478190C9478191C
:100020000C9478190C9478190C9478190C9478190C
:100030000C9478190C9423290C9478190C94781941
:100040000C9478190C94C71D0C94F0260C94781914
:100050000C9478190C94F1280C9478190C94781954
:100060000C9478190C94563A0C94AA3A0C94803A51
:100070000C9478190C9478190C9478190C947819BC
:100080000C9478190C9478190C9478190C947819AC
:100090000C94D43A0C94283B0C94FE3A0C947819A6
:1000A0000C9478190C9478190C9457290C9478199D
:1000B0000C9478190C9478190C9478190C9478197C
:1000C0000C9478190C9478190C9478190C94A23B20
:1000D0000C94523B0C947A3B0C9478190C9478193C
:1000E0000C9478190A513051415154510A513051F0
:1000F00094506851785188519B5168517851AE5154
:10010000AE519450945094509450945094509450B4
:100110009450945094509450945094509450BC5196
:10012000CA51D951EA51DA54F9541A553D55DA54A5
:10013000F9549C54625580559F55C1556255805560
:10014000E455E4559C54EC55655423565A56EC55E9
:1001500065549C549C549C549756C1569756C1560E
:10016000DA54F954EB56FC561357B854F359F35973
:10017000AA59AA59F359F359B658F359F359AA5938
:10018000AA59F359F35986598659B6586E596E597A
:100190006E596E596E596E59B658B658B6586E5952
:1001A0006E596E596E595059505933593359FB583D
:1001B000FB58DB5CD25CCA5CBF5CB95CB05CA75C22
:1001C000A15C995C935C8B5C855C7D5CA15C855CCF
:1001D000745C6D5C665C5F5C585C515C4A5C6D5C39
:1001E000515C415C3A5C2C5C255C175CF75B065CFF
:1001F000D05B835BCB5BBD5BE767D967CD67416253
:1002000074622E681D68BF67B367A56799678B67BF
:100210007F6771676467FD66EC664D663466D76616
:10022000656622661066EF65DD65C565AE65896544
:100230007765536541655C69376925691369F268BB
:10024000DA68C868BC68AE689668A2688568726833
:1002500061684D683C68D369BD69B369A2699669F4
:1002600088697C696E69426A326A256AE5695F6AF3
:100270004F6AE26A3665F664B364A66493641F65E8
:100280000565116590633B64D561D561FD63F363DA
:100290009C636E644D647C648463726340632E630C
:1002A0002263E562CB62AD629F628262DD73E473BA
:1002B000D073D773C673CC73B973BF73EB73B57355
:1002C0009D736F7457744B7433741774F3736E614A
:1002D0006E00696E66006364696E6F70737578583E
:1002E0005B65666745464700616E006E66696E69CC
:1002F000747900CDCCCC3D0AD7233C17B7D13877E1
:10030000CC2B329595E6241FB14F0A000020410006
:1003100000C84200401C4620BCBE4CCA1B0E5AAE50
:10032000C59D74001F1C1F1E1F1E1F1F1E1F1E1F8A
:1003300076072000FE092000190B0400FD0750007D
:100340004203FFA001FBCF007D67003F44002A333A
:10035000001F22001B19001B10001B53494D434F67
:100360004D5F53494D393030520053494D434F4D45
:100370005F53494D3830300053494D434F4D5F5323
:10038000494D3830304300524459002B4346554EB6
:100390003A2031002B4350494E3A205245414459AE
:1003A0000043616C6C20526561647900534D5320A9
:1003B00052656164790052454D4F544520495000C3
:1003C000434F4E4E454354002B52454345495645F5
:1003D0002C002C20434C4F534544002B50445020BC
:1003E0004445414354004E4F2043415252494552E7
:1003F000004F4B00434F4E4E45435400782C204352
:100400004F4E4E454354204F4B0053455256455294
:10041000204F4B0053455256455220434C4F5345B5
:10042000003E00782C2053454E44204F4B00434C57
:100430004F5345204F4B00782C20434C4F534520C1
:100440004F4B002B4353513A0053485554204F4BC8
:10045000002B435245433A2030002B2B2B004944BC
:10046000454E54494649434154494F4E004154007A
:1004700041542B4950523D393630300041542657B3
:1004800000415445300041542B434C43433D31001F
:1004900041542B444445543D312C302C31004154BF
:1004A0002B43474D4D0041542B4343494400415495
:1004B0002B4946433D322C32004154442A313031DD
:1004C00023004154442B0041542B435553443D31A8
:1004D0002C220041542B434D47463D310041542BC3
:1004E00043534D503D31372C3136372C302C3000B2
:1004F00041542B434D47533D222B0041542B43493C
:10050000504D4F44453D300041542B4349504D4FD1
:1005100044453D310041542B4349504D55583D30E1
:100520000041542B4349504D55583D310041542B07
:1005300043474154543D310041542B4349504353A8
:1005400047503D312C220041542B43535454004119
:10055000542B43494943520041542B43494653527B
:100560000041542B434950544B413D312C33302CE6
:1005700033302C310041542B434950535441525491
:100580003D22554450222C0041542B434950535492
:100590004152543D22544350222C0041542B434994
:1005A000505345525645523D312C0041542B43493E
:1005B000505345525645523D300041542B4349500B
:1005C00053454E443D0041542B434950434C4F53F7
:1005D000453D782C310041542B434950434C4F53F7
:1005E000453D310041542B43495053485554004137
:1005F000542B43474154543D300041542B435351F5
:100600000041544F00303132333435363738396198
:1006100062636465666768696A6B6C6D6E6F707142
:1006200072737475767778797A41424344454647C8
:1006300048494A4B4C4D4E4F5051525354555657C2
:1006400058595AE0E1E2E3E4E5B8BAE6E7E8B3BFB7
:10065000E9EAEBECEDEEEFF0F1F2F3F4F5F6F7F892
:10066000F9FAFBFCFDFEFFC0C1C2C3C4C5A8AAC6FF
:10067000C7C8B2AFC9CACBCCCDCECFD0D1D2D3D4DC
:10068000D5D6D7D8D9DADBDCDDDEDF202B2D3D3C1B
:100690003E2425262E2C3F2127403A2829227C2A39
:1006A000232F00303132333435363738390030318A
:1006B0003233343536373839652B2D2E00000000A3
:1006C000000000000000000CFE08070CFE08070CEC
:1006D000FE70170CFE70170CFE70170CFE70170CD6
:1006E000FE08070000000030F8E02E70175046307A
:1006F000F84C1D30F87017D1E1EEE92000CDEEF096
:10070000ECE000EDE5F22000EDEEF0EC0003070870
:1007100007F0E0E7EC00E7E0ECEA0011071607ED70
:100720002EE72E00ED2EF02E001F072407E2FBEA35
:10073000EB00E2EAEB20002D07320707700700000C
:100740000007E30800000007B506000000202D2D7B
:100750002D20414443206572726F7273202D2D2D20
:1007600020000000000000002052656164206661E6
:10077000696C3A202020207B7B7B7B7B003B070041
:100780000000002043616C696272206661696C3A06
:1007900020207B7B7B7B7B00410700000000204307
:1007A000616C69627220627265616B3A207B7B7B4F
:1007B0007B7B004707000000004D0704030000009A
:1007C000000000000000000000000000001D220BDF
:1007D00047240000B10600000000CA080000002005
:1007E000D0E5E6E8EC3A207B7B7B7B7B7B7B7B7BED
:1007F0007B7B7B00CD070000000020C2F0E5ECFF12
:100800003A7B7B30ECF120CAE0EDE0EB3A7B00D3A1
:100810000700000000202D20CAE0EDE0EBFB202DBA
:10082000202020202020202020000000000068231D
:10083000202D20CAE0EBE8E1F0EEE2EAE0202D20F6
:100840002020202000000000000C24202D20CEF8C5
:10085000E8E1EAE8202D2020202020202020200090
:1008600000000000B907DF070502000000000000DB
:1008700000000000000000000000205F5F5F5F5F7D
:100880005F5F5F5F5F5F5F5F5F5F5F5F5F20000075
:100890000020496E7465726E616C206572726F72B1
:1008A0002032313A20000000202020202020414426
:1008B00043206F666620202020202020000000209A
:1008C0002020202020202020202020202020202028
:1008D00020202000000000000000000020202078E0
:1008E000202020002D2D2D2D2D2D2D00DC08E4089D
:1008F000CEF2EAEB2E00D2D1CC31303000D2D1CCC6
:10090000353000D2D1CF31303000D2D1CF353000A8
:10091000507431303000C3F0323100C3F032330054
:10092000F008F608FD0803090A09100916091B0951
:100930005458410054CFD00054C6CA005458CA007D
:10094000F0083009340938093C09EDE5F200F7E513
:10095000F2EDFBE900EDE5F7E5F2EDFBE9004A0910
:100960004E095509313230300032343030003438DD
:1009700030300039363030003134343030003139E5
:1009800032303000323838303000333834303000D4
:10099000353736303000640969096E097309780902
:1009A0007E0984098A0990091E04000000000002E3
:1009B000000000B0715E09000105000100000002A6
:1009C000000000B0710000001E06000000000008DA
:1009D00000000039719609000BEE080000000BF6CC
:1009E000080000000BF0080000000BF808000000F1
:1009F0000BF2080000000BFA080000000BF40800DE
:100A000000000BFC080000004350313A7B7B7B7BED
:100A10007B20204350353A7B7B7B7B7B00D80900D1
:100A20000000004350323A7B7B7B7B7B202043508D
:100A3000363A7B7B7B7B7B00E4090000000043505F
:100A4000333A7B7B7B7B7B20204350373A7B7B7B1D
:100A50007B7B00F009000000004350343A7B7B7B35
:100A60007B7B20204350383A7B7B7B7B7B00FC09DF
:100A700000000000080A040300000000000000005D
:100A80005340000000000000202D2D2D2D204D6F23
:100A9000646275732030202D2D2D2D200000000064
:100AA00000000020D1F7E5F2F7E8EAE82028F1E1BC
:100AB000F0EEF13A2D3E290000000000740A20CF2C
:100AC000E0F0E8F2E5F23A207D7D7D7D7D7D7D7D63
:100AD0002020000000A809000020D1F2EEEF2DE157
:100AE000E8F2FB3A207D202020202020200000007A
:100AF000B809000020424155443A207D7D7D7D7D2E
:100B00006270732020202020000000C809000088A7
:100B10000A050100000000000000000000000000C5
:100B2000000000204D6F646275732030202020206B
:100B30002020202020202000000000000F0B20207B
:100B4000202058202020202020202020202020206D
:100B5000202000000000000000202020205820203D
:100B600020202020202020202020202020000000E5
:100B700000000000202020205820202020202020BD
:100B80002020202020202020000000000000002342
:100B90000B04000000000000000000000000000046
:100BA000000000CDE5F200C4E000A30BA70B1E037C
:100BB0000000000000010000000000AA0B0000552A
:100BC0000600000004170B010000001F0000002FAA
:100BD00024000000048507010000000C000000391B
:100BE0002400000004DC0500000000630000004356
:100BF0002400000004BF05000000001700000025CD
:100C000024000000044F06000000003B0000001B11
:100C10002400000004B406000000003B00000011A6
:100C2000240000006175746F2020006D616E756195
:100C30006C00636F6E66696700240C2B0C320C6EBF
:100C40006F74207265636F670053494D39303052BD
:100C500020200053494D383030202020003F0C49DF
:100C60000C530C1DF1065D0C0000B30600000000E3
:100C7000B3060000001D8A0700000000020000000B
:100C80006240390C0000E90800000000EA0800009A
:100C90000000EB0800000000EC0800000000020B60
:100CA00000000000030B00000000040B0000000027
:100CB000050B00000000D30200000000D108000076
:100CC00000220900000000000600000000000000F3
:100CD00000221D00000000000600000000000000CF
:100CE0000022590000000000060000000000000083
:100CF00000226D000000000006000000000000005F
:100D00000001810000000000FF0000000000000062
:100D10000001820000000000FF0000000000000051
:100D20000001830000000000FF0000000000000040
:100D30000001840000000000FF000000000000002F
:100D40000001850000000000FF000000000000001E
:100D50000001860000000000FF000000000000000D
:100D60000001870000000000FF00000000000000FC
:100D70000001880000000000FF00000000000000EB
:100D80000001890000000000FF00000000000000DA
:100D900000018A0000000000FF00000000000000C9
:100DA00000018B0000000000FF00000000000000B8
:100DB00000018C0000000000FF00000000000000A7
:100DC00000018D0000000000FF0000000000000096
:100DD00000018E0000000000FF0000000000000085
:100DE00000018F0000000000FF0000000000000074
:100DF0000001900000000000FF0000000000000063
:100E00000008A10000000000FFFF0000000000003B
:100E10000008A30000000000FFFF00000000000029
:100E20000008A50000000000FFFF00000000000017
:100E30000008A70000000000FFFF00000000000005
:100E40000001B30000000000FF00000000000000EF
:100E50000001B40000000000FF00000000000000DE
:100E60000001B50000000000FF00000000000000CD
:100E70000001B60000000000FF00000000000000BC
:100E80000001B70000000000FF00000000000000AB
:100E90000001B80000000000FF000000000000009A
:100EA0000001B90000000000FF0000000000000089
:100EB0000001BA0000000000FF0000000000000078
:100EC0000001BB0000000000FF0000000000000067
:100ED0000001BC0000000000FF0000000000000056
:100EE0000001BD0000000000FF0000000000000045
:100EF0000001BE0000000000FF0000000000000034
:100F00000001BF0000000000FF0000000000000022
:100F10000001C00000000000FF0000000000000011
:100F20000001C10000000000FF0000000000000000
:100F30000001C20000000000FF00000000000000EF
:100F40000008B10000000000FFFF000000000000EA
:100F50000008C30064000000FFFF00000000000064
:100F60000201130100000000010000000000000069
:100F70000008070000000000FFFF00000000000064
:100F80000020CCEEE4E5EC207B7B7B7B7B7B7B7BDA
:100F90007B207B7B7B00630C0000000020436F6E96
:100FA00074726F6C206D6F64653A7D7D7D7D7D7D93
:100FB000000000750C0000204D7949507B7B7B2E92
:100FC0007B7B7B2E7B7B7B2E7B7B7B00850C0000E1
:100FD000000020436C49507B7B7B2E7B7B7B2E7BF0
:100FE0007B7B2E7B7B7B009D0C00000000204163FF
:100FF0007469766520636F6E656374696F6E7B7B61
:101000007B00B50C00000000204649464F3A6D6158
:1010100078207B7B2F3730627974652000BB0C0011
:10102000000000202D2D2D2D2D2D2D41504E2D2D2C
:101030002D2D2D2D2D2D2D00000000000000207DD8
:101040007D7D7D7D7D7D7D7D7D7D7D7D7D7D7D7DD0
:101050007D7D000000C10C0000207D7D7D7D7D7DBB
:101060007D7D7D7D7D7D7D7D7D7D7D7D7D00000027
:10107000D10C0000202D2D2D41504E2D55534552A1
:10108000204E414D452D2D2D000000000000002078
:101090007D7D7D7D7D7D7D7D7D7D7D7D7D7D7D7D80
:1010A0007D7D7D000000E10C0000202D2D2D4150A4
:1010B0004E2D50415353574F52442D2D2D2D00008E
:1010C0000000000000207D7D7D7D7D7D7D7D7D7D1E
:1010D0007D7D7D7D7D7D7D7D7D000000F10C0000AE
:1010E000202D2D53656E642055445020746F204987
:1010F000502D2D2D00000000000000204950313AF5
:101100007D7D7D2E7D7D7D2E7D7D7D2E7D7D7D0079
:101110000000010D0000204950323A7D7D7D2E7D7A
:101120007D7D2E7D7D7D2E7D7D7D000000410D002D
:1011300000204950333A7D7D7D2E7D7D7D2E7D7D45
:101140007D2E7D7D7D000000810D00002049503402
:101150003A7D7D7D2E7D7D7D2E7D7D7D2E7D7D7DEF
:10116000000000C10D0000202D2D2D2D20554450D4
:1011700020506F7274202D2D2D2D2D0000000000A9
:1011800000002049503120506F72743A7D7D7D7D82
:101190007D2020202020000000010E00002049506A
:1011A0003220506F72743A7D7D7D7D7D202020201D
:1011B00020000000110E00002049503320506F72B3
:1011C000743A7D7D7D7D7D2020202020000000213F
:1011D0000E00002049503420506F72743A7D7D7D9E
:1011E0007D7D2020202020000000310E0000202DD9
:1011F00020544350204950204669726577616C6CD9
:101200002D2D00000000000000204950313A7D7D66
:101210007D2E7D7D7D2E7D7D7D2E7D7D7D00000062
:10122000410E0000204950323A7D7D7D2E7D7D7D2E
:101230002E7D7D7D2E7D7D7D000000810E000020B5
:101240004950333A7D7D7D2E7D7D7D2E7D7D7D2EA9
:101250007D7D7D000000C10E0000204950343A7DA4
:101260007D7D2E7D7D7D2E7D7D7D2E7D7D7D000095
:1012700000010F0000205443505365727665725090
:101280006F72743A7D7D7D7D7D000000410F00000E
:101290002054696D656F7574205443503A7D7D7D8F
:1012A0007D7D7D63000000510F0000202D2D2D2D30
:1012B0002D2D2D20534D53202D2D2D2D2D2D2D0039
:1012C00000000000000020D0E0F1F1FBEBEAE0209C
:1012D000534D533A2020207D7D7D000000610F009A
:1012E00000202D2D4964656E7469666963617469B7
:1012F0006F6E2D2D2D000000000000002056656748
:101300006120532F4E3A20202020207D7D7D7D7D41
:10131000000000710F0000810F220000000000009B
:101320000000000000000000000000FD06F7061F9E
:10133000CF082B13001FCF082B13012020202020C3
:1013400020202020202020202020202020202000BD
:10135000000020CFE5F0E5E420EFF0EEE4EEEBE670
:10136000E5EDE8E5EC20000000F0E0E1EEF2FB2026
:10137000EFF0EEE2E5F0FCF2E520E2F1E50000003E
:10138000202020202020EDE0F1F2F0EEE9EAE82034
:10139000202020200000000000000000002020206D
:1013A000202020202020202020202020202020203D
:1013B00020000000D1EEF5F0E0EDB8EDEDFBF520FA
:1013C000EDE0F1F2F0EEE5EA00000020202020ED53
:1013D000E520EEE1EDE0F0F3E6E5EDEE2020200083
:1013E000000020202020202020202020202020203D
:1013F000202020202020000000000000000000D15C
:10140000EEF5F0E0EDE8F2FC20EDE0F1F2F0EEE9CF
:10141000EAE83F00000000000000202020C4E02097
:101420002D20EAEDEEEFEAE020C2D5CEC420000088
:1014300000000000002020CDE5F2202D20EAEDEE96
:10144000EFEAE020C2DBD5CEC400000000000000BF
:10145000202020202020202020202020202020208C
:101460002020202000000000000000FF13040300E3
:10147000000000000000008540000000000000C2E5
:10148000EEF1F2E0EDEEE22E20EDE0F1F2F0EEE929
:10149000EAE83F00000000000000202020C4E02017
:1014A0002D20EAEDEEEFEAE020C2D5CEC420000008
:1014B00000000000002020CDE5F2202D20EAEDEE16
:1014C000EFEAE020C2DBD5CEC4000000000000003F
:1014D000202020202020202020202020202020200C
:1014E00020202020000000000000007F14040300E2
:1014F000000000000000007A400000000000002D05
:101500002D00FF1405000002150005010002150062
:10151000050200021500D3F1F2ED2FD0E5E7E5F06A
:10152000E2EDE0FF20EAEEEFE8FF0000000000003F
:101530000020D1EEF5F0E0EDE8F2FC2020202020A4
:10154000202020202000000000006B1420C2EEF1BB
:10155000F2E0EDEEE23A7B7B2E7B7B2E32307B7B22
:101560000004150000000020D1EEF1F22E45455098
:10157000524F4D3A207B7B7B7B7B20003513000054
:101580000000161504010000000000000000BE75F8
:10159000000000000000202D2D2D2D2D204D656D0B
:1015A0006F7279202D2D2D2D2D20000000000000C0
:1015B0000020466C6173683A20207B7B7B7B7B201C
:1015C0002020202020002F1300000000204545503F
:1015D000524F4D3A207B7B7B7B7B2020202020209C
:1015E00000351300000000205265736574204545E6
:1015F00050524F4D206661696C20200000000000B1
:101600000000204261636B557020454550524F4D9C
:1016100020202020202000000000008215961505C3
:10162000010000000000000000384C000000000035
:1016300000205F5F5F5F5F5F5F5F5F5F5F5F5F5F58
:101640005F5F5F5F2000000020496E7465726E610D
:101650006C206572726F722031313A2000000020D8
:1016600020202020466C617368206661696C202010
:1016700020202000000020202020202020202020CA
:10168000202020202020202020200000000000001A
:10169000000000205F5F5F5F5F5F5F5F5F5F5F5FB6
:1016A0005F5F5F5F5F5F2000000020496E746572BE
:1016B0006E616C206572726F722031323A200000C8
:1016C0000020202020454550524F4D206661696C16
:1016D000202020202000000020202020202020206A
:1016E000202020202020202020202020000000007A
:1016F0000000000000205F5F5F5F5F5F5F5F5F5F14
:101700005F5F5F5F5F5F5F5F2000000020496E7476
:1017100065726E616C206572726F722031333A208F
:1017200000000020546F74616C206D656D6F7279DC
:10173000206661696C2020000000202020202020ED
:1017400020202020202020202020202020200000D9
:1017500000000000000000000031169316F516008E
:101760006A0700000007870700000000AF060000BE
:1017700000202D2D2D205363616E204379636C650D
:10178000202D2D2D2000000000000000205363615B
:101790006E4379636C653A2020207B7B7B306D73D0
:1017A000005F1700000000205363616E4379636C93
:1017B0005065725365633A7B7B7B7B006517000045
:1017C0000000204D61785363616E4379636C653A24
:1017D0007B7B7B306D73006B17000000007117047A
:1017E0000100000000000000006640000000000052
:1017F000000B230C00000004AE0600000031302076
:10180000F1E5EA00333020F1E5EA003120ECE8EDC3
:1018100020003320ECE8ED2000313020ECE8ED0032
:10182000FD1704180B18121819181E3101000000BA
:1018300000040000000000201800082F0100000034
:1018400000FF030000000000000010F6060000008A
:10185000202D20D1EBF3E6E5E1EDEEE520ECE5ED22
:10186000FE202D200000000000000020C4E8F1EA66
:10187000F0E5F2EDFBE520E2F5EEE4FB20202000B0
:10188000000000006F1E20C4E8F1EAF0E5F2EDFB75
:10189000E520E2FBF5EEE4FB202000000000003331
:1018A0002120C0EDE0EBEEE3EEE2FBE520E2F5EE19
:1018B000E4FB2020200000000000E32120C0EDE038
:1018C000EBEEE3EEE2FBE520E2FBF5EEE4FB2020AD
:1018D0000000000000A32220C0D6CF20202020201E
:1018E0002020202020202020202020000000000098
:1018F000660820D2E5F0ECEEE4E0F2F7E8EAE82052
:1019000020202020202000000000003729204D6FDB
:101910006462757320202020202020202020202099
:101920002000000000008F0B20CCEEE4E5EC20202E
:101930002020202020202020202020200000000027
:10194000001713207B207D7D2E7D7D2E7D7D207DCB
:101950007D3A7D7D3A7D7D00BE0BC40B000020C02A
:10196000E2F2EECFE5F0E5F5CBE5F2EDC2F03A7D3F
:101970007D7D000000AE0B000020CDE0F0E0E1EE48
:10198000F2EAE03A7B7B7B7B7BF77B7BEC00F11719
:101990000000000020D1EEF1F2EEFFEDE8E520EFCF
:1019A000E0ECFFF2E820202000000000001D1620DF
:1019B0005363616E204379636C653A20207B7B7BA7
:1019C000306D73005F170000DD1720CFEEF0EEE3FF
:1019D00020E8EEEDEEE42E3A20207D7D7D7D0000B6
:1019E000003A18000020CFEEE4F1E2E5F2EAE0C6AA
:1019F000CAC83A7D7D7D7D7D7D0000002A180000EB
:101A000020D1F7B8F22EDDCCCD3A7B7B7B7B7B7B84
:101A10007B7B7B7B004A18000000005018110100FE
:101A20000000000000000000000000000000002096
:101A30005F5F5F5F5F5F5F5F5F5F5F5F5F5F5F5FB6
:101A40005F5F2000000020496E7465726E616C203B
:101A50006572726F722034313A2000000054696D53
:101A6000657220616C6C6F636174696F6E20657262
:101A70007200000020202020202020202020202074
:101A80002020202020202020000000000000000056
:101A9000001FFC061B07001F02070D07001FFC06A6
:101AA0001B07011F02070D07011FFC061B07021F72
:101AB00002070D07021FFC061B07031F02070D0785
:101AC000031FFC061B07041F02070D07041FFC066B
:101AD0001B07051F02070D07051FFC061B07061F36
:101AE00002070D07061FFC061B07071F02070D074D
:101AF000071FFC061B07081F02070D07081FFC062F
:101B00001B07091F02070D07091FFC061B070A1FF9
:101B100002070D070A1FFC061B070B1F02070D0714
:101B20000B1FFC061B070C1F02070D070C1FFC06F2
:101B30001B070D1F02070D070D1FFC061B070E1FBD
:101B400002070D070E1FFC061B070F1F02070D07DC
:101B50000F1FFC061B07101F02070D07101FFC06B6
:101B60001B07111F02070D071120140100000000C0
:101B70000000000000002907002014010000000000
:101B800000000000000029070120140100000000EF
:101B900000000000000029070220140100000000DE
:101BA00000000000000029070320140100000000CD
:101BB00000000000000029070420140100000000BC
:101BC00000000000000029070520140100000000AB
:101BD000000000000000290706201401000000009A
:101BE0000000000000002907072014010000000089
:101BF0000000000000002907082014010000000078
:101C00000000000000002907092014010000000066
:101C100000000000000029070A2014010000000055
:101C200000000000000029070B2014010000000044
:101C300000000000000029070C2014010000000033
:101C400000000000000029070D2014010000000022
:101C500000000000000029070E2014010000000011
:101C600000000000000029070F2014010000000000
:101C700000000000000029071020140100000000EF
:101C8000000000000000290711204E313A20207B7F
:101C90007B7B7B207D7D7D7D207B7B7B7B00911A08
:101CA000691B0000204E323A20207B7B7B7B207D0D
:101CB0007D7D7D207B7B7B7B009D1A791B00002036
:101CC0004E333A20207B7B7B7B207D7D7D7D207B7E
:101CD0007B7B7B00A91A891B0000204E343A202010
:101CE0007B7B7B7B207D7D7D7D207B7B7B7B00B533
:101CF0001A991B0000204E353A20207B7B7B7B20ED
:101D00007D7D7D7D207B7B7B7B00C11AA91B000034
:101D1000204E363A20207B7B7B7B207D7D7D7D2085
:101D20007B7B7B7B00CD1AB91B0000204E373A200D
:101D3000207B7B7B7B207D7D7D7D207B7B7B7B0077
:101D4000D91AC91B0000204E383A20207B7B7B7BB0
:101D5000207D7D7D7D207B7B7B7B00E51AD91B0070
:101D600000204E393A20207B7B7B7B207D7D7D7D52
:101D7000207B7B7B7B00F11AE91B0000204E313079
:101D80003A207B7B7B7B207D7D7D7D207B7B7B7BED
:101D900000FD1AF91B0000204E31313A207B7B7B7D
:101DA0007B207D7D7D7D207B7B7B7B00091B091C4F
:101DB0000000204E31323A207B7B7B7B207D7D7D75
:101DC0007D207B7B7B7B00151B191C0000204E3186
:101DD000333A207B7B7B7B207D7D7D7D207B7B7BE5
:101DE0007B00211B291C0000204E31343A207B7BD4
:101DF0007B7B207D7D7D7D207B7B7B7B002D1B394C
:101E00001C0000204E31353A207B7B7B7B207D7D82
:101E10007D7D207B7B7B7B00391B491C0000204E95
:101E200031363A207B7B7B7B207D7D7D7D207B7BDB
:101E30007B7B00451B591C0000204E31373A207B2C
:101E40007B7B7B207D7D7D7D207B7B7B7B00511B95
:101E5000691C0000204E31383A207B7B7B7B207D43
:101E60007D7D7D207B7B7B7B005D1B791C00008959
:101E70001C12000000000000000000000000000034
:101E80000000001F97070000000000000000000095
:101E90003707001F97070000000000000000000047
:101EA0003707011F97070000000000000000000036
:101EB0003707021F97070000000000000000000025
:101EC0003707031F97070000000000000000000014
:101ED0003707041F97070000000000000000000003
:101EE0003707051F970700000000000000000000F2
:101EF0003707061F970700000000000000000000E1
:101F00003707071F970700000000000000000000CF
:101F10003707081F970700000000000000000000BE
:101F20003707091F970700000000000000000000AD
:101F300037070A1F9707000000000000000000009C
:101F400037070B1F9707000000000000000000008B
:101F500037070C1F9707000000000000000000007A
:101F600037070D1F97070000000000000000000069
:101F700037070E1F97070000000000000000000058
:101F800037070F20C2FBF5EEE4204E313A20202027
:101F900020207D7D7D7D20000000831E000020C26A
:101FA000FBF5EEE4204E323A20202020207D7D7D7E
:101FB0007D20000000931E000020C2FBF5EEE4200F
:101FC0004E333A20202020207D7D7D7D20000000A2
:101FD000A31E000020C2FBF5EEE4204E343A202080
:101FE0002020207D7D7D7D20000000B31E0000208C
:101FF000C2FBF5EEE4204E353A20202020207D7DE6
:102000007D7D20000000C31E000020C2FBF5EEE431
:10201000204E363A20202020207D7D7D7D2000002E
:1020200000D31E000020C2FBF5EEE4204E373A201C
:10203000202020207D7D7D7D20000000E31E00000B
:1020400020C2FBF5EEE4204E383A20202020207DEF
:102050007D7D7D20000000F31E000020C2FBF5EE18
:10206000E4204E393A20202020207D7D7D7D2000F7
:102070000000031F000020C2FBF5EEE4204E3130CB
:102080003A202020207D7D7D7D20000000131F0050
:102090000020C2FBF5EEE4204E31313A2020202012
:1020A0007D7D7D7D20000000231F000020C2FBF508
:1020B000EEE4204E31323A202020207D7D7D7D20AF
:1020C000000000331F000020C2FBF5EEE4204E317B
:1020D000333A202020207D7D7D7D20000000431F9D
:1020E000000020C2FBF5EEE4204E31343A202020DF
:1020F000207D7D7D7D20000000531F000020C2FB5D
:10210000F5EEE4204E31353A202020207D7D7D7D86
:1021100020000000631F000020C2FBF5EEE4204E0B
:1021200031363A202020207D7D7D7D200000007307
:102130001F0000831F1000000000000000000000CE
:10214000000000000000000B060B0000000B080B55
:102150000000000B0A0B0000000B0C0B0000000B32
:102160000E0B0000000B100B0000000B120B000008
:10217000000B140B000000204E313A207B7B7B7B50
:102180007B204E323A207B7B7B7B7B00472100000B
:102190000000204E333A207B7B7B7B7B204E343A01
:1021A000207B7B7B7B7B00532100000000204E3591
:1021B0003A207B7B7B7B7B204E363A207B7B7B7B74
:1021C0007B005F2100000000204E373A207B7B7BA4
:1021D0007B7B204E383A207B7B7B7B7B006B210016
:1021E0000000007721040300000000000000000050
:1021F000000000000000000E8B0700000000FF033D
:10220000000000000000000E8D0700000000FF032A
:10221000000000000000000E8F0700000000FF0318
:10222000000000000000000E910700000000FF0306
:102230000000000000000020C2FBF5EEE4204E315B
:102240003A20202020207D7D7D7D7D000000F7212B
:10225000000020C2FBF5EEE4204E323A2020202080
:10226000207D7D7D7D7D0000000722000020C2FBD7
:10227000F5EEE4204E333A20202020207D7D7D7D28
:102280007D0000001722000020C2FBF5EEE4204E86
:10229000343A20202020207D7D7D7D7D0000002798
:1022A00022000037220400000000000000000000AF
:1022B0000000000000000007D30800000007D50858
:1022C00000000007D70800000007D9080000000739
:1022D000DB0800000007DD0800000007DF08000041
:1022E00000202D2D2D20CAE0EDE0EBFB20C0D6CF45
:1022F000202D2D2D2000000000000000204E313A3E
:10230000207B7B7B7B7B204E323A207B7B7B7B7BE5
:1023100000B72200000000204E333A207B7B7B7BFD
:102320007B204E343A207B7B7B7B7B00C3220000EA
:102330000000204E353A207B7B7B7B7B204E363A5B
:10234000207B7B7B7B7B00CF220000000020CEEF38
:10235000EEF0ED2E20EAE0EDE0EB3A207B7B7B7B9C
:102360007B00DB2200000000E122050100000000EC
:1023700000000000000000000000000000270C002A
:10238000000004260C00000004250C000000002AB8
:102390000C00000004290C00000004280C000000C0
:1023A000202D2D2D20CAE0EBE8E1F0EEE2EAE0205E
:1023B0002D2D2D2000000000000000205A65726FB6
:1023C0003A20207B7B7B207B7B7B207B7B7B2000E0
:1023D0007C23000000002046756C6C3A20207B7B3B
:1023E0007B207B7B7B207B7B7B20008E230000007F
:1023F00000202020202020202020202020202020FD
:10240000202020202000000000000000A023040362
:1024100000000000000000000000000000000000BC
:10242000526573657400496E697469616C697361A2
:10243000740043616C6962726174696F6E00526509
:102440006164004F6666002024262432243E244323
:1024500024094306EC0801094506EC080109470672
:10246000EC0801094906EC0801094B06EC080109D2
:102470004D06EC08011E17010000000007000000D7
:1024800000002009001E18010000000007000000E5
:1024900000002009001E19010000000007000000D4
:1024A00000002009001E1A010000000007000000C3
:1024B00000002009001E1B010000000007000000B2
:1024C00000002009001E1C010000000007000000A1
:1024D0000000200900031D0180FFFFFF7F000000B6
:1024E000000000000103200180FFFFFF7F000000CB
:1024F000000000000103230180FFFFFF7F000000B8
:10250000000000000103260180FFFFFF7F000000A4
:10251000000000000103290180FFFFFF7F00000091
:102520000000000001032C0180FFFFFF7F0000007E
:102530000000000001081E01840300004C0400009C
:102540000000000003082101840300004C04000087
:102550000000000003082401840300004C04000074
:102560000000000003082701840300004C04000061
:102570000000000003082A01840300004C0400004E
:102580000000000003082D01840300004C0400003B
:10259000000000000320CAE0EDE0EB204E313A20BD
:1025A0007B7B7B7B7B7B7B7C43005124000000009A
:1025B00020D2E5F0ECEEE4E0F2F7E8EA3A207D7DA7
:1025C0007D7D7D7D0000007524000020D1E4E2E8DF
:1025D000E33A2020202020207D7D7D7D7D7C4300EE
:1025E0000000D524000020CAEEFDF4F4E8F6E8E58A
:1025F000EDF23A20207D7D7D7D7D000000352500B7
:10260000009525040100000000000000000000000B
:10261000000000000020CAE0EDE0EB204E323A203E
:102620007B7B7B7B7B7B7B7C430057240000000013
:1026300020D2E5F0ECEEE4E0F2F7E8EA3A207D7D26
:102640007D7D7D7D0000008524000020D1E4E2E84E
:10265000E33A2020202020207D7D7D7D7D7C43006D
:102660000000E524000020CAEEFDF4F4E8F6E8E5F9
:10267000EDF23A20207D7D7D7D7D00000045250026
:10268000001526040100000000000000000000000A
:10269000000000000020CAE0EDE0EB204E333A20BD
:1026A0007B7B7B7B7B7B7B7C43005D24000000008D
:1026B00020D2E5F0ECEEE4E0F2F7E8EA3A207D7DA6
:1026C0007D7D7D7D0000009524000020D1E4E2E8BE
:1026D000E33A2020202020207D7D7D7D7D7C4300ED
:1026E0000000F524000020CAEEFDF4F4E8F6E8E569
:1026F000EDF23A20207D7D7D7D7D00000055250096
:102700000095260401000000000000000000000009
:10271000000000000020CAE0EDE0EB204E343A203B
:102720007B7B7B7B7B7B7B7C430063240000000006
:1027300020D2E5F0ECEEE4E0F2F7E8EA3A207D7D25
:102740007D7D7D7D000000A524000020D1E4E2E82D
:10275000E33A2020202020207D7D7D7D7D7C43006C
:1027600000000525000020CAEEFDF4F4E8F6E8E5D7
:10277000EDF23A20207D7D7D7D7D00000065250005
:102780000015270401000000000000000000000008
:10279000000000000020CAE0EDE0EB204E353A20BA
:1027A0007B7B7B7B7B7B7B7C430069240000000080
:1027B00020D2E5F0ECEEE4E0F2F7E8EA3A207D7DA5
:1027C0007D7D7D7D000000B524000020D1E4E2E89D
:1027D000E33A2020202020207D7D7D7D7D7C4300EC
:1027E00000001525000020CAEEFDF4F4E8F6E8E547
:1027F000EDF23A20207D7D7D7D7D00000075250075
:102800000095270401000000000000000000000007
:10281000000000000020CAE0EDE0EB204E363A2038
:102820007B7B7B7B7B7B7B7C43006F2400000000F9
:1028300020D2E5F0ECEEE4E0F2F7E8EA3A207D7D24
:102840007D7D7D7D000000C524000020D1E4E2E80C
:10285000E33A2020202020207D7D7D7D7D7C43006B
:1028600000002525000020CAEEFDF4F4E8F6E8E5B6
:10287000EDF23A20207D7D7D7D7D000000852500E4
:102880000015280401000000000000000000000006
:10289000000000000020CAE0EDE0EB204E313A20BD
:1028A0007B7B7B7B7B7B7B7C430051240000012670
:1028B00020CAE0EDE0EB204E323A207B7B7B7B7B35
:1028C0007B7B7C430057240000812620CAE0EDE09A
:1028D000EB204E333A207B7B7B7B7B7B7B7C4300F6
:1028E0005D240000012720CAE0EDE0EB204E343AE1
:1028F000207B7B7B7B7B7B7B7C4300632400008194
:102900002720CAE0EDE0EB204E353A207B7B7B7B35
:102910007B7B7B7C430069240000012820CAE0ED1A
:10292000E0EB204E363A207B7B7B7B7B7B7B7C43C2
:10293000006F240000812895280600000000000098
:102940000000000000000000000000000000810FF7
:102950002200B32900000000000000000000000079
:102960000000202D47534D2DF1E8E3EDE0EBE8E7C3
:10297000E0F2EEF02D200000000000B32920D1EBA2
:10298000F3E6E5E1EDEEE5202020202020202020C8
:102990002000000000001B1A20CCEEE4E5EC202013
:1029A00020202020202020202020202000000000A7
:1029B000004E2962290300B3290000000000000036
:1029C000000000000000000000704079406557BD25
:1029D000520F5BB45A0702C306E3060000E1F6910A
:1029E0000830F80E2818FCA2370CFEEA4600004911
:1029F00065E803A683D007FFFFF4170000DFF64663
:102A00000430F8130C24FAFE1318FCC61B0CFE6BE2
:102A1000230000032BF4019A32E803303ADC05C9A5
:102A200041D007FFFFBD380000F6F5C2380CFEE2CA
:102A3000460000B662E803967DD007AE97B80BEA71
:102A4000B0A00F54C98813E2E07017FFFF971E0073
:102A5000001FF65F1C0CFE5631E803D03ED007D2B3
:102A60004BB80B7058A00FAA6488136C707017FFD6
:102A7000FF0E47000020F6FE380CFE4862E803C453
:102A80007CD0076E96B80B50AFA00F56C788139432
:102A9000DE7017F6F4581BFFFF8B1F00001EF61C9C
:102AA0001A0CFE642DE803C639D007C445B80B687C
:102AB00051A00F9E5C88137A677017FFFFCE4F00FE
:102AC00000D5F67D1D0CFE8B2500008F2DF40192A4
:102AD00035E803953DDC0563420807FFFF3E3500FE
:102AE0000090019901DC057C07B80B8E1588131B3B
:102AF0001F7017302A581BC436401FB6442823F2D3
:102B00005310275A64F82AD075E02E4088C83278CE
:102B10009BB03650AF983A82C3803ED2D76842FF0E
:102B2000FF384A06000700000801080208030804ED
:102B3000080508000102030405060708090A0B0C32
:102B40000D0E0F07010801060140000701080106EC
:102B50000180000401050103018000210022002002
:102B6000000100210022002000020021002200209C
:102B70000004002100220020000800210022002083
:102B8000001000210022002000200021002200204F
:102B90000040002100220020008000330034003279
:102BA00000040004010501030140000401050103C4
:102BB00001200004010501030110000401050103C7
:102BC00001080004010501030102010401050103DC
:102BD0000104012B50445000434C4F5300504F53BD
:102BE000540047455420000D0A002B4353513A200E
:102BF000256868752C2568687500256868752C201F
:102C0000434C4F534544004F4B00256868752025C1
:102C100068687520256868752025686875004E4FBE
:102C200020434152524945520042555359004F4B9F
:102C3000002B434C43433A20312C302C362C00419E
:102C400054480D0041542B435245433D342C2243FC
:102C50003A5C557365725C4E6F74436F6E66697251
:102C60006D2E616D72222C302C3130300D004154AC
:102C70002B435245433D342C22433A5C55736572D5
:102C80005C436F6E6669726D2E616D72222C302C02
:102C90003130300D002B435245433A20300041542F
:102CA0002B435245433D350D002B434C43433A20C3
:102CB000332C302C36002B434C43433A20322C30FB
:102CC0002C36002B434C43433A20312C302C360019
:102CD0002B44544D463A2031002B435245433A2071
:102CE000300041542B435245433D342C22433A5C3F
:102CF000557365725C436F6E6669726D526571756E
:102D00006573742E616D72222C302C3130300D00C1
:102D10002B435245433A2030002E616D72222C30F5
:102D20002C3130300D0041542B435245433D342C5F
:102D300022433A5C557365725C416C61726D002B85
:102D4000434C43433A20312C302C362C002B434C3F
:102D500043433A20312C302C362C002B434C434338
:102D60003A20312C302C362C002B434C43433A2054
:102D7000312C302C302C002B434C43433A20312C47
:102D8000302C302C002B434C43433A20312C302C38
:102D9000302C002B434C43433A20332C302C332C23
:102DA000002B434C43433A20322C302C332C002B45
:102DB000434C43433A20312C302C332C002B434CD2
:102DC00043433A20332C302C362C002B434C4343C6
:102DD0003A20322C302C362C002B434C43433A20E3
:102DE000312C302C362C002B434C43433A20332CCF
:102DF000302C322C002B434C43433A20322C302CC5
:102E0000322C002B434C43433A20312C302C322CB3
:102E1000002B434C43433A20332C302C36002B43B9
:102E20004C43433A20322C302C36002B434C434346
:102E30003A20312C302C36002B44544D463A203168
:102E400000CE00C800C900CA00CD00CC00691E6FCA
:102E50001E731E741E00460047006E28B200B300A9
:102E60007828A400A80084280004061F0604000097
:102E700006090906000000000008080E0F1F0F06D3
:102E800000000E111C110E000E11101C10110E006E
:102E90000A000C0404040E000A0E040404040E00CC
:102EA0000000000000000000FFFFFFFFFFFFFFFF2A
:102EB000FFFFFFFFFFFFFFFF0002FFFFFFFFFFFF1E
:102EC000FFFFFFFFFFFFFFFF2021222324252627EE
:102ED00028292A2B2C2D2E2F3031323334353637FA
:102EE00038393A3B3C3D3E3F4041424344454647EA
:102EF00048494A4B4C4D4E4F5051525354555657DA
:102F000058595A5B5C5D5E5F6061626364656667C9
:102F100068696A6B6C6D6E6F7071727374757677B9
:102F200078797A7B017DE97FFFFFFFFFFFFFFFFFDD
:102F3000FFFFFFFFFFFFFFFFFFFFFFFFFFFFFFFFA1
:102F4000FFFFFFFFFFFFFFFFFFFFFFFFFFFFFFD9B7
:102F5000A2FF04FFFFFFFF06FFFF4969FFFFFFDA43
:102F6000B5FF03FFFFFFFF0541A042A1E045A3A479
:102F7000A5A64BA74D484FA8504354A9AA58E1AB6A
:102F8000ACE2ADAE62AFB0B161B2B3B4E365B6B7B7
:102F9000B8B9BABBBCBD6FBE7063BF79E478E5C099
:102FA000C1E6C2C3C4C5C6C780C094D40001020331
:102FB00004050600C0C101C30302C2C60607C70557
:102FC000C5C404CC0C0DCD0FCFCE0E0ACACB0BC995
:102FD0000908C8D81819D91BDBDA1A1EDEDF1FDD75
:102FE0001D1CDC14D4D515D71716D6D21213D31145
:102FF000D1D010F03031F133F3F23236F6F737F545
:103000003534F43CFCFD3DFF3F3EFEFA3A3BFB39D4
:10301000F9F83828E8E929EB2B2AEAEE2E2FEF2DD4
:10302000EDEC2CE42425E527E7E62622E2E323E184
:103030002120E0A06061A163A3A26266A6A767A5A4
:103040006564A46CACAD6DAF6F6EAEAA6A6BAB6914
:10305000A9A86878B8B979BB7B7ABABE7E7FBF7DF4
:10306000BDBC7CB47475B577B7B67672B2B373B1C4
:103070007170B05090915193535292965657975504
:103080009594549C5C5D9D5F9F9E5E5A9A9B5B9954
:10309000595898884849894B8B8A4A4E8E8F4F8D54
:1030A0004D4C8C4484854587474686824243834104
:1030B00081804000C1814001C0804101C080410049
:1030C000C1814001C0804100C1814000C1814001F7
:1030D000C0804101C0804100C1814000C1814001E8
:1030E000C0804100C1814001C0804101C0804100D9
:1030F000C1814001C0804100C1814000C1814001C7
:10310000C0804100C1814001C0804101C0804100B8
:10311000C1814000C1814001C0804101C0804100A7
:10312000C1814001C0804100C1814000C181400196
:10313000C0804101C0804100C1814000C181400187
:10314000C0804100C1814001C0804101C080410078
:10315000C1814000C1814001C0804101C080410067
:10316000C1814001C0804100C1814000C181400156
:10317000C0804100C1814001C0804101C080410048
:10318000C1814001C0804100C1814000C181400136
:10319000C0804101C0804100C1814000C181400127
:1031A000C0804100C1814001C0804101C080410018
:1031B000C1814000407A10F35A00A0724E180900F5
:1031C00010A5D4E80000E87648170000E40B54028C
:1031D0000000CA9A3B000000E1F5050000809698C7
:1031E00000000040420F000000A086010000001017
:1031F0002700000000E80300000000640000000059
:10320000000A00000000000100000000002C76D839
:1032100088DC674F0823DFC1DFAE59E1B1B796E51F
:10322000E3E453C63AE651997696E8E6C28426EB83
:10323000898C9B62ED407C6FFCEFBC9C9F40F2BA96
:10324000A56FA5F490055A2AF75C936B6CF9676D2E
:10325000C11BFCE0E40D47FEF520E6B500D0ED9083
:103260002E0300943577050080841E080000204E50
:103270000A000000C80C333333330F986E128311E9
:1032800041EF8D2114893BE65516CFFEE6DB18D1C0
:10329000844B381BF77C1D901DA4BBE42420328492
:1032A000725E228100C9F124ECA1E53D27001124C2
:1032B0001FBECFEFD1E2DEBFCDBF00E00CBF12E0FA
:1032C000A0E0B2E0E8E6F7E001E00BBF02C0079043
:1032D0000D92AA3DB107D9F71CE0AAEDB2E001C0FA
:1032E0001D92AC32B107E1F70E94EF740C94C77ED7
:1032F0000C940000FC0180810895FC0184910895E4
:10330000FC0125913491C9010895FC012591359165
:1033100045915491B901CA010895A0E0B0E08050F0
:103320009040AF4FBF4FABBFFC0187910895FC01A8
:1033300084910895FC0125913491C90108956F92FB
:103340007F928F929F92AF92BF92CF92DF92EF9235
:10335000FF920F931F93CF93DF933C01EB01490141
:103360005A01C12ED02E2115310541055105F9F024
:10337000EE24FF248701CE018E0D9F1DF3011995C8
:10338000D8262D2D30E0C9018D549F4CFC01D490DE
:10339000DC242D54304DF901C4900894E11CF11C3B
:1033A000011D111DE814F9040A051B0520F39C2DCD
:1033B00080E02D2D30E0282B392BC901DF91CF91F2
:1033C0001F910F91FF90EF90DF90CF90BF90AF9043
:1033D0009F908F907F906F9008950F931F930FEFA2
:1033E0001FEF0E949F191F910F9108950F931F9334
:1033F0008DE799E160E070E020E030E041E050E0EE
:103400000E94ED198C018DE899E160E070E020E008
:1034100030E043E050E00E949F191F910F91089502
:10342000CF92DF92EF92FF920F931F9399ECC92EE8
:103430009EE4D92E88E3E82E81E0F82E970140E043
:1034400050E0C60160E070E00E94ED198C012BEFA6
:103450003FE02E193F0940E050E0C60165E070E012
:10346000E60EF71EB7010E949F191F910F91FF9062
:10347000EF90DF90CF900895789408958FB780787B
:103480008093EC02F89408958091EC02882309F06F
:1034900078940895A8952FE088E190E00FB6F8940D
:1034A000A895809360000FBE2093600008958091DE
:1034B000DA028F5F8093DA02815008958091CC0206
:1034C0008F5F8093CC02815008958091CD028F5FF1
:1034D0008093CD02815008958091CE028F5F8093BA
:1034E000CE0281500895882339F09091DA02890F35
:1034F0008093DA02892F089590E0892F0895882318
:1035000039F09091CC02890F8093CC02892F0895D5
:1035100090E0892F0895882339F09091CD02890F8A
:103520008093CD02892F089590E0892F08958823F4
:1035300039F09091CE02890F8093CE02892F0895A1
:1035400090E0892F08959091DB02890F8093DB0230
:10355000892F08959091CF02890F8093CF02892FF0
:1035600008959091D002890F8093D002892F0895F9
:103570009091D102890F8093D102892F0895982FBD
:103580003FB730783093EC02F894482F50E0FA01BE
:10359000E351FD4F608380818823C1F09695969515
:1035A0009695E92FF0E0E355FB4F2081477050706E
:1035B00081E090E002C0880F991F4A95E2F780955C
:1035C00082238083332309F0789408959695969505
:1035D0009695E92FF0E0E355FB4F2081477050703E
:1035E00081E090E002C0880F991F4A95E2F7282BEE
:1035F0002083E8CF982F3FB730783093EC02F894CF
:10360000482F50E0FA01EB50FD4F60838081882302
:10361000C1F0969596959695E92FF0E0E155FB4F10
:1036200020814770507081E090E002C0880F991FA0
:103630004A95E2F7809582238083332309F07894BA
:103640000895969596959695E92FF0E0E155FB4FF4
:1036500020814770507081E090E002C0880F991F70
:103660004A95E2F7282B2083E8CF282F3FB7307800
:103670003093EC02F894482F50E0FA01EE0FFF1F50
:10368000E35BFC4F7183608380819181892BC1F062
:10369000269526952695E22FF0E0E554FB4F2081F4
:1036A0004770507081E090E002C0880F991F4A95E2
:1036B000E2F7809582238083332309F0789408957C
:1036C000269526952695E22FF0E0E554FB4F2081C4
:1036D0004770507081E090E002C0880F991F4A95B2
:1036E000E2F7282B2083E8CFCF93DF93282F3FB733
:1036F00030783093EC02F894C82FD0E0FE01EE0F42
:10370000FF1FEE0FFF1FE35FFB4F40835183628378
:10371000738380819181A281B3810097A105B10556
:10372000D1F0269526952695E22FF0E0E853FB4F41
:103730002081C770D07081E090E002C0880F991F8F
:10374000CA95E2F7809582238083332309F0789429
:10375000DF91CF910895269526952695E22FF0E0EA
:10376000E853FB4F2081C770D07081E090E002C029
:10377000880F991FCA95E2F7282B2083E6CF4FB711
:1037800040784093EC02F894E82FE695E695E695AC
:10379000F0E0E355FB4F9081877021E030E002C0FC
:1037A000220F331F8A95E2F7922B9083442309F06E
:1037B000789408954FB740784093EC02F894E82F3E
:1037C000E695E695E695F0E0E155FB4F9081877030
:1037D00021E030E002C0220F331F8A95E2F7922BDE
:1037E0009083442309F0789408954FB7407840932C
:1037F000EC02F894E82FE695E695E695F0E0E554BE
:10380000FB4F9081877021E030E002C0220F331F10
:103810008A95E2F7922B9083442309F078940895D7
:103820004FB740784093EC02F894E82FE695E69580
:10383000E695F0E0E853FB4F9081877021E030E09F
:1038400002C0220F331F8A95E2F7922B9083442304
:1038500009F078940895E82FE695E695E695F0E06E
:10386000E355FB4F2081E82FF0E030E0CF01877077
:10387000907002C0359527958A95E2F720FD02C029
:1038800080E00895E351FD4F9081992319F481E080
:103890008927089591E081E089270895E82FE6952A
:1038A000E695E695F0E0E155FB4F2081E82FF0E04A
:1038B00030E0CF018770907002C0359527958A95CA
:1038C000E2F720FD02C080E00895EB50FD4F9081AB
:1038D000992319F481E08927089591E081E08927EF
:1038E00008954FB740784093EC02F894E82FE6959E
:1038F000E695E695F0E0E554FB4F2081E82FF0E0F7
:1039000030E0CF018770907002C0359527958A9579
:10391000E2F720FD06C020E0442309F07894822FCE
:103920000895EE0FFF1FE35BFC4F8081918120E043
:10393000892B19F481E02827EFCF21E081E02827A7
:10394000EBCF4FB740784093EC02F894E82FE69520
:10395000E695E695F0E0E853FB4F2081E82FF0E094
:1039600030E0CF018770907002C0359527958A9519
:10397000E2F720FD06C020E0442309F07894822F6E
:103980000895EE0FFF1FEE0FFF1FE35FFB4F8081D7
:103990009181A281B38120E00097A105B10519F4BE
:1039A00081E02827E9CF21E081E02827E5CF5FB734
:1039B00050785093EC02F894E82FE695E695E6955A
:1039C000F0E0E355FB4F4081A82FB0E09D01277048
:1039D000307081E090E002C0880F991F2A95E2F7CD
:1039E000482B4083552309F07894A351BD4F1C9276
:1039F00008955FB750785093EC02F894E82FE6955D
:103A0000E695E695F0E0E155FB4F4081A82FB0E048
:103A10009D012770307081E090E002C0880F991FEF
:103A20002A95E2F7482B4083552309F07894AB5050
:103A3000BD4F1C920895E82F5FB750785093EC0269
:103A4000F894A82FA695A695A695B0E0A554BB4FCF
:103A50004C91F0E09F012770307081E090E002C04F
:103A6000880F991F2A95E2F7482B4C93EE0FFF1F02
:103A7000E35BFC4F11821082552309F0789408957E
:103A8000E82F5FB750785093EC02F894A82FA695D2
:103A9000A695A695B0E0A853BB4F4C91F0E09F01CE
:103AA0002770307081E090E002C0880F991F2A953E
:103AB000E2F7482B4C93EE0FFF1FEE0FFF1FE35F63
:103AC000FB4F1082118212821382552309F07894E1
:103AD0000895EDEEF2E0E80FF11D80810895E5EF25
:103AE000F2E0E80FF11D80810895E82F8FB780780C
:103AF0008093EC02F894F0E0EE0FFF1FE35BFC4FC5
:103B00000190F081E02D882309F07894CF01089589
:103B1000E82F8FB780788093EC02F894F0E0EE0FF6
:103B2000FF1FEE0FFF1FE35FFB4F208131814281BA
:103B30005381882309F07894B901CA0108958091CE
:103B4000CF028835A8F48091D002803688F4809125
:103B5000D102883268F48091CC02803448F480919C
:103B6000CD02883428F490E08091CE02803208F0B3
:103B700091E0892F08958091CF028F5F8093CF02CB
:103B800081508093CE046FEF0E94FA1A08951F921D
:103B90000F920FB60F920BB60F9211242F934F93E3
:103BA0005F936F937F938F939F93AF93BF93EF93A5
:103BB000FF938091CF048F5F8093CF0440E050E06B
:103BC000A1E0B0E08091AD04BA016770707090E040
:103BD000062E02C0959587950A94E2F780FD14C0E1
:103BE000FA01E351FD4F80818150808380818823D9
:103BF00059F42091AD04CD0102C0880F991F6A9538
:103C0000E2F7282B2093AD044F5F5F4F48305105FA
:103C1000C9F6FF91EF91BF91AF919F918F917F91E5
:103C20006F915F914F912F910F900BBE0F900FBE30
:103C30000F901F901895A89580916E0790916F072F
:103C4000019690936F0780936E079091CE04E92FB1
:103C5000F0E0EB50FD4FE081E095E0936A07809142
:103C6000AF068E1710F4E093AF06892F6FEF0E9416
:103C7000FA1A08951092AF060895882339F020EAC1
:103C80003FE0F9013197F1F78150D9F70895A0E0AD
:103C9000B0E0BC01CD010E94D67D2DEC3CEC4CE4A3
:103CA0005FE30E94137E0E94AB82CB01672B31F051
:103CB00035E0232F2A95F1F70197D9F708956A9AED
:103CC0007298549A5C9808958EB194E089278EB9C1
:103CD00008958BB190E189278BB9089508950895CF
:103CE000089508950895089508950895089532EA6D
:103CF0003093900029E1209391008FEF9FEF9093F4
:103D00009700809396008DB188618DB93093200122
:103D1000209321018EE79CE0909327018093260158
:103D2000EAE0F1E0808188618083089560918B07EB
:103D300070918C0780E090E00E94D67D28E83FE1FA
:103D400040E852E40E94137E0E94AB82262F9FB768
:103D5000F894709399002093980097FF01C078948D
:103D600060918D0770918E0780E090E00E94D67D73
:103D700028E83FE140E852E40E94137E0E94AB82B3
:103D8000262F9FB7F89470939B0020939A0097FF7B
:103D900001C0789460918F077091900780E090E067
:103DA0000E94D67D25E032E148E450E40E94137E73
:103DB0000E94AB82262F9FB7F8947093290120931D
:103DC000280197FF01C07894609191077091920744
:103DD00080E090E00E94D67D25E032E148E450E4A6
:103DE0000E94137E0E94AB82262F8FB7807880932B
:103DF000EC02F89470932B0120932A01882309F098
:103E0000789408951F938CB588608CBDF894809148
:103E10000201877F8093020178948091220B813088
:103E200009F4ECC0813030F5F894809102018F7E66
:103E300080930201789485E08A95F1F7F894809157
:103E4000020180618093020178948091F50664E01C
:103E50000E94BF1A8091220B8F5F8093220B17E084
:103E6000F894809102018860809302017894812FF8
:103E70001F910895823009F4D2C0833011F017E009
:103E8000EFCF88E08EBD0DB407FEFDCF1EBC0DB494
:103E900007FEFDCF0EB407FCDAC088E38EBD0DB47B
:103EA00007FEFDCF1EBC0DB407FEFDCF3EB51EBC08
:103EB0000DB407FEFDCF2EB5932F80E0AC01420F6D
:103EC000511D9A011091CA08163009F419C180E1F8
:103ED0008EBD0DB407FEFDCF87E08EBD0DB407FE8D
:103EE000FDCF4091F506E42FF0E0E351FD4F9081C6
:103EF00084E1891B8093B10688E68EBD0DB407FE70
:103F0000FDCF1EBC0DB407FEFDCFE7E2FCE08EB591
:103F100080831EBC0DB407FEFDCF31978CE0E432E8
:103F2000F807A9F71EBC0DB407FEFDCF88E78EBDCC
:103F30000DB407FEFDCF1EBC0DB407FEFDCFEAE2B7
:103F4000FCE08EB580831EBC0DB407FEFDCF31971B
:103F50005CE0E732F507A9F71EBC0DB407FEFDCF04
:103F60008091270C8951833008F085C080912A0CFC
:103F7000883C08F480C08C3C08F07DC0E12FF0E064
:103F8000EE0FFF1FED52F74F31832083812F8F5F9C
:103F90008093CA08873011F41092CA08E091CA08C9
:103FA000F0E0E455F04D9491F894943008F4CAC0D0
:103FB000779A809102018B7F80930201292F30E054
:103FC000C901837090700196039708F4B9C0769A7E
:103FD00020FFB4C0759A789485E58A95F1F780E161
:103FE0008EBD0DB407FEFDCF86E08EBD0DB407FE7D
:103FF000FDCF842F64E10E94BF1A32CF8091F50675
:104000000E942B1C882309F43ACF81E09FEF9EBDCC
:104010000DB407FEFDCF8830D9F18F5FF8CF88E06F
:104020008EBD0DB407FEFDCF1EBC0DB407FEFDCF47
:104030000EB407FC45C01092EA0283E08093220B85
:104040008091F50664E10E94BF1A17E009CF8091C4
:10405000F5060E942B1C882309F411CF809170076C
:104060009091710701969093710780937007109259
:10407000220B17E0F5CE8091B5069091B606019619
:104080009093B6068093B5061092220B17E0E8CE07
:1040900080E28EBD0DB407FEFDCF84E08EBD0DB471
:1040A00007FEFDCF80E18EBD0DB407FEFDCF86E497
:1040B0008EBD0DB407FEFDCF8091F50664E2C8CE3B
:1040C0008091F5060E942B1C882399F08091E308CB
:1040D0009091E40801969093E4088093E30880911E
:1040E000EA028F5F8093EA028B3198F184E080933B
:1040F000220B8091220B833009F4A2CF17E0B0CEBF
:104100008091DF089091E008892B09F4E0CECA0184
:1041100080589E43815A9F4008F4D9CE8091B506BD
:104120009091B60601969093B6068093B5061092CC
:10413000220B85E08093CA0817E092CE75984BCF8A
:10414000769846CF7798809102018460809302012F
:1041500035CF80E0CCCFF89484B1807F876084B97C
:104160002B9A8FE58CBD7894F8948091010188603A
:104170008093010180910201886080930201809107
:1041800001018061809301016F9A80910101846037
:10419000809301016D9A6E9A78948091DB028F5F13
:1041A0008093DB0281508093F50686E08093CA08F5
:1041B0000E94021F873091F48091E3089091E408F7
:1041C000892B61F48091700790917107892B31F4EC
:1041D0008091B5069091B606892B51F30895482F2A
:1041E000882389F021E030E0C901880F991F220F50
:1041F000331F220F331F220F331F280F391F415047
:1042000099F7C901089521E030E0FBCF1F93182FE3
:104210008823A1F021E030E040E050E0CA01B9017C
:104220002AE030E040E050E00E9423839B01AC0193
:104230001150A1F7B901CA011F91089521E030E0A2
:1042400040E050E0F7CF1F932AE030E040E050E03C
:104250000E947583C901DA01BC01CD0161157105A8
:1042600081059105A1F010E01F5F2AE030E040E0F9
:1042700050E00E947583C901DA01BC01CD016115CE
:1042800071058105910581F7812F1F91089510E037
:10429000FBCF282F6AE00E944283382F3295307F6F
:1042A000822F0E944283832F890F0895282F229501
:1042B0002F709AE0299F900111248F70820F08952A
:1042C0002F923F924F925F926F927F928F929F9226
:1042D000AF92BF92CF92DF92EF92FF920F931F9314
:1042E000CF93DF93EC017A018B01288039804A80DB
:1042F0005B806C817D818E819F8126163706480602
:10430000590609F458C00E94D87D5B016C016A858A
:104310007B85882777FD8095982F0E94D87D3B016B
:104320004C01C801B7010E94D87DA60195010E94E9
:10433000D9817B018C0168857985882777FD8095F7
:10434000982F0E94D87D9B01AC01C401B3010E944B
:10435000D9819B01AC01C801B7010E94137E7B018A
:104360008C01C201B1010E94D87D9B01AC01C60144
:10437000B5010E94D9819B01AC01C801B7010E941F
:104380003E82A40193010E94DA810E94A682CB01A1
:10439000DF91CF911F910F91FF90EF90DF90CF9021
:1043A000BF90AF909F908F907F906F905F904F9055
:1043B0003F902F90089588859985EACF2F923F925C
:1043C0004F925F926F927F928F929F92AF92BF9225
:1043D000CF92DF92EF92FF920F931F93CF93DF93D1
:1043E000EC017A018B01288039804A805B806C81E6
:1043F0007D818E819F81261637064806590609F46D
:1044000058C00E94D67D5B016C016A857B85882738
:1044100077FD8095982F0E94D87D3B014C01C80103
:10442000B7010E94D67DA60195010E94D9817B012A
:104430008C0168857985882777FD8095982F0E9463
:10444000D87D9B01AC01C401B3010E94D9819B01BD
:10445000AC01C801B7010E94137E7B018C01C2012F
:10446000B1010E94D67D9B01AC01C601B5010E943D
:10447000D9819B01AC01C801B7010E943E82A40111
:1044800093010E94DA810E94A682CB01DF91CF9135
:104490001F910F91FF90EF90DF90CF90BF90AF9062
:1044A0009F908F907F906F905F904F903F902F9054
:1044B000089588859985EACFAF92BF92CF92DF9217
:1044C000EF92FF920F931F93DF93CF93CDB7DEB799
:1044D0002C970FB6F894DEBF0FBECDBFDC01FC01F8
:1044E000859194917C0100E010E05B01CC24DD24F7
:1044F000CD010496FC0125913491AD01B701F8017D
:10450000DC01790100E010E0EA14FB040C051D0554
:1045100078F3CA019B01AF0169833A83EB835C8323
:10452000ED82FE820F831887FC013296859194916B
:104530009A878987FD013296859194919C878B8714
:10454000CE010196B601A5010E94DE212C960FB680
:10455000F894DEBF0FBECDBFCF91DF911F910F91B9
:10456000FF90EF90DF90CF90BF90AF9008952F9283
:104570003F924F925F926F927F928F929F92AF92F3
:10458000BF92CF92DF92EF92FF920F931F93DF9330
:10459000CF93CDB7DEB72E970FB6F894DEBF0FBE20
:1045A000CDBF2B012D871801EE867C2DC42EDD2476
:1045B000CC0CDD1CF201EC0DFD1D20813181790157
:1045C0000027F7FC0095102FED82FE820F831887DD
:1045D000A82FB0E0AA0FBB1F3501882477FC809478
:1045E000982C60E002C079018A016F5FA62EBB247F
:1045F000AA9EF001AB9EF00DBA9EF00D1124E40DC1
:10460000F51DEC0DFD1D808191819C01442737FD36
:104610004095542F261537054805590514F467179A
:1046200010F3E982FA820B831C832D833E834F8330
:1046300058878D85282F30E0220F331F8E85A82FB5
:10464000B0E00894A108B108A29EF001A39EF00D6D
:10465000B29EF00D11240894A11CB11CE20DF31DB3
:10466000AA0FBB1FEA0FFB1F808191819A87898760
:10467000A29EC001A39E900DB29E900D1124820DAA
:10468000931DA80FB91F8D919C919C878B87CE019C
:104690000196B401A3010E9460212E960FB6F894F2
:1046A000DEBF0FBECDBFCF91DF911F910F91FF9065
:1046B000EF90DF90CF90BF90AF909F908F907F90C2
:1046C0006F905F904F903F902F9008959091CF0200
:1046D000892F8F5F9093D0048F5F8093CF0281509A
:1046E0008093D1048091D0028F5F8093D00281505B
:1046F0008093D2046CE271E00E94351B80E98093C4
:10470000B800089580919D0890919E08019690931D
:104710009E0880939D081092BC0010927D078091A6
:10472000D00461E30E94FA1A0895BF92CF92DF92FB
:10473000EF92FF920F931F934CEBC42ED12CF601F6
:104740001082E0E9F1E03197F1F794EAF601908305
:1047500008E512E0F8013197F1F7F8013197F1F728
:104760003BEBE32EF12C90EDF70190839081908349
:1047700024E8B22EF601B082F8013197F1F7F80182
:104780003197F1F7F7018083F601B082C8010197F4
:10479000F1F7C8010197F1F7862F0E944921F7012F
:1047A0008083F601B082C8010197F1F7C801019733
:1047B000F1F784E9808310927D071F910F91FF909C
:1047C000EF90DF90CF90BF900895A62FB82FB150F3
:1047D0005B2F569556955B0F623088F0E4E2F3E06C
:1047E000A2502A2F30E0AE5F2B5D3C4F849167E0F2
:1047F0000E944283590F3196E217F307B9F7252F2C
:10480000B370B33051F0842F67E00E944283822F4F
:10481000890F0E944283892F0895A330A0F32F5F50
:10482000F2CF80E06091B4060E9495238091B40697
:104830008093CC08089581E060914F060E949523F3
:1048400080914F068093CE08089582E06091BF0565
:104850000E9495238091BF058093D605089584E03A
:104860006091170B0E9495238091170B809354063B
:10487000089585E0609185070E94952380918507C2
:104880008093CD08089586E06091DC050E94952311
:104890008091DC0580937B0708955F926F927F92F1
:1048A0008F929F92AF92BF92CF92DF92EF92FF9240
:1048B0000F931F93582E662E742EF22E8C2D7CEBA8
:1048C000872E912CF4011082E0E9F1E03197F1F7A5
:1048D00094EAF401908368E5C62E62E0D62EF601D4
:1048E0003197F1F7F6013197F1F75BEBA52EB12C7B
:1048F00090EDF50190839081908314E8F40110838A
:10490000F6013197F1F7F6013197F1F7F5011082D1
:10491000F4011083F6013197F1F7F6013197F1F7C1
:104920000E944921F5018083F4011083C60101979B
:10493000F1F7C6010197F1F78E2D0E944921F5018B
:104940008083F4011083C6010197F1F7C601019736
:10495000F1F7802F0E944921F5018083F401108333
:10496000C6010197F1F7C6010197F1F7F501F08251
:10497000F4011083C6010197F1F7C6010197F1F721
:10498000872D0E944921F5018083F4011083C6011F
:104990000197F1F7C6010197F1F7862D0E94492191
:1049A000F5018083F4011083C6010197F1F7C60178
:1049B0000197F1F7852D0E944921F5018083F401CB
:1049C0001083C6010197F1F7C6010197F1F784E959
:1049D000808310927D071F910F91FF90EF90DF90E1
:1049E000CF90BF90AF909F908F907F906F905F908F
:1049F000089590E080917D07882309F491E0892F44
:104A000008958091B4068093CC0880914F068093DE
:104A1000CE088091BF058093D6054091170B409337
:104A20005406609185076093CD088091DC058093E2
:104A30007B070E94E5238093160B08958F929F9227
:104A4000AF92BF92CF92DF92EF92FF920F931F939C
:104A5000882EA62EB42E922ED02EFE2C1C2D0E9417
:104A60004D241093CC08F092CE08D092D605B09287
:104A70005406A092CD0880927B079092160B1F914E
:104A80000F91FF90EF90DF90CF90BF90AF909F90ED
:104A90008F9008955091DC0540917B07541759F190
:104AA0009091CC08983358F08091CE088B3309F45C
:104AB0005AC0541709F440C021E0822F08955417BA
:104AC000D9F7909185078091CD089817A9F7909113
:104AD000170B80915406981779F79091BF05809134
:104AE000D605981749F720E090914F068091CE089F
:104AF000981711F7E2CF909185078091CD0898170C
:104B000079F69091170B80915406981749F6909179
:104B1000BF058091D605981719F690914F068091A0
:104B2000CE08981709F0BCCF8091B4069091CC08BC
:104B3000891709F0B7CFC0CF909185078091CD0834
:104B4000981709F0B9CF9091170B809154069817D8
:104B500009F0B2CF20E09091BF058091D60598175B
:104B600009F0AACFAACF8091D605873199F05417C2
:104B700009F0A2CF909185078091CD08981709F090
:104B80009BCF20E09091170B80915406981709F065
:104B900093CF93CF809154068C3148F08091CD080B
:104BA0008C3089F020E0541709F086CF86CF541757
:104BB00009F082CF20E0909185078091CD08981769
:104BC00009F07ACF7ACF842F90E00196252F30E03C
:104BD0008217930761F0541751F0433609F06CCFF8
:104BE00020E0552309F421E081E0282766CF20E06A
:104BF00064CFF894EAE0F1E0808180628083789469
:104C00000895F894EBE0F1E08081806280837894ED
:104C10000895F894EBE0F1E080818F7D80837894B3
:104C20000895F89426982E9A9D9AA59878940895B8
:104C300083B180740895F894A59878940895F894B1
:104C4000A59A789408958FB780788093EC02F894B1
:104C5000839A8B98882309F0789408958FB7807889
:104C60008093EC02F8948B9A882309F07894089545
:104C70008FB780788093EC02F8948B98882309F0A2
:104C8000789408958FB780788093EC02F89491B36C
:104C900028E0922791BB882309F0789481B388702B
:104CA0000895982F80FF23C0419A91FF23C0409A16
:104CB00092FF23C0A19A93FF23C0A09A94FF23C020
:104CC0005F9A95FF23C05E9A96FF23C05D9A87FD89
:104CD00023C080910B018F7780930B01429A85E06E
:104CE000982F9A95F1F742988A95F1F7089541988F
:104CF00091FDDDCF409892FDDDCFA19893FDDDCFF2
:104D0000A09894FDDDCF5F9895FDDDCF5E9896FD70
:104D1000DDCF5D9887FFDDCF80910B0180688093A8
:104D20000B01DCCF0E94512682E390E00E94471ED7
:104D300008955F9A5E9A5D98EBE0F1E080818F774D
:104D4000808308951F931091D504812F0E944E1CDB
:104D5000882329F080916F0082FF03C080E01F91BB
:104D60000895812F66E00E94FA1A81E01F9108954C
:104D70009091E902943120F08091D404882319F1B4
:104D80009F5F9093E90224E630E0F89480918400DC
:104D900090918500820F931F2EE48032920760F479
:104DA00090938B0080938A00B29A80916F00846008
:104DB00080936F007894089580529E4490938B0066
:104DC00080938A00F1CF1092E902F89444980E94EF
:104DD0009926789481E08093D40420E137E2D5CFFE
:104DE0001F920F920FB60F920BB60F921124FF92E3
:104DF0000F931F932F933F934F935F936F937F93E3
:104E00008F939F93AF93BF93EF93FF938091D404BD
:104E10008823F1F01091D404153009F4B5C0163090
:104E200008F4A1C0173009F415C1173008F0DCC030
:104E300086E00E9451268091D404813009F4A1C0FB
:104E400024E630E08091D4048F5F8093D4045FC067
:104E50001091E602143108F045C08091B70618178A
:104E600008F496C0612F70E02091AA0690E0820FAE
:104E7000911D681779070CF4E4C0E091E50220E089
:104E80004E2F50E09091D008892F8850833018F031
:104E90009E3008F491C0222309F48EC08091D6027E
:104EA0008F3F09F489C0E22FF0E0E855F14D2491DD
:104EB000FA01EE0FFF1FEE0FFF1FCF01880F991FA2
:104EC000880F991FE80FF91FE60FF71FE55BF74FF3
:104ED0002083822F0E9451261F5F1093E60224E652
:104EE00030E015C01092E602E091E502EF5FE0933A
:104EF000E502E43009F451C04498F0E0E855F04D83
:104F0000E4918E2F0E945126449A24E630E080914D
:104F1000840090918500820F931F2EE480329207C7
:104F2000D8F490938B0080938A00B29AFF91EF910E
:104F3000BF91AF919F918F917F916F915F914F91B1
:104F40003F912F911F910F91FF900F900BBE0F90EB
:104F50000FBE0F901F90189580529E4490938B0027
:104F600080938A00E2CF123021F11330F8F411302F
:104F700001F18FEF8093D4048091D404813009F043
:104F80005FCF20E931E05ECF8CE00E94512653CF05
:104F9000612F70E0E091E50272CF1092E5028091FE
:104FA0006F008B7F80936F00E0E0A6CF133009F095
:104FB00056C00E9499263FCFCA01880F991F840FBF
:104FC000951FFC01EE0FFF1FEE0FFF1FEE0FFF1FDF
:104FD000E81BF90BE60FF71FEA5AF94FE081F0E002
:104FE000E855F14D249164CF183049F0193009F09B
:104FF000C0CF449882E00E945126449ABACF87E0FD
:105000008093D404F090E8020091E702EF2DF0E0E5
:10501000EE0FFF1FEE0FFF1FEE0FFF1FE00FF11D42
:10502000E859F14DE4918E2F0E9451260730F0F09F
:105030001092E70226E02F15E8F0F394F092E802D0
:10504000FACEE091E5028091A008E81709F017CFA9
:105050002FE516CF80E40E945126449AECCE1430FE
:1050600009F087CF88E30E945126E5CE0F5F0093B9
:10507000E702E1CE1092E8021093D404DCCE9FB791
:1050800090789093EC02F89480910B018064809367
:105090000B01992309F0789408959FB79078909325
:1050A000EC02F89480910B018F7B80930B01992384
:1050B00009F07894089580915006813029F082306B
:1050C00061F00E943F2808958091D6040E94711CCF
:1050D0008823C9F30E944D280895089582E084BD75
:1050E00085EF85BDEEE6F0E08081826080830895E3
:1050F00082E08093B00087EF8093B100E0E7F0E0BA
:1051000080818260808308951092A0008DE080935A
:10511000A100E2E7F0E08081826080830895BC0115
:10512000E6E5FEE2859194916817790709F454C089
:1051300020E02F5F422F50E0FA01EE0FFF1FE40F37
:10514000F51FEE0FFF1FEA5AF14D859194916817F4
:10515000790779F7FA01EB5AF14D84918823F9F434
:10516000F42FEE27ED5DF44FDA01A252BA4F908191
:105170008C91981721F1FA01E054FA4F81E0808375
:10518000FA01E295F295F07FFE27E07FFE27E251DB
:10519000F74F8081918101969183808308958130BA
:1051A00009F008952091E20881E090E002C0880FA4
:1051B000991F4A95E2F7282B2093E2080895209141
:1051C000E20881E090E002C0880F991F4A95E2F75B
:1051D000282B2093E208089540E050E0E0E0F0E062
:1051E000BACF1F920F920FB60F920BB60F921124E7
:1051F0002F933F934F935F936F937F938F939F93DF
:10520000AF93BF93EF93FF9385B5887F85BDEEE69F
:10521000F0E080818D7F808386E490E00E948F287B
:10522000FF91EF91BF91AF919F918F917F916F917E
:105230005F914F913F912F910F900BBE0F900FBE3A
:105240000F901F9018951F920F920FB60F920BB6EA
:105250000F9211242F933F934F935F936F937F93FC
:105260008F939F93AF93BF93EF93FF93E1EBF0E0A6
:105270008081887F8083E0E7F0E080818D7F80837C
:1052800082EB90E00E948F28FF91EF91BF91AF9148
:105290009F918F917F916F915F914F913F912F914E
:1052A0000F900BBE0F900FBE0F901F9018951F927E
:1052B0000F920FB60F920BB60F9211242F933F93BC
:1052C0004F935F936F937F938F939F93AF93BF930E
:1052D000EF93FF93E1EAF0E08081887F8083E2E74B
:1052E000F0E080818D7F808384EA90E00E948F28A7
:1052F000FF91EF91BF91AF919F918F917F916F91AE
:105300005F914F913F912F910F900BBE0F900FBE69
:105310000F901F901895682F70E09B01220F331F8C
:10532000CB01880F991F880F991F880F991F280F8D
:10533000391F220F331F2D5B314DF901A591B49117
:105340003C91AB014B5F584FFA012081CB01880F94
:10535000991F880F991FFC01EE0FFF1FEE0FFF1F13
:10536000E80FF91FEF5BF14DA591B491F62FEE27F1
:10537000E20FF11DED5DF44F8C9180832F5FFA01F8
:105380002083232F30E023FF0EC0FB01E295F2952E
:10539000F07FFE27E07FFE27E251F74F8685978555
:1053A0000196978786872C713070232B61F081E0FE
:1053B00090E002C0880F991F6A95E2F72091D70408
:1053C000282B2093D7040895AF92BF92CF92DF92FB
:1053D000EF92FF920F931F93E82EFF24F701E05402
:1053E000FA4F83E080835701AA0CBB1CAA0CBB1C9C
:1053F0008501000F111F000F111F0A0D1B1D045FF7
:105400001F4F81E4C82E8EE2D82EC601800F911F57
:105410000C501040FC0125913491F9011995F601C9
:10542000E00FF11FA591B491FE2DEE27ED5DF44F35
:1054300080818C939701220F331FC701880F991F1A
:10544000880F991F880F991F280F391F2F5F3F4F13
:10545000220F331F2C0D3D1DF901A591B4918C91A4
:1054600080648C93C5018E0D9F1D0196880F991F36
:10547000880F991F8C0D9D1DFC01A591B4918C91F5
:1054800080628C931F910F91FF90EF90DF90CF90EF
:10549000BF90AF900895CF93DF93DC01E1E4FEE28B
:1054A00085919491A817B90709F46EC030E03F5F69
:1054B000C32FD0E0CE01880F991F880F991FFC01E0
:1054C000EE0FFF1FEE0FFF1FE80FF91FEF5BF14D0F
:1054D00085919491A817B90751F7FE01E054FA4F4E
:1054E0008081823019F1833028F08630D8F0DF9146
:1054F000CF9108958823F1F48C91FC2FEE27ED5D78
:10550000F44F8083CE01880F991F8C0F9D1F880F49
:10551000991F8A5A914DFC01A591B4911C92DF917B
:10552000CF9108958C91DF91CF910895832F0E94A0
:105530008B29E8CF8130D9F682E0808381E090E04A
:105540000C2E02C0880F991F0A94E2F780952091D3
:10555000D70428232093D704FE01EB5FF84F108275
:10556000832F0E948B29CE01880F991F8C0F9D1FBE
:10557000880F991F865A914DFC0125913491F901AC
:105580001995DF91CF91089530E0C0E0D0E0A5CF2C
:105590000F931F93CF93DF93382FC82FD0E0FE01D6
:1055A000EB5FF84F20818091D70490E0032E02C07A
:1055B000959587950A94E2F780FF29C0FE01EE0FCA
:1055C000FF1FEE0FFF1FEE0FFF1FEE0FFF1FE0513B
:1055D000F74F80819181019691838083CE01880F5E
:1055E000991F880F991F9C01220F331F220F331F11
:1055F000280F391F2F5A314DF90185919491FC01E3
:10560000199581E0DF91CF911F910F91089523307B
:10561000A8F22250732F60E0FB01E20FF11DED5D57
:10562000F44F008111816D5D744F30E040E050E037
:105630008AE799E10E94ED190817190709F0BECF12
:10564000FE01E295F295F07FFE27E07FFE27E25112
:10565000F74F80819181019691838083CE01880FDD
:10566000991F880F991F9C01220F331F220F331F90
:10567000280F391F2D5A314DF90185919491FC0164
:10568000199580E0BFCFDF92EF92FF920F931F93A7
:10569000E5E0F7E0E80FF11DD0809EEFD90E182F5E
:1056A00000E083E2E82E8BE0F82EB701600F711F57
:1056B0002D2D30E040E050E08AE799E10E94ED199D
:1056C0000D0D111DE00EF11EF701918380831F91D6
:1056D0000F91FF90EF90DF90089570E0A3E2BBE0A0
:1056E000F82FE0E0EA0FFB1FE60FF71F418150E0C3
:1056F000382F20E0260F371FA20FB31F9C9180E0A8
:10570000482B592BCA01089590E020E030E0880F23
:10571000991F880F991F880F991FFC01E20FF31F33
:10572000EE0FFF1FE251F74F118210822F5F3F4FA4
:105730002830310591F708952F923F924F925F9252
:105740006F927F928F929F92AF92BF92CF92DF9291
:10575000EF92FF920F931F93DF93CF93CDB7DEB7F6
:1057600029970FB6F894DEBF0FBECDBFD82E282FD5
:1057700030E039872887890100541A4FD8018C916D
:105780008823B9F18230C9F029960FB6F894DEBFAC
:105790000FBECDBFCF91DF911F910F91FF90EF9082
:1057A000DF90CF90BF90AF909F908F907F906F9041
:1057B0005F904F903F902F90089584E0D8018C9394
:1057C0008D2D0E94C82A8823A1F428853985F22EC0
:1057D000EE24F701ED5DF44F9081992371F0F9010A
:1057E000E252FA4F8081981741F081E0D8018C9302
:1057F000CBCF81E0F8018083C7CF28843984220C85
:10580000331C220C331C5101AA0CBB1CAA0CBB1C60
:10581000A20CB31CEFE4FEE2AE0EBF1EF501259113
:105820003491F90119956884798462947294B0EF87
:105830007B2276246B227624F301E251F74F868196
:105840009781019697838683688579857695762FEB
:10585000662777956795DB01AA0FBB1FAB5DB44F39
:105860009C9180E0A7014D5D544FFA012381822E67
:105870009924882A992A3181353008F052C0333072
:1058800008F472C0FA018081882309F45CC025E025
:10589000422E27E0522E88859985480E591EF20126
:1058A0008081883009F427C283E08C9393E0F7016C
:1058B000ED5DF44F8081882381F0992349F0818147
:1058C00080688183E885F985EB5FF84F85E0808308
:1058D0008D2D9D830E94432B9D819923A1F523E269
:1058E0003BE0E20EF31ED7018C918823C9F5E885D1
:1058F000F985EE0FFF1FEE0FFF1FEE0FFF1FEE0FDC
:10590000FF1FEA50F74F8081918101969183808338
:1059100081E0F8018083F50185919491FC0119954E
:1059200033CF3F3009F41EC1303109F4FCC03630AA
:1059300009F4BDC0660F771F6B5D744F81E0FB01FA
:10594000808391E0B4CFF101EE0FFF1FEE0FFF1F38
:10595000EE50F74F80819181019691838083BFCF74
:105960008D2D0E94E42910CF313020F3FA0180817F
:10597000882349F3E5E04E2EE7E05E2E8885998581
:10598000480E591EF2018081883009F08DCF88853C
:105990009985F82FEE27E95DF44F908180E0DA01D8
:1059A00015962C91A22FB0E0A82BB92B313009F419
:1059B00044C2F301EA5CFC4F45915491CD01880D3E
:1059C000991D4817590708F48DC1313009F44AC2AE
:1059D000F101EE0FFF1FEE0FFF1FEC5CFC4F8591F6
:1059E0009491282F892F622E782E20E0CD01877088
:1059F0009070892B09F021E0CD01969587959695B9
:105A0000879596958795820F660F771F6B5D744F0C
:105A1000FB0180838B5FF2018083109709F422C120
:105A200060E020E030E080E090E0E1E04E2E512C9C
:105A300010C0F701E40FF11DED5DF44F8081852B5F
:105A400080836F5F862F90E09C018A179B0708F088
:105A500009C1280D391D462F4695469546954D5F3F
:105A600087709070F20102C0EE0FFF1F8A95E2F777
:105A70005E2FF901F695E795F695E795F695E7958A
:105A8000E60DF71D808190E02770307002C095957B
:105A900087952A95E2F780FDCCCFF701E40FF11D41
:105AA000ED5DF44F5095808158235083CACF6885AF
:105AB00079856B5F784FFB01C080F8E0CF1609F065
:105AC000F3CEF301E65CFC4F25913491C4010196BD
:105AD0002817390708F402C1DB01CC92E885F98563
