:100000000C943F180C9460180C9460180C946018B1
:100010000C9460180C9460180C9460180C94601880
:100020000C9460180C9460180C9460180C94601870
:100030000C9460180C940B280C9460180C946018A5
:100040000C9460180C94AF1C0C94D8250C94601878
:100050000C9460180C94D9270C9460180C946018B8
:100060000C9460180C943E390C9492390C946839B5
:100070000C9460180C9460180C9460180C94601820
:100080000C9460180C9460180C9460180C94601810
:100090000C94BC390C94103A0C94E6390C9460180A
:1000A0000C9460180C9460180C943F280C94601801
:1000B0000C9460180C9460180C9460180C946018E0
:1000C0000C9460180C9460180C9460180C948A3A84
:1000D0000C943A3A0C94623A0C9460180C946018A0
:1000E0000C946018B94FDF4FF04F0350B94FDF4FFA
:1000F000434F1750275037504A50175027505D50E4
:100100005D50434F434F434F434F434F434F434F44
:10011000434F434F434F434F434F434F434F6B5026
:100120007950885099508953A853C953EC53895337
:10013000A8534B5311542F544E54705411542F54F0
:10014000935493544B539B541453D25409559B547A
:1001500014534B534B534B5346557055465570559E
:100160008953A8539A55AB55C2556753A258A25804
:1001700059585958A258A2586557A258A2585958C8
:100180005958A258A2583558355865571D581D580A
:100190001D581D581D581D586557655765571D58E2
:1001A0001D581D581D58FF57FF57E257E257AA57D1
:1001B000AA578A5B815B795B6E5B685B5F5B565BB2
:1001C000505B485B425B3A5B345B2C5B505B345B5F
:1001D000235B1C5B155B0E5B075B005BF95A1C5BCA
:1001E000005BF05AE95ADB5AD45AC65AA65AB55A95
:1001F0007F5A325A7A5A6C5A59624B623F62EB60AC
:100200001F618F6276613162256217620B62FD6148
:10021000F161E361D861FC62846084608460846021
:1002200084608460846084608460846084608460AE
:10023000846084608460846084608460846084609E
:10024000F062E262D6626E635D63AE629D62976346
:100250008663AB63C162C261B0617A63A261F96512
:10026000EB65DF65D165446605665066026511671A
:100270000667AC656A65E366D066F066CC61A86423
:100280009C648A64846084604C644264EB63DD63D4
:10029000BC63BA65F764E664B6641C6510652D65D9
:1002A000886158614A612D619A6EA16E8D6E946E5F
:1002B000836E896E766E7C6EA86E726E5A6E2C6F2F
:1002C000146F086FF06ED46EB06E6E616E00696E62
:1002D00066006364696E6F70737578585B656667F6
:1002E00045464700616E006E66696E69747900CD9F
:1002F000CCCC3D0AD7233C17B7D13877CC2B3295DD
:1003000095E6241FB14F0A000020410000C84200BA
:10031000401C4620BCBE4CCA1B0E5AAEC59D740084
:100320001F1C1F1E1F1E1F1F1E1F1E1F70072000C9
:10033000F8092000130B0400F70750004203FFA048
:1003400001FBCF007D67003F44002A33001F2200DD
:100350001B19001B10001B53494D434F4D5F534960
:100360004D393030520053494D434F4D5F53494D45
:100370003830300053494D434F4D5F53494D38306D
:10038000304300524459002B4346554E3A20310029
:100390002B4350494E3A2052454144590043616C29
:1003A0006C20526561647900534D5320526561643D
:1003B000790052454D4F544520495000434F4E4E11
:1003C000454354002B524543454956452C002C20AB
:1003D000434C4F534544002B504450204445414327
:1003E00054004E4F2043415252494552004F4B005A
:1003F000434F4E4E45435400782C20434F4E4E45BC
:100400004354204F4B00534552564552204F4B000A
:1004100053455256455220434C4F5345003E0078B9
:100420002C2053454E44204F4B00434C4F53452006
:100430004F4B00782C20434C4F5345204F4B002B03
:100440004353513A0053485554204F4B002B2B2B0C
:10045000004944454E54494649434154494F4E0092
:1004600041540041542B4950523D393630300041FF
:1004700054265700415445300041542B434C4343CC
:100480003D310041542B444445543D312C302C31F6
:100490000041542B43474D4D0041542B43434944A5
:1004A0000041542B4946433D322C32004154442AEA
:1004B00031303123004154442B0041542B435553D8
:1004C000443D312C220041542B434D47463D3100E1
:1004D00041542B43534D503D31372C3136372C305E
:1004E0002C300041542B434D47533D222B004154A7
:1004F0002B4349504D4F44453D300041542B434917
:10050000504D4F44453D310041542B4349504D55CA
:10051000583D300041542B4349504D55583D310012
:1005200041542B43474154543D310041542B4349DE
:1005300050435347503D312C220041542B435354D8
:10054000540041542B43494943520041542B4349E1
:100550004653520041542B434950544B413D312C9A
:1005600033302C33302C310041542B4349505354F9
:100570004152543D22554450222C0041542B4349B2
:100580005053544152543D22544350222C00415464
:100590002B4349505345525645523D312C0041544E
:1005A0002B4349505345525645523D300041542B40
:1005B00043495053454E443D0041542B4349504319
:1005C0004C4F53453D782C310041542B4349504307
:1005D0004C4F53453D310041542B434950534855EE
:1005E000540041542B43474154543D300041542B57
:1005F0004353510041544F00303132333435363794
:1006000038396162636465666768696A6B6C6D6ED0
:100610006F707172737475767778797A414243445A
:1006200045464748494A4B4C4D4E4F505152535402
:1006300055565758595AE0E1E2E3E4E5B8BAE6E71F
:10064000E8B3BFE9EAEBECEDEEEFF0F1F2F3F4F52D
:10065000F6F7F8F9FAFBFCFDFEFFC0C1C2C3C4C542
:10066000A8AAC6C7C8B2AFC9CACBCCCDCECFD0D14D
:10067000D2D3D4D5D6D7D8D9DADBDCDDDEDF202B58
:100680002D3D3C3E2425262E2C3F2127403A28296B
:10069000227C2A232F003031323334353637383933
:1006A0000030313233343536373839652B2D2E0052
:1006B000000000000000000000000CFE08070CFE17
:1006C00008070CFE70170CFE70170CFE70170CFE5E
:1006D00070170CFE08070000000030F8E02E7017BD
:1006E000504630F84C1D30F87017D1E1EEE920008B
:1006F000CDEEF0ECE000EDE5F22000EDEEF0EC00E8
:10070000F606FB06F0E0E7EC00E7E0ECEA000407A1
:100710000907ED2EE72E00ED2EF02E001207170729
:10072000E2FBEAEB00E2EAEB200020072507076A7C
:100730000700000007DD0800000007AF060000000A
:10074000202D2D2D20414443206572726F7273203D
:100750002D2D2D2000000000000000205265616456
:10076000206661696C3A202020207B7B7B7B7B00AC
:100770002E07000000002043616C696272206661F0
:10078000696C3A20207B7B7B7B7B00340700000078
:10079000002043616C69627220627265616B3A206D
:1007A0007B7B7B7B7B003A07000000004007040353
:1007B0000000000000000000000000000000000039
:1007C0001D1C0B3A240000AB0600000000C408000A
:1007D000000020D0E5E6E8EC3A207B7B7B7B7B7B4E
:1007E0007B7B7B7B7B7B00C0070000000020C2F08E
:1007F000E5ECFF3A7B7B30ECF120CAE0EDE0EB3A30
:100800007B00C60700000000202D20CAE0EDE0EBD1
:10081000FB202D2020202020202020200000000070
:10082000005B23202D20CAE0EBE8E1F0EEE2EAE0F5
:10083000202D20202020200000000000FF23202D5C
:1008400020CEF8E8E1EAE8202D20202020202020FA
:1008500020200000000000AC07D2070502000000C5
:1008600000000000000000000000000000205F5FAA
:100870005F5F5F5F5F5F5F5F5F5F5F5F5F5F5F5F88
:100880002000000020496E7465726E616C206572F4
:10089000726F722032313A20000000202020202088
:1008A00020414443206F6666202020202020200025
:1008B0000000202020202020202020202020202078
:1008C0002020202020200000000000000000002048
:1008D000202078202020002D2D2D2D2D2D2D00CFF6
:1008E00008D708CEF2EAEB2E00D2D1CC313030005E
:1008F000D2D1CC353000D2D1CF31303000D2D1CFAF
:10090000353000507431303000C3F0323100C3F064
:10091000323300E308E908F008F608FD0803090986
:10092000090E095458410054CFD00054C6CA00548F
:1009300058CA00E308230927092B092F09EDE5F21E
:1009400000F7E5F2EDFBE900EDE5F7E5F2EDFBE997
:10095000003D09410948093132303000323430302D
:1009600000343830300039363030003134343030F3
:1009700000313932303000323838303000333834DA
:1009800030300035373630300057095C0961096670
:10099000096B09710977097D0983091E04000000AC
:1009A0000000020000006D6C51090001050001000B
:1009B0000000020000006D6C0000001E0600000038
:1009C000000008000000F66B8909000BE808000031
:1009D000000BF0080000000BEA080000000BF20812
:1009E0000000000BEC080000000BF4080000000BF6
:1009F000EE080000000BF6080000004350313A7B7F
:100A00007B7B7B7B20204350353A7B7B7B7B7B0051
:100A1000CB09000000004350323A7B7B7B7B7B207C
:100A2000204350363A7B7B7B7B7B00D7090000005C
:100A3000004350333A7B7B7B7B7B20204350373A0B
:100A40007B7B7B7B7B00E309000000004350343A52
:100A50007B7B7B7B7B20204350383A7B7B7B7B7B83
:100A600000EF0900000000FB090403000000000083
:100A70000000003B3F000000000000202D2D2D2D28
:100A8000204D6F646275732030202D2D2D2D200098
:100A900000000000000020D1F7E5F2F7E8EAE820C6
:100AA00028F1E1F0EEF13A2D3E2900000000006748
:100AB0000A20CFE0F0E8F2E5F23A207D7D7D7D7DF1
:100AC0007D7D7D20200000009B09000020D1F2EEFA
:100AD000EF2DE1E8F2FB3A207D202020202020208D
:100AE000000000AB09000020424155443A207D7DC2
:100AF0007D7D7D6270732020202020000000BB09D6
:100B000000007B0A0501000000000000000000005A
:100B1000000000000000204D6F64627573203020DB
:100B20002020202020202020202000000000000283
:100B30000B20202020582020202020202020202092
:100B40002020202020000000000000002020202085
:100B5000582020202020202020202020202020205D
:100B6000000000000000002020202058202020202D
:100B70002020202020202020202020000000000015
:100B80000000160B04000000000000000000000040
:100B9000000000000000CDE5F200C4E000960B9AD2
:100BA0000B1E0300000000000100000000009D0B70
:100BB00000004F0600000004110B010000001F00A0
:100BC00000001723000000047F07010000000C0054
:100BD0000000212300000004D6050000000063008F
:100BE00000002B2300000004B905000000001700DE
:100BF00000000D23000000044906000000003B0037
:100C00000000032300000004AE06000000003B00CB
:100C10000000F9220000006175746F2020006D61F2
:100C20006E75616C00636F6E66696700170C1E0C51
:100C3000250C6E6F74207265636F670053494D39E0
:100C400030305220200053494D38303020202000D1
:100C5000320C3C0C460C1DEB06500C0000AD06009F
:100C6000000000AD060000001D8407000000000227
:100C70000000004A3F2C0C0000E30800000000E4E4
:100C80000800000000E50800000000E60800000081
:100C900000FC0A00000000FD0A00000000FE0A003F
:100CA000000000FF0A00000000D00200000000CB9E
:100CB00008000000220900000000000600000000FB
:100CC00000000000221D00000000000600000000DF
:100CD0000000000022590000000000060000000093
:100CE00000000000226D000000000006000000006F
:100CF0000000000001810000000000FF0000000073
:100D00000000000001820000000000FF0000000061
:100D10000000000001830000000000FF0000000050
:100D20000000000001840000000000FF000000003F
:100D30000000000001850000000000FF000000002E
:100D40000000000001860000000000FF000000001D
:100D50000000000001870000000000FF000000000C
:100D60000000000001880000000000FF00000000FB
:100D70000000000001890000000000FF00000000EA
:100D800000000000018A0000000000FF00000000D9
:100D900000000000018B0000000000FF00000000C8
:100DA00000000000018C0000000000FF00000000B7
:100DB00000000000018D0000000000FF00000000A6
:100DC00000000000018E0000000000FF0000000095
:100DD00000000000018F0000000000FF0000000084
:100DE0000000000001900000000000FF0000000073
:100DF0000000000008A10000000000FFFF0000004C
:100E00000000000008A30000000000FFFF00000039
:100E10000000000008A50000000000FFFF00000027
:100E20000000000008A70000000000FFFF00000015
:100E30000000000001B30000000000FF00000000FF
:100E40000000000001B40000000000FF00000000EE
:100E50000000000001B50000000000FF00000000DD
:100E60000000000001B60000000000FF00000000CC
:100E70000000000001B70000000000FF00000000BB
:100E80000000000001B80000000000FF00000000AA
:100E90000000000001B90000000000FF0000000099
:100EA0000000000001BA0000000000FF0000000088
:100EB0000000000001BB0000000000FF0000000077
:100EC0000000000001BC0000000000FF0000000066
:100ED0000000000001BD0000000000FF0000000055
:100EE0000000000001BE0000000000FF0000000044
:100EF0000000000001BF0000000000FF0000000033
:100F00000000000001C00000000000FF0000000021
:100F10000000000001C10000000000FF0000000010
:100F20000000000001C20000000000FF00000000FF
:100F30000000000008B10000000000FFFF000000FA
:100F40000000000008C30064000000FFFF00000074
:100F50000000000201130100000000010000000079
:100F60000000000008070000000000FFFF00000074
:100F70000000000020CCEEE4E5EC207B7B7B7B7B5B
:100F80007B7B7B7B207B7B7B00560C000000002062
:100F9000436F6E74726F6C206D6F64653A7D7D7DFA
:100FA0007D7D7D000000680C0000204D7949507B5C
:100FB0007B7B2E7B7B7B2E7B7B7B2E7B7B7B0078E6
:100FC0000C0000000020436C49507B7B7B2E7B7B18
:100FD0007B2E7B7B7B2E7B7B7B00900C00000000BC
:100FE0002041637469766520636F6E656374696F11
:100FF0006E7B7B7B00A80C00000000204649464F1A
:101000003A6D6178207B7B2F3730627974652000E0
:10101000AE0C00000000202D2D2D2D2D2D2D41502A
:101020004E2D2D2D2D2D2D2D2D2D000000000000DD
:1010300000207D7D7D7D7D7D7D7D7D7D7D7D7D7DBA
:101040007D7D7D7D7D000000B40C0000207D7D7DD8
:101050007D7D7D7D7D7D7D7D7D7D7D7D7D7D7D7DC0
:10106000000000C40C0000202D2D2D41504E2D55A8
:10107000534552204E414D452D2D2D0000000000BE
:101080000000207D7D7D7D7D7D7D7D7D7D7D7D7DE7
:101090007D7D7D7D7D7D000000D40C0000202D2D08
:1010A0002D41504E2D50415353574F52442D2D2D0D
:1010B0002D00000000000000207D7D7D7D7D7D7D78
:1010C0007D7D7D7D7D7D7D7D7D7D7D7D000000E460
:1010D0000C0000202D2D53656E6420554450207463
:1010E0006F2049502D2D2D000000000000002049E8
:1010F00050313A7D7D7D2E7D7D7D2E7D7D7D2E7DC9
:101100007D7D000000F40C0000204950323A7D7DC6
:101110007D2E7D7D7D2E7D7D7D2E7D7D7D00000063
:10112000340D0000204950333A7D7D7D2E7D7D7D3C
:101130002E7D7D7D2E7D7D7D000000740D000020C4
:101140004950343A7D7D7D2E7D7D7D2E7D7D7D2EA9
:101150007D7D7D000000B40D0000202D2D2D2D2063
:1011600055445020506F7274202D2D2D2D2D0000D0
:1011700000000000002049503120506F72743A7D09
:101180007D7D7D7D2020202020000000F40D0000CA
:101190002049503220506F72743A7D7D7D7D7D20D4
:1011A00020202020000000040E00002049503320A1
:1011B000506F72743A7D7D7D7D7D2020202020003F
:1011C0000000140E00002049503420506F72743A11
:1011D0007D7D7D7D7D2020202020000000240E00CC
:1011E00000202D20544350204950204669726577D5
:1011F000616C6C2D2D000000000000002049503172
:101200003A7D7D7D2E7D7D7D2E7D7D7D2E7D7D7D3E
:10121000000000340E0000204950323A7D7D7D2EC2
:101220007D7D7D2E7D7D7D2E7D7D7D000000740E7B
:101230000000204950333A7D7D7D2E7D7D7D2E7DC1
:101240007D7D2E7D7D7D000000B40E000020495084
:10125000343A7D7D7D2E7D7D7D2E7D7D7D2E7D7D37
:101260007D000000F40E0000205443505365727658
:101270006572506F72743A7D7D7D7D7D0000003413
:101280000F00002054696D656F7574205443503A07
:101290007D7D7D7D7D7D63000000440F0000202D5D
:1012A0002D2D2D2D2D2D20534D53202D2D2D2D2D1C
:1012B0002D2D0000000000000020D0E0F1F1FBEB3C
:1012C000EAE020534D533A2020207D7D7D00000030
:1012D000540F0000202D2D4964656E7469666963A2
:1012E0006174696F6E2D2D2D00000000000000203C
:1012F0005665676120532F4E3A20202020207D7DA7
:101300007D7D7D000000640F0000740F220000004E
:101310000000000000000000000000000000F006D7
:10132000EA061FC9081E13001FC9081E130120204A
:1013300020202020202020202020202020202020AD
:10134000202000000020CFE5F0E5E420EFF0EEE4FF
:10135000EEEBE6E5EDE8E5EC20000000F0E0E1EE84
:10136000F2FB20EFF0EEE2E5F0FCF2E520E2F1E541
:10137000000000202020202020EDE0F1F2F0EEE936
:10138000EAE82020202020000000000000000000EB
:10139000202020202020202020202020202020204D
:1013A00020202020000000D1EEF5F0E0EDB8EDEDBA
:1013B000FBF520EDE0F1F2F0EEE5EA000000202080
:1013C0002020EDE520EEE1EDE0F0F3E6E5EDEE20A6
:1013D000202000000020202020202020202020206D
:1013E00020202020202020202000000000000000DD
:1013F0000000D1EEF5F0E0EDE8F2FC20EDE0F1F2D6
:10140000F0EEE9EAE83F00000000000000202020A4
:10141000C4E0202D20EAEDEEEFEAE020C2D5CEC4F4
:1014200020000000000000002020CDE5F2202D204B
:10143000EAEDEEEFEAE020C2DBD5CEC4000000000A
:1014400000000020202020202020202020202020FC
:101450002020202020202000000000000000F213A7
:10146000040300000000000000006C3F00000000CA
:101470000000C2EEF1F2E0EDEEE22E20EDE0F1F23E
:10148000F0EEE9EAE83F0000000000000020202024
:10149000C4E0202D20EAEDEEEFEAE020C2D5CEC474
:1014A00020000000000000002020CDE5F2202D20CB
:1014B000EAEDEEEFEAE020C2DBD5CEC4000000008A
:1014C000000000202020202020202020202020207C
:1014D00020202020202020000000000000007214A6
:1014E00004030000000000000000613F0000000055
:1014F00000002D2D00F214050000F5140005010078
:10150000F51400050200F51400D3F1F2ED2FD0E53B
:10151000E7E5F0E2EDE0FF20EAEEEFE8FF00000093
:101520000000000020D1EEF5F0E0EDE8F2FC202014
:10153000202020202020202000000000005E142019
:10154000C2EEF1F2E0EDEEE23A7B7B2E7B7B2E32B7
:10155000307B7B00F7140000000020D1EEF1F22E6A
:10156000454550524F4D3A207B7B7B7B7B200028AA
:101570001300000000091504010000000000000035
:10158000007B70000000000000202D2D2D2D2D204F
:101590004D656D6F7279202D2D2D2D2D20000000B1
:1015A0000000000020466C6173683A20207B7B7B42
:1015B0007B7B202020202020002213000000002020
:1015C000454550524F4D3A207B7B7B7B7B20202032
:1015D000202020002813000000002052657365744D
:1015E00020454550524F4D206661696C2020000017
:1015F0000000000000204261636B5570204545509B
:10160000524F4D20202020202000000000007515A2
:10161000891505010000000000000000E74A0000F5
:1016200000000000205F5F5F5F5F5F5F5F5F5F5F85
:101630005F5F5F5F5F5F5F2000000020496E746541
:10164000726E616C206572726F722031313A2000C7
:1016500000002020202020466C61736820666169AC
:101660006C2020202020000000202020202020208E
:1016700020202020202020202020202020000000CA
:10168000000000000000205F5F5F5F5F5F5F5F5FE3
:101690005F5F5F5F5F5F5F5F5F2000000020496EFC
:1016A0007465726E616C206572726F722031323AAD
:1016B0002000000020202020454550524F4D20663C
:1016C00061696C20202020200000002020202020A4
:1016D000202020202020202020202020202020002A
:1016E0000000000000000000205F5F5F5F5F5F5F41
:1016F0005F5F5F5F5F5F5F5F5F5F5F200000002095
:10170000496E7465726E616C206572726F72203101
:10171000333A2000000020546F74616C206D656DB9
:101720006F7279206661696C202000000020202003
:1017300020202020202020202020202020202020A9
:1017400020000000000000000000000024168616A3
:10175000E81600640700000007810700000000A9E8
:1017600006000000202D2D2D205363616E2043794B
:10177000636C65202D2D2D2000000000000000204E
:101780005363616E4379636C653A2020207B7B7BD9
:10179000306D7300521700000000205363616E43E8
:1017A00079636C5065725365633A7B7B7B7B005831
:1017B0001700000000204D61785363616E43796328
:1017C0006C653A7B7B7B306D73005E170000000018
:1017D0006417040100000000000000004E3F0000FC
:1017E000000000000B1D0C00000004A80600000013
:1017F000313020F1E5EA00333020F1E5EA00312014
:10180000ECE8ED20003320ECE8ED2000313020EC56
:10181000E8ED00F017F717FE1705180C181E310138
:1018200000000000040000000000131800082F0151
:1018300000000000FF030000000000000010F006A0
:10184000000000202D20D1EBF3E6E5E1EDEEE520F0
:10185000ECE5EDFE202D200000000000000020C47B
:10186000E8F1EAF0E5F2EDFBE520E2F5EEE4FB203D
:1018700020200000000000621E20C4E8F1EAF0E52C
:10188000F2EDFBE520E2FBF5EEE4FB20200000009A
:101890000000262120C0EDE0EBEEE3EEE2FBE520C8
:1018A000E2F5EEE4FB2020200000000000D621201D
:1018B000C0EDE0EBEEE3EEE2FBE520E2FBF5EEE46B
:1018C000FB20200000000000962220C0D6CF202060
:1018D0002020202020202020202020202020000048
:1018E000000000590820D2E5F0ECEEE4E0F2F7E861
:1018F000EAE82020202020202000000000002A29E3
:10190000204D6F646275732020202020202020202D
:10191000202020200000000000820B20CCEEE4E517
:10192000EC2020202020202020202020202020000B
:10193000000000000A13207B207D7D2E7D7D2E7D02
:101940007D207D7D3A7D7D3A7D7D00B10BB70B001A
:101950000020C0E2F2EECFE5F0E5F5CBE5F2EDC216
:10196000F03A7D7D7D000000A10B000020CDE0F06D
:10197000E0E1EEF2EAE03A7B7B7B7B7BF77B7BEC82
:1019800000E4170000000020D1EEF1F2EEFFEDE8D8
:10199000E520EFE0ECFFF2E820202000000000004E
:1019A0001016205363616E204379636C653A2020E2
:1019B0007B7B7B306D730052170000D01720CFEE79
:1019C000F0EEE320E8EEEDEEE42E3A20207D7D7D82
:1019D0007D0000002D18000020CFEEE4F1E2E5F2DA
:1019E000EAE0C6CAC83A7D7D7D7D7D7D0000001D90
:1019F00018000020D1F7B8F22EDDCCCD3A7B7B7BEE
:101A00007B7B7B7B7B7B7B003D18000000004318C9
:101A100011010000000000000000000000000000B4
:101A20000000205F5F5F5F5F5F5F5F5F5F5F5F5FC3
:101A30005F5F5F5F5F2000000020496E7465726E1B
:101A4000616C206572726F722034313A20000000A0
:101A500054696D657220616C6C6F636174696F6E3F
:101A600020657272000000202020202020202020ED
:101A70002020202020202020202020000000000006
:101A8000000000001FF6060E07001FFC06000700FE
:101A90001FF6060E07011FFC060007011FF6060EC3
:101AA00007021FFC060007021FF6060E07031FFCB5
:101AB000060007031FF6060E07041FFC06000704B6
:101AC0001FF6060E07051FFC060007051FF6060E8B
:101AD00007061FFC060007061FF6060E07071FFC79
:101AE000060007071FF6060E07081FFC060007087A
:101AF0001FF6060E07091FFC060007091FF6060E53
:101B0000070A1FFC0600070A1FF6060E070B1FFC3C
:101B10000600070B1FF6060E070C1FFC0600070C3D
:101B20001FF6060E070D1FFC0600070D1FF6060E1A
:101B3000070E1FFC0600070E1FF6060E070F1FFC00
:101B40000600070F1FF6060E07101FFC0600071001
:101B50001FF6060E07111FFC0600071120140100D6
:101B60000000000000000000001C0700201401001D
:101B70000000000000000000001C0701201401000C
:101B80000000000000000000001C070220140100FB
:101B90000000000000000000001C070320140100EA
:101BA0000000000000000000001C070420140100D9
:101BB0000000000000000000001C070520140100C8
:101BC0000000000000000000001C070620140100B7
:101BD0000000000000000000001C070720140100A6
:101BE0000000000000000000001C07082014010095
:101BF0000000000000000000001C07092014010084
:101C00000000000000000000001C070A2014010072
:101C10000000000000000000001C070B2014010061
:101C20000000000000000000001C070C2014010050
:101C30000000000000000000001C070D201401003F
:101C40000000000000000000001C070E201401002E
:101C50000000000000000000001C070F201401001D
:101C60000000000000000000001C0710201401000C
:101C70000000000000000000001C0711204E313A57
:101C800020207B7B7B7B207D7D7D7D207B7B7B7B08
:101C900000841A5C1B0000204E323A20207B7B7BA4
:101CA0007B207D7D7D7D207B7B7B7B00901A6C1B68
:101CB0000000204E333A20207B7B7B7B207D7D7D86
:101CC0007D207B7B7B7B009C1A7C1B0000204E349C
:101CD0003A20207B7B7B7B207D7D7D7D207B7B7BF9
:101CE0007B00A81A8C1B0000204E353A20207B7BFD
:101CF0007B7B207D7D7D7D207B7B7B7B00B41A9C64
:101D00001B0000204E363A20207B7B7B7B207D7D94
:101D10007D7D207B7B7B7B00C01AAC1B0000204EAE
:101D2000373A20207B7B7B7B207D7D7D7D207B7BEC
:101D30007B7B00CC1ABC1B0000204E383A20207B55
:101D40007B7B7B207D7D7D7D207B7B7B7B00D81A10
:101D5000CC1B0000204E393A20207B7B7B7B207DF2
:101D60007D7D7D207B7B7B7B00E41ADC1B000020DB
:101D70004E31303A207B7B7B7B207D7D7D7D207BBF
:101D80007B7B7B00F01AEC1B0000204E31313A20A7
:101D90007B7B7B7B207D7D7D7D207B7B7B7B00FC3B
:101DA0001AFC1B0000204E31323A207B7B7B7B20CB
:101DB0007D7D7D7D207B7B7B7B00081B0C1C0000D8
:101DC000204E31333A207B7B7B7B207D7D7D7D20C7
:101DD0007B7B7B7B00141B1C1C0000204E31343AA3
:101DE000207B7B7B7B207D7D7D7D207B7B7B7B00C7
:101DF000201B2C1C0000204E31353A207B7B7B7B46
:101E0000207D7D7D7D207B7B7B7B002C1B3C1C0013
:101E100000204E31363A207B7B7B7B207D7D7D7D93
:101E2000207B7B7B7B00381B4C1C0000204E313715
:101E30003A207B7B7B7B207D7D7D7D207B7B7B7B3C
:101E400000441B5C1C0000204E31383A207B7B7B19
:101E50007B207D7D7D7D207B7B7B7B00501B6C1CF4
:101E600000007C1C120000000000000000000000C8
:101E70000000000000001F910700000000000000AB
:101E80000000002A07001F9107000000000000006A
:101E90000000002A07011F91070000000000000059
:101EA0000000002A07021F91070000000000000048
:101EB0000000002A07031F91070000000000000037
:101EC0000000002A07041F91070000000000000026
:101ED0000000002A07051F91070000000000000015
:101EE0000000002A07061F91070000000000000004
:101EF0000000002A07071F910700000000000000F3
:101F00000000002A07081F910700000000000000E1
:101F10000000002A07091F910700000000000000D0
:101F20000000002A070A1F910700000000000000BF
:101F30000000002A070B1F910700000000000000AE
:101F40000000002A070C1F9107000000000000009D
:101F50000000002A070D1F9107000000000000008C
:101F60000000002A070E1F9107000000000000007B
:101F70000000002A070F20C2FBF5EEE4204E313AA4
:101F800020202020207D7D7D7D20000000761E0009
:101F90000020C2FBF5EEE4204E323A202020202023
:101FA0007D7D7D7D20000000861E000020C2FBF5A7
:101FB000EEE4204E333A20202020207D7D7D7D20C0
:101FC000000000961E000020C2FBF5EEE4204E3417
:101FD0003A20202020207D7D7D7D20000000A61E4F
:101FE000000020C2FBF5EEE4204E353A20202020F0
:101FF000207D7D7D7D20000000B61E000020C2FBFC
:10200000F5EEE4204E363A20202020207D7D7D7D97
:1020100020000000C61E000020C2FBF5EEE4204EAA
:10202000373A20202020207D7D7D7D20000000D6B5
:102030001E000020C2FBF5EEE4204E383A2020209E
:1020400020207D7D7D7D20000000E61E000020C256
:10205000FBF5EEE4204E393A20202020207D7D7DC6
:102060007D20000000F61E000020C2FBF5EEE420FB
:102070004E31303A202020207D7D7D7D20000000E3
:10208000061F000020C2FBF5EEE4204E31313A205D
:102090002020207D7D7D7D20000000161F00002077
:1020A000C2FBF5EEE4204E31323A202020207D7D27
:1020B0007D7D20000000261F000020C2FBF5EEE41D
:1020C000204E31333A202020207D7D7D7D20000070
:1020D00000361F000020C2FBF5EEE4204E31343AFA
:1020E000202020207D7D7D7D20000000461F0000F7
:1020F00020C2FBF5EEE4204E31353A202020207D31
:102100007D7D7D20000000561F000020C2FBF5EE03
:10211000E4204E31363A202020207D7D7D7D200038
:102120000000661F0000761F100000000000000085
:10213000000000000000000000000B000B00000089
:102140000B020B0000000B040B0000000B060B0041
:1021500000000B080B0000000B0A0B0000000B0C2A
:102160000B0000000B0E0B000000204E313A207BCC
:102170007B7B7B7B204E323A207B7B7B7B7B003AD8
:102180002100000000204E333A207B7B7B7B7B20AC
:102190004E343A207B7B7B7B7B0046210000000095
:1021A000204E353A207B7B7B7B7B204E363A207B52
:1021B0007B7B7B7B00522100000000204E373A20C1
:1021C0007B7B7B7B7B204E383A207B7B7B7B7B0041
:1021D0005E21000000006A210403000000000000EE
:1021E000000000000000000000000E850700000055
:1021F00000FF03000000000000000E870700000041
:1022000000FF03000000000000000E89070000002E
:1022100000FF03000000000000000E8B070000001C
:1022200000FF030000000000000020C2FBF5EEE408
:10223000204E313A20202020207D7D7D7D7D0000B4
:1022400000EA21000020C2FBF5EEE4204E323A20E5
:10225000202020207D7D7D7D7D000000FA21000072
:1022600020C2FBF5EEE4204E333A20202020207DD2
:102270007D7D7D7D0000000A22000020C2FBF5EE7E
:10228000E4204E343A20202020207D7D7D7D7D007D
:1022900000001A2200002A220400000000000000B2
:1022A0000000000000000000000007CD0800000052
:1022B00007CF0800000007D10800000007D308007E
:1022C000000007D50800000007D70800000007D964
:1022D00008000000202D2D2D20CAE0EDE0EBFB20B2
:1022E000C0D6CF202D2D2D200000000000000020A2
:1022F0004E313A207B7B7B7B7B204E323A207B7BAE
:102300007B7B7B00AA2200000000204E333A207B1A
:102310007B7B7B7B204E343A207B7B7B7B7B00B6B8
:102320002200000000204E353A207B7B7B7B7B2007
:102330004E363A207B7B7B7B7B00C2220000000074
:1023400020CEEFEEF0ED2E20EAE0EDE0EB3A207B40
:102350007B7B7B7B00CE2200000000D422050100A5
:10236000000000000000000000000000000000006D
:10237000210C00000004200C000000041F0C0000D1
:102380000000240C00000004230C00000004220CB8
:10239000000000202D2D2D20CAE0EBE8E1F0EEE258
:1023A000EAE0202D2D2D2000000000000000205A22
:1023B00065726F3A20207B7B7B207B7B7B207B7B45
:1023C0007B20006F23000000002046756C6C3A20D3
:1023D000207B7B7B207B7B7B207B7B7B2000812386
:1023E000000000002020202020202020202020206D
:1023F000202020202020202000000000000000934A
:1024000023040300000000000000000000000000A2
:10241000000000526573657400496E697469616CEF
:10242000697361740043616C6962726174696F6E93
:102430000052656164004F66660013241924252448
:1024400031243624093D06DF0801093F06DF080173
:10245000094106DF0801094306DF0801094506DFD7
:102460000801094706DF08011E17010000000007E8
:1024700000000000001309001E1801000000000702
:1024800000000000001309001E19010000000007F1
:1024900000000000001309001E1A010000000007E0
:1024A00000000000001309001E1B010000000007CF
:1024B00000000000001309001E1C010000000007BE
:1024C0000000000000130900031D0180FFFFFF7FD3
:1024D000000000000000000103200180FFFFFF7FDB
:1024E000000000000000000103230180FFFFFF7FC8
:1024F000000000000000000103260180FFFFFF7FB5
:10250000000000000000000103290180FFFFFF7FA1
:102510000000000000000001032C0180FFFFFF7F8E
:102520000000000000000001081E01840300004CB0
:102530000400000000000003082101840300004C97
:102540000400000000000003082401840300004C84
:102550000400000000000003082701840300004C71
:102560000400000000000003082A01840300004C5E
:102570000400000000000003082D01840300004C4B
:10258000040000000000000320CAE0EDE0EB204E54
:10259000313A207B7B7B7B7B7B7B7C43004424002C
:1025A00000000020D2E5F0ECEEE4E0F2F7E8EA3AD1
:1025B000207D7D7D7D7D7D0000006824000020D190
:1025C000E4E2E8E33A2020202020207D7D7D7D7D0F
:1025D0007C43000000C824000020CAEEFDF4F4E8AB
:1025E000F6E8E5EDF23A20207D7D7D7D7D0000005E
:1025F00028250000882504010000000000000000DC
:10260000000000000000000020CAE0EDE0EB204EDA
:10261000323A207B7B7B7B7B7B7B7C43004A2400A4
:1026200000000020D2E5F0ECEEE4E0F2F7E8EA3A50
:10263000207D7D7D7D7D7D0000007824000020D1FF
:10264000E4E2E8E33A2020202020207D7D7D7D7D8E
:102650007C43000000D824000020CAEEFDF4F4E81A
:10266000F6E8E5EDF23A20207D7D7D7D7D000000DD
:1026700038250000082604010000000000000000CA
:10268000000000000000000020CAE0EDE0EB204E5A
:10269000333A207B7B7B7B7B7B7B7C43005024001D
:1026A00000000020D2E5F0ECEEE4E0F2F7E8EA3AD0
:1026B000207D7D7D7D7D7D0000008824000020D16F
:1026C000E4E2E8E33A2020202020207D7D7D7D7D0E
:1026D0007C43000000E824000020CAEEFDF4F4E88A
:1026E000F6E8E5EDF23A20207D7D7D7D7D0000005D
:1026F00048250000882604010000000000000000BA
:10270000000000000000000020CAE0EDE0EB204ED9
:10271000343A207B7B7B7B7B7B7B7C430056240095
:1027200000000020D2E5F0ECEEE4E0F2F7E8EA3A4F
:10273000207D7D7D7D7D7D0000009824000020D1DE
:10274000E4E2E8E33A2020202020207D7D7D7D7D8D
:102750007C43000000F824000020CAEEFDF4F4E8F9
:10276000F6E8E5EDF23A20207D7D7D7D7D000000DC
:1027700058250000082704010000000000000000A8
:10278000000000000000000020CAE0EDE0EB204E59
:10279000353A207B7B7B7B7B7B7B7C43005C24000E
:1027A00000000020D2E5F0ECEEE4E0F2F7E8EA3ACF
:1027B000207D7D7D7D7D7D000000A824000020D14E
:1027C000E4E2E8E33A2020202020207D7D7D7D7D0D
:1027D0007C430000000825000020CAEEFDF4F4E868
:1027E000F6E8E5EDF23A20207D7D7D7D7D0000005C
:1027F0006825000088270401000000000000000098
:10280000000000000000000020CAE0EDE0EB204ED8
:10281000363A207B7B7B7B7B7B7B7C430062240086
:1028200000000020D2E5F0ECEEE4E0F2F7E8EA3A4E
:10283000207D7D7D7D7D7D000000B824000020D1BD
:10284000E4E2E8E33A2020202020207D7D7D7D7D8C
:102850007C430000001825000020CAEEFDF4F4E8D7
:10286000F6E8E5EDF23A20207D7D7D7D7D000000DB
:102870007825000008280401000000000000000086
:10288000000000000000000020CAE0EDE0EB204E58
:10289000313A207B7B7B7B7B7B7B7C430044240029
:1028A00000F42520CAE0EDE0EB204E323A207B7B9D
:1028B0007B7B7B7B7B7C43004A240000742620CA00
:1028C000E0EDE0EB204E333A207B7B7B7B7B7B7B18
:1028D0007C430050240000F42620CAE0EDE0EB2009
:1028E0004E343A207B7B7B7B7B7B7B7C4300562476
:1028F0000000742720CAE0EDE0EB204E353A207B43
:102900007B7B7B7B7B7B7C43005C240000F427206B
:10291000CAE0EDE0EB204E363A207B7B7B7B7B7B75
:102920007B7C430062240000742888280600000095
:102930000000000000000000000000000000000097
:1029400000740F2200A62900000000000000000013
:102950000000000000202D47534D2DF1E8E3EDE08D
:10296000EBE8E7E0F2EEF02D200000000000A629E1
:1029700020D1EBF3E6E5E1EDEEE52020202020205C
:102980002020202000000000000E1A20CCEEE4E5FC
:10299000EC2020202020202020202020202020008B
:1029A00000000000412955290300A629000000006D
:1029B000000000000000000000000000583F603FE1
:1029C00014566C51BE5963590702B606D60600006C
:1029D000E1F6910830F80E2818FCA2370CFEEA4602
:1029E00000004965E803A683D007FFFFF417000045
:1029F000DFF6460430F8130C24FAFE1318FCC61B4D
:102A00000CFE6B230000032BF4019A32E803303AEA
:102A1000DC05C941D007FFFFBD380000F6F5C2381C
:102A20000CFEE2460000B662E803967DD007AE9742
:102A3000B80BEAB0A00F54C98813E2E07017FFFF8B
:102A4000971E00001FF65F1C0CFE5631E803D03EB7
:102A5000D007D24BB80B7058A00FAA6488136C70C3
:102A60007017FFFF0E47000020F6FE380CFE48628C
:102A7000E803C47CD0076E96B80B50AFA00F56C7C2
:102A8000881394DE7017F6F4581BFFFF8B1F0000AD
:102A90001EF61C1A0CFE642DE803C639D007C44587
:102AA000B80B6851A00F9E5C88137A677017FFFF00
:102AB000CE4F0000D5F67D1D0CFE8B2500008F2D1E
:102AC000F4019235E803953DDC0563420807FFFFFA
:102AD0003E35000090019901DC057C07B80B8E158E
:102AE00088131B1F7017302A581BC436401FB6446A
:102AF0002823F25310275A64F82AD075E02E408814
:102B0000C832789BB03650AF983A82C3803ED2D755
:102B10006842FFFF384A0600070000080108020863
:102B20000308040805080001020304050607080954
:102B30000A0B0C0D0E0F07010801060140000701EA
:102B40000801060180000401050103018000210045
:102B500022002000010021002200200002002100AC
:102B60002200200004002100220020000800210093
:102B7000220020001000210022002000200021005F
:102B800022002000400021002200200080003300AD
:102B90003400320004000401050103014000040177
:102BA00005010301200004010501030110000401D7
:102BB00005010301080004010501030102010401EC
:102BC0000501030104012B50445000434C4F5300B6
:102BD000504F53540047455420000D0A002B4353D7
:102BE000513A20256868752C256868750025686845
:102BF000752C20434C4F534544004F4B00256868CB
:102C000075202568687520256868752025686875B1
:102C100000CE00C800C900CA00CD00CC00511D572D
:102C20001D5B1D5C1D00460047005627B200B30027
:102C30006027A400A8006C270004061F06040000FB
:102C400006090906000000000008080E0F1F0F0605
:102C500000000E111C110E000E11101C10110E00A0
:102C60000A000C0404040E000A0E040404040E00FE
:102C70000000000000000000FFFFFFFFFFFFFFFF5C
:102C8000FFFFFFFFFFFFFFFF0002FFFFFFFFFFFF50
:102C9000FFFFFFFFFFFFFFFF202122232425262720
:102CA00028292A2B2C2D2E2F30313233343536372C
:102CB00038393A3B3C3D3E3F40414243444546471C
:102CC00048494A4B4C4D4E4F50515253545556570C
:102CD00058595A5B5C5D5E5F6061626364656667FC
:102CE00068696A6B6C6D6E6F7071727374757677EC
:102CF00078797A7B017DE97FFFFFFFFFFFFFFFFF10
:102D0000FFFFFFFFFFFFFFFFFFFFFFFFFFFFFFFFD3
:102D1000FFFFFFFFFFFFFFFFFFFFFFFFFFFFFFD9E9
:102D2000A2FF04FFFFFFFF06FFFF4969FFFFFFDA75
:102D3000B5FF03FFFFFFFF0541A042A1E045A3A4AB
:102D4000A5A64BA74D484FA8504354A9AA58E1AB9C
:102D5000ACE2ADAE62AFB0B161B2B3B4E365B6B7E9
:102D6000B8B9BABBBCBD6FBE7063BF79E478E5C0CB
:102D7000C1E6C2C3C4C5C6C780C094D40001020363
:102D800004050600C0C101C30302C2C60607C70589
:102D9000C5C404CC0C0DCD0FCFCE0E0ACACB0BC9C7
:102DA0000908C8D81819D91BDBDA1A1EDEDF1FDDA7
:102DB0001D1CDC14D4D515D71716D6D21213D31177
:102DC000D1D010F03031F133F3F23236F6F737F577
:102DD0003534F43CFCFD3DFF3F3EFEFA3A3BFB3907
:102DE000F9F83828E8E929EB2B2AEAEE2E2FEF2D07
:102DF000EDEC2CE42425E527E7E62622E2E323E1B7
:102E00002120E0A06061A163A3A26266A6A767A5D6
:102E10006564A46CACAD6DAF6F6EAEAA6A6BAB6946
:102E2000A9A86878B8B979BB7B7ABABE7E7FBF7D26
:102E3000BDBC7CB47475B577B7B67672B2B373B1F6
:102E40007170B05090915193535292965657975536
:102E50009594549C5C5D9D5F9F9E5E5A9A9B5B9986
:102E6000595898884849894B8B8A4A4E8E8F4F8D86
:102E70004D4C8C4484854587474686824243834136
:102E800081804000C1814001C0804101C08041007B
:102E9000C1814001C0804100C1814000C181400129
:102EA000C0804101C0804100C1814000C18140011A
:102EB000C0804100C1814001C0804101C08041000B
:102EC000C1814001C0804100C1814000C1814001F9
:102ED000C0804100C1814001C0804101C0804100EB
:102EE000C1814000C1814001C0804101C0804100DA
:102EF000C1814001C0804100C1814000C1814001C9
:102F0000C0804101C0804100C1814000C1814001B9
:102F1000C0804100C1814001C0804101C0804100AA
:102F2000C1814000C1814001C0804101C080410099
:102F3000C1814001C0804100C1814000C181400188
:102F4000C0804100C1814001C0804101C08041007A
:102F5000C1814001C0804100C1814000C181400168
:102F6000C0804101C0804100C1814000C181400159
:102F7000C0804100C1814001C0804101C08041004A
:102F8000C1814000407A10F35A00A0724E18090027
:102F900010A5D4E80000E87648170000E40B5402BE
:102FA0000000CA9A3B000000E1F5050000809698F9
:102FB00000000040420F000000A086010000001049
:102FC0002700000000E8030000000064000000008B
:102FD000000A00000000000100000000002C76D86C
:102FE00088DC674F0823DFC1DFAE59E1B1B796E552
:102FF000E3E453C63AE651997696E8E6C28426EBB6
:10300000898C9B62ED407C6FFCEFBC9C9F40F2BAC8
:10301000A56FA5F490055A2AF75C936B6CF9676D60
:10302000C11BFCE0E40D47FEF520E6B500D0ED90B5
:103030002E0300943577050080841E080000204E82
:103040000A000000C80C333333330F986E1283111B
:1030500041EF8D2114893BE65516CFFEE6DB18D1F2
:10306000844B381BF77C1D901DA4BBE424203284C4
:10307000725E228100C9F124ECA1E53D27001124F4
:103080001FBECFEFD1E2DEBFCDBF00E00CBF12E02C
:10309000A0E0B2E0E2EEFCEF00E00BBF02C0079060
:1030A0000D92A63DB107D9F71CE0A6EDB2E001C034
:1030B0001D92A632B107E1F70E94AC6F0C9484799F
:1030C0000C940000FC0180810895FC018491089516
:1030D000FC0125913491C9010895FC012591359198
:1030E00045915491B901CA010895A0E0B0E0805023
:1030F0009040AF4FBF4FABBFFC0187910895FC01DB
:1031000084910895FC0125913491C90108956F922D
:103110007F928F929F92AF92BF92CF92DF92EF9267
:10312000FF920F931F93CF93DF933C01EB01490173
:103130005A01C12ED02E2115310541055105F9F056
:10314000EE24FF248701CE018E0D9F1DF3011995FA
:10315000D8262D2D30E0C9018D57914DFC01D4901A
:10316000DC242D57324DF901C4900894E11CF11C68
:10317000011D111DE814F9040A051B0520F39C2DFF
:1031800080E02D2D30E0282B392BC901DF91CF9124
:103190001F910F91FF90EF90DF90CF90BF90AF9075
:1031A0009F908F907F906F9008950F931F930FEFD4
:1031B0001FEF0E9487181F910F9108950F931F937F
:1031C00085E698E160E070E020E030E041E050E02A
:1031D0000E94D5188C0185E798E160E070E020E05E
:1031E00030E043E050E00E9487181F910F9108954E
:1031F000CF92DF92EF92FF920F931F9398E7C92E21
:103200009DE4D92E88E3E82E81E0F82E970140E076
:1032100050E0C60160E070E00E94D5188C012BEFF1
:103220003FE02E193F0940E050E0C60165E070E044
:10323000E60EF71EB7010E9487181F910F91FF90AD
:10324000EF90DF90CF900895789408958FB78078AD
:103250008093E602F89408958091E602882309F0AD
:1032600078940895A8952FE088E190E00FB6F8943F
:10327000A895809360000FBE209360000895809110
:10328000D6028F5F8093D602815008958091C90243
:103290008F5F8093C902815008958091CA028F5F29
:1032A0008093CA02815008958091CB028F5F8093F2
:1032B000CB0281500895882339F09091D602890F6E
:1032C0008093D602892F089590E0892F089588234E
:1032D00039F09091C902890F8093C902892F08950E
:1032E00090E0892F0895882339F09091CA02890FC0
:1032F0008093CA02892F089590E0892F089588232A
:1033000039F09091CB02890F8093CB02892F0895D9
:1033100090E0892F08959091D702890F8093D7026A
:10332000892F08959091CC02890F8093CC02892F28
:1033300008959091CD02890F8093CD02892F089531
:103340009091CE02890F8093CE02892F0895982FF5
:103350003FB730783093E602F894482F50E0FA01F6
:10336000E951FD4F608380818823C1F09695969541
:103370009695E92FF0E0E955FB4F2081477050709A
:1033800081E090E002C0880F991F4A95E2F780958E
:1033900082238083332309F0789408959695969537
:1033A0009695E92FF0E0E955FB4F2081477050706A
:1033B00081E090E002C0880F991F4A95E2F7282B20
:1033C0002083E8CF982F3FB730783093E602F89407
:1033D000482F50E0FA01E151FD4F6083808188233E
:1033E000C1F0969596959695E92FF0E0E755FB4F3D
:1033F00020814770507081E090E002C0880F991FD3
:103400004A95E2F7809582238083332309F07894EC
:103410000895969596959695E92FF0E0E755FB4F20
:1034200020814770507081E090E002C0880F991FA2
:103430004A95E2F7282B2083E8CF282F3FB7307832
:103440003093E602F894482F50E0FA01EE0FFF1F88
:10345000E95BFC4F7183608380819181892BC1F08E
:10346000269526952695E22FF0E0EB54FB4F208120
:103470004770507081E090E002C0880F991F4A9514
:10348000E2F7809582238083332309F078940895AE
:10349000269526952695E22FF0E0EB54FB4F2081F0
:1034A0004770507081E090E002C0880F991F4A95E4
:1034B000E2F7282B2083E8CFCF93DF93282F3FB765
:1034C00030783093E602F894C82FD0E0FE01EE0F7A
:1034D000FF1FEE0FFF1FE95FFB4F408351836283A5
:1034E000738380819181A281B3810097A105B10589
:1034F000D1F0269526952695E22FF0E0EE53FB4F6E
:103500002081C770D07081E090E002C0880F991FC1
:10351000CA95E2F7809582238083332309F078945B
:10352000DF91CF910895269526952695E22FF0E01C
:10353000EE53FB4F2081C770D07081E090E002C055
:10354000880F991FCA95E2F7282B2083E6CF4FB743
:1035500040784093E602F894E82FE695E695E695E4
:10356000F0E0E955FB4F9081877021E030E002C028
:10357000220F331F8A95E2F7922B9083442309F0A0
:10358000789408954FB740784093E602F894E82F76
:10359000E695E695E695F0E0E755FB4F908187705C
:1035A00021E030E002C0220F331F8A95E2F7922B10
:1035B0009083442309F0789408954FB7407840935E
:1035C000E602F894E82FE695E695E695F0E0EB54F0
:1035D000FB4F9081877021E030E002C0220F331F43
:1035E0008A95E2F7922B9083442309F0789408950A
:1035F0004FB740784093E602F894E82FE695E695B9
:10360000E695F0E0EE53FB4F9081877021E030E0CB
:1036100002C0220F331F8A95E2F7922B9083442336
:1036200009F078940895E82FE695E695E695F0E0A0
:10363000E955FB4F2081E82FF0E030E0CF018770A3
:10364000907002C0359527958A95E2F720FD02C05B
:1036500080E00895E951FD4F9081992319F481E0AC
:103660008927089591E081E089270895E82FE6955C
:10367000E695E695F0E0E755FB4F2081E82FF0E076
:1036800030E0CF018770907002C0359527958A95FC
:10369000E2F720FD02C080E00895E151FD4F9081E6
:1036A000992319F481E08927089591E081E0892721
:1036B00008954FB740784093E602F894E82FE695D6
:1036C000E695E695F0E0EB54FB4F2081E82FF0E023
:1036D00030E0CF018770907002C0359527958A95AC
:1036E000E2F720FD06C020E0442309F07894822F01
:1036F0000895EE0FFF1FE95BFC4F8081918120E070
:10370000892B19F481E02827EFCF21E081E02827D9
:10371000EBCF4FB740784093E602F894E82FE69558
:10372000E695E695F0E0EE53FB4F2081E82FF0E0C0
:1037300030E0CF018770907002C0359527958A954B
:10374000E2F720FD06C020E0442309F07894822FA0
:103750000895EE0FFF1FEE0FFF1FE95FFB4F808103
:103760009181A281B38120E00097A105B10519F4F0
:1037700081E02827E9CF21E081E02827E5CF5FB766
:1037800050785093E602F894E82FE695E695E69592
:10379000F0E0E955FB4F4081A82FB0E09D01277074
:1037A000307081E090E002C0880F991F2A95E2F7FF
:1037B000482B4083552309F07894A951BD4F1C92A2
:1037C00008955FB750785093E602F894E82FE69595
:1037D000E695E695F0E0E755FB4F4081A82FB0E075
:1037E0009D012770307081E090E002C0880F991F22
:1037F0002A95E2F7482B4083552309F07894A1518C
:10380000BD4F1C920895E82F5FB750785093E602A1
:10381000F894A82FA695A695A695B0E0AB54BB4FFB
:103820004C91F0E09F012770307081E090E002C081
:10383000880F991F2A95E2F7482B4C93EE0FFF1F34
:10384000E95BFC4F11821082552309F078940895AA
:10385000E82F5FB750785093E602F894A82FA6950A
:10386000A695A695B0E0AE53BB4F4C91F0E09F01FA
:103870002770307081E090E002C0880F991F2A9570
:10388000E2F7482B4C93EE0FFF1FEE0FFF1FE95F8F
:10389000FB4F1082118212821382552309F0789413
:1038A0000895E7EEF2E0E80FF11D80810895EFEE54
:1038B000F2E0E80FF11D80810895E82F8FB780783E
:1038C0008093E602F894F0E0EE0FFF1FE95BFC4FF7
:1038D0000190F081E02D882309F07894CF010895BC
:1038E000E82F8FB780788093E602F894F0E0EE0F2F
:1038F000FF1FEE0FFF1FE95FFB4F208131814281E7
:103900005381882309F07894B901CA010895809100
:10391000CC028835A8F48091CD02803688F480915D
:10392000CE02883268F48091C902803448F48091D4
:10393000CA02883428F490E08091CB02803208F0EB
:1039400091E0892F08958091CC028F5F8093CC0203
:1039500081508093C8046FEF0E94E21908951F926E
:103960000F920FB60F920BB60F9211242F934F9315
:103970005F936F937F938F939F93AF93BF93EF93D7
:10398000FF938091C9048F5F8093C90440E050E0A9
:10399000A1E0B0E08091A704BA016770707090E078
:1039A000062E02C0959587950A94E2F780FD14C013
:1039B000FA01E951FD4F8081815080838081882305
:1039C00059F42091A704CD0102C0880F991F6A9570
:1039D000E2F7282B2093A7044F5F5F4F4830510533
:1039E000C9F6FF91EF91BF91AF919F918F917F9118
:1039F0006F915F914F912F910F900BBE0F900FBE63
:103A00000F901F901895A89580916807909169076D
:103A1000019690936907809368079091C804E92FF5
:103A2000F0E0E151FD4FE081E095E0936407809183
:103A3000A9068E1710F4E093A906892F6FEF0E9454
:103A4000E21908951092A9060895882339F020EA12
:103A50003FE0F9013197F1F78150D9F70895A0E0DF
:103A6000B0E0BC01CD010E9493782DEC3CEC4CE41D
:103A70005FE30E94D0780E94687DCB01672B31F014
:103A800035E0232F2A95F1F70197D9F708956A9A1F
:103A90007298549A5C9808958EB194E089278EB9F3
:103AA00008958BB190E189278BB908950895089501
:103AB000089508950895089508950895089532EA9F
:103AC0003093900029E1209391008FEF9FEF909326
:103AD0009700809396008DB188618DB93093200155
:103AE000209321018EE79CE090932701809326018B
:103AF000EAE0F1E080818861808308956091850724
:103B00007091860780E090E00E94937828E83FE17A
:103B100040E852E40E94D0780E94687D262F9FB72B
:103B2000F894709399002093980097FF01C07894BF
:103B3000609187077091880780E090E00E949378F9
:103B400028E83FE140E852E40E94D0780E94687D76
:103B5000262F9FB7F89470939B0020939A0097FFAD
:103B600001C078946091890770918A0780E090E0A5
:103B70000E94937825E032E148E450E40E94D07836
:103B80000E94687D262F9FB7F89470932901209397
:103B9000280197FF01C0789460918B0770918C0782
:103BA00080E090E00E94937825E032E148E450E420
:103BB0000E94D0780E94687D262F8FB780788093EE
:103BC000E602F89470932B0120932A01882309F0D0
:103BD000789408951F938CB588608CBDF89480917B
:103BE0000201877F80930201789480911C0B8130C1
:103BF00009F4ECC0813030F5F894809102018F7E99
:103C000080930201789485E08A95F1F7F894809189
:103C1000020180618093020178948091EF0664E054
:103C20000E94A71980911C0B8F5F80931C0B17E0DB
:103C3000F894809102018860809302017894812F2A
:103C40001F910895823009F4D2C0833011F017E03B
:103C5000EFCF88E08EBD0DB407FEFDCF1EBC0DB4C6
:103C600007FEFDCF0EB407FCDAC088E38EBD0DB4AD
:103C700007FEFDCF1EBC0DB407FEFDCF3EB51EBC3A
:103C80000DB407FEFDCF2EB5932F80E0AC01420F9F
:103C9000511D9A011091C408163009F419C180E130
:103CA0008EBD0DB407FEFDCF87E08EBD0DB407FEBF
:103CB000FDCF4091EF06E42FF0E0E951FD4F9081F8
:103CC00084E1891B8093AB0688E68EBD0DB407FEA8
:103CD000FDCF1EBC0DB407FEFDCFE1E2FCE08EB5CA
:103CE00080831EBC0DB407FEFDCF31978CE0EE3112
:103CF000F807A9F71EBC0DB407FEFDCF88E78EBDFF
:103D00000DB407FEFDCF1EBC0DB407FEFDCFE4E2EF
:103D1000FCE08EB580831EBC0DB407FEFDCF31974D
:103D20005CE0E132F507A9F71EBC0DB407FEFDCF3C
:103D30008091210C8951833008F085C08091240C3A
:103D4000883C08F480C08C3C08F07DC0E12FF0E096
:103D5000EE0FFF1FE353F74F31832083812F8F5FD7
:103D60008093C408873011F41092C408E091C4080D
:103D7000F0E0E458F24D9491F894943008F4CAC0FD
:103D8000779A809102018B7F80930201292F30E086
:103D9000C901837090700196039708F4B9C0769AB0
:103DA00020FFB4C0759A789485E58A95F1F780E193
:103DB0008EBD0DB407FEFDCF86E08EBD0DB407FEAF
:103DC000FDCF842F64E10E94A71932CF8091EF06C6
:103DD0000E94131B882309F43ACF81E09FEF9EBD18
:103DE0000DB407FEFDCF8830D9F18F5FF8CF88E0A2
:103DF0008EBD0DB407FEFDCF1EBC0DB407FEFDCF7A
:103E00000EB407FC45C01092E40283E080931C0BC3
:103E10008091EF0664E10E94A71917E009CF809115
:103E2000EF060E94131B882309F411CF80916A07C3
:103E300090916B07019690936B0780936A0710929D
:103E40001C0B17E0F5CE8091AF069091B00601965D
:103E50009093B0068093AF0610921C0B17E0E8CE4B
:103E600080E28EBD0DB407FEFDCF84E08EBD0DB4A3
:103E700007FEFDCF80E18EBD0DB407FEFDCF86E4C9
:103E80008EBD0DB407FEFDCF8091EF0664E2C8CE73
:103E90008091EF060E94131B882399F08091DD0822
:103EA0009091DE0801969093DE088093DD08809162
:103EB000E4028F5F8093E4028B3198F184E0809379
:103EC0001C0B80911C0B833009F4A2CF17E0B0CEFD
:103ED0008091D9089091DA08892B09F4E0CECA01C3
:103EE00080589E43815A9F4008F4D9CE8091AF06F6
:103EF0009091B00601969093B0068093AF06109211
:103F00001C0B85E08093C40817E092CE75984BCFC8
:103F1000769846CF77988091020184608093020161
:103F200035CF80E0CCCFF89484B1807F876084B9AE
:103F30002B9A8FE58CBD7894F8948091010188606C
:103F40008093010180910201886080930201809139
:103F500001018061809301016F9A80910101846069
:103F6000809301016D9A6E9A78948091D7028F5F49
:103F70008093D70281508093EF0686E08093C40837
:103F80000E94EA1D873091F48091DD089091DE084F
:103F9000892B61F480916A0790916B07892B31F42A
:103FA0008091AF069091B006892B51F30895482F68
:103FB000882389F021E030E0C901880F991F220F82
:103FC000331F220F331F220F331F280F391F415079
:103FD00099F7C901089521E030E0FBCF1F93182F16
:103FE0008823A1F021E030E040E050E0CA01B901AF
:103FF0002AE030E040E050E00E94E07D9B01AC010F
:104000001150A1F7B901CA011F91089521E030E0D4
:1040100040E050E0F7CF1F932AE030E040E050E06E
:104020000E94327EC901DA01BC01CD016115710522
:1040300081059105A1F010E01F5F2AE030E040E02B
:1040400050E00E94327EC901DA01BC01CD01611548
:1040500071058105910581F7812F1F91089510E069
:10406000FBCF282F6AE00E94FF7D382F3295307FEA
:10407000822F0E94FF7D832F890F0895282F22957C
:104080002F709AE0299F900111248F70820F08955C
:104090002F923F924F925F926F927F928F929F9258
:1040A000AF92BF92CF92DF92EF92FF920F931F9346
:1040B000CF93DF93EC017A018B01288039804A800D
:1040C0005B806C817D818E819F8126163706480634
:1040D000590609F458C00E9495785B016C016A8505
:1040E0007B85882777FD8095982F0E9495783B01E6
:1040F0004C01C801B7010E949578A60195010E9464
:10410000967C7B018C0168857985882777FD809571
:10411000982F0E9495789B01AC01C401B3010E94C5
:10412000967C9B01AC01C801B7010E94D0787B014D
:104130008C01C201B1010E9495789B01AC01C601BE
:10414000B5010E94967C9B01AC01C801B7010E9499
:10415000FB7CA40193010E94977C0E94637DCB01AC
:10416000DF91CF911F910F91FF90EF90DF90CF9053
:10417000BF90AF909F908F907F906F905F904F9087
:104180003F902F90089588859985EACF2F923F928E
:104190004F925F926F927F928F929F92AF92BF9257
:1041A000CF92DF92EF92FF920F931F93CF93DF9303
:1041B000EC017A018B01288039804A805B806C8118
:1041C0007D818E819F81261637064806590609F49F
:1041D00058C00E9493785B016C016A857B858827B3
:1041E00077FD8095982F0E9495783B014C01C8017E
:1041F000B7010E949378A60195010E94967C7B01ED
:104200008C0168857985882777FD8095982F0E9495
:1042100095789B01AC01C401B3010E94967C9B017F
:10422000AC01C801B7010E94D0787B018C01C201AA
:10423000B1010E9493789B01AC01C601B5010E94B7
:10424000967C9B01AC01C801B7010E94FB7CA401D4
:1042500093010E94977C0E94637DCB01DF91CF91F7
:104260001F910F91FF90EF90DF90CF90BF90AF9094
:104270009F908F907F906F905F904F903F902F9086
:10428000089588859985EACFAF92BF92CF92DF9249
:10429000EF92FF920F931F93DF93CF93CDB7DEB7CB
:1042A0002C970FB6F894DEBF0FBECDBFDC01FC012A
:1042B000859194917C0100E010E05B01CC24DD2429
:1042C000CD010496FC0125913491AD01B701F801AF
:1042D000DC01790100E010E0EA14FB040C051D0587
:1042E00078F3CA019B01AF0169833A83EB835C8356
:1042F000ED82FE820F831887FC013296859194919E
:104300009A878987FD013296859194919C878B8746
:10431000CE010196B601A5010E94C6202C960FB6CB
:10432000F894DEBF0FBECDBFCF91DF911F910F91EB
:10433000FF90EF90DF90CF90BF90AF9008952F92B5
:104340003F924F925F926F927F928F929F92AF9225
:10435000BF92CF92DF92EF92FF920F931F93DF9362
:10436000CF93CDB7DEB72E970FB6F894DEBF0FBE52
:10437000CDBF2B012D871801EE867C2DC42EDD24A8
:10438000CC0CDD1CF201EC0DFD1D20813181790189
:104390000027F7FC0095102FED82FE820F8318870F
:1043A000A82FB0E0AA0FBB1F3501882477FC8094AA
:1043B000982C60E002C079018A016F5FA62EBB24B1
:1043C000AA9EF001AB9EF00DBA9EF00D1124E40DF3
:1043D000F51DEC0DFD1D808191819C01442737FD69
:1043E0004095542F261537054805590514F46717CD
:1043F00010F3E982FA820B831C832D833E834F8363
:1044000058878D85282F30E0220F331F8E85A82FE7
:10441000B0E00894A108B108A29EF001A39EF00D9F
:10442000B29EF00D11240894A11CB11CE20DF31DE5
:10443000AA0FBB1FEA0FFB1F808191819A87898792
:10444000A29EC001A39E900DB29E900D1124820DDC
:10445000931DA80FB91F8D919C919C878B87CE01CE
:104460000196B401A3010E9448202E960FB6F8943D
:10447000DEBF0FBECDBFCF91DF911F910F91FF9097
:10448000EF90DF90CF90BF90AF909F908F907F90F4
:104490006F905F904F903F902F9008959091CC0235
:1044A000892F8F5F9093CA048F5F8093CC028150D5
:1044B0008093CB048091CD028F5F8093CD02815099
:1044C0008093CC046CE271E00E941D1A80E9809315
:1044D000B80008958091970890919808019690935C
:1044E0009808809397081092BC00109277078091EB
:1044F000CA0461E30E94E2190895BF92CF92DF924D
:10450000EF92FF920F931F934CEBC42ED12CF60128
:104510001082E0E9F1E03197F1F794EAF601908337
:1045200008E512E0F8013197F1F7F8013197F1F75A
:104530003BEBE32EF12C90EDF7019083908190837B
:1045400024E8B22EF601B082F8013197F1F7F801B4
:104550003197F1F7F7018083F601B082C801019726
:10456000F1F7C8010197F1F7862F0E943120F7017A
:104570008083F601B082C8010197F1F7C801019765
:10458000F1F784E98083109277071F910F91FF90D4
:10459000EF90DF90CF90BF900895A62FB82FB15025
:1045A0005B2F569556955B0F623088F0E0E2F3E0A2
:1045B000A2502A2F30E0AE5F2F5D3C4F849167E020
:1045C0000E94FF7D590F3196E217F307B9F7252FA7
:1045D000B370B33051F0842F67E00E94FF7D822FCB
:1045E000890F0E94FF7D892F0895A330A0F32F5FCC
:1045F000F2CF80E06091AE060E947D228091AE06EF
:104600008093C608089581E0609149060E947D224A
:10461000809149068093C808089582E06091B905A9
:104620000E947D228091B9058093D005089584E091
:104630006091110B0E947D228091110B80934E0698
:10464000089585E060917F070E947D2280917F0719
:104650008093C708089586E06091D6050E947D2268
:104660008091D6058093750708955F926F927F922F
:104670008F929F92AF92BF92CF92DF92EF92FF9272
:104680000F931F93582E662E742EF22E8C2D7CEBDA
:10469000872E912CF4011082E0E9F1E03197F1F7D7
:1046A00094EAF401908368E5C62E62E0D62EF60106
:1046B0003197F1F7F6013197F1F75BEBA52EB12CAD
:1046C00090EDF50190839081908314E8F4011083BC
:1046D000F6013197F1F7F6013197F1F7F501108204
:1046E000F4011083F6013197F1F7F6013197F1F7F4
:1046F0000E943120F5018083F4011083C6010197E7
:10470000F1F7C6010197F1F78E2D0E943120F501D6
:104710008083F4011083C6010197F1F7C601019768
:10472000F1F7802F0E943120F5018083F40110837E
:10473000C6010197F1F7C6010197F1F7F501F08283
:10474000F4011083C6010197F1F7C6010197F1F753
:10475000872D0E943120F5018083F4011083C6016A
:104760000197F1F7C6010197F1F7862D0E943120DC
:10477000F5018083F4011083C6010197F1F7C601AA
:104780000197F1F7852D0E943120F5018083F40116
:104790001083C6010197F1F7C6010197F1F784E98B
:1047A0008083109277071F910F91FF90EF90DF9019
:1047B000CF90BF90AF909F908F907F906F905F90C1
:1047C000089590E080917707882309F491E0892F7C
:1047D00008958091AE068093C60880914906809323
:1047E000C8088091B9058093D0054091110B409382
:1047F0004E0660917F076093C7088091D60580932D
:1048000075070E94CD228093100B08958F929F927E
:10481000AF92BF92CF92DF92EF92FF920F931F93CE
:10482000882EA62EB42E922ED02EFE2C1C2D0E9449
:1048300035231093C608F092C808D092D005B092E4
:104840004E06A092C708809275079092100B1F9198
:104850000F91FF90EF90DF90CF90BF90AF909F901F
:104860008F9008955091D60540917507541759F1CE
:104870009091C608983358F08091C8088B3309F49A
:104880005AC0541709F440C021E0822F08955417EC
:10489000D9F790917F078091C7089817A9F7909151
:1048A000110B80914E06981779F79091B905809178
:1048B000D005981749F720E0909149068091C808E3
:1048C000981711F7E2CF90917F078091C70898174A
:1048D00079F69091110B80914E06981749F69091B8
:1048E000B9058091D005981719F6909149068091E5
:1048F000C808981709F0BCCF8091AE069091C60801
:10490000891709F0B7CFC0CF90917F078091C70872
:10491000981709F0B9CF9091110B80914E06981716
:1049200009F0B2CF20E09091B9058091D005981799
:1049300009F0AACFAACF8091D005873199F05417FA
:1049400009F0A2CF90917F078091C708981709F0CE
:104950009BCF20E09091110B80914E06981709F0A3
:1049600093CF93CF80914E068C3148F08091C70849
:104970008C3089F020E0541709F086CF86CF541789
:1049800009F082CF20E090917F078091C7089817A7
:1049900009F07ACF7ACF842F90E00196252F30E06E
:1049A0008217930761F0541751F0433609F06CCF2A
:1049B00020E0552309F421E081E0282766CF20E09C
:1049C00064CFF894EAE0F1E080818062808378949B
:1049D0000895F894EBE0F1E0808180628083789420
:1049E0000895F894EBE0F1E080818F7D80837894E6
:1049F0000895F89426982E9A9D9AA59878940895EB
:104A000083B180740895F894A59878940895F894E3
:104A1000A59A789408958FB780788093E602F894E9
:104A2000839A8B98882309F0789408958FB78078BB
:104A30008093E602F8948B9A882309F0789408957D
:104A40008FB780788093E602F8948B98882309F0DA
:104A5000789408958FB780788093E602F89491B3A4
:104A600028E0922791BB882309F0789481B388705D
:104A70000895982F80FF23C0419A91FF23C0409A48
:104A800092FF23C0A19A93FF23C0A09A94FF23C052
:104A90005F9A95FF23C05E9A96FF23C05D9A87FDBB
:104AA00023C080910B018F7780930B01429A85E0A0
:104AB000982F9A95F1F742988A95F1F708954198C1
:104AC00091FDDDCF409892FDDDCFA19893FDDDCF24
:104AD000A09894FDDDCF5F9895FDDDCF5E9896FDA3
:104AE000DDCF5D9887FFDDCF80910B0180688093DB
:104AF0000B01DCCF0E94392582E390E00E942F1D3C
:104B000008955F9A5E9A5D98EBE0F1E080818F777F
:104B1000808308951F931091CF04812F0E94361B2C
:104B2000882329F080916F0082FF03C080E01F91ED
:104B30000895812F66E00E94E21981E01F91089597
:104B40009091E302943120F08091CE04882319F1F2
:104B50009F5F9093E30224E630E0F8948091840014
:104B600090918500820F931F2EE48032920760F4AB
:104B700090938B0080938A00B29A80916F0084603A
:104B800080936F007894089580529E4490938B0098
:104B900080938A00F1CF1092E302F89444980E9427
:104BA0008125789481E08093CE0420E137E2D5CF4F
:104BB0001F920F920FB60F920BB60F921124FF9215
:104BC0000F931F932F933F934F935F936F937F9315
:104BD0008F939F93AF93BF93EF93FF938091CE04F6
:104BE0008823F1F01091CE04153009F4B5C01630C9
:104BF00008F4A1C0173009F415C1173008F0DCC063
:104C000086E00E9439258091CE04813009F4A1C04C
:104C100024E630E08091CE048F5F8093CE045FC0A5
:104C20001091E002143108F045C08091B1061817C8
:104C300008F496C0612F70E02091A40690E0820FE6
:104C4000911D681779070CF4E4C0E091DF0220E0C1
:104C50004E2F50E09091CA08892F8850833018F069
:104C60009E3008F491C0222309F48EC08091D302B3
:104C70008F3F09F489C0E22FF0E0E858F34D24910A
:104C8000FA01EE0FFF1FEE0FFF1FCF01880F991FD4
:104C9000880F991FE80FF91FE60FF71FEB5BF74F1F
:104CA0002083822F0E9439251F5F1093E00224E6A3
:104CB00030E015C01092E002E091DF02EF5FE09378
:104CC000DF02E43009F451C04498F0E0E858F24DB6
:104CD000E4918E2F0E943925449A24E630E0809199
:104CE000840090918500820F931F2EE480329207FA
:104CF000D8F490938B0080938A00B29AFF91EF9141
:104D0000BF91AF919F918F917F916F915F914F91E3
:104D10003F912F911F910F91FF900F900BBE0F901D
:104D20000FBE0F901F90189580529E4490938B0059
:104D300080938A00E2CF123021F11330F8F4113061
:104D400001F18FEF8093CE048091CE04813009F081
:104D50005FCF20E931E05ECF8CE00E94392553CF50
:104D6000612F70E0E091DF0272CF1092DF0280913C
:104D70006F008B7F80936F00E0E0A6CF133009F0C7
:104D800056C00E9481253FCFCA01880F991F840F0A
:104D9000951FFC01EE0FFF1FEE0FFF1FEE0FFF1F11
:104DA000E81BF90BE60FF71FE05BF94FE081F0E03D
:104DB000E858F34D249164CF183049F0193009F0C8
:104DC000C0CF449882E00E943925449ABACF87E048
:104DD0008093CE04F090E2020091E102EF2DF0E02A
:104DE000EE0FFF1FEE0FFF1FEE0FFF1FE00FF11D75
:104DF000E85CF34DE4918E2F0E9439250730F0F0E6
:104E00001092E10226E02F15E8F0F394F092E2020E
:104E1000FACEE091DF0280919A08E81709F017CFE7
:104E20002FE516CF80E40E943925449AECCE143049
:104E300009F087CF88E30E943925E5CE0F5F009304
:104E4000E102E1CE1092E2021093CE04DCCE9FB7D5
:104E500090789093E602F89480910B01806480939F
:104E60000B01992309F0789408959FB79078909357
:104E7000E602F89480910B018F7B80930B019923BC
:104E800009F07894089580914A06813029F08230A3
:104E900061F00E94272708958091D0040E94591B39
:104EA0008823C9F30E9435270895089582E084BDC0
:104EB00085EF85BDEEE6F0E0808182608083089515
:104EC00082E08093B00087EF8093B100E0E7F0E0EC
:104ED00080818260808308951092A0008DE080938D
:104EE000A100E2E7F0E08081826080830895BC0148
:104EF000E6E2FCE2859194916817790709F454C0C1
:104F000020E02F5F422F50E0FA01EE0FFF1FE40F69
:104F1000F51FEE0FFF1FEA5DF34D85919491681721
:104F2000790779F7FA01EB5DF34D84918823F9F461
:104F3000F42FEE27E35EF44FDA01A852BA4F9081C6
:104F40008C91981721F1FA01E654FA4F81E08083A1
:104F5000FA01E295F295F07FFE27E07FFE27E85107
:104F6000F74F8081918101969183808308958130EC
:104F700009F008952091DC0881E090E002C0880FDC
:104F8000991F4A95E2F7282B2093DC080895209179
:104F9000DC0881E090E002C0880F991F4A95E2F793
:104FA000282B2093DC08089540E050E0E0E0F0E09A
:104FB000BACF1F920F920FB60F920BB60F92112419
:104FC0002F933F934F935F936F937F938F939F9311
:104FD000AF93BF93EF93FF9385B5887F85BDEEE6D2
:104FE000F0E080818D7F808386E490E00E947727C7
:104FF000FF91EF91BF91AF919F918F917F916F91B1
:105000005F914F913F912F910F900BBE0F900FBE6C
:105010000F901F9018951F920F920FB60F920BB61C
:105020000F9211242F933F934F935F936F937F932E
:105030008F939F93AF93BF93EF93FF93E1EBF0E0D8
:105040008081887F8083E0E7F0E080818D7F8083AE
:1050500082EB90E00E947727FF91EF91BF91AF9193
:105060009F918F917F916F915F914F913F912F9180
:105070000F900BBE0F900FBE0F901F9018951F92B0
:105080000F920FB60F920BB60F9211242F933F93EE
:105090004F935F936F937F938F939F93AF93BF9340
:1050A000EF93FF93E1EAF0E08081887F8083E2E77D
:1050B000F0E080818D7F808384EA90E00E947727F2
:1050C000FF91EF91BF91AF919F918F917F916F91E0
:1050D0005F914F913F912F910F900BBE0F900FBE9C
:1050E0000F901F901895682F70E09B01220F331FBF
:1050F000CB01880F991F880F991F880F991F280FC0
:10510000391F220F331F2D5E334DF901A591B49144
:105110003C91AB014150594FFA012081CB01880FDE
:10512000991F880F991FFC01EE0FFF1FEE0FFF1F45
:10513000E80FF91FEF5EF34DA591B491F62FEE271E
:10514000E20FF11DE35EF44F8C9180832F5FFA0133
:105150002083232F30E023FF0EC0FB01E295F29560
:10516000F07FFE27E07FFE27E851F74F8685978581
:105170000196978786872C713070232B61F081E030
:1051800090E002C0880F991F6A95E2F72091D10440
:10519000282B2093D1040895AF92BF92CF92DF9233
:1051A000EF92FF920F931F93E82EFF24F701E6542E
:1051B000FA4F83E080835701AA0CBB1CAA0CBB1CCE
:1051C0008501000F111F000F111F0A0D1B1D045F29
:1051D0001F4F81E1C82E8CE2D82EC601800F911F8F
:1051E0000C501040FC0125913491F9011995F601FC
:1051F000E00FF11FA591B491FE2DEE27E35EF44F71
:1052000080818C939701220F331FC701880F991F4C
:10521000880F991F880F991F280F391F2F5F3F4F45
:10522000220F331F2C0D3D1DF901A591B4918C91D6
:1052300080648C93C5018E0D9F1D0196880F991F68
:10524000880F991F8C0D9D1DFC01A591B4918C9127
:1052500080628C931F910F91FF90EF90DF90CF9021
:10526000BF90AF900895CF93DF93DC01E1E1FCE2C2
:1052700085919491A817B90709F46EC030E03F5F9B
:10528000C32FD0E0CE01880F991F880F991FFC0112
:10529000EE0FFF1FEE0FFF1FE80FF91FEF5EF34D3C
:1052A00085919491A817B90751F7FE01E654FA4F7A
:1052B0008081823019F1833028F08630D8F0DF9178
:1052C000CF9108958823F1F48C91FC2FEE27E35EB3
:1052D000F44F8083CE01880F991F8C0F9D1F880F7C
:1052E000991F8A5D934DFC01A591B4911C92DF91A9
:1052F000CF9108958C91DF91CF910895832F0E94D3
:105300007328E8CF8130D9F682E0808381E090E095
:105310000C2E02C0880F991F0A94E2F78095209105
:10532000D10428232093D104FE01E150F94F1082CB
:10533000832F0E947328CE01880F991F8C0F9D1F09
:10534000880F991F865D934DFC0125913491F901D9
:105350001995DF91CF91089530E0C0E0D0E0A5CF5E
:105360000F931F93CF93DF93382FC82FD0E0FE0108
:10537000E150F94F20818091D10490E0032E02C0CA
:10538000959587950A94E2F780FF29C0FE01EE0FFC
:10539000FF1FEE0FFF1FEE0FFF1FEE0FFF1FE65167
:1053A000F74F80819181019691838083CE01880F90
:1053B000991F880F991F9C01220F331F220F331F43
:1053C000280F391F2F5D334DF90185919491FC0110
:1053D000199581E0DF91CF911F910F9108952330AE
:1053E000A8F22250732F60E0FB01E20FF11DE35E93
:1053F000F44F00811181635E744F30E040E050E073
:1054000082E698E10E94D5180817190709F0BECF67
:10541000FE01E295F295F07FFE27E07FFE27E8513E
:10542000F74F80819181019691838083CE01880F0F
:10543000991F880F991F9C01220F331F220F331FC2
:10544000280F391F2D5D334DF90185919491FC0191
:10545000199580E0BFCFDF92EF92FF920F931F93D9
:10546000EFEFF6E0E80FF11DD0809EEFD90E182F78
:1054700000E08DE1E82E8BE0F82EB701600F711F80
:105480002D2D30E040E050E082E698E10E94D518F2
:105490000D0D111DE00EF11EF701918380831F9108
:1054A0000F91FF90EF90DF90089570E0ADE1BBE0C9
:1054B000F82FE0E0EA0FFB1FE60FF71F418150E0F5
:1054C000382F20E0260F371FA20FB31F9C9180E0DA
:1054D000482B592BCA01089590E020E030E0880F56
:1054E000991F880F991F880F991FFC01E20FF31F66
:1054F000EE0FFF1FE851F74F118210822F5F3F4FD1
:105500002830310591F708952F923F924F925F9284
:105510006F927F928F929F92AF92BF92CF92DF92C3
:10552000EF92FF920F931F93DF93CF93CDB7DEB728
:1055300029970FB6F894DEBF0FBECDBFD82E282F07
:1055400030E039872887890106541A4FD8018C9199
:105550008823B9F18230C9F029960FB6F894DEBFDE
:105560000FBECDBFCF91DF911F910F91FF90EF90B4
:10557000DF90CF90BF90AF909F908F907F906F9073
:105580005F904F903F902F90089584E0D8018C93C6
:105590008D2D0E94B0298823A1F428853985F22E0B
:1055A000EE24F701E35EF44F9081992371F0F90145
:1055B000E852FA4F8081981741F081E0D8018C932E
:1055C000CBCF81E0F8018083C7CF28843984220CB7
:1055D000331C220C331C5101AA0CBB1CAA0CBB1C93
:1055E000A20CB31CEFE1FCE2AE0EBF1EF50125914B
:1055F0003491F90119956884798462947294B0EFBA
:105600007B2276246B227624F301E851F74F8681C2
:105610009781019697838683688579857695762F1D
:10562000662777956795DB01AA0FBB1FA15EB44F74
:105630009C9180E0A701435E544FFA012381822EA2
:105640009924882A992A3181353008F052C03330A4
:1056500008F472C0FA018081882309F45CC02FEF3E
:10566000422E26E0522E88859985480E591EF20159
:105670008081883009F427C283E08C9393E0F7019E
:10568000E35EF44F8081882381F0992349F0818182
:1056900080688183E885F985E150F94F85E0808352
:1056A0008D2D9D830E942B2A9D819923A1F52DE1AB
:1056B0003BE0E20EF31ED7018C918823C9F5E88503
:1056C000F985EE0FFF1FEE0FFF1FEE0FFF1FEE0F0E
:1056D000FF1FE051F74F8081918101969183808374
:1056E00081E0F8018083F50185919491FC01199581
:1056F00033CF3F3009F41EC1303109F4FCC03630DD
:1057000009F4BDC0660F771F615E744F81E0FB0135
:10571000808391E0B4CFF101EE0FFF1FEE0FFF1F6A
:10572000E451F74F80819181019691838083BFCFAF
:105730008D2D0E94CC2810CF313020F3FA018081CA
:10574000882349F3EFEF4E2EE6E05E2E888599859B
:10575000480E591EF2018081883009F08DCF88856E
:105760009985F82FEE27EF5DF44F908180E0DA0104
:1057700015962C91A22FB0E0A82BB92B313009F44B
:1057800044C2F301EE5CFC4F45915491CD01880D6C
:10579000991D4817590708F48DC1313009F44AC2E0
:1057A000F101EE0FFF1FEE0FFF1FE05DFC4F859133
:1057B0009491282F892F622E782E20E0CD018770BA
:1057C0009070892B09F021E0CD01969587959695EB
:1057D000879596958795820F660F771F615E744F48
:1057E000FB0180838B5FF2018083109709F422C153
:1057F00060E020E030E080E090E0E1E04E2E512CCF
:1058000010C0F701E40FF11DE35EF44F8081852B9A
:1058100080836F5F862F90E09C018A179B0708F0BA
:1058200009C1280D391D462F4695469546954D5F71
:1058300087709070F20102C0EE0FFF1F8A95E2F7A9
:105840005E2FF901F695E795F695E795F695E795BC
:10585000E60DF71D808190E02770307002C09595AD
:1058600087952A95E2F780FDCCCFF701E40FF11D73
:10587000E35EF44F5095808158235083CACF6885EA
:1058800079856150794FFB01C080F8E0CF1609F0AF
:10589000F3CEF301EA5CFC4F25913491C4010196EB
:1058A0002817390708F402C1DB01CC92E885F98595
:1058B000EE0FFF1FEE0FFF1FEE0FFF1FEE0FFF1F7C
:1058C000EC5CFC4F85919491880C991C880E991E74
:1058D00028853985F22FEE27EF5DF44F908180E027
:1058E000DA0115962C9130E0822B932BF4019183F1
:1058F000808390E0C4CEFA018681282F30E03F8378
:105900002E838FEF482E86E0582E88859985480E85
:10591000591EF201808190E0275F3F4F8217930765
:1059200099F1660F771F615E744F83E0DB018C9302
:1059300093E0A5CE28853985F22FEE27EF5DF44F51
:10594000E081DA011596FC91159716962C91AFEF30
:105950004A2EA6E05A2E88859985480E591ED201F6
:105960008C9190E0422F50E09A01275F3F4F8217C1
:10597000930709F461C0660F771F615E744F83E07F
:10598000FB01808393E07BCE9A012B5F3F4F3C83EA
:105990002B83FA01C5802C2D30E0C901880F991F97
:1059A000EE81FF81E817F90709F0BBCFF301EA5C4C
:1059B000FC4F85919491280D391D8217930708F4A7
:1059C00075C088E0F2018083E885F985EE0FFF1F3E
:1059D000EE0FFF1FEE0FFF1FEE0FFF1FEC5CFC4FE3
:1059E00045905490CC2031F160E06B807C80A62FF4
:1059F000B0E0CD01880F991F895F282F30E0A80DF6
:105A0000B91DAA0FBB1FA40DB51DFA01E20FF31FAC
:105A1000818190E02E0D3F1D235E344FF9013081CE
:105A200020E0822B932B8D939C936F5FD3018C91FD
:105A30006817E8F290E023CE9E2F80E0AF2FB0E011
:105A4000A82BB92B20E030E0CD0187709070892B16
:105A500011F021E030E0CD019695879596958795D8
:105A600096958795280F391F2417350709F083CF9E
:105A7000E885F985EE0FFF1FEE0FFF1FEE0FFF1FEA
:105A8000EE0FFF1FE25DFC4F25913491CD01880D93
:105A9000991D2817390708F05DC0660F771F615EF2
:105AA000744F82E0DB018C9392E0E9CD82E08C932D
:105AB00092E0E5CD660F771F615E744F82E0FB01D7
:105AC000808392E0DCCDDA0115968C91333009F4B5
:105AD000ABC0F301E65CFC4F45915491A82FB0E0B8
