:100000000C946A1C0C948B1C0C948B1C0C948B1CF5
:100010000C948B1C0C948B1C0C948B1C0C948B1CC4
:100020000C948B1C0C948B1C0C948B1C0C948B1CB4
:100030000C948B1C0C94362C0C948B1C0C948B1CE9
:100040000C948B1C0C94DA200C94032A0C948B1CBB
:100050000C948B1C0C94042C0C948B1C0C948B1CFB
:100060000C948B1C0C94733D0C94C73D0C949D3DDB
:100070000C948B1C0C948B1C0C948B1C0C948B1C64
:100080000C948B1C0C948B1C0C948B1C0C948B1C54
:100090000C94F13D0C94453E0C941B3E0C948B1C2F
:1000A0000C948B1C0C948B1C0C946A2C0C948B1C45
:1000B0000C948B1C0C948B1C0C948B1C0C948B1C24
:1000C0000C948B1C0C948B1C0C948B1C0C94BF3EBE
:1000D0000C946F3E0C94973E0C948B1C0C948B1CD0
:1000E0000C948B1C64558A559B55AE5564558A55A6
:1000F000EE54C255D255E255F555C255D255085663
:100100000856EE54EE54EE54EE54EE54EE54EE54C3
:10011000EE54EE54EE54EE54EE54EE54EE541656A5
:1001200024563356445634595359745997593459AF
:100130005359F658BC59DA59F9591B5ABC59DA596E
:100140003E5A3E5AF658465ABF587D5AB45A465AF5
:10015000BF58F658F658F658F15A1B5BF15A1B5B1C
:1001600034595359455B565B6D5B12594D5E4D5E7C
:10017000045E045E4D5E4D5E105D4D5E4D5E045E40
:10018000045E4D5E4D5EE05DE05D105DC85DC85D86
:10019000C85DC85DC85DC85D105D105D105DC85D5F
:1001A000C85DC85DC85DAA5DAA5D8D5D8D5D555D4C
:1001B000555D35612C612461196113610A6101612A
:1001C000FB60F360ED60E560DF60D760FB60DF60DF
:1001D000CE60C760C060B960B260AB60A460C76049
:1001E000AB609B60946086607F607160516060600E
:1001F0002A60DD5F256017603C6C2E6C226C9B666C
:10020000CE66836C726C146C086CFA6BEE6BE06BF0
:10021000D46BC66BBE6B576B466BA76A8E6A316B2D
:10022000BF6A7C6A6A6A496A376A1F6A086AE36950
:10023000D169AD699B69886D636D516D3F6D1E6DB0
:10024000066DF46CE86CC36DB76DAB6D9A6DC76CE1
:10025000B66CA26C916C3E6FFD6EF26EDF6E246F19
:10026000146F316FDA6C2B6E1C6E106ED16D486E90
:10027000386ECB6E906950690D690069ED687969D7
:100280005F696B69EA6795682F662F6657684D68E6
:10029000F667C868A768D668DE67CC679A6788671C
:1002A0007C673F6725670767F966DC6642784978AF
:1002B00035783C782B7831781E78247850781A7805
:1002C0000278D478BC78B07898787C7858786E6169
:1002D0006E00696E66006364696E6F70737578583E
:1002E0005B65666745464700616E006E66696E69CC
:1002F000747900CDCCCC3D0AD7233C17B7D13877E1
:10030000CC2B329595E6241FB14F0A000020410006
:1003100000C84200401C4620BCBE4CCA1B0E5AAE50
:10032000C59D74001F1C1F1E1F1E1F1F1E1F1E1F8A
:10033000BC072000460A2000610B0400450850005D
:100340004203FFA001FBCF007D67003F44002A333A
:10035000001F22001B19001B10001B53494D434F67
:100360004D5F53494D393030520053494D434F4D45
:100370005F53494D3830300053494D434F4D5F5323
:10038000494D3830304300524459002B4346554EB6
:100390003A2031002B4350494E3A205245414459AE
:1003A0000043616C6C20526561647900534D5320A9
:1003B00052656164790052454D4F544520495000C3
:1003C000434F4E4E454354002B52454345495645F5
:1003D0002C002C20434C4F534544002B50445020BC
:1003E0004445414354004E4F2043415252494552E7
:1003F000004F4B00434F4E4E45435400782C204352
:100400004F4E4E454354204F4B0053455256455294
:10041000204F4B0053455256455220434C4F5345B5
:10042000003E00782C2053454E44204F4B00434C57
:100430004F5345204F4B00782C20434C4F534520C1
:100440004F4B002B4353513A0053485554204F4BC8
:10045000002B435245433A2030002B2B2B004944BC
:10046000454E54494649434154494F4E004154007A
:1004700041542B4950523D393630300041542657B3
:1004800000415445300041542B434C43433D31001F
:1004900041542B444445543D312C302C31004154BF
:1004A0002B43474D4D0041542B4343494400415495
:1004B0002B4946433D322C32004154442A313031DD
:1004C00023004154442B0041542B435553443D31A8
:1004D0002C220041542B434D47463D310041542BC3
:1004E00043534D503D31372C3136372C302C3000B2
:1004F00041542B434D47533D222B0041542B43493C
:10050000504D4F44453D300041542B4349504D4FD1
:1005100044453D310041542B4349504D55583D30E1
:100520000041542B4349504D55583D310041542B07
:1005300043474154543D310041542B4349504353A8
:1005400047503D312C220041542B43535454004119
:10055000542B43494943520041542B43494653527B
:100560000041542B434950544B413D312C33302CE6
:1005700033302C310041542B434950535441525491
:100580003D22554450222C0041542B434950535492
:100590004152543D22544350222C0041542B434994
:1005A000505345525645523D312C0041542B43493E
:1005B000505345525645523D300041542B4349500B
:1005C00053454E443D0041542B434950434C4F53F7
:1005D000453D782C310041542B434950434C4F53F7
:1005E000453D310041542B43495053485554004137
:1005F000542B43474154543D300041542B435351F5
:100600000041544F00303132333435363738396198
:1006100062636465666768696A6B6C6D6E6F707142
:1006200072737475767778797A41424344454647C8
:1006300048494A4B4C4D4E4F5051525354555657C2
:1006400058595AE0E1E2E3E4E5B8BAE6E7E8B3BFB7
:10065000E9EAEBECEDEEEFF0F1F2F3F4F5F6F7F892
:10066000F9FAFBFCFDFEFFC0C1C2C3C4C5A8AAC6FF
:10067000C7C8B2AFC9CACBCCCDCECFD0D1D2D3D4DC
:10068000D5D6D7D8D9DADBDCDDDEDF202B2D3D3C1B
:100690003E2425262E2C3F2127403A2829227C2A39
:1006A000232F00303132333435363738390030318A
:1006B0003233343536373839652B2D2E00000000A3
:1006C000000000000000000CFE08070CFE08070CEC
:1006D000FE70170CFE70170CFE70170CFE70170CD6
:1006E000FE08070000000030F8E02E70175046307A
:1006F000F84C1D30F87017D1E1EEE92000CDEEF096
:10070000ECE000EDE5F22000EDEEF0EC0003070870
:1007100007F0E0E7EC00E7E0ECEA0011071607ED70
:100720002EE72E00ED2EF02E001F072407E2FBEA35
:10073000EB00E2EAEB20002D07320707B4070000C8
:1007400000072B0900000007F806000000202D2DEF
:100750002D20414443206572726F7273202D2D2D20
:1007600020000000000000002052656164206661E6
:10077000696C3A202020207B7B7B7B7B003B070041
:100780000000002043616C696272206661696C3A06
:1007900020207B7B7B7B7B00410700000000204307
:1007A000616C69627220627265616B3A207B7B7B4F
:1007B0007B7B004707000000004D0704030000009A
:1007C000000000000000000000000000001D6A0B97
:1007D00047240000B30600000000120900000020BA
:1007E000D0E5E6E8EC3A207B7B7B7B7B7B7B7B7BED
:1007F0007B7B7B00CD070000000020C2F0E5ECFF12
:100800003A7B7B30ECF120CAE0EDE0EB3A7B00D3A1
:100810000700000000202D20CAE0EDE0EBFB202DBA
:10082000202020202020202020000000000068231D
:10083000202D20CAE0EBE8E1F0EEE2EAE0202D20F6
:100840002020202000000000000C24202D20CEF8C5
:10085000E8E1EAE8202D2020202020202020200090
:1008600000000000B907DF070502000000000000DB
:1008700000000000000000000000205F5F5F5F5F7D
:100880005F5F5F5F5F5F5F5F5F5F5F5F5F20000075
:100890000020496E7465726E616C206572726F72B1
:1008A0002032313A20000000202020202020414426
:1008B00043206F666620202020202020000000209A
:1008C0002020202020202020202020202020202028
:1008D00020202000000000000000000020202078E0
:1008E000202020002D2D2D2D2D2D2D00DC08E4089D
:1008F000CEF2EAEB2E00D2D1CC31303000D2D1CCC6
:10090000353000D2D1CF31303000D2D1CF353000A8
:10091000507431303000C3F0323100C3F032330054
:10092000F008F608FD0803090A09100916091B0951
:100930005458410054CFD00054C6CA005458CA007D
:10094000F0083009340938093C09EDE5F200F7E513
:10095000F2EDFBE900EDE5F7E5F2EDFBE9004A0910
:100960004E095509313230300032343030003438DD
:1009700030300039363030003134343030003139E5
:1009800032303000323838303000333834303000D4
:10099000353736303000640969096E097309780902
:1009A0007E0984098A0990091E04000000000002E3
:1009B00000000015765E090001050001000000023C
:1009C00000000015760000001E0600000000000870
:1009D0000000009E759609000B36090000000B3ED2
:1009E000090000000B38090000000B40090000005E
:1009F0000B3A090000000B42090000000B3C090003
:100A000000000B44090000004350313A7B7B7B7BA4
:100A10007B20204350353A7B7B7B7B7B00D80900D1
:100A20000000004350323A7B7B7B7B7B202043508D
:100A3000363A7B7B7B7B7B00E4090000000043505F
:100A4000333A7B7B7B7B7B20204350373A7B7B7B1D
:100A50007B7B00F009000000004350343A7B7B7B35
:100A60007B7B20204350383A7B7B7B7B7B00FC09DF
:100A700000000000080A040300000000000000005D
:100A80007043000000000000202D2D2D2D204D6F03
:100A9000646275732030202D2D2D2D200000000064
:100AA00000000020D1F7E5F2F7E8EAE82028F1E1BC
:100AB000F0EEF13A2D3E290000000000740A20CF2C
:100AC000E0F0E8F2E5F23A207D7D7D7D7D7D7D7D63
:100AD0002020000000A809000020D1F2EEEF2DE157
:100AE000E8F2FB3A207D202020202020200000007A
:100AF000B809000020424155443A207D7D7D7D7D2E
:100B00006270732020202020000000C809000088A7
:100B10000A050100000000000000000000000000C5
:100B2000000000204D6F646275732030202020206B
:100B30002020202020202000000000000F0B20207B
:100B4000202058202020202020202020202020206D
:100B5000202000000000000000202020205820203D
:100B600020202020202020202020202020000000E5
:100B700000000000202020205820202020202020BD
:100B80002020202020202020000000000000002342
:100B90000B04000000000000000000000000000046
:100BA000000000CDE5F200C4E000A30BA70B1E037C
:100BB0000000000000010000000000AA0B00005728
:100BC00006000000045F0B010000001F000000424F
:100BD0002700000004CC07010000000C0000004CBE
:100BE0002700000004DE050000000063000000563E
:100BF0002700000004C105000000001700000038B5
:100C000027000000045106000000003B0000002EF9
:100C10002700000004F706000000003B000000244D
:100C2000270000006175746F2020006D616E756192
:100C30006C00636F6E66696700240C2B0C320C6EBF
:100C40006F74207265636F670053494D39303052BD
:100C500020200053494D383030202020003F0C49DF
:100C60000C530C1D34075D0C0000F606000000005C
:100C7000F6060000001DD107000000000200000081
:100C80007F43390C000031090000000032090000E8
:100C900000003309000000003409000000004A0B86
:100CA000000000004B0B000000004C0B0000000097
:100CB0004D0B00000000D3020000000019090000E5
:100CC00000220900000000000600000000000000F3
:100CD00000221D00000000000600000000000000CF
:100CE0000022590000000000060000000000000083
:100CF00000226D000000000006000000000000005F
:100D00000001810000000000FF0000000000000062
:100D10000001820000000000FF0000000000000051
:100D20000001830000000000FF0000000000000040
:100D30000001840000000000FF000000000000002F
:100D40000001850000000000FF000000000000001E
:100D50000001860000000000FF000000000000000D
:100D60000001870000000000FF00000000000000FC
:100D70000001880000000000FF00000000000000EB
:100D80000001890000000000FF00000000000000DA
:100D900000018A0000000000FF00000000000000C9
:100DA00000018B0000000000FF00000000000000B8
:100DB00000018C0000000000FF00000000000000A7
:100DC00000018D0000000000FF0000000000000096
:100DD00000018E0000000000FF0000000000000085
:100DE00000018F0000000000FF0000000000000074
:100DF0000001900000000000FF0000000000000063
:100E00000008A10000000000FFFF0000000000003B
:100E10000008A30000000000FFFF00000000000029
:100E20000008A50000000000FFFF00000000000017
:100E30000008A70000000000FFFF00000000000005
:100E40000001B30000000000FF00000000000000EF
:100E50000001B40000000000FF00000000000000DE
:100E60000001B50000000000FF00000000000000CD
:100E70000001B60000000000FF00000000000000BC
:100E80000001B70000000000FF00000000000000AB
:100E90000001B80000000000FF000000000000009A
:100EA0000001B90000000000FF0000000000000089
:100EB0000001BA0000000000FF0000000000000078
:100EC0000001BB0000000000FF0000000000000067
:100ED0000001BC0000000000FF0000000000000056
:100EE0000001BD0000000000FF0000000000000045
:100EF0000001BE0000000000FF0000000000000034
:100F00000001BF0000000000FF0000000000000022
:100F10000001C00000000000FF0000000000000011
:100F20000001C10000000000FF0000000000000000
:100F30000001C20000000000FF00000000000000EF
:100F40000008B10000000000FFFF000000000000EA
:100F50000008C30064000000FFFF00000000000064
:100F60000201130100000000010000000000000069
:100F70000008070000000000FFFF00000000000064
:100F80000020CCEEE4E5EC207B7B7B7B7B7B7B7BDA
:100F90007B207B7B7B00630C0000000020436F6E96
:100FA00074726F6C206D6F64653A7D7D7D7D7D7D93
:100FB000000000750C0000204D7949507B7B7B2E92
:100FC0007B7B7B2E7B7B7B2E7B7B7B00850C0000E1
:100FD000000020436C49507B7B7B2E7B7B7B2E7BF0
:100FE0007B7B2E7B7B7B009D0C00000000204163FF
:100FF0007469766520636F6E656374696F6E7B7B61
:101000007B00B50C00000000204649464F3A6D6158
:1010100078207B7B2F3730627974652000BB0C0011
:10102000000000202D2D2D2D2D2D2D41504E2D2D2C
:101030002D2D2D2D2D2D2D00000000000000207DD8
:101040007D7D7D7D7D7D7D7D7D7D7D7D7D7D7D7DD0
:101050007D7D000000C10C0000207D7D7D7D7D7DBB
:101060007D7D7D7D7D7D7D7D7D7D7D7D7D00000027
:10107000D10C0000202D2D2D41504E2D55534552A1
:10108000204E414D452D2D2D000000000000002078
:101090007D7D7D7D7D7D7D7D7D7D7D7D7D7D7D7D80
:1010A0007D7D7D000000E10C0000202D2D2D4150A4
:1010B0004E2D50415353574F52442D2D2D2D00008E
:1010C0000000000000207D7D7D7D7D7D7D7D7D7D1E
:1010D0007D7D7D7D7D7D7D7D7D000000F10C0000AE
:1010E000202D2D53656E642055445020746F204987
:1010F000502D2D2D00000000000000204950313AF5
:101100007D7D7D2E7D7D7D2E7D7D7D2E7D7D7D0079
:101110000000010D0000204950323A7D7D7D2E7D7A
:101120007D7D2E7D7D7D2E7D7D7D000000410D002D
:1011300000204950333A7D7D7D2E7D7D7D2E7D7D45
:101140007D2E7D7D7D000000810D00002049503402
:101150003A7D7D7D2E7D7D7D2E7D7D7D2E7D7D7DEF
:10116000000000C10D0000202D2D2D2D20554450D4
:1011700020506F7274202D2D2D2D2D0000000000A9
:1011800000002049503120506F72743A7D7D7D7D82
:101190007D2020202020000000010E00002049506A
:1011A0003220506F72743A7D7D7D7D7D202020201D
:1011B00020000000110E00002049503320506F72B3
:1011C000743A7D7D7D7D7D2020202020000000213F
:1011D0000E00002049503420506F72743A7D7D7D9E
:1011E0007D7D2020202020000000310E0000202DD9
:1011F00020544350204950204669726577616C6CD9
:101200002D2D00000000000000204950313A7D7D66
:101210007D2E7D7D7D2E7D7D7D2E7D7D7D00000062
:10122000410E0000204950323A7D7D7D2E7D7D7D2E
:101230002E7D7D7D2E7D7D7D000000810E000020B5
:101240004950333A7D7D7D2E7D7D7D2E7D7D7D2EA9
:101250007D7D7D000000C10E0000204950343A7DA4
:101260007D7D2E7D7D7D2E7D7D7D2E7D7D7D000095
:1012700000010F0000205443505365727665725090
:101280006F72743A7D7D7D7D7D000000410F00000E
:101290002054696D656F7574205443503A7D7D7D8F
:1012A0007D7D7D63000000510F0000202D2D2D2D30
:1012B0002D2D2D20534D53202D2D2D2D2D2D2D0039
:1012C00000000000000020D0E0F1F1FBEBEAE0209C
:1012D000534D533A2020207D7D7D000000610F009A
:1012E00000202D2D4964656E7469666963617469B7
:1012F0006F6E2D2D2D000000000000002056656748
:101300006120532F4E3A20202020207D7D7D7D7D41
:10131000000000710F0000810F220000000000009B
:101320000000000000000000000000FD06F7061F9E
:1013300017092B13001F17092B1301202020202031
:1013400020202020202020202020202020202000BD
:10135000000020CFE5F0E5E420EFF0EEE4EEEBE670
:10136000E5EDE8E5EC20000000F0E0E1EEF2FB2026
:10137000EFF0EEE2E5F0FCF2E520E2F1E50000003E
:10138000202020202020EDE0F1F2F0EEE9EAE82034
:10139000202020200000000000000000002020206D
:1013A000202020202020202020202020202020203D
:1013B00020000000D1EEF5F0E0EDB8EDEDFBF520FA
:1013C000EDE0F1F2F0EEE5EA00000020202020ED53
:1013D000E520EEE1EDE0F0F3E6E5EDEE2020200083
:1013E000000020202020202020202020202020203D
:1013F000202020202020000000000000000000D15C
:10140000EEF5F0E0EDE8F2FC20EDE0F1F2F0EEE9CF
:10141000EAE83F00000000000000202020C4E02097
:101420002D20EAEDEEEFEAE020C2D5CEC420000088
:1014300000000000002020CDE5F2202D20EAEDEE96
:10144000EFEAE020C2DBD5CEC400000000000000BF
:10145000202020202020202020202020202020208C
:101460002020202000000000000000FF13040300E3
:10147000000000000000000044000000000000C266
:10148000EEF1F2E0EDEEE22E20EDE0F1F2F0EEE929
:10149000EAE83F00000000000000202020C4E02017
:1014A0002D20EAEDEEEFEAE020C2D5CEC420000008
:1014B00000000000002020CDE5F2202D20EAEDEE16
:1014C000EFEAE020C2DBD5CEC4000000000000003F
:1014D000202020202020202020202020202020200C
:1014E00020202020000000000000007F14040300E2
:1014F00000000000000000F5430000000000002D87
:101500002D00FF1405000002150005010002150062
:10151000050200021500D3F1F2ED2FD0E5E7E5F06A
:10152000E2EDE0FF20EAEEEFE8FF0000000000003F
:101530000020D1EEF5F0E0EDE8F2FC2020202020A4
:10154000202020202000000000006B1420C2EEF1BB
:10155000F2E0EDEEE23A7B7B2E7B7B2E32307B7B22
:101560000004150000000020D1EEF1F22E45455098
:10157000524F4D3A207B7B7B7B7B20003513000054
:101580000000161504010000000000000000277A8A
:10159000000000000000202D2D2D2D2D204D656D0B
:1015A0006F7279202D2D2D2D2D20000000000000C0
:1015B0000020466C6173683A20207B7B7B7B7B201C
:1015C0002020202020002F1300000000204545503F
:1015D000524F4D3A207B7B7B7B7B2020202020209C
:1015E00000351300000000205265736574204545E6
:1015F00050524F4D206661696C20200000000000B1
:101600000000204261636B557020454550524F4D9C
:1016100020202020202000000000008215961505C3
:10162000010000000000000000B34F0000000000B7
:1016300000205F5F5F5F5F5F5F5F5F5F5F5F5F5F58
:101640005F5F5F5F2000000020496E7465726E610D
:101650006C206572726F722031313A2000000020D8
:1016600020202020466C617368206661696C202010
:1016700020202000000020202020202020202020CA
:10168000202020202020202020200000000000001A
:10169000000000205F5F5F5F5F5F5F5F5F5F5F5FB6
:1016A0005F5F5F5F5F5F2000000020496E746572BE
:1016B0006E616C206572726F722031323A200000C8
:1016C0000020202020454550524F4D206661696C16
:1016D000202020202000000020202020202020206A
:1016E000202020202020202020202020000000007A
:1016F0000000000000205F5F5F5F5F5F5F5F5F5F14
:101700005F5F5F5F5F5F5F5F2000000020496E7476
:1017100065726E616C206572726F722031333A208F
:1017200000000020546F74616C206D656D6F7279DC
:10173000206661696C2020000000202020202020ED
:1017400020202020202020202020202020200000D9
:1017500000000000000000000031169316F516008E
:10176000AE0700000007CE0700000000B106000031
:1017700000202D2D2D205363616E204379636C650D
:10178000202D2D2D2000000000000000205363615B
:101790006E4379636C653A2020207B7B7B306D73D0
:1017A000005F1700000000205363616E4379636C93
:1017B0005065725365633A7B7B7B7B006517000045
:1017C0000000204D61785363616E4379636C653A24
:1017D0007B7B7B306D73006B17000000007117047A
:1017E0000100000000000000008343000000000032
:1017F000000B6B0C00000004B0060000003130202C
:10180000F1E5EA00333020F1E5EA003120ECE8EDC3
:1018100020003320ECE8ED2000313020ECE8ED0032
:10182000FD1704180B18121819181E91010000005A
:1018300000040000000000201800082F0100000034
:1018400000FF0300000000000000103A0700000045
:10185000202D20D1EBF3E6E5E1EDEEE520ECE5ED22
:10186000FE202D200000000000000020C4E8F1EA66
:10187000F0E5F2EDFBE520E2F5EEE4FB20202000B0
:10188000000000006F1E20C4E8F1EAF0E5F2EDFB75
:10189000E520E2FBF5EEE4FB202000000000003331
:1018A0002120C0EDE0EBEEE3EEE2FBE520E2F5EE19
:1018B000E4FB2020200000000000E32120C0EDE038
:1018C000EBEEE3EEE2FBE520E2FBF5EEE4FB2020AD
:1018D0000000000000A32220C0D6CF20202020201E
:1018E0002020202020202020202020000000000098
:1018F000660820D2E5F0ECEEE4E0F2F7E8EAE82052
:1019000020202020202000000000003729204D6FDB
:101910006462757320202020202020202020202099
:101920002000000000008F0B20CCEEE4E5EC20202E
:101930002020202020202020202020200000000027
:10194000001713207B207D7D2E7D7D2E7D7D207DCB
:101950007D3A7D7D3A7D7D00BE0BC40B000020C02A
:10196000E2F2EECFE5F0E5F5CBE5F2EDC2F03A7D3F
:101970007D7D000000AE0B000020CDE0F0E0E1EE48
:10198000F2EAE03A7B7B7B7B7BF77B7BEC00F11719
:101990000000000020D1EEF1F2EEFFEDE8E520EFCF
:1019A000E0ECFFF2E820202000000000001D1620DF
:1019B0005363616E204379636C653A20207B7B7BA7
:1019C000306D73005F170000DD1720CFEEF0EEE3FF
:1019D00020E8EEEDEEE42E3A20207D7D7D7D0000B6
:1019E000003A18000020CFEEE4F1E2E5F2EAE0C6AA
:1019F000CAC83A7D7D7D7D7D7D0000002A180000EB
:101A000020D1F7B8F22EDDCCCD3A7B7B7B7B7B7B84
:101A10007B7B7B7B004A18000000005018110100FE
:101A20000000000000000000000000000000002096
:101A30005F5F5F5F5F5F5F5F5F5F5F5F5F5F5F5FB6
:101A40005F5F2000000020496E7465726E616C203B
:101A50006572726F722034313A2000000054696D53
:101A6000657220616C6C6F636174696F6E20657262
:101A70007200000020202020202020202020202074
:101A80002020202020202020000000000000000056
:101A9000001F40071B07001F46070D07001F4007D8
:101AA0001B07011F46070D07011F40071B07021FE9
:101AB00046070D07021F40071B07031F46070D07B8
:101AC000031F40071B07041F46070D07041F40079D
:101AD0001B07051F46070D07051F40071B07061FAD
:101AE00046070D07061F40071B07071F46070D0780
:101AF000071F40071B07081F46070D07081F400761
:101B00001B07091F46070D07091F40071B070A1F70
:101B100046070D070A1F40071B070B1F46070D0747
:101B20000B1F40071B070C1F46070D070C1F400724
:101B30001B070D1F46070D070D1F40071B070E1F34
:101B400046070D070E1F40071B070F1F46070D070F
:101B50000F1F40071B07101F46070D07101F4007E8
:101B60001B07111F46070D0711201401000000007C
:101B70000000000000002907002014010000000000
:101B800000000000000029070120140100000000EF
:101B900000000000000029070220140100000000DE
:101BA00000000000000029070320140100000000CD
:101BB00000000000000029070420140100000000BC
:101BC00000000000000029070520140100000000AB
:101BD000000000000000290706201401000000009A
:101BE0000000000000002907072014010000000089
:101BF0000000000000002907082014010000000078
:101C00000000000000002907092014010000000066
:101C100000000000000029070A2014010000000055
:101C200000000000000029070B2014010000000044
:101C300000000000000029070C2014010000000033
:101C400000000000000029070D2014010000000022
:101C500000000000000029070E2014010000000011
:101C600000000000000029070F2014010000000000
:101C700000000000000029071020140100000000EF
:101C8000000000000000290711204E313A20207B7F
:101C90007B7B7B207D7D7D7D207B7B7B7B00911A08
:101CA000691B0000204E323A20207B7B7B7B207D0D
:101CB0007D7D7D207B7B7B7B009D1A791B00002036
:101CC0004E333A20207B7B7B7B207D7D7D7D207B7E
:101CD0007B7B7B00A91A891B0000204E343A202010
:101CE0007B7B7B7B207D7D7D7D207B7B7B7B00B533
:101CF0001A991B0000204E353A20207B7B7B7B20ED
:101D00007D7D7D7D207B7B7B7B00C11AA91B000034
:101D1000204E363A20207B7B7B7B207D7D7D7D2085
:101D20007B7B7B7B00CD1AB91B0000204E373A200D
:101D3000207B7B7B7B207D7D7D7D207B7B7B7B0077
:101D4000D91AC91B0000204E383A20207B7B7B7BB0
:101D5000207D7D7D7D207B7B7B7B00E51AD91B0070
:101D600000204E393A20207B7B7B7B207D7D7D7D52
:101D7000207B7B7B7B00F11AE91B0000204E313079
:101D80003A207B7B7B7B207D7D7D7D207B7B7B7BED
:101D900000FD1AF91B0000204E31313A207B7B7B7D
:101DA0007B207D7D7D7D207B7B7B7B00091B091C4F
:101DB0000000204E31323A207B7B7B7B207D7D7D75
:101DC0007D207B7B7B7B00151B191C0000204E3186
:101DD000333A207B7B7B7B207D7D7D7D207B7B7BE5
:101DE0007B00211B291C0000204E31343A207B7BD4
:101DF0007B7B207D7D7D7D207B7B7B7B002D1B394C
:101E00001C0000204E31353A207B7B7B7B207D7D82
:101E10007D7D207B7B7B7B00391B491C0000204E95
:101E200031363A207B7B7B7B207D7D7D7D207B7BDB
:101E30007B7B00451B591C0000204E31373A207B2C
:101E40007B7B7B207D7D7D7D207B7B7B7B00511B95
:101E5000691C0000204E31383A207B7B7B7B207D43
:101E60007D7D7D207B7B7B7B005D1B791C00008959
:101E70001C12000000000000000000000000000034
:101E80000000001FDF07000000000000000000004D
:101E90003707001FDF0700000000000000000000FF
:101EA0003707011FDF0700000000000000000000EE
:101EB0003707021FDF0700000000000000000000DD
:101EC0003707031FDF0700000000000000000000CC
:101ED0003707041FDF0700000000000000000000BB
:101EE0003707051FDF0700000000000000000000AA
:101EF0003707061FDF070000000000000000000099
:101F00003707071FDF070000000000000000000087
:101F10003707081FDF070000000000000000000076
:101F20003707091FDF070000000000000000000065
:101F300037070A1FDF070000000000000000000054
:101F400037070B1FDF070000000000000000000043
:101F500037070C1FDF070000000000000000000032
:101F600037070D1FDF070000000000000000000021
:101F700037070E1FDF070000000000000000000010
:101F800037070F20C2FBF5EEE4204E313A20202027
:101F900020207D7D7D7D20000000831E000020C26A
:101FA000FBF5EEE4204E323A20202020207D7D7D7E
:101FB0007D20000000931E000020C2FBF5EEE4200F
:101FC0004E333A20202020207D7D7D7D20000000A2
:101FD000A31E000020C2FBF5EEE4204E343A202080
:101FE0002020207D7D7D7D20000000B31E0000208C
:101FF000C2FBF5EEE4204E353A20202020207D7DE6
:102000007D7D20000000C31E000020C2FBF5EEE431
:10201000204E363A20202020207D7D7D7D2000002E
:1020200000D31E000020C2FBF5EEE4204E373A201C
:10203000202020207D7D7D7D20000000E31E00000B
:1020400020C2FBF5EEE4204E383A20202020207DEF
:102050007D7D7D20000000F31E000020C2FBF5EE18
:10206000E4204E393A20202020207D7D7D7D2000F7
:102070000000031F000020C2FBF5EEE4204E3130CB
:102080003A202020207D7D7D7D20000000131F0050
:102090000020C2FBF5EEE4204E31313A2020202012
:1020A0007D7D7D7D20000000231F000020C2FBF508
:1020B000EEE4204E31323A202020207D7D7D7D20AF
:1020C000000000331F000020C2FBF5EEE4204E317B
:1020D000333A202020207D7D7D7D20000000431F9D
:1020E000000020C2FBF5EEE4204E31343A202020DF
:1020F000207D7D7D7D20000000531F000020C2FB5D
:10210000F5EEE4204E31353A202020207D7D7D7D86
:1021100020000000631F000020C2FBF5EEE4204E0B
:1021200031363A202020207D7D7D7D200000007307
:102130001F0000831F1000000000000000000000CE
:10214000000000000000000B4E0B0000000B500BC5
:102150000000000B520B0000000B540B0000000BA2
:10216000560B0000000B580B0000000B5A0B000030
:10217000000B5C0B000000204E313A207B7B7B7B08
:102180007B204E323A207B7B7B7B7B00472100000B
:102190000000204E333A207B7B7B7B7B204E343A01
:1021A000207B7B7B7B7B00532100000000204E3591
:1021B0003A207B7B7B7B7B204E363A207B7B7B7B74
:1021C0007B005F2100000000204E373A207B7B7BA4
:1021D0007B7B204E383A207B7B7B7B7B006B210016
:1021E0000000007721040300000000000000000050
:1021F000000000000000000ED20700000000FF03F6
:10220000000000000000000ED40700000000FF03E3
:10221000000000000000000ED60700000000FF03D1
:10222000000000000000000ED80700000000FF03BF
:102230000000000000000020C2FBF5EEE4204E315B
:102240003A20202020207D7D7D7D7D000000F7212B
:10225000000020C2FBF5EEE4204E323A2020202080
:10226000207D7D7D7D7D0000000722000020C2FBD7
:10227000F5EEE4204E333A20202020207D7D7D7D28
:102280007D0000001722000020C2FBF5EEE4204E86
:10229000343A20202020207D7D7D7D7D0000002798
:1022A00022000037220400000000000000000000AF
:1022B00000000000000000071B09000000071D09C6
:1022C000000000071F0900000007210900000007A7
:1022D0002309000000072509000000072709000066
:1022E00000202D2D2D20CAE0EDE0EBFB20C0D6CF45
:1022F000202D2D2D2000000000000000204E313A3E
:10230000207B7B7B7B7B204E323A207B7B7B7B7BE5
:1023100000B72200000000204E333A207B7B7B7BFD
:102320007B204E343A207B7B7B7B7B00C3220000EA
:102330000000204E353A207B7B7B7B7B204E363A5B
:10234000207B7B7B7B7B00CF220000000020CEEF38
:10235000EEF0ED2E20EAE0EDE0EB3A207B7B7B7B9C
:102360007B00DB2200000000E122050100000000EC
:10237000000000000000000000000000006F0C00E2
:102380000000046E0C000000046D0C0000000072E0
:102390000C00000004710C00000004700C00000030
:1023A000202D2D2D20CAE0EBE8E1F0EEE2EAE0205E
:1023B0002D2D2D2000000000000000205A65726FB6
:1023C0003A20207B7B7B207B7B7B207B7B7B2000E0
:1023D0007C23000000002046756C6C3A20207B7B3B
:1023E0007B207B7B7B207B7B7B20008E230000007F
:1023F00000202020202020202020202020202020FD
:10240000202020202000000000000000A023040362
:1024100000000000000000000000000000000000BC
:10242000526573657400496E697469616C697361A2
:10243000740043616C6962726174696F6E00526509
:102440006164004F6666002024262432243E244323
:1024500024094506EC0801094706EC08010949066C
:10246000EC0801094B06EC0801094D06EC080109CE
:102470004F06EC08011E17010000000007000000D5
:1024800000002009001E18010000000007000000E5
:1024900000002009001E19010000000007000000D4
:1024A00000002009001E1A010000000007000000C3
:1024B00000002009001E1B010000000007000000B2
:1024C00000002009001E1C010000000007000000A1
:1024D0000000200900031D0180FFFFFF7F000000B6
:1024E000000000000103200180FFFFFF7F000000CB
:1024F000000000000103230180FFFFFF7F000000B8
:10250000000000000103260180FFFFFF7F000000A4
:10251000000000000103290180FFFFFF7F00000091
:102520000000000001032C0180FFFFFF7F0000007E
:102530000000000001081E01840300004C0400009C
:102540000000000003082101840300004C04000087
:102550000000000003082401840300004C04000074
:102560000000000003082701840300004C04000061
:102570000000000003082A01840300004C0400004E
:102580000000000003082D01840300004C0400003B
:10259000000000000320CAE0EDE0EB204E313A20BD
:1025A0007B7B7B7B7B7B7B7C43005124000000009A
:1025B00020D2E5F0ECEEE4E0F2F7E8EA3A207D7DA7
:1025C0007D7D7D7D0000007524000020D1E4E2E8DF
:1025D000E33A2020202020207D7D7D7D7D7C4300EE
:1025E0000000D524000020CAEEFDF4F4E8F6E8E58A
:1025F000EDF23A20207D7D7D7D7D000000352500B7
:10260000009525040100000000000000000000000B
:10261000000000000020CAE0EDE0EB204E323A203E
:102620007B7B7B7B7B7B7B7C430057240000000013
:1026300020D2E5F0ECEEE4E0F2F7E8EA3A207D7D26
:102640007D7D7D7D0000008524000020D1E4E2E84E
:10265000E33A2020202020207D7D7D7D7D7C43006D
:102660000000E524000020CAEEFDF4F4E8F6E8E5F9
:10267000EDF23A20207D7D7D7D7D00000045250026
:10268000001526040100000000000000000000000A
:10269000000000000020CAE0EDE0EB204E333A20BD
:1026A0007B7B7B7B7B7B7B7C43005D24000000008D
:1026B00020D2E5F0ECEEE4E0F2F7E8EA3A207D7DA6
:1026C0007D7D7D7D0000009524000020D1E4E2E8BE
:1026D000E33A2020202020207D7D7D7D7D7C4300ED
:1026E0000000F524000020CAEEFDF4F4E8F6E8E569
:1026F000EDF23A20207D7D7D7D7D00000055250096
:102700000095260401000000000000000000000009
:10271000000000000020CAE0EDE0EB204E343A203B
:102720007B7B7B7B7B7B7B7C430063240000000006
:1027300020D2E5F0ECEEE4E0F2F7E8EA3A207D7D25
:102740007D7D7D7D000000A524000020D1E4E2E82D
:10275000E33A2020202020207D7D7D7D7D7C43006C
:1027600000000525000020CAEEFDF4F4E8F6E8E5D7
:10277000EDF23A20207D7D7D7D7D00000065250005
:102780000015270401000000000000000000000008
:10279000000000000020CAE0EDE0EB204E353A20BA
:1027A0007B7B7B7B7B7B7B7C430069240000000080
:1027B00020D2E5F0ECEEE4E0F2F7E8EA3A207D7DA5
:1027C0007D7D7D7D000000B524000020D1E4E2E89D
:1027D000E33A2020202020207D7D7D7D7D7C4300EC
:1027E00000001525000020CAEEFDF4F4E8F6E8E547
:1027F000EDF23A20207D7D7D7D7D00000075250075
:102800000095270401000000000000000000000007
:10281000000000000020CAE0EDE0EB204E363A2038
:102820007B7B7B7B7B7B7B7C43006F2400000000F9
:1028300020D2E5F0ECEEE4E0F2F7E8EA3A207D7D24
:102840007D7D7D7D000000C524000020D1E4E2E80C
:10285000E33A2020202020207D7D7D7D7D7C43006B
:1028600000002525000020CAEEFDF4F4E8F6E8E5B6
:10287000EDF23A20207D7D7D7D7D000000852500E4
:102880000015280401000000000000000000000006
:10289000000000000020CAE0EDE0EB204E313A20BD
:1028A0007B7B7B7B7B7B7B7C430051240000012670
:1028B00020CAE0EDE0EB204E323A207B7B7B7B7B35
:1028C0007B7B7C430057240000812620CAE0EDE09A
:1028D000EB204E333A207B7B7B7B7B7B7B7C4300F6
:1028E0005D240000012720CAE0EDE0EB204E343AE1
:1028F000207B7B7B7B7B7B7B7C4300632400008194
:102900002720CAE0EDE0EB204E353A207B7B7B7B35
:102910007B7B7B7C430069240000012820CAE0ED1A
:10292000E0EB204E363A207B7B7B7B7B7B7B7C43C2
:10293000006F240000812895280600000000000098
:10294000000000000000000000000000000000B6D1
:102950000600000000B70600000000B806000000F6
:1029600008310100000000FFFF000000000000002F
:1029700008510100000000FFFF00000000000000FF
:1029800008710100000000FFFF00000000000000CF
:1029900020CDEEECE5F020EAE0EDE0EBE0202020B9
:1029A000207B7B7B004E290000000020D1EEF1F25D
:1029B000EEFFEDE8E520E2F5EEE4E0207B7B7B0036
:1029C00054290000000020D1EEF1F2EEFFEDE8E521
:1029D00020EAE0EDE0EBE07B7B7B005A2900000081
:1029E0000020D2E0EDF2E8E4F0E5E1E5E7E32020C5
:1029F0007D7D7D7D7D0000006029000020D2E4EE19
:102A0000E7E2EEEDE02020202020207D7D7D7D7D11
:102A10000000007029000020D2EFEEE2F22EE4EE7A
:102A2000E7E2EEEDE0207D7D7D7D7D0000008029E8
:102A300000009029060000000000000000000000D7
:102A400000000000000000BA0600000000BB060005
:102A5000000000BC0600000008330100000000FF79
:102A6000FF0000000000000008530100000000FF0C
:102A7000FF0000000000000008730100000000FFDC
:102A8000FF0000000000000020CDEEECE5F020EAA1
:102A9000E0EDE0EBE0202020207B7B7B00462A005D
:102AA00000000020D1EEF1F2EEFFEDE8E520E2F5C6
:102AB000EEE4E0207B7B7B004C2A0000000020D16C
:102AC000EEF1F2EEFFEDE8E520EAE0EDE0EBE07B91
:102AD0007B7B00522A0000000020D2E0EDF2E8E407
:102AE000F0E5E1E5E7E320207D7D7D7D7D000000D0
:102AF000582A000020D2E4EEE7E2EEEDE0202020AC
:102B00002020207D7D7D7D7D000000682A00002042
:102B1000D2EFEEE2F22EE4EEE7E2EEEDE0207D7D94
:102B20007D7D7D000000782A0000882A06000000D4
:102B3000000000000000000000000000000000BED7
:102B40000600000000BF0600000000C006000000F4
:102B500008350100000000FFFF0000000000000039
:102B600008550100000000FFFF0000000000000009
:102B700008750100000000FFFF00000000000000D9
:102B800020CDEEECE5F020EAE0EDE0EBE0202020C7
:102B9000207B7B7B003E2B0000000020D1EEF1F279
:102BA000EEFFEDE8E520E2F5EEE4E0207B7B7B0044
:102BB000442B0000000020D1EEF1F2EEFFEDE8E53D
:102BC00020EAE0EDE0EBE07B7B7B004A2B0000009D
:102BD0000020D2E0EDF2E8E4F0E5E1E5E7E32020D3
:102BE0007D7D7D7D7D000000502B000020D2E4EE35
:102BF000E7E2EEEDE02020202020207D7D7D7D7D20
:102C0000000000602B000020D2EFEEE2F22EE4EE96
:102C1000E7E2EEEDE0207D7D7D7D7D000000702B04
:102C20000000802B060000000000000000000000F3
:102C300000000000000000C20600000000C3060003
:102C4000000000C40600000008370100000000FF7B
:102C5000FF0000000000000008570100000000FF16
:102C6000FF0000000000000008770100000000FFE6
:102C7000FF0000000000000020CDEEECE5F020EAAF
:102C8000E0EDE0EBE0202020207B7B7B00362C0079
:102C900000000020D1EEF1F2EEFFEDE8E520E2F5D4
:102CA000EEE4E0207B7B7B003C2C0000000020D188
:102CB000EEF1F2EEFFEDE8E520EAE0EDE0EBE07B9F
:102CC0007B7B00422C0000000020D2E0EDF2E8E423
:102CD000F0E5E1E5E7E320207D7D7D7D7D000000DE
:102CE000482C000020D2E4EEE7E2EEEDE0202020C8
:102CF0002020207D7D7D7D7D000000582C0000205F
:102D0000D2EFEEE2F22EE4EEE7E2EEEDE0207D7DA2
:102D10007D7D7D000000682C0000782C06000000FE
:102D2000000000000000000000000000000000C6DD
:102D30000600000000C70600000000C806000000F2
:102D400008390100000000FFFF0000000000000043
:102D500008590100000000FFFF0000000000000013
:102D600008790100000000FFFF00000000000000E3
:102D700020CDEEECE5F020EAE0EDE0EBE0202020D5
:102D8000207B7B7B002E2D0000000020D1EEF1F295
:102D9000EEFFEDE8E520E2F5EEE4E0207B7B7B0052
:102DA000342D0000000020D1EEF1F2EEFFEDE8E559
:102DB00020EAE0EDE0EBE07B7B7B003A2D000000B9
:102DC0000020D2E0EDF2E8E4F0E5E1E5E7E32020E1
:102DD0007D7D7D7D7D000000402D000020D2E4EE51
:102DE000E7E2EEEDE02020202020207D7D7D7D7D2E
:102DF000000000502D000020D2EFEEE2F22EE4EEB3
:102E0000E7E2EEEDE0207D7D7D7D7D000000602D20
:102E10000000702D0600000000000000000000000F
:102E200000000000000000CA0600000000CB060001
:102E3000000000CC06000000083B0100000000FF7D
:102E4000FF00000000000000085B0100000000FF20
:102E5000FF00000000000000087B0100000000FFF0
:102E6000FF0000000000000020CDEEECE5F020EABD
:102E7000E0EDE0EBE0202020207B7B7B00262E0095
:102E800000000020D1EEF1F2EEFFEDE8E520E2F5E2
:102E9000EEE4E0207B7B7B002C2E0000000020D1A4
:102EA000EEF1F2EEFFEDE8E520EAE0EDE0EBE07BAD
:102EB0007B7B00322E0000000020D2E0EDF2E8E43F
:102EC000F0E5E1E5E7E320207D7D7D7D7D000000EC
:102ED000382E000020D2E4EEE7E2EEEDE0202020E4
:102EE0002020207D7D7D7D7D000000482E0000207B
:102EF000D2EFEEE2F22EE4EEE7E2EEEDE0207D7DB1
:102F00007D7D7D000000582E0000682E0600000028
:102F1000000000000000000000000000000020CAC7
:102F2000E0EDE0EB20312020202020202020202078
:102F300020200000000000322A810F2200DA2F003A
:102F40000000000000000000000000000000B706C4
:102F5000000000202D47534D2DF1E8E3EDE0EBE8B4
:102F6000E7E0F2EEF02D200000000000DA2F20D183
:102F7000EBF3E6E5E1EDEEE5202020202020202007
:102F8000202000000000001B1A20CCEEE4E5EC201D
:102F90002020202020202020202020202000000091
:102FA0000000392F20CDE0F1F2F0EEE9EAE020EA6E
:102FB000E0EDE0EBEEE220200000000000322A20ED
:102FC000D1EEF1F22E6FE1E7E2EEEDE020202020DD
:102FD0007B7B7B004D2F00000000532F0500DA2F74
:102FE00000000000000000000000000000000000E1
:102FF000F343F443BF5B1757695F0E5F0702C306D5
:10300000E3060000E1F6910830F80E2818FCA2371C
:103010000CFEEA4600004965E803A683D007FFFFDF
:10302000F4170000DFF6460430F8130C24FAFE1300
:1030300018FCC61B0CFE6B230000032BF4019A3214
:10304000E803303ADC05C941D007FFFFBD38000076
:10305000F6F5C2380CFEE2460000B662E803967D43
:10306000D007AE97B80BEAB0A00F54C98813E2E0BE
:103070007017FFFF971E00001FF65F1C0CFE5631F5
:10308000E803D03ED007D24BB80B7058A00FAA640B
:1030900088136C707017FFFF0E47000020F6FE3893
:1030A0000CFE4862E803C47CD0076E96B80B50AFA4
:1030B000A00F56C7881394DE7017F6F4581BFFFF55
:1030C0008B1F00001EF61C1A0CFE642DE803C63987
:1030D000D007C445B80B6851A00F9E5C88137A676F
:1030E0007017FFFFCE4F0000D5F67D1D0CFE8B251F
:1030F00000008F2DF4019235E803953DDC05634215
:103100000807FFFF3E35000090019901DC057C07B0
:10311000B80B8E1588131B1F7017302A581BC43626
:10312000401FB6442823F25310275A64F82AD0755A
:10313000E02E4088C832789BB03650AF983A82C3B0
:10314000803ED2D76842FFFF384A060007000008D9
:103150000108020803080408050800010203040529
:10316000060708090A0B0C0D0E0F070108010601DE
:103170004000070108010601800004010501030168
:1031800080002100220020000100210022002000F8
:103190000200210022002000040021002200200063
:1031A0000800210022002000100021002200200041
:1031B00020002100220020004000210022002000E9
:1031C00080003300340032000400040105010301D3
:1031D0004000040105010301200004010501030171
:1031E00010000401050103010800040105010301A9
:1031F000020104010501030104012B504450004366
:103200004C4F5300504F53540047455420000D0A73
:10321000002B4353513A20256868752C2568687542
:1032200000256868752C20434C4F534544004F4B94
:1032300000256868752025686875202568687520F0
:1032400025686875004E4F2043415252494552004F
:1032500042555359004F4B002B434C43433A2031C6
:103260002C302C362C004154480D0041542B435235
:1032700045433D342C22433A5C557365725C4E6F76
:1032800074436F6E6669726D2E616D72222C302CE4
:103290003130300D0041542B435245433D342C22F4
:1032A000433A5C557365725C436F6E6669726D2E4E
:1032B000616D72222C302C3130300D002B43524581
:1032C000433A20300041542B435245433D350D00D5
:1032D0002B434C43433A20332C302C36002B434CA9
:1032E00043433A20322C302C36002B434C43433A94
:1032F00020312C302C36002B44544D463A203100DE
:103300002B435245433A20300041542B435245430E
:103310003D342C22433A5C557365725C436F6E6694
:1033200069726D526571756573742E616D72222CB0
:10333000302C3130300D002B435245433A203000C1
:103340002E616D72222C302C3130300D0041542B07
:10335000435245433D342C22433A5C557365725CBD
:10336000416C61726D002B434C43433A20312C3049
:103370002C362C002B434C43433A20312C302C3636
:103380002C002B434C43433A20312C302C362C005C
:103390002B434C43433A20312C302C302C002B4310
:1033A0004C43433A20312C302C302C002B434C43DF
:1033B000433A20312C302C302C002B434C43433AE1
:1033C00020332C302C332C002B434C43433A2032F7
:1033D0002C302C332C002B434C43433A20312C30DF
:1033E0002C332C002B434C43433A20332C302C36C7
:1033F0002C002B434C43433A20322C302C362C00EB
:103400002B434C43433A20312C302C362C002B4399
:103410004C43433A20332C302C322C002B434C436A
:10342000433A20322C302C322C002B434C43433A6D
:1034300020312C302C322C002B434C43433A203388
:103440002C302C36002B434C43433A20322C302C6A
:1034500036002B434C43433A20312C302C36002B82
:1034600044544D463A203100CE00C800C900CA007D
:10347000CD00CC007C218221862187210046004797
:1034800000812BB200B3008B2BA400A800972B0067
:1034900004061F06040000060909060000000000DB
:1034A00008080E0F1F0F0600000E111C110E000E53
:1034B00011101C10110E000A000C0404040E000A66
:1034C0000E040404040E000000000000000000FFD1
:1034D000FFFFFFFFFFFFFFFFFFFFFFFFFFFFFF00FB
:1034E00002FFFFFFFFFFFFFFFFFFFFFFFFFFFF20C8
:1034F0002122232425262728292A2B2C2D2E2F3044
:103500003132333435363738393A3B3C3D3E3F4033
:103510004142434445464748494A4B4C4D4E4F5023
:103520005152535455565758595A5B5C5D5E5F6013
:103530006162636465666768696A6B6C6D6E6F7003
:103540007172737475767778797A7B017DE97FFF84
:10355000FFFFFFFFFFFFFFFFFFFFFFFFFFFFFFFF7B
:10356000FFFFFFFFFFFFFFFFFFFFFFFFFFFFFFFF6B
:10357000FFFFFFFFFFFFD9A2FF04FFFFFFFF06FFD2
:10358000FF4969FFFFFFDAB5FF03FFFFFFFF0541BA
:10359000A042A1E045A3A4A5A64BA74D484FA85023
:1035A0004354A9AA58E1ABACE2ADAE62AFB0B16191
:1035B000B2B3B4E365B6B7B8B9BABBBCBD6FBE7041
:1035C00063BF79E478E5C0C1E6C2C3C4C5C6C7809D
:1035D000C094D40001020304050600C0C101C30366
:1035E00002C2C60607C705C5C404CC0C0DCD0FCF5B
:1035F000CE0E0ACACB0BC90908C8D81819D91BDBCB
:10360000DA1A1EDEDF1FDD1D1CDC14D4D515D7171A
:1036100016D6D21213D311D1D010F03031F133F3CA
:10362000F23236F6F737F53534F43CFCFD3DFF3F1A
:103630003EFEFA3A3BFB39F9F83828E8E929EB2B4A
:103640002AEAEE2E2FEF2DEDEC2CE42425E527E7DA
:10365000E62622E2E323E12120E0A06061A163A34A
:10366000A26266A6A767A56564A46CACAD6DAF6FDA
:103670006EAEAA6A6BAB69A9A86878B8B979BB7B4A
:103680007ABABE7E7FBF7DBDBC7CB47475B577B79A
:10369000B67672B2B373B17170B0509091519353CA
:1036A000529296565797559594549C5C5D9D5F9F9A
:1036B0009E5E5A9A9B5B99595898884849894B8BCA
:1036C0008A4A4E8E8F4F8D4D4C8C4484854587475A
:1036D0004686824243834181804000C1814001C0CF
:1036E000804101C0804100C1814001C0804100C1D2
:1036F000814000C1814001C0804101C0804100C1C2
:10370000814000C1814001C0804100C1814001C0B1
:10371000804101C0804100C1814001C0804100C1A1
:10372000814000C1814001C0804100C1814001C091
:10373000804101C0804100C1814000C1814001C081
:10374000804101C0804100C1814001C0804100C171
:10375000814000C1814001C0804101C0804100C161
:10376000814000C1814001C0804100C1814001C051
:10377000804101C0804100C1814000C1814001C041
:10378000804101C0804100C1814001C0804100C131
:10379000814000C1814001C0804100C1814001C021
:1037A000804101C0804100C1814001C0804100C111
:1037B000814000C1814001C0804101C0804100C101
:1037C000814000C1814001C0804100C1814001C0F1
:1037D000804101C0804100C1814000407A10F35A0D
:1037E00000A0724E18090010A5D4E80000E8764841
:1037F000170000E40B54020000CA9A3B000000E1ED
:10380000F505000080969800000040420F0000007F
:10381000A08601000000102700000000E80300005F
:1038200000006400000000000A0000000000010029
:10383000000000002C76D888DC674F0823DFC1DF4A
:10384000AE59E1B1B796E5E3E453C63AE65199764D
:1038500096E8E6C28426EB898C9B62ED407C6FFC87
:10386000EFBC9C9F40F2BAA56FA5F490055A2AF7C9
:103870005C936B6CF9676DC11BFCE0E40D47FEF5D2
:1038800020E6B500D0ED902E03009435770500803A
:10389000841E080000204E0A000000C80C33333399
:1038A000330F986E12831141EF8D2114893BE65539
:1038B00016CFFEE6DB18D1844B381BF77C1D901D1C
:1038C000A4BBE424203284725E228100C9F124EC7E
:1038D000A1E53D2711241FBECFEFD1E2DEBFCDBF52
:1038E00000E00CBF12E0A0E0B2E0EAE3F0E101E0AA
:1038F0000BBF02C007900D92AA3DB107D9F71CE09B
:10390000AAEDB2E001C01D92A437B107E1F70E9411
:1039100054790C9430830C940000FC01808108954C
:10392000FC0184910895FC0125913491C901089509
:10393000FC012591359145915491B901CA01089531
:10394000A0E0B0E080509040AF4FBF4FABBFFC0154
:1039500087910895FC0184910895FC01259134918B
:10396000C90108956F927F928F929F92AF92BF92FA
:10397000CF92DF92EF92FF920F931F93CF93DF933B
:103980003C01EB0149015A01C12ED02E2115310510
:1039900041055105F9F0EE24FF248701CE018E0D7B
:1039A0009F1DF3011995D8262D2D30E0C9018652AF
:1039B000994CFC01D490DC2426523A4CF901C49075
:1039C0000894E11CF11C011D111DE814F9040A05FD
:1039D0001B0520F39C2D80E02D2D30E0282B392B6A
:1039E000C901DF91CF911F910F91FF90EF90DF9070
:1039F000CF90BF90AF909F908F907F906F900895E1
:103A00000F931F930FEF1FEF0E94B21C1F910F9196
:103A100008950F931F9380E99CE160E070E020E03F
:103A200030E041E050E00E94001D8C0180EA9CE102
:103A300060E070E020E030E043E050E00E94B21C23
:103A40001F910F910895CF92DF92EF92FF920F9303
:103A50001F9393E2C92E93E5D92E88E9E82E81E0E1
:103A6000F82E970140E050E0C60160E070E00E944F
:103A7000001D8C012BEF3FE02E193F0940E050E084
:103A8000C60165E070E0E60EF71EB7010E94B21CA9
:103A90001F910F91FF90EF90DF90CF900895789451
:103AA00008958FB780788093EE02F89408958091FE
:103AB000EE02882309F078940895A8952FE088E114
:103AC00090E00FB6F894A895809360000FBE209305
:103AD000600008958091DA028F5F8093DA0281504E
:103AE00008958091CC028F5F8093CC02815008951D
:103AF0008091CD028F5F8093CD0281500895809197
:103B0000CE028F5F8093CE0281500895882339F0D2
:103B10009091DA02890F8093DA02892F089590E05C
:103B2000892F0895882339F09091CC02890F8093D2
:103B3000CC02892F089590E0892F0895882339F0C9
:103B40009091CD02890F8093CD02892F089590E046
:103B5000892F0895882339F09091CE02890F8093A0
:103B6000CE02892F089590E0892F08959091DB026D
:103B7000890F8093DB02892F08959091CF02890FDE
:103B80008093CF02892F08959091D002890F80935E
:103B9000D002892F08959091D102890F8093D1028C
:103BA000892F0895982F3FB730783093EE02F8941C
:103BB000482F50E0FA01E151FD4F60838081882356
:103BC000C1F0969596959695E92FF0E0E155FB4F5B
:103BD00020814770507081E090E002C0880F991FEB
:103BE0004A95E2F7809582238083332309F0789405
:103BF0000895969596959695E92FF0E0E155FB4F3F
:103C000020814770507081E090E002C0880F991FBA
:103C10004A95E2F7282B2083E8CF982F3FB73078DA
:103C20003093EE02F894482F50E0FA01E950FD4F2E
:103C3000608380818823C1F0969596959695E92FAB
:103C4000F0E0EF54FB4F20814770507081E090E02E
:103C500002C0880F991F4A95E2F7809582238083DE
:103C6000332309F078940895969596959695E92FC3
:103C7000F0E0EF54FB4F20814770507081E090E0FE
:103C800002C0880F991F4A95E2F7282B2083E8CFBE
:103C9000282F3FB730783093EE02F894482F50E049
:103CA000FA01EE0FFF1FE15BFC4F7183608380819F
:103CB0009181892BC1F0269526952695E22FF0E07B
:103CC000E354FB4F20814770507081E090E002C0C8
:103CD000880F991F4A95E2F78095822380833323CA
:103CE00009F078940895269526952695E22FF0E020
:103CF000E354FB4F20814770507081E090E002C098
:103D0000880F991F4A95E2F7282B2083E8CFCF939D
:103D1000DF93282F3FB730783093EE02F894C82F06
:103D2000D0E0FE01EE0FFF1FEE0FFF1FE15FFB4F24
:103D3000408351836283738380819181A281B381A7
:103D40000097A105B105D1F0269526952695E22F7D
:103D5000F0E0E653FB4F2081C770D07081E090E027
:103D600002C0880F991FCA95E2F78095822380834D
:103D7000332309F07894DF91CF9108952695269505
:103D80002695E22FF0E0E653FB4F2081C770D070FC
:103D900081E090E002C0880F991FCA95E2F7282BB6
:103DA0002083E6CF4FB740784093EE02F894E82F97
:103DB000E695E695E695F0E0E155FB4F908187703A
:103DC00021E030E002C0220F331F8A95E2F7922BE8
:103DD0009083442309F0789408954FB74078409336
:103DE000EE02F894E82FE695E695E695F0E0EF54BC
:103DF000FB4F9081877021E030E002C0220F331F1B
:103E00008A95E2F7922B9083442309F078940895E1
:103E10004FB740784093EE02F894E82FE695E69588
:103E2000E695F0E0E354FB4F9081877021E030E0AD
:103E300002C0220F331F8A95E2F7922B908344230E
:103E400009F0789408954FB740784093EE02F894C3
:103E5000E82FE695E695E695F0E0E653FB4F908176
:103E6000877021E030E002C0220F331F8A95E2F70D
:103E7000922B9083442309F078940895E82FE695D7
:103E8000E695E695F0E0E155FB4F2081E82FF0E064
:103E900030E0CF018770907002C0359527958A95E4
:103EA000E2F720FD02C080E00895E151FD4F9081CE
:103EB000992319F481E08927089591E081E0892709
:103EC0000895E82FE695E695E695F0E0EF54FB4F70
:103ED0002081E82FF0E030E0CF018770907002C0C1
:103EE000359527958A95E2F720FD02C080E0089578
:103EF000E950FD4F9081992319F481E089270895B5
:103F000091E081E0892708954FB740784093EE0211
:103F1000F894E82FE695E695E695F0E0E354FB4F3C
:103F20002081E82FF0E030E0CF018770907002C070
:103F3000359527958A95E2F720FD06C020E04423B9
:103F400009F07894822F0895EE0FFF1FE15BFC4F7C
:103F50008081918120E0892B19F481E02827EFCF1F
:103F600021E081E02827EBCF4FB740784093EE0265
:103F7000F894E82FE695E695E695F0E0E653FB4FDA
:103F80002081E82FF0E030E0CF018770907002C010
:103F9000359527958A95E2F720FD06C020E0442359
:103FA00009F07894822F0895EE0FFF1FEE0FFF1F88
:103FB000E15FFB4F80819181A281B38120E0009776
:103FC000A105B10519F481E02827E9CF21E081E0BE
:103FD0002827E5CF5FB750785093EE02F894E82F8A
:103FE000E695E695E695F0E0E155FB4F4081A82F78
:103FF000B0E09D012770307081E090E002C0880F32
:10400000991F2A95E2F7482B4083552309F07894AD
:10401000A151BD4F1C9208955FB750785093EE02A6
:10402000F894E82FE695E695E695F0E0EF54FB4F1F
:104030004081A82FB0E09D012770307081E090E0B2
:1040400002C0880F991F2A95E2F7482B4083552319
:1040500009F07894A950BD4F1C920895E82F5FB7DE
:1040600050785093EE02F894A82FA695A695A695A1
:10407000B0E0A354BB4F4C91F0E09F01277030702B
:1040800081E090E002C0880F991F2A95E2F7482B43
:104090004C93EE0FFF1FE15BFC4F11821082552302
:1040A00009F078940895E82F5FB750785093EE02A6
:1040B000F894A82FA695A695A695B0E0A653BB4F59
:1040C0004C91F0E09F012770307081E090E002C0D9
:1040D000880F991F2A95E2F7482B4C93EE0FFF1F8C
:1040E000EE0FFF1FE15FFB4F1082118212821382DD
:1040F000552309F078940895EFEEF2E0E80FF11DF2
:1041000080810895E7EFF2E0E80FF11D80810895C6
:10411000E82F8FB780788093EE02F894F0E0EE0FEE
:10412000FF1FE15BFC4F0190F081E02D882309F037
:104130007894CF010895E82F8FB780788093EE02AE
:10414000F894F0E0EE0FFF1FEE0FFF1FE15FFB4F53
:104150002081318142815381882309F07894B9010B
:10416000CA0108958091CF028835A8F48091D002C9
:10417000803688F48091D102883268F48091CC0234
:10418000803448F48091CD02883428F490E0809106
:10419000CE02803208F091E0892F08958091CF02FD
:1041A0008F5F8093CF0281508093D0046FEF0E9485
:1041B0000D1E08951F920F920FB60F920BB60F921D
:1041C00011242F934F935F936F937F938F939F93BC
:1041D000AF93BF93EF93FF938091D1048F5F809350
:1041E000D10440E050E0A1E0B0E08091AF04BA011A
:1041F0006770707090E0062E02C0959587950A94BE
:10420000E2F780FD14C0FA01E151FD4F8081815039
:1042100080838081882359F42091AF04CD0102C0AE
:10422000880F991F6A95E2F7282B2093AF044F5F00
:104230005F4F48305105C9F6FF91EF91BF91AF91A3
:104240009F918F917F916F915F914F912F910F90DF
:104250000BBE0F900FBE0F901F901895A8958091E0
:10426000B2079091B30701969093B3078093B2077A
:104270009091D004E92FF0E0E950FD4FE081E09506
:10428000E093AE078091B1068E1710F4E093B1066B
:10429000892F6FEF0E940D1E08951092B1060895A8
:1042A000882339F020EA3FE0F9013197F1F7815096
:1042B000D9F70895A0E0B0E0BC01CD010E943F8293
:1042C0002DEC3CEC4CE45FE30E947C820E9414875E
:1042D000CB01672B31F035E0232F2A95F1F70197B9
:1042E000D9F708956A9A7298549A5C9808958EB195
:1042F00094E089278EB908958BB190E189278BB915
:1043000008950895089508950895089508950895C5
:104310000895089532EA3093900029E120939100A6
:104320008FEF9FEF90939700809396008DB18861F7
:104330008DB930932001209321018EE79CE090936A
:10434000270180932601EAE0F1E080818861808383
:1043500008956091D2077091D30780E090E00E94A9
:104360003F8228E83FE140E852E40E947C820E94BC
:104370001487262F9FB7F894709399002093980084
:1043800097FF01C078946091D4077091D50780E0C1
:1043900090E00E943F8228E83FE140E852E40E941A
:1043A0007C820E941487262F9FB7F89470939B00FD
:1043B00020939A0097FF01C078946091D60770917E
:1043C000D70780E090E00E943F8225E032E148E498
:1043D00050E40E947C820E941487262F9FB7F89495
:1043E000709329012093280197FF01C07894609170
:1043F000D8077091D90780E090E00E943F8225E0C5
:1044000032E148E450E40E947C820E941487262F07
:104410008FB780788093EE02F89470932B012093ED
:104420002A01882309F0789408951F938CB5886039
:104430008CBDF89480910201877F8093020178946B
:1044400080916A0B813009F4ECC0813030F5F8942A
:10445000809102018F7E80930201789485E08A9595
:10446000F1F7F894809102018061809302017894C1
:104470008091390764E00E94D21D80916A0B8F5FA2
:1044800080936A0B17E0F894809102018860809312
:1044900002017894812F1F910895823009F4D2C0CF
:1044A000833011F017E0EFCF88E08EBD0DB407FE2A
:1044B000FDCF1EBC0DB407FEFDCF0EB407FCDAC065
:1044C00088E38EBD0DB407FEFDCF1EBC0DB407FE04
:1044D000FDCF3EB51EBC0DB407FEFDCF2EB5932F0C
:1044E00080E0AC01420F511D9A0110911209163063
:1044F00009F419C180E18EBD0DB407FEFDCF87E040
:104500008EBD0DB407FEFDCF40913907E42FF0E0DA
:10451000E151FD4F908184E1891B8093B30688E6C9
:104520008EBD0DB407FEFDCF1EBC0DB407FEFDCF42
:10453000EFE6FCE08EB580831EBC0DB407FEFDCF18
:1045400031978CE0EC36F807A9F71EBC0DB407FED6
:10455000FDCF88E78EBD0DB407FEFDCF1EBC0DB4A8
:1045600007FEFDCFE2E7FCE08EB580831EBC0DB4F4
:1045700007FEFDCF31975CE0EF36F507A9F71EBCCB
:104580000DB407FEFDCF80916F0C8951833008F088
:1045900085C08091720C883C08F480C08C3C08F087
:1045A0007DC0E12FF0E0EE0FFF1FE55EF64F318397
:1045B0002083812F8F5F80931209873011F410922E
:1045C0001209E0911209F0E0ED52FA4C9491F8943E
:1045D000943008F4CAC0779A809102018B7F80934F
:1045E0000201292F30E0C901837090700196039772
:1045F00008F4B9C0769A20FFB4C0759A789485E51E
:104600008A95F1F780E18EBD0DB407FEFDCF86E0FF
:104610008EBD0DB407FEFDCF842F64E10E94D21D34
:1046200032CF809139070E943E1F882309F43ACF88
:1046300081E09FEF9EBD0DB407FEFDCF8830D9F11C
:104640008F5FF8CF88E08EBD0DB407FEFDCF1EBC96
:104650000DB407FEFDCF0EB407FC45C01092EC026E
:1046600083E080936A0B8091390764E10E94D21D38
:1046700017E009CF809139070E943E1F882309F473
:1046800011CF8091B4079091B50701969093B5072B
:104690008093B40710926A0B17E0F5CE8091F8066C
:1046A0009091F90601969093F9068093F80610927E
:1046B0006A0B17E0E8CE80E28EBD0DB407FEFDCF99
:1046C00084E08EBD0DB407FEFDCF80E18EBD0DB43C
:1046D00007FEFDCF86E48EBD0DB407FEFDCF8091B1
:1046E000390764E2C8CE809139070E943E1F8823B3
:1046F00099F080912B0990912C09019690932C09A7
:1047000080932B098091EC028F5F8093EC028B31B8
:1047100098F184E080936A0B80916A0B833009F4EE
:10472000A2CF17E0B0CE8091270990912809892B5C
:1047300009F4E0CECA0180589E43815A9F4008F494
:10474000D9CE8091F8069091F90601969093F906DA
:104750008093F80610926A0B85E08093120917E0A7
:1047600092CE75984BCF769846CF7798809102017C
:1047700084608093020135CF80E0CCCFF89484B17F
:10478000807F876084B92B9A8FE58CBD7894F894EC
:10479000809101018860809301018091020188600D
:1047A00080930201809101018061809301016F9AE1
:1047B000809101018460809301016D9A6E9A7894D2
:1047C0008091DB028F5F8093DB02815080933907F9
:1047D00086E0809312090E941522873091F480911F
:1047E0002B0990912C09892B61F48091B407909149
:1047F000B507892B31F48091F8069091F906892B41
:1048000051F30895482F882389F021E030E0C90151
:10481000880F991F220F331F220F331F220F331FC0
:10482000280F391F415099F7C901089521E030E060
:10483000FBCF1F93182F8823A1F021E030E040E048
:1048400050E0CA01B9012AE030E040E050E00E94A7
:104850008C879B01AC011150A1F7B901CA011F91CE
:10486000089521E030E040E050E0F7CF1F932AE0C8
:1048700030E040E050E00E94DE87C901DA01BC016F
:10488000CD016115710581059105A1F010E01F5F53
:104890002AE030E040E050E00E94DE87C901DA0102
:1048A000BC01CD01611571058105910581F7812F4D
:1048B0001F91089510E0FBCF282F6AE00E94AB877C
:1048C000382F3295307F822F0E94AB87832F890F3C
:1048D0000895282F22952F709AE0299F9001112486
:1048E0008F70820F08952F923F924F925F926F9236
:1048F0007F928F929F92AF92BF92CF92DF92EF9270
:10490000FF920F931F93CF93DF93EC017A018B01FA
:10491000288039804A805B806C817D818E819F8177
:10492000261637064806590609F458C00E944182E7
:104930005B016C016A857B85882777FD8095982FC0
:104940000E9441823B014C01C801B7010E94418293
:10495000A60195010E9442867B018C0168857985BC
:10496000882777FD8095982F0E9441829B01AC019A
:10497000C401B3010E9442869B01AC01C801B7018A
:104980000E947C827B018C01C201B1010E944182A4
:104990009B01AC01C601B5010E9442869B01AC019E
:1049A000C801B7010E94A786A40193010E94438613
:1049B0000E940F87CB01DF91CF911F910F91FF9044
:1049C000EF90DF90CF90BF90AF909F908F907F90AF
:1049D0006F905F904F903F902F90089588859985B4
:1049E000EACF2F923F924F925F926F927F928F9277
:1049F0009F92AF92BF92CF92DF92EF92FF920F936E
:104A00001F93CF93DF93EC017A018B0128803980CB
:104A10004A805B806C817D818E819F81261637065E
:104A20004806590609F458C00E943F825B016C0198
:104A30006A857B85882777FD8095982F0E94418223
:104A40003B014C01C801B7010E943F82A6019501BC
:104A50000E9442867B018C0168857985882777FDD5
:104A60008095982F0E9441829B01AC01C401B30143
:104A70000E9442869B01AC01C801B7010E947C8262
:104A80007B018C01C201B1010E943F829B01AC01FC
:104A9000C601B5010E9442869B01AC01C801B70165
:104AA0000E94A786A40193010E9443860E940F875B
:104AB000CB01DF91CF911F910F91FF90EF90DF908D
:104AC000CF90BF90AF909F908F907F906F905F90AE
:104AD0004F903F902F90089588859985EACFAF92A7
:104AE000BF92CF92DF92EF92FF920F931F93DF93CB
:104AF000CF93CDB7DEB72C970FB6F894DEBF0FBEBD
:104B0000CDBFDC01FC01859194917C0100E010E0B7
:104B10005B01CC24DD24CD010496FC012591349168
:104B2000AD01B701F801DC01790100E010E0EA1401
:104B3000FB040C051D0578F3CA019B01AF016983D5
:104B40003A83EB835C83ED82FE820F831887FC013E
:104B50003296859194919A878987FD013296859145
:104B600094919C878B87CE010196B601A5010E9486
:104B7000F1242C960FB6F894DEBF0FBECDBFCF91B7
:104B8000DF911F910F91FF90EF90DF90CF90BF903A
:104B9000AF9008952F923F924F925F926F927F92C3
:104BA0008F929F92AF92BF92CF92DF92EF92FF923D
:104BB0000F931F93DF93CF93CDB7DEB72E970FB62A
:104BC000F894DEBF0FBECDBF2B012D871801EE86F6
:104BD0007C2DC42EDD24CC0CDD1CF201EC0DFD1D62
:104BE0002081318179010027F7FC0095102FED829B
:104BF000FE820F831887A82FB0E0AA0FBB1F3501D4
:104C0000882477FC8094982C60E002C079018A01A6
:104C10006F5FA62EBB24AA9EF001AB9EF00DBA9E3C
:104C2000F00D1124E40DF51DEC0DFD1D8081918129
:104C30009C01442737FD4095542F2615370548051C
:104C4000590514F4671710F3E982FA820B831C8369
:104C50002D833E834F8358878D85282F30E0220F88
:104C6000331F8E85A82FB0E00894A108B108A29E3A
:104C7000F001A39EF00DB29EF00D11240894A11C2A
:104C8000B11CE20DF31DAA0FBB1FEA0FFB1F8081B1
:104C900091819A878987A29EC001A39E900DB29EA2
:104CA000900D1124820D931DA80FB91F8D919C9119
:104CB0009C878B87CE010196B401A3010E947324C7
:104CC0002E960FB6F894DEBF0FBECDBFCF91DF9109
:104CD0001F910F91FF90EF90DF90CF90BF90AF901A
:104CE0009F908F907F906F905F904F903F902F900C
:104CF00008959091CF02892F8F5F9093D2048F5F98
:104D00008093CF0281508093D3048091D0028F5F33
:104D10008093D00281508093D4046CE271E00E94B1
:104D2000481E80E98093B80008958091E50890912D
:104D3000E60801969093E6088093E5081092BC007F
:104D40001092C3078091D20461E30E940D1E089562
:104D5000BF92CF92DF92EF92FF920F931F934CEB93
:104D6000C42ED12CF6011082E0E9F1E03197F1F781
:104D700094EAF601908308E512E0F8013197F1F723
:104D8000F8013197F1F73BEBE32EF12C90EDF701B1
:104D900090839081908324E8B22EF601B082F801CE
:104DA0003197F1F7F8013197F1F7F7018083F601B8
:104DB000B082C8010197F1F7C8010197F1F7862F7A
:104DC0000E945C24F7018083F601B082C80101973C
:104DD000F1F7C8010197F1F784E980831092C307C6
:104DE0001F910F91FF90EF90DF90CF90BF900895AB
:104DF000A62FB82FB1505B2F569556955B0F62309A
:104E000088F0E4E2F3E0A2502A2F30E0AE5F2B5DA1
:104E10003C4F849167E00E94AB87590F3196E217AF
:104E2000F307B9F7252FB370B33051F0842F67E043
:104E30000E94AB87822F890F0E94AB87892F08952C
:104E4000A330A0F32F5FF2CF80E06091F7060E94BD
:104E5000A8268091F70680931409089581E0609157
:104E600051060E94A8268091510680931609089544
:104E700082E06091C1050E94A8268091C1058093BF
:104E8000D805089584E060915F0B0E94A826809168
:104E90005F0B80935606089585E06091CC070E94D1
:104EA000A8268091CC0780931509089586E060912B
:104EB000DE050E94A8268091DE058093C107089533
:104EC0005F926F927F928F929F92AF92BF92CF929A
:104ED000DF92EF92FF920F931F93582E662E742E3F
:104EE000F22E8C2D7CEB872E912CF4011082E0E9C0
:104EF000F1E03197F1F794EAF401908368E5C62E6A
:104F000062E0D62EF6013197F1F7F6013197F1F70D
:104F10005BEBA52EB12C90EDF501908390819083F1
:104F200014E8F4011083F6013197F1F7F601319797
:104F3000F1F7F5011082F4011083F6013197F1F7D2
:104F4000F6013197F1F70E945C24F5018083F401AA
:104F50001083C6010197F1F7C6010197F1F78E2D75
:104F60000E945C24F5018083F4011083C60101973F
:104F7000F1F7C6010197F1F7802F0E945C24F5013B
:104F80008083F4011083C6010197F1F7C6010197F0
:104F9000F1F7F501F082F4011083C6010197F1F7F2
:104FA000C6010197F1F7872D0E945C24F5018083EB
:104FB000F4011083C6010197F1F7C6010197F1F7DB
:104FC000862D0E945C24F5018083F4011083C601C4
:104FD0000197F1F7C6010197F1F7852D0E945C2436
:104FE000F5018083F4011083C6010197F1F7C60132
:104FF0000197F1F784E980831092C3071F910F9105
:10500000FF90EF90DF90CF90BF90AF909F908F90E8
:105010007F906F905F90089590E08091C307882300
:1050200009F491E0892F08958091F706809314097F
:1050300080915106809316098091C1058093D8050F
:1050400040915F0B409356066091CC076093150921
:105050008091DE058093C1070E94F82680935E0B45
:1050600008958F929F92AF92BF92CF92DF92EF926C
:10507000FF920F931F93882EA62EB42E922ED02E21
:10508000FE2C1C2D0E94602710931409F092160923
:10509000D092D805B0925606A09215098092C10709
:1050A00090925E0B1F910F91FF90EF90DF90CF9049
:1050B000BF90AF909F908F9008955091DE054091E2
:1050C000C107541759F190911409983358F0809101
:1050D00016098B3309F45AC0541709F440C021E073
:1050E000822F08955417D9F79091CC078091150914
:1050F0009817A9F790915F0B80915606981779F74A
:105100009091C1058091D805981749F720E09091BA
:10511000510680911609981711F7E2CF9091CC07AC
:1051200080911509981779F690915F0B809156063A
:10513000981749F69091C1058091D805981719F6EE
:105140009091510680911609981709F0BCCF809173
:10515000F70690911409891709F0B7CFC0CF909145
:10516000CC0780911509981709F0B9CF90915F0B82
:1051700080915606981709F0B2CF20E09091C105B2
:105180008091D805981709F0AACFAACF8091D805A9
:10519000873199F0541709F0A2CF9091CC078091F4
:1051A0001509981709F09BCF20E090915F0B809133
:1051B0005606981709F093CF93CF809156068C31FD
:1051C00048F0809115098C3089F020E0541709F0DF
:1051D00086CF86CF541709F082CF20E09091CC077C
:1051E00080911509981709F07ACF7ACF842F90E033
:1051F0000196252F30E08217930761F0541751F084
:10520000433609F06CCF20E0552309F421E081E01A
:10521000282766CF20E064CFF894EAE0F1E08081AF
:105220008062808378940895F894EBE0F1E08081C7
:105230008062808378940895F894EBE0F1E08081B7
:105240008F7D808378940895F89426982E9A9D9A5D
:10525000A5987894089583B180740895F894A598DA
:1052600078940895F894A59A789408958FB78078E3
:105270008093EE02F894839A8B98882309F07894AF
:1052800008958FB780788093EE02F8948B9A8823E4
:1052900009F0789408958FB780788093EE02F8949F
:1052A0008B98882309F0789408958FB7807880933D
:1052B000EE02F89491B328E0922791BB882309F07D
:1052C000789481B388700895982F80FF23C0419A05
:1052D00091FF23C0409A92FF23C0A19A93FF23C05D
:1052E000A09A94FF23C05F9A95FF23C05E9A96FF11
:1052F00023C05D9A87FD23C080910B018F77809337
:105300000B01429A85E0982F9A95F1F742988A9579
:10531000F1F70895419891FDDDCF409892FDDDCFE2
:10532000A19893FDDDCFA09894FDDDCF5F9895FD0A
:10533000DDCF5E9896FDDDCF5D9887FFDDCF809154
:105340000B01806880930B01DCCF0E94642982E30B
:1053500090E00E945A2108955F9A5E9A5D98EBE072
:10536000F1E080818F77808308951F931091D70497
:10537000812F0E94611F882329F080916F0082FF96
:1053800003C080E01F910895812F66E00E940D1EEA
:1053900081E01F9108959091EB02943120F080916B
:1053A000D604882319F19F5F9093EB0224E630E046
:1053B000F8948091840090918500820F931F2EE4D1
:1053C0008032920760F490938B0080938A00B29AA7
:1053D00080916F00846080936F007894089580526C
:1053E0009E4490938B0080938A00F1CF1092EB0241
:1053F000F89444980E94AC29789481E08093D60474
:1054000020E137E2D5CF1F920F920FB60F920BB665
:105410000F921124FF920F931F932F933F934F935B
:105420005F936F937F938F939F93AF93BF93EF930C
:10543000FF938091D6048823F1F01091D6041530A3
:1054400009F4B5C0163008F4A1C0173009F415C12D
:10545000173008F0DCC086E00E9464298091D604F1
:10546000813009F4A1C024E630E08091D6048F5F3A
:105470008093D6045FC01091E802143108F045C053
:105480008091FA06181708F496C0612F70E02091F9
:10549000AC0690E0820F911D681779070CF4E4C008
:1054A000E091E70220E04E2F50E090911809892FFB
:1054B0008850833018F09E3008F491C0222309F4FC
:1054C0008EC08091D6028F3F09F489C0E22FF0E0B0
:1054D000E153FB4C2491FA01EE0FFF1FEE0FFF1F6B
:1054E000CF01880F991F880F991FE80FF91FE60F4A
:1054F000F71FED56F74F2083822F0E9464291F5F0C
:105500001093E80224E630E015C01092E802E09122
:10551000E702EF5FE093E702E43009F451C04498FA
:10552000F0E0E153FA4CE4918E2F0E946429449AF2
:1055300024E630E08091840090918500820F931FD3
:105540002EE480329207D8F490938B0080938A00E7
:10555000B29AFF91EF91BF91AF919F918F917F91FF
:105560006F915F914F913F912F911F910F91FF90FC
:105570000F900BBE0F900FBE0F901F90189580528A
:105580009E4490938B0080938A00E2CF123021F1E9
:105590001330F8F4113001F18FEF8093D60480912D
:1055A000D604813009F05FCF20E931E05ECF8CE096
:1055B0000E94642953CF612F70E0E091E70272CF1F
:1055C0001092E70280916F008B7F80936F00E0E084
:1055D000A6CF133009F056C00E94AC293FCFCA01B4
:1055E000880F991F840F951FFC01EE0FFF1FEE0F10
:1055F000FF1FEE0FFF1FE81BF90BE60FF71FE85A1E
:10560000F94FE081F0E0E153FB4C249164CF183076
:1056100049F0193009F0C0CF449882E00E94642913
:10562000449ABACF87E08093D604F090EA020091C2
:10563000E902EF2DF0E0EE0FFF1FEE0FFF1FEE0F60
:10564000FF1FE00FF11DE157FB4CE4918E2F0E94EC
:1056500064290730F0F01092E90226E02F15E8F0F7
:10566000F394F092EA02FACEE091E7028091E80822
:10567000E81709F017CF2FE516CF80E40E946429C0
:10568000449AECCE143009F087CF88E30E94642955
:10569000E5CE0F5F0093E902E1CE1092EA0210938B
:1056A000D604DCCE9FB790789093EE02F894809168
:1056B0000B01806480930B01992309F0789408957D
:1056C0009FB790789093EE02F89480910B018F7BB6
:1056D00080930B01992309F07894089580915206E4
:1056E000813029F0823061F00E94522B0895809120
:1056F000D8040E94841F8823C9F30E94602B089558
:10570000089582E084BD85EF85BDEEE6F0E08081FE
:1057100082608083089582E08093B00087EF809359
:10572000B100E0E7F0E0808182608083089510920C
:10573000A0008DE08093A100E2E7F0E0808182602C
:1057400080830895BC01EDE7F4E385919491681797
:10575000790709F454C020E02F5F422F50E0FA018E
:10576000EE0FFF1FE40FF51FEE0FFF1FE358FB4C7A
:10577000859194916817790779F7FA01E458FB4C01
:1057800084918823F9F4F42FEE27E559F44FDA01D8
:10579000A052BA4F90818C91981721F1FA01EE53E3
:1057A000FA4F81E08083FA01E295F295F07FFE27BF
:1057B000E07FFE27EA5CF64F80819181019691831C
:1057C00080830895813009F0089520912A0981E0AD
:1057D00090E002C0880F991F4A95E2F7282B20938A
:1057E0002A09089520912A0981E090E002C0880FDB
:1057F000991F4A95E2F7282B20932A09089540E043
:1058000050E0E0E0F0E0BACF1F920F920FB60F9297
:105810000BB60F9211242F933F934F935F936F9387
:105820007F938F939F93AF93BF93EF93FF9385B530
:10583000887F85BDEEE6F0E080818D7F808386E401
:1058400090E00E94A22BFF91EF91BF91AF919F91A9
:105850008F917F916F915F914F913F912F910F9019
:105860000BBE0F900FBE0F901F9018951F920F92B6
:105870000FB60F920BB60F9211242F933F934F93B5
:105880005F936F937F938F939F93AF93BF93EF93A8
:10589000FF93E1EBF0E08081887F8083E0E7F0E038
:1058A00080818D7F808382EB90E00E94A22BFF910C
:1058B000EF91BF91AF919F918F917F916F915F9188
:1058C0004F913F912F910F900BBE0F900FBE0F90F5
:1058D0001F9018951F920F920FB60F920BB60F9252
:1058E00011242F933F934F935F936F937F938F93E5
:1058F0009F93AF93BF93EF93FF93E1EAF0E0808132
:10590000887F8083E2E7F0E080818D7F808384EA76
:1059100090E00E94A22BFF91EF91BF91AF919F91D8
:105920008F917F916F915F914F913F912F910F9048
:105930000BBE0F900FBE0F901F901895682F70E050
:105940009B01220F331FCB01880F991F880F991FCE
:10595000880F991F280F391F220F331F26593B4CE0
:10596000F901A591B4913C91AB01475B584FFA0105
:105970002081CB01880F991F880F991FFC01EE0F22
:10598000FF1FEE0FFF1FE80FF91FE859FB4CA59111
:10599000B491F62FEE27E20FF11DE559F44F8C91EB
:1059A00080832F5FFA012083232F30E023FF0EC076
:1059B000FB01E295F295F07FFE27E07FFE27EA5C8F
:1059C000F64F868597850196978786872C7130706C
:1059D000232B61F081E090E002C0880F991F6A9547
:1059E000E2F72091D904282B2093D9040895AF928F
:1059F000BF92CF92DF92EF92FF920F931F93E82E08
:105A0000FF24F701EE53FA4F83E080835701AA0C7D
:105A1000BB1CAA0CBB1C8501000F111F000F111F1E
:105A20000A0D1B1D045F1F4F88E6C82E84E3D82E85
:105A3000C601800F911F0C501040FC01259134913C
:105A4000F9011995F601E00FF11FA591B491FE2D12
:105A5000EE27E559F44F80818C939701220F331F75
:105A6000C701880F991F880F991F880F991F280F4A
:105A7000391F2F5F3F4F220F331F2C0D3D1DF901A2
:105A8000A591B4918C9180648C93C5018E0D9F1D5E
:105A90000196880F991F880F991F8C0D9D1DFC0181
:105AA000A591B4918C9180628C931F910F91FF907E
:105AB000EF90DF90CF90BF90AF900895CF93DF939A
:105AC000DC01E8E6F4E385919491A817B90709F49D
:105AD0006EC030E03F5FC32FD0E0CE01880F991F2A
