:100000000C94FE190C941F1A0C941F1A0C941F1AAE
:100010000C941F1A0C941F1A0C941F1A0C941F1A7C
:100020000C941F1A0C941F1A0C941F1A0C941F1A6C
:100030000C941F1A0C94CA290C941F1A0C941F1AA2
:100040000C941F1A0C946E1E0C9497270C941F1A74
:100050000C941F1A0C9498290C941F1A0C941F1AB4
:100060000C941F1A0C94073B0C945B3B0C94313B93
:100070000C941F1A0C941F1A0C941F1A0C941F1A1C
:100080000C941F1A0C941F1A0C941F1A0C941F1A0C
:100090000C94853B0C94D93B0C94AF3B0C941F1AE9
:1000A0000C941F1A0C941F1A0C94FE290C941F1AFE
:1000B0000C941F1A0C941F1A0C941F1A0C941F1ADC
:1000C0000C941F1A0C941F1A0C941F1A0C94533C76
:1000D0000C94033C0C942B3C0C941F1A0C941F1A88
:1000E0000C941F1A25524B525C526F5225524B52A0
:1000F000AF5183529352A352B65283529352C95274
:10010000C952AF51AF51AF51AF51AF51AF51AF51D4
:10011000AF51AF51AF51AF51AF51AF51AF51D752B6
:10012000E552F4520553F555145635565856F555C3
:100130001456B7557D569B56BA56DC567D569B567F
:10014000FF56FF56B755075780553E577557075707
:100150008055B755B755B755B257DC57B257DC572E
:10016000F5551456065817582E58D3550E5B0E5B8E
:10017000C55AC55A0E5B0E5BD1590E5B0E5BC55A54
:10018000C55A0E5B0E5BA15AA15AD159895A895A98
:10019000895A895A895A895AD159D159D159895A72
:1001A000895A895A895A6B5A6B5A4E5A4E5A165A5C
:1001B000165AF65DED5DE55DDA5DD45DCB5DC25D41
:1001C000BC5DB45DAE5DA65DA05D985DBC5DA05DEF
:1001D0008F5D885D815D7A5D735D6C5D655D885D59
:1001E0006C5D5C5D555D475D405D325D125D215D1E
:1001F000EB5C9E5CE65CD85CFD68EF68E3685C6382
:100200008F6344693369D568C968BB68AF68A16802
:10021000956887687F681868076868674F67F2673E
:1002200080673D672B670A67F866E066C966A46663
:1002300092666E665C66496A246A126A006ADF69C1
:10024000C769B569A969846A786A6C6A5B6A8869F2
:10025000776963695269FF6BBE6BB36BA06BE56B2B
:10026000D56BF26B9B69EC6ADD6AD16A926A096BA5
:10027000F96A8C6B51661166CE65C165AE653A66EA
:1002800020662C66AB645665F062F06218650E65F8
:10029000B7648965686597659F648D645B6449642C
:1002A0003D640064E663C863BA639D6303750A75C1
:1002B000F674FD74EC74F274DF74E5741175DB741C
:1002C000C37495757D75717559753D7519756E6138
:1002D0006E00696E66006364696E6F70737578583E
:1002E0005B65666745464700616E006E66696E69CC
:1002F000747900CDCCCC3D0AD7233C17B7D13877E1
:10030000CC2B329595E6241FB14F0A000020410006
:1003100000C84200401C4620BCBE4CCA1B0E5AAE50
:10032000C59D74001F1C1F1E1F1E1F1F1E1F1E1F8A
:10033000BC072000450A2000600B04004408500060
:100340004203FFA001FBCF007D67003F44002A333A
:10035000001F22001B19001B10001B53494D434F67
:100360004D5F53494D393030520053494D434F4D45
:100370005F53494D3830300053494D434F4D5F5323
:10038000494D3830304300524459002B4346554EB6
:100390003A2031002B4350494E3A205245414459AE
:1003A0000043616C6C20526561647900534D5320A9
:1003B00052656164790052454D4F544520495000C3
:1003C000434F4E4E454354002B52454345495645F5
:1003D0002C002C20434C4F534544002B50445020BC
:1003E0004445414354004E4F2043415252494552E7
:1003F000004F4B00434F4E4E45435400782C204352
:100400004F4E4E454354204F4B0053455256455294
:10041000204F4B0053455256455220434C4F5345B5
:10042000003E00782C2053454E44204F4B00434C57
:100430004F5345204F4B00782C20434C4F534520C1
:100440004F4B002B4353513A0053485554204F4BC8
:10045000002B435245433A2030002B2B2B004944BC
:10046000454E54494649434154494F4E004154007A
:1004700041542B4950523D393630300041542657B3
:1004800000415445300041542B434C43433D31001F
:1004900041542B444445543D312C302C31004154BF
:1004A0002B43474D4D0041542B4343494400415495
:1004B0002B4946433D322C32004154442A313031DD
:1004C00023004154442B0041542B435553443D31A8
:1004D0002C220041542B434D47463D310041542BC3
:1004E00043534D503D31372C3136372C302C3000B2
:1004F00041542B434D47533D222B0041542B43493C
:10050000504D4F44453D300041542B4349504D4FD1
:1005100044453D310041542B4349504D55583D30E1
:100520000041542B4349504D55583D310041542B07
:1005300043474154543D310041542B4349504353A8
:1005400047503D312C220041542B43535454004119
:10055000542B43494943520041542B43494653527B
:100560000041542B434950544B413D312C33302CE6
:1005700033302C310041542B434950535441525491
:100580003D22554450222C0041542B434950535492
:100590004152543D22544350222C0041542B434994
:1005A000505345525645523D312C0041542B43493E
:1005B000505345525645523D300041542B4349500B
:1005C00053454E443D0041542B434950434C4F53F7
:1005D000453D782C310041542B434950434C4F53F7
:1005E000453D310041542B43495053485554004137
:1005F000542B43474154543D300041542B435351F5
:100600000041544F00303132333435363738396198
:1006100062636465666768696A6B6C6D6E6F707142
:1006200072737475767778797A41424344454647C8
:1006300048494A4B4C4D4E4F5051525354555657C2
:1006400058595AE0E1E2E3E4E5B8BAE6E7E8B3BFB7
:10065000E9EAEBECEDEEEFF0F1F2F3F4F5F6F7F892
:10066000F9FAFBFCFDFEFFC0C1C2C3C4C5A8AAC6FF
:10067000C7C8B2AFC9CACBCCCDCECFD0D1D2D3D4DC
:10068000D5D6D7D8D9DADBDCDDDEDF202B2D3D3C1B
:100690003E2425262E2C3F2127403A2829227C2A39
:1006A000232F00303132333435363738390030318A
:1006B0003233343536373839652B2D2E00000000A3
:1006C000000000000000000CFE08070CFE08070CEC
:1006D000FE70170CFE70170CFE70170CFE70170CD6
:1006E000FE08070000000030F8E02E70175046307A
:1006F000F84C1D30F87017D1E1EEE92000CDEEF096
:10070000ECE000EDE5F22000EDEEF0EC0003070870
:1007100007F0E0E7EC00E7E0ECEA0011071607ED70
:100720002EE72E00ED2EF02E001F072407E2FBEA35
:10073000EB00E2EAEB20002D07320707B4070000C8
:1007400000072A0900000007F806000000202D2DF0
:100750002D20414443206572726F7273202D2D2D20
:1007600020000000000000002052656164206661E6
:10077000696C3A202020207B7B7B7B7B003B070041
:100780000000002043616C696272206661696C3A06
:1007900020207B7B7B7B7B00410700000000204307
:1007A000616C69627220627265616B3A207B7B7B4F
:1007B0007B7B004707000000004D0704030000009A
:1007C000000000000000000000000000001D690B98
:1007D00047240000B30600000000110900000020BB
:1007E000D0E5E6E8EC3A207B7B7B7B7B7B7B7B7BED
:1007F0007B7B7B00CD070000000020C2F0E5ECFF12
:100800003A7B7B30ECF120CAE0EDE0EB3A7B00D3A1
:100810000700000000202D20CAE0EDE0EBFB202DBA
:10082000202020202020202020000000000068231D
:10083000202D20CAE0EBE8E1F0EEE2EAE0202D20F6
:100840002020202000000000000C24202D20CEF8C5
:10085000E8E1EAE8202D2020202020202020200090
:1008600000000000B907DF070502000000000000DB
:1008700000000000000000000000205F5F5F5F5F7D
:100880005F5F5F5F5F5F5F5F5F5F5F5F5F20000075
:100890000020496E7465726E616C206572726F72B1
:1008A0002032313A20000000202020202020414426
:1008B00043206F666620202020202020000000209A
:1008C0002020202020202020202020202020202028
:1008D00020202000000000000000000020202078E0
:1008E000202020002D2D2D2D2D2D2D00DC08E4089D
:1008F000CEF2EAEB2E00D2D1CC31303000D2D1CCC6
:10090000353000D2D1CF31303000D2D1CF353000A8
:10091000507431303000C3F0323100C3F032330054
:10092000F008F608FD0803090A09100916091B0951
:100930005458410054CFD00054C6CA005458CA007D
:10094000F0083009340938093C09EDE5F200F7E513
:10095000F2EDFBE900EDE5F7E5F2EDFBE9004A0910
:100960004E095509313230300032343030003438DD
:1009700030300039363030003134343030003139E5
:1009800032303000323838303000333834303000D4
:10099000353736303000640969096E097309780902
:1009A0007E0984098A0990091E04000000000002E3
:1009B000000000D6725E090001050001000000027F
:1009C000000000D6720000001E06000000000008B3
:1009D0000000005F729609000B35090000000B3D16
:1009E000090000000B37090000000B3F0900000060
:1009F0000B39090000000B41090000000B3B090006
:100A000000000B43090000004350313A7B7B7B7BA5
:100A10007B20204350353A7B7B7B7B7B00D80900D1
:100A20000000004350323A7B7B7B7B7B202043508D
:100A3000363A7B7B7B7B7B00E4090000000043505F
:100A4000333A7B7B7B7B7B20204350373A7B7B7B1D
:100A50007B7B00F009000000004350343A7B7B7B35
:100A60007B7B20204350383A7B7B7B7B7B00FC09DF
:100A700000000000080A040300000000000000005D
:100A80000441000000000000202D2D2D2D204D6F71
:100A9000646275732030202D2D2D2D200000000064
:100AA00000000020D1F7E5F2F7E8EAE82028F1E1BC
:100AB000F0EEF13A2D3E290000000000740A20CF2C
:100AC000E0F0E8F2E5F23A207D7D7D7D7D7D7D7D63
:100AD0002020000000A809000020D1F2EEEF2DE157
:100AE000E8F2FB3A207D202020202020200000007A
:100AF000B809000020424155443A207D7D7D7D7D2E
:100B00006270732020202020000000C809000088A7
:100B10000A050100000000000000000000000000C5
:100B2000000000204D6F646275732030202020206B
:100B30002020202020202000000000000F0B20207B
:100B4000202058202020202020202020202020206D
:100B5000202000000000000000202020205820203D
:100B600020202020202020202020202020000000E5
:100B700000000000202020205820202020202020BD
:100B80002020202020202020000000000000002342
:100B90000B04000000000000000000000000000046
:100BA000000000CDE5F200C4E000A30BA70B1E037C
:100BB0000000000000010000000000AA0B00005728
:100BC00006000000045E0B010000001F000000D6BC
:100BD0002400000004CB07010000000C000000E02E
:100BE0002400000004DE050000000063000000EAAD
:100BF0002400000004C1050000000017000000CC24
:100C000024000000045106000000003B000000C268
:100C10002400000004F706000000003B000000B8BC
:100C2000240000006175746F2020006D616E756195
:100C30006C00636F6E66696700240C2B0C320C6EBF
:100C40006F74207265636F670053494D39303052BD
:100C500020200053494D383030202020003F0C49DF
:100C60000C530C1D34075D0C0000F606000000005C
:100C7000F6060000001DD007000000000200000082
:100C80001341390C00003009000000003109000058
:100C90000000320900000000330900000000490B89
:100CA000000000004A0B000000004B0B0000000099
:100CB0004C0B00000000D3020000000018090000E7
:100CC00000220900000000000600000000000000F3
:100CD00000221D00000000000600000000000000CF
:100CE0000022590000000000060000000000000083
:100CF00000226D000000000006000000000000005F
:100D00000001810000000000FF0000000000000062
:100D10000001820000000000FF0000000000000051
:100D20000001830000000000FF0000000000000040
:100D30000001840000000000FF000000000000002F
:100D40000001850000000000FF000000000000001E
:100D50000001860000000000FF000000000000000D
:100D60000001870000000000FF00000000000000FC
:100D70000001880000000000FF00000000000000EB
:100D80000001890000000000FF00000000000000DA
:100D900000018A0000000000FF00000000000000C9
:100DA00000018B0000000000FF00000000000000B8
:100DB00000018C0000000000FF00000000000000A7
:100DC00000018D0000000000FF0000000000000096
:100DD00000018E0000000000FF0000000000000085
:100DE00000018F0000000000FF0000000000000074
:100DF0000001900000000000FF0000000000000063
:100E00000008A10000000000FFFF0000000000003B
:100E10000008A30000000000FFFF00000000000029
:100E20000008A50000000000FFFF00000000000017
:100E30000008A70000000000FFFF00000000000005
:100E40000001B30000000000FF00000000000000EF
:100E50000001B40000000000FF00000000000000DE
:100E60000001B50000000000FF00000000000000CD
:100E70000001B60000000000FF00000000000000BC
:100E80000001B70000000000FF00000000000000AB
:100E90000001B80000000000FF000000000000009A
:100EA0000001B90000000000FF0000000000000089
:100EB0000001BA0000000000FF0000000000000078
:100EC0000001BB0000000000FF0000000000000067
:100ED0000001BC0000000000FF0000000000000056
:100EE0000001BD0000000000FF0000000000000045
:100EF0000001BE0000000000FF0000000000000034
:100F00000001BF0000000000FF0000000000000022
:100F10000001C00000000000FF0000000000000011
:100F20000001C10000000000FF0000000000000000
:100F30000001C20000000000FF00000000000000EF
:100F40000008B10000000000FFFF000000000000EA
:100F50000008C30064000000FFFF00000000000064
:100F60000201130100000000010000000000000069
:100F70000008070000000000FFFF00000000000064
:100F80000020CCEEE4E5EC207B7B7B7B7B7B7B7BDA
:100F90007B207B7B7B00630C0000000020436F6E96
:100FA00074726F6C206D6F64653A7D7D7D7D7D7D93
:100FB000000000750C0000204D7949507B7B7B2E92
:100FC0007B7B7B2E7B7B7B2E7B7B7B00850C0000E1
:100FD000000020436C49507B7B7B2E7B7B7B2E7BF0
:100FE0007B7B2E7B7B7B009D0C00000000204163FF
:100FF0007469766520636F6E656374696F6E7B7B61
:101000007B00B50C00000000204649464F3A6D6158
:1010100078207B7B2F3730627974652000BB0C0011
:10102000000000202D2D2D2D2D2D2D41504E2D2D2C
:101030002D2D2D2D2D2D2D00000000000000207DD8
:101040007D7D7D7D7D7D7D7D7D7D7D7D7D7D7D7DD0
:101050007D7D000000C10C0000207D7D7D7D7D7DBB
:101060007D7D7D7D7D7D7D7D7D7D7D7D7D00000027
:10107000D10C0000202D2D2D41504E2D55534552A1
:10108000204E414D452D2D2D000000000000002078
:101090007D7D7D7D7D7D7D7D7D7D7D7D7D7D7D7D80
:1010A0007D7D7D000000E10C0000202D2D2D4150A4
:1010B0004E2D50415353574F52442D2D2D2D00008E
:1010C0000000000000207D7D7D7D7D7D7D7D7D7D1E
:1010D0007D7D7D7D7D7D7D7D7D000000F10C0000AE
:1010E000202D2D53656E642055445020746F204987
:1010F000502D2D2D00000000000000204950313AF5
:101100007D7D7D2E7D7D7D2E7D7D7D2E7D7D7D0079
:101110000000010D0000204950323A7D7D7D2E7D7A
:101120007D7D2E7D7D7D2E7D7D7D000000410D002D
:1011300000204950333A7D7D7D2E7D7D7D2E7D7D45
:101140007D2E7D7D7D000000810D00002049503402
:101150003A7D7D7D2E7D7D7D2E7D7D7D2E7D7D7DEF
:10116000000000C10D0000202D2D2D2D20554450D4
:1011700020506F7274202D2D2D2D2D0000000000A9
:1011800000002049503120506F72743A7D7D7D7D82
:101190007D2020202020000000010E00002049506A
:1011A0003220506F72743A7D7D7D7D7D202020201D
:1011B00020000000110E00002049503320506F72B3
:1011C000743A7D7D7D7D7D2020202020000000213F
:1011D0000E00002049503420506F72743A7D7D7D9E
:1011E0007D7D2020202020000000310E0000202DD9
:1011F00020544350204950204669726577616C6CD9
:101200002D2D00000000000000204950313A7D7D66
:101210007D2E7D7D7D2E7D7D7D2E7D7D7D00000062
:10122000410E0000204950323A7D7D7D2E7D7D7D2E
:101230002E7D7D7D2E7D7D7D000000810E000020B5
:101240004950333A7D7D7D2E7D7D7D2E7D7D7D2EA9
:101250007D7D7D000000C10E0000204950343A7DA4
:101260007D7D2E7D7D7D2E7D7D7D2E7D7D7D000095
:1012700000010F0000205443505365727665725090
:101280006F72743A7D7D7D7D7D000000410F00000E
:101290002054696D656F7574205443503A7D7D7D8F
:1012A0007D7D7D63000000510F0000202D2D2D2D30
:1012B0002D2D2D20534D53202D2D2D2D2D2D2D0039
:1012C00000000000000020D0E0F1F1FBEBEAE0209C
:1012D000534D533A2020207D7D7D000000610F009A
:1012E00000202D2D4964656E7469666963617469B7
:1012F0006F6E2D2D2D000000000000002056656748
:101300006120532F4E3A20202020207D7D7D7D7D41
:10131000000000710F0000810F220000000000009B
:101320000000000000000000000000FD06F7061F9E
:1013300016092B13001F16092B1301202020202033
:1013400020202020202020202020202020202000BD
:10135000000020CFE5F0E5E420EFF0EEE4EEEBE670
:10136000E5EDE8E5EC20000000F0E0E1EEF2FB2026
:10137000EFF0EEE2E5F0FCF2E520E2F1E50000003E
:10138000202020202020EDE0F1F2F0EEE9EAE82034
:10139000202020200000000000000000002020206D
:1013A000202020202020202020202020202020203D
:1013B00020000000D1EEF5F0E0EDB8EDEDFBF520FA
:1013C000EDE0F1F2F0EEE5EA00000020202020ED53
:1013D000E520EEE1EDE0F0F3E6E5EDEE2020200083
:1013E000000020202020202020202020202020203D
:1013F000202020202020000000000000000000D15C
:10140000EEF5F0E0EDE8F2FC20EDE0F1F2F0EEE9CF
:10141000EAE83F00000000000000202020C4E02097
:101420002D20EAEDEEEFEAE020C2D5CEC420000088
:1014300000000000002020CDE5F2202D20EAEDEE96
:10144000EFEAE020C2DBD5CEC400000000000000BF
:10145000202020202020202020202020202020208C
:101460002020202000000000000000FF13040300E3
:1014700000000000000000A041000000000000C2C9
:10148000EEF1F2E0EDEEE22E20EDE0F1F2F0EEE929
:10149000EAE83F00000000000000202020C4E02017
:1014A0002D20EAEDEEEFEAE020C2D5CEC420000008
:1014B00000000000002020CDE5F2202D20EAEDEE16
:1014C000EFEAE020C2DBD5CEC4000000000000003F
:1014D000202020202020202020202020202020200C
:1014E00020202020000000000000007F14040300E2
:1014F0000000000000000095410000000000002DE9
:101500002D00FF1405000002150005010002150062
:10151000050200021500D3F1F2ED2FD0E5E7E5F06A
:10152000E2EDE0FF20EAEEEFE8FF0000000000003F
:101530000020D1EEF5F0E0EDE8F2FC2020202020A4
:10154000202020202000000000006B1420C2EEF1BB
:10155000F2E0EDEEE23A7B7B2E7B7B2E32307B7B22
:101560000004150000000020D1EEF1F22E45455098
:10157000524F4D3A207B7B7B7B7B20003513000054
:101580000000161504010000000000000000EE76C7
:10159000000000000000202D2D2D2D2D204D656D0B
:1015A0006F7279202D2D2D2D2D20000000000000C0
:1015B0000020466C6173683A20207B7B7B7B7B201C
:1015C0002020202020002F1300000000204545503F
:1015D000524F4D3A207B7B7B7B7B2020202020209C
:1015E00000351300000000205265736574204545E6
:1015F00050524F4D206661696C20200000000000B1
:101600000000204261636B557020454550524F4D9C
:1016100020202020202000000000008215961505C3
:10162000010000000000000000534D000000000019
:1016300000205F5F5F5F5F5F5F5F5F5F5F5F5F5F58
:101640005F5F5F5F2000000020496E7465726E610D
:101650006C206572726F722031313A2000000020D8
:1016600020202020466C617368206661696C202010
:1016700020202000000020202020202020202020CA
:10168000202020202020202020200000000000001A
:10169000000000205F5F5F5F5F5F5F5F5F5F5F5FB6
:1016A0005F5F5F5F5F5F2000000020496E746572BE
:1016B0006E616C206572726F722031323A200000C8
:1016C0000020202020454550524F4D206661696C16
:1016D000202020202000000020202020202020206A
:1016E000202020202020202020202020000000007A
:1016F0000000000000205F5F5F5F5F5F5F5F5F5F14
:101700005F5F5F5F5F5F5F5F2000000020496E7476
:1017100065726E616C206572726F722031333A208F
:1017200000000020546F74616C206D656D6F7279DC
:10173000206661696C2020000000202020202020ED
:1017400020202020202020202020202020200000D9
:1017500000000000000000000031169316F516008E
:10176000AE0700000007CD0700000000B106000032
:1017700000202D2D2D205363616E204379636C650D
:10178000202D2D2D2000000000000000205363615B
:101790006E4379636C653A2020207B7B7B306D73D0
:1017A000005F1700000000205363616E4379636C93
:1017B0005065725365633A7B7B7B7B006517000045
:1017C0000000204D61785363616E4379636C653A24
:1017D0007B7B7B306D73006B17000000007117047A
:1017E00001000000000000000017410000000000A0
:1017F000000B6A0C00000004B0060000003130202D
:10180000F1E5EA00333020F1E5EA003120ECE8EDC3
:1018100020003320ECE8ED2000313020ECE8ED0032
:10182000FD1704180B18121819181E91010000005A
:1018300000040000000000201800082F0100000034
:1018400000FF0300000000000000103A0700000045
:10185000202D20D1EBF3E6E5E1EDEEE520ECE5ED22
:10186000FE202D200000000000000020C4E8F1EA66
:10187000F0E5F2EDFBE520E2F5EEE4FB20202000B0
:10188000000000006F1E20C4E8F1EAF0E5F2EDFB75
:10189000E520E2FBF5EEE4FB202000000000003331
:1018A0002120C0EDE0EBEEE3EEE2FBE520E2F5EE19
:1018B000E4FB2020200000000000E32120C0EDE038
:1018C000EBEEE3EEE2FBE520E2FBF5EEE4FB2020AD
:1018D0000000000000A32220C0D6CF20202020201E
:1018E0002020202020202020202020000000000098
:1018F000660820D2E5F0ECEEE4E0F2F7E8EAE82052
:1019000020202020202000000000003729204D6FDB
:101910006462757320202020202020202020202099
:101920002000000000008F0B20CCEEE4E5EC20202E
:101930002020202020202020202020200000000027
:10194000001713207B207D7D2E7D7D2E7D7D207DCB
:101950007D3A7D7D3A7D7D00BE0BC40B000020C02A
:10196000E2F2EECFE5F0E5F5CBE5F2EDC2F03A7D3F
:101970007D7D000000AE0B000020CDE0F0E0E1EE48
:10198000F2EAE03A7B7B7B7B7BF77B7BEC00F11719
:101990000000000020D1EEF1F2EEFFEDE8E520EFCF
:1019A000E0ECFFF2E820202000000000001D1620DF
:1019B0005363616E204379636C653A20207B7B7BA7
:1019C000306D73005F170000DD1720CFEEF0EEE3FF
:1019D00020E8EEEDEEE42E3A20207D7D7D7D0000B6
:1019E000003A18000020CFEEE4F1E2E5F2EAE0C6AA
:1019F000CAC83A7D7D7D7D7D7D0000002A180000EB
:101A000020D1F7B8F22EDDCCCD3A7B7B7B7B7B7B84
:101A10007B7B7B7B004A18000000005018110100FE
:101A20000000000000000000000000000000002096
:101A30005F5F5F5F5F5F5F5F5F5F5F5F5F5F5F5FB6
:101A40005F5F2000000020496E7465726E616C203B
:101A50006572726F722034313A2000000054696D53
:101A6000657220616C6C6F636174696F6E20657262
:101A70007200000020202020202020202020202074
:101A80002020202020202020000000000000000056
:101A9000001F40071B07001F46070D07001F4007D8
:101AA0001B07011F46070D07011F40071B07021FE9
:101AB00046070D07021F40071B07031F46070D07B8
:101AC000031F40071B07041F46070D07041F40079D
:101AD0001B07051F46070D07051F40071B07061FAD
:101AE00046070D07061F40071B07071F46070D0780
:101AF000071F40071B07081F46070D07081F400761
:101B00001B07091F46070D07091F40071B070A1F70
:101B100046070D070A1F40071B070B1F46070D0747
:101B20000B1F40071B070C1F46070D070C1F400724
:101B30001B070D1F46070D070D1F40071B070E1F34
:101B400046070D070E1F40071B070F1F46070D070F
:101B50000F1F40071B07101F46070D07101F4007E8
:101B60001B07111F46070D0711201401000000007C
:101B70000000000000002907002014010000000000
:101B800000000000000029070120140100000000EF
:101B900000000000000029070220140100000000DE
:101BA00000000000000029070320140100000000CD
:101BB00000000000000029070420140100000000BC
:101BC00000000000000029070520140100000000AB
:101BD000000000000000290706201401000000009A
:101BE0000000000000002907072014010000000089
:101BF0000000000000002907082014010000000078
:101C00000000000000002907092014010000000066
:101C100000000000000029070A2014010000000055
:101C200000000000000029070B2014010000000044
:101C300000000000000029070C2014010000000033
:101C400000000000000029070D2014010000000022
:101C500000000000000029070E2014010000000011
:101C600000000000000029070F2014010000000000
:101C700000000000000029071020140100000000EF
:101C8000000000000000290711204E313A20207B7F
:101C90007B7B7B207D7D7D7D207B7B7B7B00911A08
:101CA000691B0000204E323A20207B7B7B7B207D0D
:101CB0007D7D7D207B7B7B7B009D1A791B00002036
:101CC0004E333A20207B7B7B7B207D7D7D7D207B7E
:101CD0007B7B7B00A91A891B0000204E343A202010
:101CE0007B7B7B7B207D7D7D7D207B7B7B7B00B533
:101CF0001A991B0000204E353A20207B7B7B7B20ED
:101D00007D7D7D7D207B7B7B7B00C11AA91B000034
:101D1000204E363A20207B7B7B7B207D7D7D7D2085
:101D20007B7B7B7B00CD1AB91B0000204E373A200D
:101D3000207B7B7B7B207D7D7D7D207B7B7B7B0077
:101D4000D91AC91B0000204E383A20207B7B7B7BB0
:101D5000207D7D7D7D207B7B7B7B00E51AD91B0070
:101D600000204E393A20207B7B7B7B207D7D7D7D52
:101D7000207B7B7B7B00F11AE91B0000204E313079
:101D80003A207B7B7B7B207D7D7D7D207B7B7B7BED
:101D900000FD1AF91B0000204E31313A207B7B7B7D
:101DA0007B207D7D7D7D207B7B7B7B00091B091C4F
:101DB0000000204E31323A207B7B7B7B207D7D7D75
:101DC0007D207B7B7B7B00151B191C0000204E3186
:101DD000333A207B7B7B7B207D7D7D7D207B7B7BE5
:101DE0007B00211B291C0000204E31343A207B7BD4
:101DF0007B7B207D7D7D7D207B7B7B7B002D1B394C
:101E00001C0000204E31353A207B7B7B7B207D7D82
:101E10007D7D207B7B7B7B00391B491C0000204E95
:101E200031363A207B7B7B7B207D7D7D7D207B7BDB
:101E30007B7B00451B591C0000204E31373A207B2C
:101E40007B7B7B207D7D7D7D207B7B7B7B00511B95
:101E5000691C0000204E31383A207B7B7B7B207D43
:101E60007D7D7D207B7B7B7B005D1B791C00008959
:101E70001C12000000000000000000000000000034
:101E80000000001FDE07000000000000000000004E
:101E90003707001FDE070000000000000000000000
:101EA0003707011FDE0700000000000000000000EF
:101EB0003707021FDE0700000000000000000000DE
:101EC0003707031FDE0700000000000000000000CD
:101ED0003707041FDE0700000000000000000000BC
:101EE0003707051FDE0700000000000000000000AB
:101EF0003707061FDE07000000000000000000009A
:101F00003707071FDE070000000000000000000088
:101F10003707081FDE070000000000000000000077
:101F20003707091FDE070000000000000000000066
:101F300037070A1FDE070000000000000000000055
:101F400037070B1FDE070000000000000000000044
:101F500037070C1FDE070000000000000000000033
:101F600037070D1FDE070000000000000000000022
:101F700037070E1FDE070000000000000000000011
:101F800037070F20C2FBF5EEE4204E313A20202027
:101F900020207D7D7D7D20000000831E000020C26A
:101FA000FBF5EEE4204E323A20202020207D7D7D7E
:101FB0007D20000000931E000020C2FBF5EEE4200F
:101FC0004E333A20202020207D7D7D7D20000000A2
:101FD000A31E000020C2FBF5EEE4204E343A202080
:101FE0002020207D7D7D7D20000000B31E0000208C
:101FF000C2FBF5EEE4204E353A20202020207D7DE6
:102000007D7D20000000C31E000020C2FBF5EEE431
:10201000204E363A20202020207D7D7D7D2000002E
:1020200000D31E000020C2FBF5EEE4204E373A201C
:10203000202020207D7D7D7D20000000E31E00000B
:1020400020C2FBF5EEE4204E383A20202020207DEF
:102050007D7D7D20000000F31E000020C2FBF5EE18
:10206000E4204E393A20202020207D7D7D7D2000F7
:102070000000031F000020C2FBF5EEE4204E3130CB
:102080003A202020207D7D7D7D20000000131F0050
:102090000020C2FBF5EEE4204E31313A2020202012
:1020A0007D7D7D7D20000000231F000020C2FBF508
:1020B000EEE4204E31323A202020207D7D7D7D20AF
:1020C000000000331F000020C2FBF5EEE4204E317B
:1020D000333A202020207D7D7D7D20000000431F9D
:1020E000000020C2FBF5EEE4204E31343A202020DF
:1020F000207D7D7D7D20000000531F000020C2FB5D
:10210000F5EEE4204E31353A202020207D7D7D7D86
:1021100020000000631F000020C2FBF5EEE4204E0B
:1021200031363A202020207D7D7D7D200000007307
:102130001F0000831F1000000000000000000000CE
:10214000000000000000000B4D0B0000000B4F0BC7
:102150000000000B510B0000000B530B0000000BA4
:10216000550B0000000B570B0000000B590B000033
:10217000000B5B0B000000204E313A207B7B7B7B09
:102180007B204E323A207B7B7B7B7B00472100000B
:102190000000204E333A207B7B7B7B7B204E343A01
:1021A000207B7B7B7B7B00532100000000204E3591
:1021B0003A207B7B7B7B7B204E363A207B7B7B7B74
:1021C0007B005F2100000000204E373A207B7B7BA4
:1021D0007B7B204E383A207B7B7B7B7B006B210016
:1021E0000000007721040300000000000000000050
:1021F000000000000000000ED10700000000FF03F7
:10220000000000000000000ED30700000000FF03E4
:10221000000000000000000ED50700000000FF03D2
:10222000000000000000000ED70700000000FF03C0
:102230000000000000000020C2FBF5EEE4204E315B
:102240003A20202020207D7D7D7D7D000000F7212B
:10225000000020C2FBF5EEE4204E323A2020202080
:10226000207D7D7D7D7D0000000722000020C2FBD7
:10227000F5EEE4204E333A20202020207D7D7D7D28
:102280007D0000001722000020C2FBF5EEE4204E86
:10229000343A20202020207D7D7D7D7D0000002798
:1022A00022000037220400000000000000000000AF
:1022B00000000000000000071A09000000071C09C8
:1022C000000000071E0900000007200900000007A9
:1022D0002209000000072409000000072609000069
:1022E00000202D2D2D20CAE0EDE0EBFB20C0D6CF45
:1022F000202D2D2D2000000000000000204E313A3E
:10230000207B7B7B7B7B204E323A207B7B7B7B7BE5
:1023100000B72200000000204E333A207B7B7B7BFD
:102320007B204E343A207B7B7B7B7B00C3220000EA
:102330000000204E353A207B7B7B7B7B204E363A5B
:10234000207B7B7B7B7B00CF220000000020CEEF38
:10235000EEF0ED2E20EAE0EDE0EB3A207B7B7B7B9C
:102360007B00DB2200000000E122050100000000EC
:10237000000000000000000000000000006E0C00E3
:102380000000046D0C000000046C0C0000000071E3
:102390000C00000004700C000000046F0C00000032
:1023A000202D2D2D20CAE0EBE8E1F0EEE2EAE0205E
:1023B0002D2D2D2000000000000000205A65726FB6
:1023C0003A20207B7B7B207B7B7B207B7B7B2000E0
:1023D0007C23000000002046756C6C3A20207B7B3B
:1023E0007B207B7B7B207B7B7B20008E230000007F
:1023F00000202020202020202020202020202020FD
:10240000202020202000000000000000A023040362
:1024100000000000000000000000000000000000BC
:10242000526573657400496E697469616C697361A2
:10243000740043616C6962726174696F6E00526509
:102440006164004F6666002024262432243E244323
:1024500024094506EC0801094706EC08010949066C
:10246000EC0801094B06EC0801094D06EC080109CE
:102470004F06EC08011E17010000000007000000D5
:1024800000002009001E18010000000007000000E5
:1024900000002009001E19010000000007000000D4
:1024A00000002009001E1A010000000007000000C3
:1024B00000002009001E1B010000000007000000B2
:1024C00000002009001E1C010000000007000000A1
:1024D0000000200900031D0180FFFFFF7F000000B6
:1024E000000000000103200180FFFFFF7F000000CB
:1024F000000000000103230180FFFFFF7F000000B8
:10250000000000000103260180FFFFFF7F000000A4
:10251000000000000103290180FFFFFF7F00000091
:102520000000000001032C0180FFFFFF7F0000007E
:102530000000000001081E01840300004C0400009C
:102540000000000003082101840300004C04000087
:102550000000000003082401840300004C04000074
:102560000000000003082701840300004C04000061
:102570000000000003082A01840300004C0400004E
:102580000000000003082D01840300004C0400003B
:10259000000000000320CAE0EDE0EB204E313A20BD
:1025A0007B7B7B7B7B7B7B7C43005124000000009A
:1025B00020D2E5F0ECEEE4E0F2F7E8EA3A207D7DA7
:1025C0007D7D7D7D0000007524000020D1E4E2E8DF
:1025D000E33A2020202020207D7D7D7D7D7C4300EE
:1025E0000000D524000020CAEEFDF4F4E8F6E8E58A
:1025F000EDF23A20207D7D7D7D7D000000352500B7
:10260000009525040100000000000000000000000B
:10261000000000000020CAE0EDE0EB204E323A203E
:102620007B7B7B7B7B7B7B7C430057240000000013
:1026300020D2E5F0ECEEE4E0F2F7E8EA3A207D7D26
:102640007D7D7D7D0000008524000020D1E4E2E84E
:10265000E33A2020202020207D7D7D7D7D7C43006D
:102660000000E524000020CAEEFDF4F4E8F6E8E5F9
:10267000EDF23A20207D7D7D7D7D00000045250026
:10268000001526040100000000000000000000000A
:10269000000000000020CAE0EDE0EB204E333A20BD
:1026A0007B7B7B7B7B7B7B7C43005D24000000008D
:1026B00020D2E5F0ECEEE4E0F2F7E8EA3A207D7DA6
:1026C0007D7D7D7D0000009524000020D1E4E2E8BE
:1026D000E33A2020202020207D7D7D7D7D7C4300ED
:1026E0000000F524000020CAEEFDF4F4E8F6E8E569
:1026F000EDF23A20207D7D7D7D7D00000055250096
:102700000095260401000000000000000000000009
:10271000000000000020CAE0EDE0EB204E343A203B
:102720007B7B7B7B7B7B7B7C430063240000000006
:1027300020D2E5F0ECEEE4E0F2F7E8EA3A207D7D25
:102740007D7D7D7D000000A524000020D1E4E2E82D
:10275000E33A2020202020207D7D7D7D7D7C43006C
:1027600000000525000020CAEEFDF4F4E8F6E8E5D7
:10277000EDF23A20207D7D7D7D7D00000065250005
:102780000015270401000000000000000000000008
:10279000000000000020CAE0EDE0EB204E353A20BA
:1027A0007B7B7B7B7B7B7B7C430069240000000080
:1027B00020D2E5F0ECEEE4E0F2F7E8EA3A207D7DA5
:1027C0007D7D7D7D000000B524000020D1E4E2E89D
:1027D000E33A2020202020207D7D7D7D7D7C4300EC
:1027E00000001525000020CAEEFDF4F4E8F6E8E547
:1027F000EDF23A20207D7D7D7D7D00000075250075
:102800000095270401000000000000000000000007
:10281000000000000020CAE0EDE0EB204E363A2038
:102820007B7B7B7B7B7B7B7C43006F2400000000F9
:1028300020D2E5F0ECEEE4E0F2F7E8EA3A207D7D24
:102840007D7D7D7D000000C524000020D1E4E2E80C
:10285000E33A2020202020207D7D7D7D7D7C43006B
:1028600000002525000020CAEEFDF4F4E8F6E8E5B6
:10287000EDF23A20207D7D7D7D7D000000852500E4
:102880000015280401000000000000000000000006
:10289000000000000020CAE0EDE0EB204E313A20BD
:1028A0007B7B7B7B7B7B7B7C430051240000012670
:1028B00020CAE0EDE0EB204E323A207B7B7B7B7B35
:1028C0007B7B7C430057240000812620CAE0EDE09A
:1028D000EB204E333A207B7B7B7B7B7B7B7C4300F6
:1028E0005D240000012720CAE0EDE0EB204E343AE1
:1028F000207B7B7B7B7B7B7B7C4300632400008194
:102900002720CAE0EDE0EB204E353A207B7B7B7B35
:102910007B7B7B7C430069240000012820CAE0ED1A
:10292000E0EB204E363A207B7B7B7B7B7B7B7C43C2
:10293000006F240000812895280600000000000098
:10294000000000000000000000000000000000B6D1
:102950000600000000B70600000000B806000000F6
:1029600008310100000000FFFF000000000000002F
:1029700008510100000000FFFF00000000000000FF
:1029800008710100000000FFFF00000000000000CF
:1029900020CDEEECE5F020EAE0EDE0EBE0202020B9
:1029A000207B7B7B004E290000000020D1EEF1F25D
:1029B000EEFFEDE8E520E2F5EEE4E0207B7B7B0036
:1029C00054290000000020D1EEF1F2EEFFEDE8E521
:1029D00020EAE0EDE0EBE07B7B7B005A2900000081
:1029E0000020D2E0EDF2E8E4F0E5E1E5E7E32020C5
:1029F0007D7D7D7D7D0000006029000020D2E4EE19
:102A0000E7E2EEEDE02020202020207D7D7D7D7D11
:102A10000000007029000020D2EFEEE2F22EE4EE7A
:102A2000E7E2EEEDE0207D7D7D7D7D0000008029E8
:102A300000009029060000000000000000000000D7
:102A400000000000000020CAE0EDE0EB2031202073
:102A50002020202020202020202000000000003204
:102A60002A810F2200022B0000000000000000005D
:102A7000000000000000BA06000000202D47534D62
:102A80002DF1E8E3EDE0EBE8E7E0F2EEF02D2000D9
:102A900000000000022B20D1EBF3E6E5E1EDEEE5CE
:102AA0002020202020202020202000000000001BCB
:102AB0001A20CCEEE4E5EC2020202020202020204D
:102AC00020202020200000000000612A20CDE0F11D
:102AD000F2F0EEE9EAE020EAE0EDE0EBEEE22020C1
:102AE0000000000000322A20D1EEF1F22E6FE1E763
:102AF000E2EEEDE0202020207B7B7B00752A0000A9
:102B000000007B2A0500022B0000000000000000EE
:102B100000000000000000008D4194418058D8530F
:102B20002A5CCF5B0702C306E3060000E1F69108CA
:102B300030F80E2818FCA2370CFEEA460000496562
:102B4000E803A683D007FFFFF4170000DFF6460472
:102B500030F8130C24FAFE1318FCC61B0CFE6B2372
:102B60000000032BF4019A32E803303ADC05C94136
:102B7000D007FFFFBD380000F6F5C2380CFEE24674
:102B80000000B662E803967DD007AE97B80BEAB0B6
:102B9000A00F54C98813E2E07017FFFF971E0000D2
:102BA0001FF65F1C0CFE5631E803D03ED007D24B17
:102BB000B80B7058A00FAA6488136C707017FFFFD1
:102BC0000E47000020F6FE380CFE4862E803C47C85
:102BD000D0076E96B80B50AFA00F56C7881394DE7F
:102BE0007017F6F4581BFFFF8B1F00001EF61C1A0F
:102BF0000CFE642DE803C639D007C445B80B6851F4
:102C0000A00F9E5C88137A677017FFFFCE4F0000FD
:102C1000D5F67D1D0CFE8B2500008F2DF40192351D
:102C2000E803953DDC0563420807FFFF3E350000E1
:102C300090019901DC057C07B80B8E1588131B1FCA
:102C40007017302A581BC436401FB6442823F2534D
:102C500010275A64F82AD075E02E4088C832789B35
:102C6000B03650AF983A82C3803ED2D76842FFFF59
:102C7000384A060007000008010802080308040893
:102C80000508000102030405060708090A0B0C0DDC
:102C90000E0F0701080106014000070108010601A7
:102CA00080000401050103018000210022002000B2
:102CB000010021002200200002002100220020004B
:102CC0000400210022002000080021002200200032
:102CD00010002100220020002000210022002000FE
:102CE0004000210022002000800033003400320028
:102CF0000400040105010301400004010501030172
:102D00002000040105010301100004010501030175
:102D1000080004010501030102010401050103018A
:102D200004012B50445000434C4F5300504F535418
:102D30000047455420000D0A002B4353513A2025EB
:102D40006868752C2568687500256868752C2043AF
:102D50004C4F534544004F4B00256868752025684B
:102D6000687520256868752025686875004E4F20B5
:102D7000434152524945520042555359004F4B006E
:102D80002B434C43433A20312C302C362C004154F9
:102D9000480D0041542B435245433D342C22433AC5
:102DA0005C557365725C4E6F74436F6E6669726DCD
:102DB0002E616D72222C302C3130300D0041542B9D
:102DC000435245433D342C22433A5C557365725C53
:102DD000436F6E6669726D2E616D72222C302C31DC
:102DE00030300D002B435245433A20300041542BE4
:102DF000435245433D350D002B434C43433A20336A
:102E00002C302C36002B434C43433A20322C302CB0
:102E100036002B434C43433A20312C302C36002BC8
:102E200044544D463A2031002B435245433A20301A
:102E30000041542B435245433D342C22433A5C55C8
:102E40007365725C436F6E6669726D52657175650C
:102E500073742E616D72222C302C3130300D002BAA
:102E6000435245433A2030002E616D72222C302CA3
:102E70003130300D0041542B435245433D342C2218
:102E8000433A5C557365725C416C61726D002B4313
:102E90004C43433A20312C302C362C002B434C43EE
:102EA000433A20312C302C362C002B434C43433AF0
:102EB00020312C302C362C002B434C43433A20310C
:102EC0002C302C302C002B434C43433A20312C30F7
:102ED0002C302C002B434C43433A20312C302C30E7
:102EE0002C002B434C43433A20332C302C332C0002
:102EF0002B434C43433A20322C302C332C002B43B1
:102F00004C43433A20312C302C332C002B434C4380
:102F1000433A20332C302C362C002B434C43433A7D
:102F200020322C302C362C002B434C43433A20319A
:102F30002C302C362C002B434C43433A20332C307E
:102F40002C322C002B434C43433A20322C302C3271
:102F50002C002B434C43433A20312C302C322C0094
:102F60002B434C43433A20332C302C36002B434C1C
:102F700043433A20322C302C36002B434C43433A07
:102F800020312C302C36002B44544D463A20310051
:102F9000CE00C800C900CA00CD00CC00101F161F0B
:102FA0001A1F1B1F00460047001529B200B3001F5F
:102FB00029A400A8002B290004061F06040000060F
:102FC000090906000000000008080E0F1F0F060088
:102FD000000E111C110E000E11101C10110E000A13
:102FE000000C0404040E000A0E040404040E000085
:102FF00000000000000000FFFFFFFFFFFFFFFFFFDA
:10300000FFFFFFFFFFFFFF0002FFFFFFFFFFFFFFCC
:10301000FFFFFFFFFFFFFF20212223242526272873
:10302000292A2B2C2D2E2F30313233343536373898
:10303000393A3B3C3D3E3F40414243444546474888
:10304000494A4B4C4D4E4F50515253545556575878
:10305000595A5B5C5D5E5F60616263646566676868
:10306000696A6B6C6D6E6F70717273747576777858
:10307000797A7B017DE97FFFFFFFFFFFFFFFFFFF05
:10308000FFFFFFFFFFFFFFFFFFFFFFFFFFFFFFFF50
:10309000FFFFFFFFFFFFFFFFFFFFFFFFFFFFD9A2C3
:1030A000FF04FFFFFFFF06FFFF4969FFFFFFDAB5DF
:1030B000FF03FFFFFFFF0541A042A1E045A3A4A538
:1030C000A64BA74D484FA8504354A9AA58E1ABAC12
:1030D000E2ADAE62AFB0B161B2B3B4E365B6B7B85A
:1030E000B9BABBBCBD6FBE7063BF79E478E5C0C13F
:1030F000E6C2C3C4C5C6C780C094D400010203049D
:10310000050600C0C101C30302C2C60607C705C544
:10311000C404CC0C0DCD0FCFCE0E0ACACB0BC909FF
:1031200008C8D81819D91BDBDA1A1EDEDF1FDD1D0F
:103130001CDC14D4D515D71716D6D21213D311D13F
:10314000D010F03031F133F3F23236F6F737F5358F
:1031500034F43CFCFD3DFF3F3EFEFA3A3BFB39F9BF
:10316000F83828E8E929EB2B2AEAEE2E2FEF2DED8F
:10317000EC2CE42425E527E7E62622E2E323E121FF
:1031800020E0A06061A163A3A26266A6A767A5650F
:1031900064A46CACAD6DAF6F6EAEAA6A6BAB69A97F
:1031A000A86878B8B979BB7B7ABABE7E7FBF7DBD8F
:1031B000BC7CB47475B577B7B67672B2B373B171BF
:1031C00070B050909151935352929656579755958F
:1031D00094549C5C5D9D5F9F9E5E5A9A9B5B99593F
:1031E0005898884849894B8B8A4A4E8E8F4F8D4D0F
:1031F0004C8C44848545874746868242438341817F
:10320000804000C1814001C0804101C0804100C1B7
:10321000814001C0804100C1814000C1814001C0A6
:10322000804101C0804100C1814000C1814001C096
:10323000804100C1814001C0804101C0804100C186
:10324000814001C0804100C1814000C1814001C076
:10325000804100C1814001C0804101C0804100C166
:10326000814000C1814001C0804101C0804100C156
:10327000814001C0804100C1814000C1814001C046
:10328000804101C0804100C1814000C1814001C036
:10329000804100C1814001C0804101C0804100C126
:1032A000814000C1814001C0804101C0804100C116
:1032B000814001C0804100C1814000C1814001C006
:1032C000804100C1814001C0804101C0804100C1F6
:1032D000814001C0804100C1814000C1814001C0E6
:1032E000804101C0804100C1814000C1814001C0D6
:1032F000804100C1814001C0804101C0804100C1C6
:10330000814000407A10F35A00A0724E1809001054
:10331000A5D4E80000E87648170000E40B5402004A
:1033200000CA9A3B000000E1F50500008096980075
:10333000000040420F000000A0860100000010279E
:1033400000000000E803000000006400000000002E
:103350000A00000000000100000000002C76D88860
:10336000DC674F0823DFC1DFAE59E1B1B796E5E373
:10337000E453C63AE651997696E8E6C28426EB898C
:103380008C9B62ED407C6FFCEFBC9C9F40F2BAA529
:103390006FA5F490055A2AF75C936B6CF9676DC1C1
:1033A0001BFCE0E40D47FEF520E6B500D0ED902EC5
:1033B0000300943577050080841E080000204E0A23
:1033C000000000C80C333333330F986E1283114161
:1033D000EF8D2114893BE65516CFFEE6DB18D1842C
:1033E0004B381BF77C1D901DA4BBE4242032847253
:1033F0005E228100C9F124ECA1E53D2711241FBE06
:10340000CFEFD1E2DEBFCDBF00E00CBF12E0A0E005
:10341000B2E0E8ECF9E001E00BBF02C007900D92CA
:10342000AA3DB107D9F71CE0AAEDB2E001C01D9298
:10343000A337B107E1F70E9415760C94F77F0C943F
:103440000000FC0180810895FC0184910895FC0135
:1034500025913491C9010895FC012591359145913B
:103460005491B901CA010895A0E0B0E080509040A5
:10347000AF4FBF4FABBFFC0187910895FC01849112
:103480000895FC0125913491C90108956F927F92AE
:103490008F929F92AF92BF92CF92DF92EF92FF9264
:1034A0000F931F93CF93DF933C01EB0149015A0126
:1034B000C12ED02E2115310541055105F9F0EE241C
:1034C000FF248701CE018E0D9F1DF3011995D8268B
:1034D0002D2D30E0C9018E5F9D4CFC01D490DC2481
:1034E0002E5F3E4CF901C4900894E11CF11C011DB3
:1034F000111DE814F9040A051B0520F39C2D80E03A
:103500002D2D30E0282B392BC901DF91CF911F9150
:103510000F91FF90EF90DF90CF90BF90AF909F9072
:103520008F907F906F9008950F931F930FEF1FEF71
:103530000E94461A1F910F9108950F931F9384E2E2
:103540009AE160E070E020E030E041E050E00E946D
:10355000941A8C0184E39AE160E070E020E030E0AE
:1035600043E050E00E94461A1F910F910895CF92B8
:10357000DF92EF92FF920F931F9394EEC92E9FE478
:10358000D92E88E9E82E81E0F82E970140E050E03E
:10359000C60160E070E00E94941A8C012BEF3FE0BE
:1035A0002E193F0940E050E0C60165E070E0E60EEC
:1035B000F71EB7010E94461A1F910F91FF90EF90DE
:1035C000DF90CF900895789408958FB78078809396
:1035D000EE02F89408958091EE02882309F0789421
:1035E0000895A8952FE088E190E00FB6F894A8958B
:1035F000809360000FBE2093600008958091DA02EE
:103600008F5F8093DA02815008958091CC028F5FA2
:103610008093CC02815008958091CD028F5F80937A
:10362000CD02815008958091CE028F5F8093CE02AB
:1036300081500895882339F09091DA02890F8093A0
:10364000DA02892F089590E0892F0895882339F0B0
:103650009091CC02890F8093CC02892F089590E03D
:10366000892F0895882339F09091CD02890F809396
:10367000CD02892F089590E0892F0895882339F08D
:103680009091CE02890F8093CE02892F089590E009
:10369000892F08959091DB02890F8093DB02892F97
:1036A00008959091CF02890F8093CF02892F0895BA
:1036B0009091D002890F8093D002892F0895909124
:1036C000D102890F8093D102892F0895982F3FB797
:1036D00030783093EE02F894482F50E0FA01E1512F
:1036E000FD4F608380818823C1F0969596959695CD
:1036F000E92FF0E0E155FB4F20814770507081E0E9
:1037000090E002C0880F991F4A95E2F780958223C6
:103710008083332309F0789408959695969596952D
:10372000E92FF0E0E155FB4F20814770507081E0B8
:1037300090E002C0880F991F4A95E2F7282B20835A
:10374000E8CF982F3FB730783093EE02F894482FA7
:1037500050E0FA01E950FD4F608380818823C1F079
:10376000969596959695E92FF0E0EF54FB4F2081C2
:103770004770507081E090E002C0880F991F4A9511
:10378000E2F7809582238083332309F078940895AB
:10379000969596959695E92FF0E0EF54FB4F208192
:1037A0004770507081E090E002C0880F991F4A95E1
:1037B000E2F7282B2083E8CF282F3FB730783093CB
:1037C000EE02F894482F50E0FA01EE0FFF1FE15B84
:1037D000FC4F7183608380819181892BC1F0269594
:1037E00026952695E22FF0E0E354FB4F20814770A9
:1037F000507081E090E002C0880F991F4A95E2F76F
:10380000809582238083332309F078940895269548
:1038100026952695E22FF0E0E354FB4F2081477078
:10382000507081E090E002C0880F991F4A95E2F73E
:10383000282B2083E8CFCF93DF93282F3FB7307812
:103840003093EE02F894C82FD0E0FE01EE0FFF1F78
:10385000EE0FFF1FE15FFB4F408351836283738351
:1038600080819181A281B3810097A105B105D1F03A
:10387000269526952695E22FF0E0E653FB4F208112
:10388000C770D07081E090E002C0880F991FCA9580
:10389000E2F7809582238083332309F07894DF91C7
:1038A000CF910895269526952695E22FF0E0E653D0
:1038B000FB4F2081C770D07081E090E002C0880F7C
:1038C000991FCA95E2F7282B2083E6CF4FB740789F
:1038D0004093EE02F894E82FE695E695E695F0E041
:1038E000E155FB4F9081877021E030E002C0220F4C
:1038F000331F8A95E2F7922B9083442309F0789442
:1039000008954FB740784093EE02F894E82FE6957B
:10391000E695E695F0E0EF54FB4F9081877021E04B
:1039200030E002C0220F331F8A95E2F7922B90837A
:10393000442309F0789408954FB740784093EE02FD
:10394000F894E82FE695E695E695F0E0E354FB4F12
:103950009081877021E030E002C0220F331F8A95EA
:10396000E2F7922B9083442309F0789408954FB79F
:1039700040784093EE02F894E82FE695E695E695B8
:10398000F0E0E653FB4F9081877021E030E002C009
:10399000220F331F8A95E2F7922B9083442309F07C
:1039A00078940895E82FE695E695E695F0E0E155E0
:1039B000FB4F2081E82FF0E030E0CF01877090705E
:1039C00002C0359527958A95E2F720FD02C080E078
:1039D0000895E151FD4F9081992319F481E08927E1
:1039E000089591E081E089270895E82FE695E6950E
:1039F000E695F0E0EF54FB4F2081E82FF0E030E057
:103A0000CF018770907002C0359527958A95E2F7AF
:103A100020FD02C080E00895E950FD4F9081992378
:103A200019F481E08927089591E081E089270895BC
:103A30004FB740784093EE02F894E82FE695E6956C
:103A4000E695F0E0E354FB4F2081E82FF0E030E012
:103A5000CF018770907002C0359527958A95E2F75F
:103A600020FD06C020E0442309F07894822F0895B9
:103A7000EE0FFF1FE15BFC4F8081918120E0892BDD
:103A800019F481E02827EFCF21E081E02827EBCF50
:103A90004FB740784093EE02F894E82FE695E6950C
:103AA000E695F0E0E653FB4F2081E82FF0E030E0B0
:103AB000CF018770907002C0359527958A95E2F7FF
:103AC00020FD06C020E0442309F07894822F089559
:103AD000EE0FFF1FEE0FFF1FE15FFB4F8081918113
:103AE000A281B38120E00097A105B10519F481E01E
:103AF0002827E9CF21E081E02827E5CF5FB750787C
:103B00005093EE02F894E82FE695E695E695F0E0FE
:103B1000E155FB4F4081A82FB0E09D012770307028
:103B200081E090E002C0880F991F2A95E2F7482BA8
:103B30004083552309F07894A151BD4F1C920895FC
:103B40005FB750785093EE02F894E82FE695E6952B
:103B5000E695F0E0EF54FB4F4081A82FB0E09D01C7
:103B60002770307081E090E002C0880F991F2A957D
:103B7000E2F7482B4083552309F07894A950BD4FB4
:103B80001C920895E82F5FB750785093EE02F89496
:103B9000A82FA695A695A695B0E0A354BB4F4C912F
:103BA000F0E09F012770307081E090E002C0880F44
:103BB000991F2A95E2F7482B4C93EE0FFF1FE15B0C
:103BC000FC4F11821082552309F078940895E82F54
:103BD0005FB750785093EE02F894A82FA695A6955B
:103BE000A695B0E0A653BB4F4C91F0E09F01277023
:103BF000307081E090E002C0880F991F2A95E2F7AB
:103C0000482B4C93EE0FFF1FEE0FFF1FE15FFB4FA2
:103C10001082118212821382552309F0789408953C
:103C2000EFEEF2E0E80FF11D80810895E7EFF2E09A
:103C3000E80FF11D80810895E82F8FB78078809379
:103C4000EE02F894F0E0EE0FFF1FE15BFC4F0190F5
:103C5000F081E02D882309F07894CF010895E82FB2
:103C60008FB780788093EE02F894F0E0EE0FFF1F9C
:103C7000EE0FFF1FE15FFB4F2081318142815381B5
:103C8000882309F07894B901CA0108958091CF0280
:103C90008835A8F48091D002803688F48091D102D2
:103CA000883268F48091CC02803448F48091CD024F
:103CB000883428F490E08091CE02803208F091E0C0
:103CC000892F08958091CF028F5F8093CF0281501A
:103CD0008093D0046FEF0E94A11B08951F920F9252
:103CE0000FB60F920BB60F9211242F934F935F9341
:103CF0006F937F938F939F93AF93BF93EF93FF93B4
:103D00008091D1048F5F8093D10440E050E0A1E026
:103D1000B0E08091AF04BA016770707090E0062E39
:103D200002C0959587950A94E2F780FD14C0FA01C8
:103D3000E151FD4F8081815080838081882359F437
:103D40002091AF04CD0102C0880F991F6A95E2F758
:103D5000282B2093AF044F5F5F4F48305105C9F6C1
:103D6000FF91EF91BF91AF919F918F917F916F9153
:103D70005F914F912F910F900BBE0F900FBE0F9040
:103D80001F901895A8958091B2079091B30701965E
:103D90009093B3078093B2079091D004E92FF0E09D
:103DA000E950FD4FE081E095E093AE078091B106C8
:103DB0008E1710F4E093B106892F6FEF0E94A11BBC
:103DC00008951092B1060895882339F020EA3FE063
:103DD000F9013197F1F78150D9F70895A0E0B0E0EB
:103DE000BC01CD010E94067F2DEC3CEC4CE45FE36E
:103DF0000E94437F0E94DB83CB01672B31F035E0CB
:103E0000232F2A95F1F70197D9F708956A9A7298A6
:103E1000549A5C9808958EB194E089278EB90895DC
:103E20008BB190E189278BB908950895089508957D
:103E300008950895089508950895089532EA3093F5
:103E4000900029E1209391008FEF9FEF90939700CE
:103E5000809396008DB188618DB9309320012093B5
:103E600021018EE79CE09093270180932601EAE0F0
:103E7000F1E080818861808308956091D10770911D
:103E8000D20780E090E00E94067F28E83FE140E80A
:103E900052E40E94437F0E94DB83262F9FB7F89451
:103EA000709399002093980097FF01C078946091D7
:103EB000D3077091D40780E090E00E94067F28E845
:103EC0003FE140E852E40E94437F0E94DB83262FBB
:103ED0009FB7F89470939B0020939A0097FF01C0BE
:103EE00078946091D5077091D60780E090E00E94A9
:103EF000067F25E032E148E450E40E94437F0E94BF
:103F0000DB83262F9FB7F894709329012093280113
:103F100097FF01C078946091D7077091D80780E02F
:103F200090E00E94067F25E032E148E450E40E94E0
:103F3000437F0E94DB83262F8FB780788093EE0229
:103F4000F89470932B0120932A01882309F0789428
:103F500008951F938CB588608CBDF8948091020100
:103F6000877F8093020178948091690B813009F4F6
:103F7000ECC0813030F5F894809102018F7E8093FF
:103F80000201789485E08A95F1F7F8948091020116
:103F900080618093020178948091390764E00E94E7
:103FA000661B8091690B8F5F8093690B17E0F89413
:103FB000809102018860809302017894812F1F9183
:103FC0000895823009F4D2C0833011F017E0EFCFAA
:103FD00088E08EBD0DB407FEFDCF1EBC0DB407FEFC
:103FE000FDCF0EB407FCDAC088E38EBD0DB407FE2A
:103FF000FDCF1EBC0DB407FEFDCF3EB51EBC0DB4FB
:1040000007FEFDCF2EB5932F80E0AC01420F511D6E
:104010009A0110911109163009F419C180E18EBD81
:104020000DB407FEFDCF87E08EBD0DB407FEFDCFBA
:1040300040913907E42FF0E0E151FD4F908184E198
:10404000891B8093B30688E68EBD0DB407FEFDCFB5
:104050001EBC0DB407FEFDCFEEE6FCE08EB58083FE
:104060001EBC0DB407FEFDCF31978CE0EB36F80790
:10407000A9F71EBC0DB407FEFDCF88E78EBD0DB4B9
:1040800007FEFDCF1EBC0DB407FEFDCFE1E7FCE04F
:104090008EB580831EBC0DB407FEFDCF31975CE06A
:1040A000EE36F507A9F71EBC0DB407FEFDCF8091D3
:1040B0006E0C8951833008F085C08091710C883C6A
:1040C00008F480C08C3C08F07DC0E12FF0E0EE0FDA
:1040D000FF1FE65EF64F31832083812F8F5F809331
:1040E0001109873011F410921109E0911109F0E0E3
:1040F000E550FF4C9491F894943008F4CAC0779A34
:10410000809102018B7F80930201292F30E0C90149
:10411000837090700196039708F4B9C0769A20FFD7
:10412000B4C0759A789485E58A95F1F780E18EBDE3
:104130000DB407FEFDCF86E08EBD0DB407FEFDCFAA
:10414000842F64E10E94661B32CF809139070E9460
:10415000D21C882309F43ACF81E09FEF9EBD0DB4B5
:1041600007FEFDCF8830D9F18F5FF8CF88E08EBD94
:104170000DB407FEFDCF1EBC0DB407FEFDCF0EB47F
:1041800007FC45C01092EC0283E08093690B80919C
:10419000390764E10E94661B17E009CF8091390757
:1041A0000E94D21C882309F411CF8091B40790910A
:1041B000B50701969093B5078093B4071092690BE9
:1041C00017E0F5CE8091F8069091F906019690934C
:1041D000F9068093F8061092690B17E0E8CE80E2AA
:1041E0008EBD0DB407FEFDCF84E08EBD0DB407FE7D
:1041F000FDCF80E18EBD0DB407FEFDCF86E48EBD00
:104200000DB407FEFDCF8091390764E2C8CE8091DE
:1042100039070E94D21C882399F080912A09909135
:104220002B09019690932B0980932A098091EC0227
:104230008F5F8093EC028B3198F184E08093690B5F
:104240008091690B833009F4A2CF17E0B0CE809142
:10425000260990912709892B09F4E0CECA018058DC
:104260009E43815A9F4008F4D9CE8091F8069091E0
:10427000F90601969093F9068093F8061092690B5F
:1042800085E08093110917E092CE75984BCF769810
:1042900046CF77988091020184608093020135CFE8
:1042A00080E0CCCFF89484B1807F876084B92B9A6A
:1042B0008FE58CBD7894F89480910101886080939B
:1042C00001018091020188608093020180910101C7
:1042D0008061809301016F9A8091010184608093D5
:1042E00001016D9A6E9A78948091DB028F5F8093C2
:1042F000DB0281508093390786E0809311090E9488
:10430000A91F873091F480912A0990912B09892B5C
:1043100061F48091B4079091B507892B31F48091B5
:10432000F8069091F906892B51F30895482F8823B8
:1043300089F021E030E0C901880F991F220F331F57
:10434000220F331F220F331F280F391F415099F7B7
:10435000C901089521E030E0FBCF1F93182F882377
:10436000A1F021E030E040E050E0CA01B9012AE0CC
:1043700030E040E050E00E9453849B01AC011150BA
:10438000A1F7B901CA011F91089521E030E040E092
:1043900050E0F7CF1F932AE030E040E050E00E9469
:1043A000A584C901DA01BC01CD0161157105810542
:1043B0009105A1F010E01F5F2AE030E040E050E0FE
:1043C0000E94A584C901DA01BC01CD016115710506
:1043D0008105910581F7812F1F91089510E0FBCF92
:1043E000282F6AE00E947284382F3295307F822F06
:1043F0000E947284832F890F0895282F22952F7091
:104400009AE0299F900111248F70820F08952F92B6
:104410003F924F925F926F927F928F929F92AF9254
:10442000BF92CF92DF92EF92FF920F931F93CF93A1
:10443000DF93EC017A018B01288039804A805B8010
:104440006C817D818E819F8126163706480659062C
:1044500009F458C00E94087F5B016C016A857B8566
:10446000882777FD8095982F0E94087F3B014C019B
:10447000C801B7010E94087FA60195010E94098327
:104480007B018C0168857985882777FD8095982F39
:104490000E94087F9B01AC01C401B3010E94098303
:1044A0009B01AC01C801B7010E94437F7B018C01D5
:1044B000C201B1010E94087F9B01AC01C601B50198
:1044C0000E9409839B01AC01C801B7010E946E8361
:1044D000A40193010E940A830E94D683CB01DF913D
:1044E000CF911F910F91FF90EF90DF90CF90BF90F1
:1044F000AF909F908F907F906F905F904F903F9084
:104500002F90089588859985EACF2F923F924F92F8
:104510005F926F927F928F929F92AF92BF92CF9253
:10452000DF92EF92FF920F931F93CF93DF93EC01F3
:104530007A018B01288039804A805B806C817D8183
:104540008E819F81261637064806590609F458C001
:104550000E94067F5B016C016A857B85882777FD59
:104560008095982F0E94087F3B014C01C801B7013C
:104570000E94067FA60195010E9409837B018C01A0
:1045800068857985882777FD8095982F0E94087F18
:104590009B01AC01C401B3010E9409839B01AC01E2
:1045A000C801B7010E94437F7B018C01C201B101A8
:1045B0000E94067F9B01AC01C601B5010E940983E0
:1045C0009B01AC01C801B7010E946E83A401930155
:1045D0000E940A830E94D683CB01DF91CF911F9165
:1045E0000F91FF90EF90DF90CF90BF90AF909F9092
:1045F0008F907F906F905F904F903F902F90089595
:1046000088859985EACFAF92BF92CF92DF92EF92E1
:10461000FF920F931F93DF93CF93CDB7DEB72C9705
:104620000FB6F894DEBF0FBECDBFDC01FC01859153
:1046300094917C0100E010E05B01CC24DD24CD01ED
:104640000496FC0125913491AD01B701F801DC011C
:10465000790100E010E0EA14FB040C051D0578F375
:10466000CA019B01AF0169833A83EB835C83ED82CE
:10467000FE820F831887FC013296859194919A8768
:104680008987FD013296859194919C878B87CE0115
:104690000196B601A5010E9485222C960FB6F894CA
:1046A000DEBF0FBECDBFCF91DF911F910F91FF9065
:1046B000EF90DF90CF90BF90AF9008952F923F92F0
:1046C0004F925F926F927F928F929F92AF92BF9222
:1046D000CF92DF92EF92FF920F931F93DF93CF93CE
:1046E000CDB7DEB72E970FB6F894DEBF0FBECDBFA5
:1046F0002B012D871801EE867C2DC42EDD24CC0CD9
:10470000DD1CF201EC0DFD1D2081318179010027B6
:10471000F7FC0095102FED82FE820F831887A82FDB
:10472000B0E0AA0FBB1F3501882477FC8094982C39
:1047300060E002C079018A016F5FA62EBB24AA9EA9
:10474000F001AB9EF00DBA9EF00D1124E40DF51DA5
:10475000EC0DFD1D808191819C01442737FD409522
:10476000542F261537054805590514F4671710F31B
:10477000E982FA820B831C832D833E834F83588703
:104780008D85282F30E0220F331F8E85A82FB0E0B3
:104790000894A108B108A29EF001A39EF00DB29E5C
:1047A000F00D11240894A11CB11CE20DF31DAA0FF9
:1047B000BB1FEA0FFB1F808191819A878987A29E88
:1047C000C001A39E900DB29E900D1124820D931DE9
:1047D000A80FB91F8D919C919C878B87CE01019664
:1047E000B401A3010E9407222E960FB6F894DEBFF3
:1047F0000FBECDBFCF91DF911F910F91FF90EF9032
:10480000DF90CF90BF90AF909F908F907F906F90F0
:104810005F904F903F902F9008959091CF02892FF5
:104820008F5F9093D2048F5F8093CF0281508093EB
:10483000D3048091D0028F5F8093D0028150809307
:10484000D4046CE271E00E94DC1B80E98093B80024
:1048500008958091E4089091E50801969093E50809
:104860008093E4081092BC001092C3078091D20498
:1048700061E30E94A11B0895BF92CF92DF92EF9255
:10488000FF920F931F934CEBC42ED12CF601108294
:10489000E0E9F1E03197F1F794EAF601908308E559
:1048A00012E0F8013197F1F7F8013197F1F73BEB9E
:1048B000E32EF12C90EDF70190839081908324E812
:1048C000B22EF601B082F8013197F1F7F801319775
:1048D000F1F7F7018083F601B082C8010197F1F783
:1048E000C8010197F1F7862F0E94F021F70180831C
:1048F000F601B082C8010197F1F7C8010197F1F7FD
:1049000084E980831092C3071F910F91FF90EF906D
:10491000DF90CF90BF900895A62FB82FB1505B2F96
:10492000569556955B0F623088F0E4E2F3E0A250B2
:104930002A2F30E0AE5F2B5D3C4F849167E00E94F0
:104940007284590F3196E217F307B9F7252FB37028
:10495000B33051F0842F67E00E947284822F890F58
:104960000E947284892F0895A330A0F32F5FF2CFA5
:1049700080E06091F7060E943C248091F7068093C6
:104980001309089581E0609151060E943C248091B2
:10499000510680931509089582E06091C1050E9437
:1049A0003C248091C1058093D805089584E06091EE
:1049B0005E0B0E943C2480915E0B80935606089506
:1049C00085E06091CB070E943C248091CB078093C7
:1049D0001409089586E06091DE050E943C248091D0
:1049E000DE058093C10708955F926F927F928F9248
:1049F0009F92AF92BF92CF92DF92EF92FF920F936E
:104A00001F93582E662E742EF22E8C2D7CEB872E43
:104A1000912CF4011082E0E9F1E03197F1F794EA8A
:104A2000F401908368E5C62E62E0D62EF601319738
:104A3000F1F7F6013197F1F75BEBA52EB12C90ED74
:104A4000F50190839081908314E8F4011083F601BE
:104A50003197F1F7F6013197F1F7F5011082F40182
:104A60001083F6013197F1F7F6013197F1F70E94C3
:104A7000F021F5018083F4011083C6010197F1F75D
:104A8000C6010197F1F78E2D0E94F021F501808378
:104A9000F4011083C6010197F1F7C6010197F1F700
:104AA000802F0E94F021F5018083F4011083C6015C
:104AB0000197F1F7C6010197F1F7F501F082F401D2
:104AC0001083C6010197F1F7C6010197F1F7872D11
:104AD0000E94F021F5018083F4011083C601019743
:104AE000F1F7C6010197F1F7862D0E94F021F5013B
:104AF0008083F4011083C6010197F1F7C601019785
:104B0000F1F7852D0E94F021F5018083F4011083D7
:104B1000C6010197F1F7C6010197F1F784E9808397
:104B20001092C3071F910F91FF90EF90DF90CF90ED
:104B3000BF90AF909F908F907F906F905F900895FF
:104B400090E08091C307882309F491E0892F0895AC
:104B50008091F7068093130980915106809315097F
:104B60008091C1058093D80540915E0B4093560615
:104B70006091CB07609314098091DE058093C10793
:104B80000E948C2480935D0B08958F929F92AF9228
:104B9000BF92CF92DF92EF92FF920F931F93882ED6
:104BA000A62EB42E922ED02EFE2C1C2D0E94F42464
:104BB00010931309F0921509D092D805B0925606B9
:104BC000A09214098092C10790925D0B1F910F91E2
:104BD000FF90EF90DF90CF90BF90AF909F908F901D
:104BE00008955091DE054091C107541759F19091F5
:104BF0001309983358F0809115098B3309F45AC082
:104C0000541709F440C021E0822F08955417D9F7B2
:104C10009091CB07809114099817A9F790915E0B9A
:104C200080915606981779F79091C1058091D80523
:104C3000981749F720E0909151068091150998172F
:104C400011F7E2CF9091CB0780911409981779F66C
:104C500090915E0B80915606981749F69091C10588
:104C60008091D805981719F69091510680911509F1
:104C7000981709F0BCCF8091F70690911309891716
:104C800009F0B7CFC0CF9091CB0780911409981746
:104C900009F0B9CF90915E0B80915606981709F0F4
:104CA000B2CF20E09091C1058091D805981709F006
:104CB000AACFAACF8091D805873199F0541709F06F
:104CC000A2CF9091CB0780911409981709F09BCF40
:104CD00020E090915E0B80915606981709F093CFD3
:104CE00093CF809156068C3148F0809114098C3016
:104CF00089F020E0541709F086CF86CF541709F0C9
:104D000082CF20E09091CB0780911409981709F089
:104D10007ACF7ACF842F90E00196252F30E082174A
:104D2000930761F0541751F0433609F06CCF20E03F
:104D3000552309F421E081E0282766CF20E064CFE5
:104D4000F894EAE0F1E080818062808378940895AD
:104D5000F894EBE0F1E0808180628083789408959C
:104D6000F894EBE0F1E080818F7D80837894089562
:104D7000F89426982E9A9D9AA5987894089583B1D0
:104D800080740895F894A59878940895F894A59A55
:104D9000789408958FB780788093EE02F894839A80
:104DA0008B98882309F0789408958FB78078809342
:104DB000EE02F8948B9A882309F0789408958FB7BF
:104DC00080788093EE02F8948B98882309F0789489
:104DD00008958FB780788093EE02F89491B328E01D
:104DE000922791BB882309F0789481B38870089545
:104DF000982F80FF23C0419A91FF23C0409A92FFD1
:104E000023C0A19A93FF23C0A09A94FF23C05F9A66
:104E100095FF23C05E9A96FF23C05D9A87FD23C04D
:104E200080910B018F7780930B01429A85E0982F38
:104E30009A95F1F742988A95F1F70895419891FD76
:104E4000DDCF409892FDDDCFA19893FDDDCFA098F6
:104E500094FDDDCF5F9895FDDDCF5E9896FDDDCFAB
:104E60005D9887FFDDCF80910B01806880930B01F7
:104E7000DCCF0E94F82682E390E00E94EE1E0895A7
:104E80005F9A5E9A5D98EBE0F1E080818F77808396
:104E900008951F931091D704812F0E94F51C882339
:104EA00029F080916F0082FF03C080E01F91089578
:104EB000812F66E00E94A11B81E01F9108959091CF
:104EC000EB02943120F08091D604882319F19F5F82
:104ED0009093EB0224E630E0F89480918400909166
:104EE0008500820F931F2EE48032920760F4909326
:104EF0008B0080938A00B29A80916F0084608093C7
:104F00006F007894089580529E4490938B00809314
:104F10008A00F1CF1092EB02F89444980E94402747
:104F2000789481E08093D60420E137E2D5CF1F92B8
:104F30000F920FB60F920BB60F921124FF920F93A0
:104F40001F932F933F934F935F936F937F938F9311
:104F50009F93AF93BF93EF93FF938091D6048823E1
:104F6000F1F01091D604153009F4B5C0163008F4EC
:104F7000A1C0173009F415C1173008F0DCC086E075
:104F80000E94F8268091D604813009F4A1C024E65D
:104F900030E08091D6048F5F8093D6045FC010917B
:104FA000E802143108F045C08091FA06181708F499
:104FB00096C0612F70E02091AC0690E0820F911DA9
:104FC000681779070CF4E4C0E091E70220E04E2F67
:104FD00050E090911709892F8850833018F09E3047
:104FE00008F491C0222309F48EC08091D6028F3F2D
:104FF00009F489C0E22FF0E0E950F04D2491FA0164
:10500000EE0FFF1FEE0FFF1FCF01880F991F880FB4
:10501000991FE80FF91FE60FF71FEE56F74F208391
:10502000822F0E94F8261F5F1093E80224E630E0EA
:1050300015C01092E802E091E702EF5FE093E7020B
:10504000E43009F451C04498F0E0E950FF4CE49199
:105050008E2F0E94F826449A24E630E08091840046
:1050600090918500820F931F2EE480329207D8F42E
:1050700090938B0080938A00B29AFF91EF91BF9139
:10508000AF919F918F917F916F915F914F913F91E0
:105090002F911F910F91FF900F900BBE0F900FBE9D
:1050A0000F901F90189580529E4490938B00809390
:1050B0008A00E2CF123021F11330F8F4113001F1FF
:1050C0008FEF8093D6048091D604813009F05FCFB2
:1050D00020E931E05ECF8CE00E94F82653CF612FAB
:1050E00070E0E091E70272CF1092E70280916F00CA
:1050F0008B7F80936F00E0E0A6CF133009F056C09D
:105100000E9440273FCFCA01880F991F840F951F27
:10511000FC01EE0FFF1FEE0FFF1FEE0FFF1FE81B3E
:10512000F90BE60FF71FE85AF94FE081F0E0E9507C
:10513000F04D249164CF183049F0193009F0C0CFF8
:10514000449882E00E94F826449ABACF87E0809380
:10515000D604F090EA020091E902EF2DF0E0EE0FA4
:10516000FF1FEE0FFF1FEE0FFF1FE00FF11DE954B1
:10517000F04DE4918E2F0E94F8260730F0F0109247
:10518000E90226E02F15E8F0F394F092EA02FACE55
:10519000E091E7028091E708E81709F017CF2FE5C3
:1051A00016CF80E40E94F826449AECCE143009F021
:1051B00087CF88E30E94F826E5CE0F5F0093E902CF
:1051C000E1CE1092EA021093D604DCCE9FB790781D
:1051D0009093EE02F89480910B01806480930B0110
:1051E000992309F0789408959FB790789093EE02F0
:1051F000F89480910B018F7B80930B01992309F028
:105200007894089580915206813029F0823061F0BF
:105210000E94E62808958091D8040E94181D8823D2
:10522000C9F30E94F4280895089582E084BD85EFB3
:1052300085BDEEE6F0E0808182608083089582E0A3
:105240008093B00087EF8093B100E0E7F0E08081C9
:105250008260808308951092A0008DE08093A10069
:10526000E2E7F0E08081826080830895BC01E5EA96
:10527000FFE2859194916817790709F454C020E002
:105280002F5F422F50E0FA01EE0FFF1FE40FF51FD2
:10529000EE0FFF1FEB55F04D85919491681779073C
:1052A00079F7FA01EC55F04D84918823F9F4F42F45
:1052B000EE27E659F44FDA01A052BA4F90818C9153
:1052C000981721F1FA01EE53FA4F81E08083FA0139
:1052D000E295F295F07FFE27E07FFE27EB5CF64F2C
:1052E000808191810196918380830895813009F0B6
:1052F00008952091290981E090E002C0880F991F4C
:105300004A95E2F7282B209329090895209129092D
:1053100081E090E002C0880F991F4A95E2F7282BA0
:1053200020932909089540E050E0E0E0F0E0BACF92
:105330001F920F920FB60F920BB60F9211242F935C
:105340003F934F935F936F937F938F939F93AF930D
:10535000BF93EF93FF9385B5887F85BDEEE6F0E0C0
:1053600080818D7F808386E490E00E943629FF91C2
:10537000EF91BF91AF919F918F917F916F915F91CD
:105380004F913F912F910F900BBE0F900FBE0F903A
:105390001F9018951F920F920FB60F920BB60F9297
:1053A00011242F933F934F935F936F937F938F932A
:1053B0009F93AF93BF93EF93FF93E1EBF0E0808176
:1053C000887F8083E0E7F0E080818D7F808382EBBF
:1053D00090E00E943629FF91EF91BF91AF919F918C
:1053E0008F917F916F915F914F913F912F910F908E
:1053F0000BBE0F900FBE0F901F9018951F920F922B
:105400000FB60F920BB60F9211242F933F934F9329
:105410005F936F937F938F939F93AF93BF93EF931C
:10542000FF93E1EAF0E08081887F8083E2E7F0E0AB
:1054300080818D7F808384EA90E00E943629FF91ED
:10544000EF91BF91AF919F918F917F916F915F91FC
:105450004F913F912F910F900BBE0F900FBE0F9069
:105460001F901895682F70E09B01220F331FCB010E
:10547000880F991F880F991F880F991F280F391FB0
:10548000220F331F2E56304DF901A591B4913C9156
:10549000AB01475B584FFA012081CB01880F991F60
:1054A000880F991FFC01EE0FFF1FEE0FFF1FE80F83
:1054B000F91FE057F04DA591B491F62FEE27E20FBA
:1054C000F11DE659F44F8C9180832F5FFA01208300
:1054D000232F30E023FF0EC0FB01E295F295F07F11
:1054E000FE27E07FFE27EB5CF64F868597850196C9
:1054F000978786872C713070232B61F081E090E0D4
:1055000002C0880F991F6A95E2F72091D904282BD1
:105510002093D9040895AF92BF92CF92DF92EF9279
:10552000FF920F931F93E82EFF24F701EE53FA4FDB
:1055300083E080835701AA0CBB1CAA0CBB1C85010D
:10554000000F111F000F111F0A0D1B1D045F1F4FBD
:1055500080E9C82E8FE2D82EC601800F911F0C5013
:105560001040FC0125913491F9011995F601E00FE5
:10557000F11FA591B491FE2DEE27E659F44F8081DD
:105580008C939701220F331FC701880F991F880F33
:10559000991F880F991F280F391F2F5F3F4F220F28
:1055A000331F2C0D3D1DF901A591B4918C918064A0
:1055B0008C93C5018E0D9F1D0196880F991F880F32
:1055C000991F8C0D9D1DFC01A591B4918C91806259
:1055D0008C931F910F91FF90EF90DF90CF90BF9031
:1055E000AF900895CF93DF93DC01E0E9FFE285916E
:1055F0009491A817B90709F46EC030E03F5FC32F3C
:10560000D0E0CE01880F991F880F991FFC01EE0F83
:10561000FF1FEE0FFF1FE80FF91FE057F04D8591B8
:105620009491A817B90751F7FE01EE53FA4F808104
:10563000823019F1833028F08630D8F0DF91CF9195
:1056400008958823F1F48C91FC2FEE27E659F44F4E
:105650008083CE01880F991F8C0F9D1F880F991F83
:105660008B55904DFC01A591B4911C92DF91CF9187
:1056700008958C91DF91CF910895832F0E94322A53
:10568000E8CF8130D9F682E0808381E090E00C2E73
:1056900002C0880F991F0A94E2F780952091D904DF
:1056A00028232093D904FE01E75BF84F1082832F53
:1056B0000E94322ACE01880F991F8C0F9D1F880FE0
:1056C000991F8755904DFC0125913491F901199549
:1056D000DF91CF91089530E0C0E0D0E0A5CF0F93E7
:1056E0001F93CF93DF93382FC82FD0E0FE01E75BE5
:1056F000F84F20818091D90490E0032E02C0959547
:1057000087950A94E2F780FF29C0FE01EE0FFF1F84
:10571000EE0FFF1FEE0FFF1FEE0FFF1FE95CF64FAE
:1057200080819181019691838083CE01880F991F9A
:10573000880F991F9C01220F331F220F331F280F40
:10574000391F2056304DF90185919491FC0119952E
:1057500081E0DF91CF911F910F9108952330A8F23E
:105760002250732F60E0FB01E20FF11DE659F44F68
:10577000008111816659744F30E040E050E081E2D1
:105780009AE10E94941A0817190709F0BECFFE018A
:10579000E295F295F07FFE27E07FFE27EB5CF64F67
:1057A00080819181019691838083CE01880F991F1A
:1057B000880F991F9C01220F331F220F331F280FC0
:1057C000391F2E55304DF90185919491FC011995A1
:1057D00080E0BFCFDF92EF92FF920F931F93E9E437
:1057E000F7E0E80FF11DD0809EEFD90E182F00E0F2
:1057F0008AE6E82E8BE0F82EB701600F711F2D2D81
:1058000030E040E050E081E29AE10E94941A0D0DF0
:10581000111DE00EF11EF701918380831F910F91FE
:10582000FF90EF90DF90089570E0AAE6BBE0F82FBC
:10583000E0E0EA0FFB1FE60FF71F418150E0382F31
:1058400020E0260F371FA20FB31F9C9180E0482B4A
:10585000592BCA01089590E020E030E0880F991F8D
:10586000880F991F880F991FFC01E20FF31FEE0F9D
:10587000FF1FEB5CF64F118210822F5F3F4F2830E5
:10588000310591F708952F923F924F925F926F9258
:105890007F928F929F92AF92BF92CF92DF92EF92C0
:1058A000FF920F931F93DF93CF93CDB7DEB7299766
:1058B0000FB6F894DEBF0FBECDBFD82E282F30E034
:1058C0003987288789010E531A4FD8018C91882374
:1058D000B9F18230C9F029960FB6F894DEBF0FBE39
:1058E000CDBFCF91DF911F910F91FF90EF90DF908F
:1058F000CF90BF90AF909F908F907F906F905F9070
:105900004F903F902F90089584E0D8018C938D2D77
:105910000E946F2B8823A1F428853985F22EEE246E
:10592000F701E659F44F9081992371F0F901E052A3
:10593000FA4F8081981741F081E0D8018C93CBCF4A
:1059400081E0F8018083C7CF28843984220C331C7E
:10595000220C331C5101AA0CBB1CAA0CBB1CA20CB0
:10596000B31CEEE9FFE2AE0EBF1EF50125913491A6
:10597000F90119956884798462947294B0EF7B225E
:1059800076246B227624F301EB5CF64F86819781B7
:10599000019697838683688579857695762F662725
:1059A00077956795DB01AA0FBB1FA459B44F9C9153
:1059B00080E0A7014659544FFA012381822E992491
:1059C000882A992A3181353008F052C0333008F4E2
:1059D00072C0FA018081882309F45CC029E4422E58
:1059E00027E0522E88859985480E591EF201808144
:1059F000883009F427C283E08C9393E0F701E659DD
:105A0000F44F8081882381F0992349F08181806857
:105A10008183E885F985E75BF84F85E080838D2DEC
:105A20009D830E94EA2B9D819923A1F52AE63BE004
:105A3000E20EF31ED7018C918823C9F5E885F9851C
:105A4000EE0FFF1FEE0FFF1FEE0FFF1FEE0FFF1FEA
:105A5000E35CF64F8081918101969183808381E0A0
:105A6000F8018083F50185919491FC01199533CF5C
:105A70003F3009F41EC1303109F4FCC0363009F45E
:105A8000BDC0660F771F6459744F81E0FB018083AE
:105A900091E0B4CFF101EE0FFF1FEE0FFF1FE75CA7
:105AA000F64F80819181019691838083BFCF8D2DA8
:105AB0000E948B2A10CF313020F3FA018081882395
:105AC00049F3E9E44E2EE7E05E2E88859985480E7D
:105AD000591EF2018081883009F08DCF8885998523
